{"src/backend/contracts/NFT.sol":{"NFT":{"abi":[{"inputs":[{"internalType":"uint96","name":"_porcentajeReventa","type":"uint96"}],"stateMutability":"nonpayable","type":"constructor"},{"anonymous":false,"inputs":[{"indexed":true,"internalType":"address","name":"owner","type":"address"},{"indexed":true,"internalType":"address","name":"approved","type":"address"},{"indexed":true,"internalType":"uint256","name":"tokenId","type":"uint256"}],"name":"Approval","type":"event"},{"anonymous":false,"inputs":[{"indexed":true,"internalType":"address","name":"owner","type":"address"},{"indexed":true,"internalType":"address","name":"operator","type":"address"},{"indexed":false,"internalType":"bool","name":"approved","type":"bool"}],"name":"ApprovalForAll","type":"event"},{"anonymous":false,"inputs":[{"indexed":true,"internalType":"address","name":"previousOwner","type":"address"},{"indexed":true,"internalType":"address","name":"newOwner","type":"address"}],"name":"OwnershipTransferred","type":"event"},{"anonymous":false,"inputs":[{"indexed":false,"internalType":"uint256","name":"tokenId","type":"uint256"},{"components":[{"internalType":"address payable","name":"account","type":"address"},{"internalType":"uint96","name":"value","type":"uint96"}],"indexed":false,"internalType":"struct LibPart.Part[]","name":"royalties","type":"tuple[]"}],"name":"RoyaltiesSet","type":"event"},{"anonymous":false,"inputs":[{"indexed":true,"internalType":"address","name":"from","type":"address"},{"indexed":true,"internalType":"address","name":"to","type":"address"},{"indexed":true,"internalType":"uint256","name":"tokenId","type":"uint256"}],"name":"Transfer","type":"event"},{"inputs":[{"internalType":"address","name":"to","type":"address"},{"internalType":"uint256","name":"tokenId","type":"uint256"}],"name":"approve","outputs":[],"stateMutability":"nonpayable","type":"function"},{"inputs":[{"internalType":"address","name":"owner","type":"address"}],"name":"balanceOf","outputs":[{"internalType":"uint256","name":"","type":"uint256"}],"stateMutability":"view","type":"function"},{"inputs":[],"name":"cuentaMaestra","outputs":[{"internalType":"address payable","name":"","type":"address"}],"stateMutability":"view","type":"function"},{"inputs":[{"internalType":"uint256","name":"","type":"uint256"}],"name":"entradas","outputs":[{"internalType":"uint256","name":"idEntrada","type":"uint256"},{"internalType":"string","name":"descripcion","type":"string"}],"stateMutability":"view","type":"function"},{"inputs":[{"internalType":"uint256","name":"","type":"uint256"}],"name":"entradasEventos","outputs":[{"internalType":"uint256","name":"idEvento","type":"uint256"},{"internalType":"string","name":"fecha","type":"string"},{"internalType":"string","name":"nombre","type":"string"},{"internalType":"string","name":"descripcion","type":"string"}],"stateMutability":"view","type":"function"},{"inputs":[{"internalType":"uint256","name":"tokenId","type":"uint256"}],"name":"getApproved","outputs":[{"internalType":"address","name":"","type":"address"}],"stateMutability":"view","type":"function"},{"inputs":[{"internalType":"uint256","name":"_tokenId","type":"uint256"}],"name":"getEvent","outputs":[{"components":[{"internalType":"uint256","name":"idEvento","type":"uint256"},{"internalType":"string","name":"fecha","type":"string"},{"internalType":"string","name":"nombre","type":"string"},{"internalType":"string","name":"descripcion","type":"string"}],"internalType":"struct NFT.Evento","name":"","type":"tuple"}],"stateMutability":"view","type":"function"},{"inputs":[{"internalType":"uint256","name":"_tokenId","type":"uint256"}],"name":"getOwner","outputs":[{"internalType":"address","name":"","type":"address"}],"stateMutability":"view","type":"function"},{"inputs":[{"internalType":"uint256","name":"id","type":"uint256"}],"name":"getRaribleV2Royalties","outputs":[{"components":[{"internalType":"address payable","name":"account","type":"address"},{"internalType":"uint96","name":"value","type":"uint96"}],"internalType":"struct LibPart.Part[]","name":"","type":"tuple[]"}],"stateMutability":"view","type":"function"},{"inputs":[{"internalType":"address","name":"owner","type":"address"},{"internalType":"address","name":"operator","type":"address"}],"name":"isApprovedForAll","outputs":[{"internalType":"bool","name":"","type":"bool"}],"stateMutability":"view","type":"function"},{"inputs":[{"internalType":"address","name":"_address","type":"address"},{"internalType":"string","name":"_tokenURI","type":"string"},{"internalType":"string","name":"_descripcion","type":"string"},{"components":[{"internalType":"uint256","name":"idEvento","type":"uint256"},{"internalType":"string","name":"fecha","type":"string"},{"internalType":"string","name":"nombre","type":"string"},{"internalType":"string","name":"descripcion","type":"string"}],"internalType":"struct NFT.Evento","name":"_evento","type":"tuple"}],"name":"mint","outputs":[{"internalType":"uint256","name":"","type":"uint256"}],"stateMutability":"nonpayable","type":"function"},{"inputs":[],"name":"name","outputs":[{"internalType":"string","name":"","type":"string"}],"stateMutability":"view","type":"function"},{"inputs":[],"name":"owner","outputs":[{"internalType":"address","name":"","type":"address"}],"stateMutability":"view","type":"function"},{"inputs":[{"internalType":"uint256","name":"tokenId","type":"uint256"}],"name":"ownerOf","outputs":[{"internalType":"address","name":"","type":"address"}],"stateMutability":"view","type":"function"},{"inputs":[],"name":"porcentajeReventa","outputs":[{"internalType":"uint96","name":"","type":"uint96"}],"stateMutability":"view","type":"function"},{"inputs":[],"name":"renounceOwnership","outputs":[],"stateMutability":"nonpayable","type":"function"},{"inputs":[{"internalType":"uint256","name":"","type":"uint256"},{"internalType":"uint256","name":"","type":"uint256"}],"name":"royalties","outputs":[{"internalType":"address payable","name":"account","type":"address"},{"internalType":"uint96","name":"value","type":"uint96"}],"stateMutability":"view","type":"function"},{"inputs":[{"internalType":"uint256","name":"_tokenId","type":"uint256"},{"internalType":"uint256","name":"_salePrice","type":"uint256"}],"name":"royaltyInfo","outputs":[{"internalType":"address","name":"receiver","type":"address"},{"internalType":"uint256","name":"royaltyAmount","type":"uint256"}],"stateMutability":"view","type":"function"},{"inputs":[{"internalType":"address","name":"from","type":"address"},{"internalType":"address","name":"to","type":"address"},{"internalType":"uint256","name":"tokenId","type":"uint256"}],"name":"safeTransferFrom","outputs":[],"stateMutability":"nonpayable","type":"function"},{"inputs":[{"internalType":"address","name":"from","type":"address"},{"internalType":"address","name":"to","type":"address"},{"internalType":"uint256","name":"tokenId","type":"uint256"},{"internalType":"bytes","name":"_data","type":"bytes"}],"name":"safeTransferFrom","outputs":[],"stateMutability":"nonpayable","type":"function"},{"inputs":[{"internalType":"address","name":"operator","type":"address"},{"internalType":"bool","name":"approved","type":"bool"}],"name":"setApprovalForAll","outputs":[],"stateMutability":"nonpayable","type":"function"},{"inputs":[{"internalType":"bytes4","name":"interfaceId","type":"bytes4"}],"name":"supportsInterface","outputs":[{"internalType":"bool","name":"","type":"bool"}],"stateMutability":"view","type":"function"},{"inputs":[],"name":"symbol","outputs":[{"internalType":"string","name":"","type":"string"}],"stateMutability":"view","type":"function"},{"inputs":[{"internalType":"uint256","name":"_tokenId","type":"uint256"}],"name":"ticketSold","outputs":[{"internalType":"bool","name":"","type":"bool"}],"stateMutability":"view","type":"function"},{"inputs":[{"internalType":"uint256","name":"_tokenId","type":"uint256"}],"name":"ticketUsed","outputs":[{"internalType":"bool","name":"","type":"bool"}],"stateMutability":"view","type":"function"},{"inputs":[],"name":"tokenCount","outputs":[{"internalType":"uint256","name":"","type":"uint256"}],"stateMutability":"view","type":"function"},{"inputs":[{"internalType":"uint256","name":"tokenId","type":"uint256"}],"name":"tokenURI","outputs":[{"internalType":"string","name":"","type":"string"}],"stateMutability":"view","type":"function"},{"inputs":[{"internalType":"address","name":"_from","type":"address"},{"internalType":"address","name":"_to","type":"address"},{"internalType":"uint256","name":"_tokenId","type":"uint256"}],"name":"transferFrom","outputs":[],"stateMutability":"nonpayable","type":"function"},{"inputs":[{"internalType":"address","name":"newOwner","type":"address"}],"name":"transferOwnership","outputs":[],"stateMutability":"nonpayable","type":"function"},{"inputs":[{"internalType":"uint256","name":"_tokenId","type":"uint256"},{"internalType":"uint256","name":"_idEvento","type":"uint256"}],"name":"useTicket","outputs":[{"internalType":"bool","name":"","type":"bool"}],"stateMutability":"nonpayable","type":"function"}],"evm":{"bytecode":{"linkReferences":{},"object":"60806040526000600a553480156200001657600080fd5b50604051620056d6380380620056d683398181016040528101906200003c919062000312565b6040518060400160405280600881526020017f4e465469636b65740000000000000000000000000000000000000000000000008152506040518060400160405280600681526020017f5449434b455400000000000000000000000000000000000000000000000000008152508160009080519060200190620000c09291906200024b565b508060019080519060200190620000d99291906200024b565b505050620000fc620000f06200017d60201b60201c565b6200018560201b60201c565b600160088190555080600b60006101000a8154816bffffffffffffffffffffffff02191690836bffffffffffffffffffffffff16021790555033600b600c6101000a81548173ffffffffffffffffffffffffffffffffffffffff021916908373ffffffffffffffffffffffffffffffffffffffff16021790555050620003d5565b600033905090565b6000600760009054906101000a900473ffffffffffffffffffffffffffffffffffffffff16905081600760006101000a81548173ffffffffffffffffffffffffffffffffffffffff021916908373ffffffffffffffffffffffffffffffffffffffff1602179055508173ffffffffffffffffffffffffffffffffffffffff168173ffffffffffffffffffffffffffffffffffffffff167f8be0079c531659141344cd1fd0a4f28419497f9722a3daafe3b4186f6b6457e060405160405180910390a35050565b828054620002599062000356565b90600052602060002090601f0160209004810192826200027d5760008555620002c9565b82601f106200029857805160ff1916838001178555620002c9565b82800160010185558215620002c9579182015b82811115620002c8578251825591602001919060010190620002ab565b5b509050620002d89190620002dc565b5090565b5b80821115620002f7576000816000905550600101620002dd565b5090565b6000815190506200030c81620003bb565b92915050565b6000602082840312156200032557600080fd5b60006200033584828501620002fb565b91505092915050565b60006bffffffffffffffffffffffff82169050919050565b600060028204905060018216806200036f57607f821691505b602082108114156200038657620003856200038c565b5b50919050565b7f4e487b7100000000000000000000000000000000000000000000000000000000600052602260045260246000fd5b620003c6816200033e565b8114620003d257600080fd5b50565b6152f180620003e56000396000f3fe608060405234801561001057600080fd5b50600436106101da5760003560e01c80637939128111610104578063acdda9ad116100a2578063cad96cca11610071578063cad96cca146105cf578063d7e2e678146105ff578063e985e9c51461062f578063f2fde38b1461065f576101da565b8063acdda9ad14610523578063b88d4fde14610553578063c41a360a1461056f578063c87b56dd1461059f576101da565b80638da5cb5b116100de5780638da5cb5b146104ad57806395d89b41146104cb5780639f181b5e146104e9578063a22cb46514610507576101da565b8063793912811461042e57806382a6c5d21461044c5780638924af741461047c576101da565b80633366a2bc1161017c578063642b5f9b1161014b578063642b5f9b146103945780636d1884e0146103c457806370a08231146103f4578063715018a614610424576101da565b80633366a2bc146102f757806342842e0e1461031557806358ab31f3146103315780636352211e14610364576101da565b8063095ea7b3116101b8578063095ea7b31461025d5780631d4ab5401461027957806323b872dd146102aa5780632a55205a146102c6576101da565b806301ffc9a7146101df57806306fdde031461020f578063081812fc1461022d575b600080fd5b6101f960048036038101906101f491906138ce565b61067b565b6040516102069190614123565b60405180910390f35b61021761073a565b604051610224919061413e565b60405180910390f35b61024760048036038101906102429190613920565b6107cc565b604051610254919061402d565b60405180910390f35b61027760048036038101906102729190613892565b610851565b005b610293600480360381019061028e9190613920565b610969565b6040516102a192919061458d565b60405180910390f35b6102c460048036038101906102bf91906136e1565b610a15565b005b6102e060048036038101906102db9190613949565b610cb8565b6040516102ee9291906140d8565b60405180910390f35b6102ff610e8e565b60405161030c9190614048565b60405180910390f35b61032f600480360381019061032a91906136e1565b610eb4565b005b61034b60048036038101906103469190613920565b610ed4565b60405161035b94939291906145bd565b60405180910390f35b61037e60048036038101906103799190613920565b61109c565b60405161038b919061402d565b60405180910390f35b6103ae60048036038101906103a99190613920565b61114e565b6040516103bb9190614123565b60405180910390f35b6103de60048036038101906103d99190613920565b611178565b6040516103eb9190614520565b60405180910390f35b61040e6004803603810190610409919061367c565b611365565b60405161041b9190614542565b60405180910390f35b61042c61141d565b005b6104366114a5565b6040516104439190614617565b60405180910390f35b61046660048036038101906104619190613920565b6114c3565b6040516104739190614123565b60405180910390f35b61049660048036038101906104919190613949565b6114ed565b6040516104a4929190614063565b60405180910390f35b6104b5611562565b6040516104c2919061402d565b60405180910390f35b6104d361158c565b6040516104e0919061413e565b60405180910390f35b6104f161161e565b6040516104fe9190614542565b60405180910390f35b610521600480360381019061051c91906137ab565b611624565b005b61053d600480360381019061053891906137e7565b61163a565b60405161054a9190614542565b60405180910390f35b61056d60048036038101906105689190613730565b6119a5565b005b61058960048036038101906105849190613920565b611a07565b604051610596919061402d565b60405180910390f35b6105b960048036038101906105b49190613920565b611a19565b6040516105c6919061413e565b60405180910390f35b6105e960048036038101906105e49190613920565b611b6b565b6040516105f69190614101565b60405180910390f35b61061960048036038101906106149190613949565b611c6d565b6040516106269190614123565b60405180910390f35b610649600480360381019061064491906136a5565b611dfa565b6040516106569190614123565b60405180910390f35b6106796004803603810190610674919061367c565b611e8e565b005b600063cad96cca60e01b7bffffffffffffffffffffffffffffffffffffffffffffffffffffffff1916827bffffffffffffffffffffffffffffffffffffffffffffffffffffffff191614156106d35760019050610735565b632a55205a60e01b7bffffffffffffffffffffffffffffffffffffffffffffffffffffffff1916827bffffffffffffffffffffffffffffffffffffffffffffffffffffffff191614156107295760019050610735565b61073282611f86565b90505b919050565b6060600080546107499061493b565b80601f01602080910402602001604051908101604052809291908181526020018280546107759061493b565b80156107c25780601f10610797576101008083540402835291602001916107c2565b820191906000526020600020905b8154815290600101906020018083116107a557829003601f168201915b5050505050905090565b60006107d782612068565b610816576040517f08c379a000000000000000000000000000000000000000000000000000000000815260040161080d906143a0565b60405180910390fd5b6004600083815260200190815260200160002060009054906101000a900473ffffffffffffffffffffffffffffffffffffffff169050919050565b600061085c8261109c565b90508073ffffffffffffffffffffffffffffffffffffffff168373ffffffffffffffffffffffffffffffffffffffff1614156108cd576040517f08c379a00000000000000000000000000000000000000000000000000000000081526004016108c490614440565b60405180910390fd5b8073ffffffffffffffffffffffffffffffffffffffff166108ec6120d4565b73ffffffffffffffffffffffffffffffffffffffff16148061091b575061091a816109156120d4565b611dfa565b5b61095a576040517f08c379a0000000000000000000000000000000000000000000000000000000008152600401610951906142c0565b60405180910390fd5b61096483836120dc565b505050565b600c6020528060005260406000206000915090508060000154908060010180546109929061493b565b80601f01602080910402602001604051908101604052809291908181526020018280546109be9061493b565b8015610a0b5780601f106109e057610100808354040283529160200191610a0b565b820191906000526020600020905b8154815290600101906020018083116109ee57829003601f168201915b5050505050905082565b610a1e81612068565b610a5d576040517f08c379a0000000000000000000000000000000000000000000000000000000008152600401610a54906142a0565b60405180910390fd5b8173ffffffffffffffffffffffffffffffffffffffff16610a7d82611a07565b73ffffffffffffffffffffffffffffffffffffffff161415610ad4576040517f08c379a0000000000000000000000000000000000000000000000000000000008152600401610acb90614340565b60405180910390fd5b8273ffffffffffffffffffffffffffffffffffffffff16610af482611a07565b73ffffffffffffffffffffffffffffffffffffffff1614610b4a576040517f08c379a0000000000000000000000000000000000000000000000000000000008152600401610b4190614500565b60405180910390fd5b600073ffffffffffffffffffffffffffffffffffffffff168373ffffffffffffffffffffffffffffffffffffffff161415610bba576040517f08c379a0000000000000000000000000000000000000000000000000000000008152600401610bb190614460565b60405180910390fd5b600073ffffffffffffffffffffffffffffffffffffffff168273ffffffffffffffffffffffffffffffffffffffff161415610c2a576040517f08c379a0000000000000000000000000000000000000000000000000000000008152600401610c2190614420565b60405180910390fd5b610c35838383612195565b6001600e600083815260200190815260200160002060006101000a81548160ff02191690831515021790555081600f600083815260200190815260200160002060006101000a81548173ffffffffffffffffffffffffffffffffffffffff021916908373ffffffffffffffffffffffffffffffffffffffff160217905550505050565b600080600060096000868152602001908152602001600020805480602002602001604051908101604052809291908181526020016000905b82821015610db2578382906000526020600020016040518060400160405290816000820160009054906101000a900473ffffffffffffffffffffffffffffffffffffffff1673ffffffffffffffffffffffffffffffffffffffff1673ffffffffffffffffffffffffffffffffffffffff1681526020016000820160149054906101000a90046bffffffffffffffffffffffff166bffffffffffffffffffffffff166bffffffffffffffffffffffff168152505081526020019060010190610cf0565b505050509050600081511115610e7e5780600081518110610dfc577f4e487b7100000000000000000000000000000000000000000000000000000000600052603260045260246000fd5b60200260200101516000015161271082600081518110610e45577f4e487b7100000000000000000000000000000000000000000000000000000000600052603260045260246000fd5b6020026020010151602001516bffffffffffffffffffffffff1686610e6a91906147cd565b610e74919061479c565b9250925050610e87565b60008092509250505b9250929050565b600b600c9054906101000a900473ffffffffffffffffffffffffffffffffffffffff1681565b610ecf838383604051806020016040528060008152506119a5565b505050565b600d602052806000526040600020600091509050806000015490806001018054610efd9061493b565b80601f0160208091040260200160405190810160405280929190818152602001828054610f299061493b565b8015610f765780601f10610f4b57610100808354040283529160200191610f76565b820191906000526020600020905b815481529060010190602001808311610f5957829003601f168201915b505050505090806002018054610f8b9061493b565b80601f0160208091040260200160405190810160405280929190818152602001828054610fb79061493b565b80156110045780601f10610fd957610100808354040283529160200191611004565b820191906000526020600020905b815481529060010190602001808311610fe757829003601f168201915b5050505050908060030180546110199061493b565b80601f01602080910402602001604051908101604052809291908181526020018280546110459061493b565b80156110925780601f1061106757610100808354040283529160200191611092565b820191906000526020600020905b81548152906001019060200180831161107557829003601f168201915b5050505050905084565b6000806002600084815260200190815260200160002060009054906101000a900473ffffffffffffffffffffffffffffffffffffffff169050600073ffffffffffffffffffffffffffffffffffffffff168173ffffffffffffffffffffffffffffffffffffffff161415611145576040517f08c379a000000000000000000000000000000000000000000000000000000000815260040161113c90614300565b60405180910390fd5b80915050919050565b60006010600083815260200190815260200160002060009054906101000a900460ff169050919050565b611180613364565b600d6000838152602001908152602001600020604051806080016040529081600082015481526020016001820180546111b89061493b565b80601f01602080910402602001604051908101604052809291908181526020018280546111e49061493b565b80156112315780601f1061120657610100808354040283529160200191611231565b820191906000526020600020905b81548152906001019060200180831161121457829003601f168201915b5050505050815260200160028201805461124a9061493b565b80601f01602080910402602001604051908101604052809291908181526020018280546112769061493b565b80156112c35780601f10611298576101008083540402835291602001916112c3565b820191906000526020600020905b8154815290600101906020018083116112a657829003601f168201915b505050505081526020016003820180546112dc9061493b565b80601f01602080910402602001604051908101604052809291908181526020018280546113089061493b565b80156113555780601f1061132a57610100808354040283529160200191611355565b820191906000526020600020905b81548152906001019060200180831161133857829003601f168201915b5050505050815250509050919050565b60008073ffffffffffffffffffffffffffffffffffffffff168273ffffffffffffffffffffffffffffffffffffffff1614156113d6576040517f08c379a00000000000000000000000000000000000000000000000000000000081526004016113cd906142e0565b60405180910390fd5b600360008373ffffffffffffffffffffffffffffffffffffffff1673ffffffffffffffffffffffffffffffffffffffff168152602001908152602001600020549050919050565b6114256120d4565b73ffffffffffffffffffffffffffffffffffffffff16611443611562565b73ffffffffffffffffffffffffffffffffffffffff1614611499576040517f08c379a0000000000000000000000000000000000000000000000000000000008152600401611490906143c0565b60405180910390fd5b6114a360006123fc565b565b600b60009054906101000a90046bffffffffffffffffffffffff1681565b6000600e600083815260200190815260200160002060009054906101000a900460ff169050919050565b6009602052816000526040600020818154811061150957600080fd5b90600052602060002001600091509150508060000160009054906101000a900473ffffffffffffffffffffffffffffffffffffffff16908060000160149054906101000a90046bffffffffffffffffffffffff16905082565b6000600760009054906101000a900473ffffffffffffffffffffffffffffffffffffffff16905090565b60606001805461159b9061493b565b80601f01602080910402602001604051908101604052809291908181526020018280546115c79061493b565b80156116145780601f106115e957610100808354040283529160200191611614565b820191906000526020600020905b8154815290600101906020018083116115f757829003601f168201915b5050505050905090565b600a5481565b61163661162f6120d4565b83836124c2565b5050565b600060026008541415611682576040517f08c379a0000000000000000000000000000000000000000000000000000000008152600401611679906144c0565b60405180910390fd5b60026008819055506116926120d4565b73ffffffffffffffffffffffffffffffffffffffff166116b0611562565b73ffffffffffffffffffffffffffffffffffffffff1614611706576040517f08c379a00000000000000000000000000000000000000000000000000000000081526004016116fd906143c0565b60405180910390fd5b600a60008154809291906117199061499e565b9190505550611729600a54612068565b15611769576040517f08c379a0000000000000000000000000000000000000000000000000000000008152600401611760906144a0565b60405180910390fd5b61177585600a5461262f565b611781600a548561264d565b61178961338c565b600a5481600001818152505083816020018190525080600c6000600a5481526020019081526020016000206000820151816000015560208201518160010190805190602001906117da9291906133a6565b509050506117e6613364565b836000015181600001818152505083602001518160200181905250836040015181604001819052508360600151816060018190525080600d6000600a5481526020019081526020016000206000820151816000015560208201518160010190805190602001906118579291906133a6565b5060408201518160020190805190602001906118749291906133a6565b5060608201518160030190805190602001906118919291906133a6565b509050506000600e6000600a54815260200190815260200160002060006101000a81548160ff021916908315150217905550600060106000600a54815260200190815260200160002060006101000a81548160ff02191690831515021790555086600f6000600a54815260200190815260200160002060006101000a81548173ffffffffffffffffffffffffffffffffffffffff021916908373ffffffffffffffffffffffffffffffffffffffff16021790555061198e600a54600b600c9054906101000a900473ffffffffffffffffffffffffffffffffffffffff16600b60009054906101000a90046bffffffffffffffffffffffff166126c1565b600a54925050506001600881905550949350505050565b6119b66119b06120d4565b836128ae565b6119f5576040517f08c379a00000000000000000000000000000000000000000000000000000000081526004016119ec90614480565b60405180910390fd5b611a018484848461298c565b50505050565b6000611a128261109c565b9050919050565b6060611a2482612068565b611a63576040517f08c379a0000000000000000000000000000000000000000000000000000000008152600401611a5a90614380565b60405180910390fd5b6000600660008481526020019081526020016000208054611a839061493b565b80601f0160208091040260200160405190810160405280929190818152602001828054611aaf9061493b565b8015611afc5780601f10611ad157610100808354040283529160200191611afc565b820191906000526020600020905b815481529060010190602001808311611adf57829003601f168201915b505050505090506000611b0d6129e8565b9050600081511415611b23578192505050611b66565b600082511115611b58578082604051602001611b40929190614009565b60405160208183030381529060405292505050611b66565b611b61846129ff565b925050505b919050565b606060096000838152602001908152602001600020805480602002602001604051908101604052809291908181526020016000905b82821015611c62578382906000526020600020016040518060400160405290816000820160009054906101000a900473ffffffffffffffffffffffffffffffffffffffff1673ffffffffffffffffffffffffffffffffffffffff1673ffffffffffffffffffffffffffffffffffffffff1681526020016000820160149054906101000a90046bffffffffffffffffffffffff166bffffffffffffffffffffffff166bffffffffffffffffffffffff168152505081526020019060010190611ba0565b505050509050919050565b6000611c7883612068565b611cb7576040517f08c379a0000000000000000000000000000000000000000000000000000000008152600401611cae906142a0565b60405180910390fd5b611cc08361114e565b15611d00576040517f08c379a0000000000000000000000000000000000000000000000000000000008152600401611cf790614160565b60405180910390fd5b81611d0a84611178565b6000015114611d4e576040517f08c379a0000000000000000000000000000000000000000000000000000000008152600401611d4590614280565b60405180910390fd5b3373ffffffffffffffffffffffffffffffffffffffff16611d6e84611a07565b73ffffffffffffffffffffffffffffffffffffffff1614611dc4576040517f08c379a0000000000000000000000000000000000000000000000000000000008152600401611dbb906143e0565b60405180910390fd5b60016010600085815260200190815260200160002060006101000a81548160ff0219169083151502179055506001905092915050565b6000600560008473ffffffffffffffffffffffffffffffffffffffff1673ffffffffffffffffffffffffffffffffffffffff16815260200190815260200160002060008373ffffffffffffffffffffffffffffffffffffffff1673ffffffffffffffffffffffffffffffffffffffff16815260200190815260200160002060009054906101000a900460ff16905092915050565b611e966120d4565b73ffffffffffffffffffffffffffffffffffffffff16611eb4611562565b73ffffffffffffffffffffffffffffffffffffffff1614611f0a576040517f08c379a0000000000000000000000000000000000000000000000000000000008152600401611f01906143c0565b60405180910390fd5b600073ffffffffffffffffffffffffffffffffffffffff168173ffffffffffffffffffffffffffffffffffffffff161415611f7a576040517f08c379a0000000000000000000000000000000000000000000000000000000008152600401611f71906141a0565b60405180910390fd5b611f83816123fc565b50565b60007f80ac58cd000000000000000000000000000000000000000000000000000000007bffffffffffffffffffffffffffffffffffffffffffffffffffffffff1916827bffffffffffffffffffffffffffffffffffffffffffffffffffffffff1916148061205157507f5b5e139f000000000000000000000000000000000000000000000000000000007bffffffffffffffffffffffffffffffffffffffffffffffffffffffff1916827bffffffffffffffffffffffffffffffffffffffffffffffffffffffff1916145b80612061575061206082612aa6565b5b9050919050565b60008073ffffffffffffffffffffffffffffffffffffffff166002600084815260200190815260200160002060009054906101000a900473ffffffffffffffffffffffffffffffffffffffff1673ffffffffffffffffffffffffffffffffffffffff1614159050919050565b600033905090565b816004600083815260200190815260200160002060006101000a81548173ffffffffffffffffffffffffffffffffffffffff021916908373ffffffffffffffffffffffffffffffffffffffff160217905550808273ffffffffffffffffffffffffffffffffffffffff1661214f8361109c565b73ffffffffffffffffffffffffffffffffffffffff167f8c5be1e5ebec7d5bd14f71427d1e84f3dd0314c0f7b2291e5b200ac8c7c3b92560405160405180910390a45050565b8273ffffffffffffffffffffffffffffffffffffffff166121b58261109c565b73ffffffffffffffffffffffffffffffffffffffff161461220b576040517f08c379a0000000000000000000000000000000000000000000000000000000008152600401612202906141c0565b60405180910390fd5b600073ffffffffffffffffffffffffffffffffffffffff168273ffffffffffffffffffffffffffffffffffffffff16141561227b576040517f08c379a000000000000000000000000000000000000000000000000000000000815260040161227290614200565b60405180910390fd5b612286838383612b10565b6122916000826120dc565b6001600360008573ffffffffffffffffffffffffffffffffffffffff1673ffffffffffffffffffffffffffffffffffffffff16815260200190815260200160002060008282546122e19190614827565b925050819055506001600360008473ffffffffffffffffffffffffffffffffffffffff1673ffffffffffffffffffffffffffffffffffffffff16815260200190815260200160002060008282546123389190614746565b92505081905550816002600083815260200190815260200160002060006101000a81548173ffffffffffffffffffffffffffffffffffffffff021916908373ffffffffffffffffffffffffffffffffffffffff160217905550808273ffffffffffffffffffffffffffffffffffffffff168473ffffffffffffffffffffffffffffffffffffffff167fddf252ad1be2c89b69c2b068fc378daa952ba7f163c4a11628f55a4df523b3ef60405160405180910390a46123f7838383612b15565b505050565b6000600760009054906101000a900473ffffffffffffffffffffffffffffffffffffffff16905081600760006101000a81548173ffffffffffffffffffffffffffffffffffffffff021916908373ffffffffffffffffffffffffffffffffffffffff1602179055508173ffffffffffffffffffffffffffffffffffffffff168173ffffffffffffffffffffffffffffffffffffffff167f8be0079c531659141344cd1fd0a4f28419497f9722a3daafe3b4186f6b6457e060405160405180910390a35050565b8173ffffffffffffffffffffffffffffffffffffffff168373ffffffffffffffffffffffffffffffffffffffff161415612531576040517f08c379a000000000000000000000000000000000000000000000000000000000815260040161252890614220565b60405180910390fd5b80600560008573ffffffffffffffffffffffffffffffffffffffff1673ffffffffffffffffffffffffffffffffffffffff16815260200190815260200160002060008473ffffffffffffffffffffffffffffffffffffffff1673ffffffffffffffffffffffffffffffffffffffff16815260200190815260200160002060006101000a81548160ff0219169083151502179055508173ffffffffffffffffffffffffffffffffffffffff168373ffffffffffffffffffffffffffffffffffffffff167f17307eab39ab6107e8899845ad3d59bd9653f200f220920489ca2b5937696c31836040516126229190614123565b60405180910390a3505050565b612649828260405180602001604052806000815250612b1a565b5050565b61265682612068565b612695576040517f08c379a000000000000000000000000000000000000000000000000000000000815260040161268c90614320565b60405180910390fd5b806006600084815260200190815260200160002090805190602001906126bc9291906133a6565b505050565b6126c96120d4565b73ffffffffffffffffffffffffffffffffffffffff166126e7611562565b73ffffffffffffffffffffffffffffffffffffffff161461273d576040517f08c379a0000000000000000000000000000000000000000000000000000000008152600401612734906143c0565b60405180910390fd5b6000600167ffffffffffffffff811115612780577f4e487b7100000000000000000000000000000000000000000000000000000000600052604160045260246000fd5b6040519080825280602002602001820160405280156127b957816020015b6127a661342c565b81526020019060019003908161279e5790505b50905081816000815181106127f7577f4e487b7100000000000000000000000000000000000000000000000000000000600052603260045260246000fd5b6020026020010151602001906bffffffffffffffffffffffff1690816bffffffffffffffffffffffff16815250508281600081518110612860577f4e487b7100000000000000000000000000000000000000000000000000000000600052603260045260246000fd5b60200260200101516000019073ffffffffffffffffffffffffffffffffffffffff16908173ffffffffffffffffffffffffffffffffffffffff16815250506128a88482612b75565b50505050565b60006128b982612068565b6128f8576040517f08c379a00000000000000000000000000000000000000000000000000000000081526004016128ef90614240565b60405180910390fd5b60006129038361109c565b90508073ffffffffffffffffffffffffffffffffffffffff168473ffffffffffffffffffffffffffffffffffffffff16148061297257508373ffffffffffffffffffffffffffffffffffffffff1661295a846107cc565b73ffffffffffffffffffffffffffffffffffffffff16145b8061298357506129828185611dfa565b5b91505092915050565b612997848484612195565b6129a384848484612de6565b6129e2576040517f08c379a00000000000000000000000000000000000000000000000000000000081526004016129d990614180565b60405180910390fd5b50505050565b606060405180602001604052806000815250905090565b6060612a0a82612068565b612a49576040517f08c379a0000000000000000000000000000000000000000000000000000000008152600401612a4090614400565b60405180910390fd5b6000612a536129e8565b90506000815111612a735760405180602001604052806000815250612a9e565b80612a7d84612f7d565b604051602001612a8e929190614009565b6040516020818303038152906040525b915050919050565b60007f01ffc9a7000000000000000000000000000000000000000000000000000000007bffffffffffffffffffffffffffffffffffffffffffffffffffffffff1916827bffffffffffffffffffffffffffffffffffffffffffffffffffffffff1916149050919050565b505050565b505050565b612b24838361312a565b612b316000848484612de6565b612b70576040517f08c379a0000000000000000000000000000000000000000000000000000000008152600401612b6790614180565b60405180910390fd5b505050565b60005b8151811015612dd757600073ffffffffffffffffffffffffffffffffffffffff16828281518110612bd2577f4e487b7100000000000000000000000000000000000000000000000000000000600052603260045260246000fd5b60200260200101516000015173ffffffffffffffffffffffffffffffffffffffff161415612c35576040517f08c379a0000000000000000000000000000000000000000000000000000000008152600401612c2c906144e0565b60405180910390fd5b6000828281518110612c70577f4e487b7100000000000000000000000000000000000000000000000000000000600052603260045260246000fd5b6020026020010151602001516bffffffffffffffffffffffff161415612ccb576040517f08c379a0000000000000000000000000000000000000000000000000000000008152600401612cc290614260565b60405180910390fd5b60096000848152602001908152602001600020828281518110612d17577f4e487b7100000000000000000000000000000000000000000000000000000000600052603260045260246000fd5b60200260200101519080600181540180825580915050600190039060005260206000200160009091909190915060008201518160000160006101000a81548173ffffffffffffffffffffffffffffffffffffffff021916908373ffffffffffffffffffffffffffffffffffffffff16021790555060208201518160000160146101000a8154816bffffffffffffffffffffffff02191690836bffffffffffffffffffffffff16021790555050508080612dcf9061499e565b915050612b78565b50612de28282613304565b5050565b6000612e078473ffffffffffffffffffffffffffffffffffffffff16613341565b15612f70578373ffffffffffffffffffffffffffffffffffffffff1663150b7a02612e306120d4565b8786866040518563ffffffff1660e01b8152600401612e52949392919061408c565b602060405180830381600087803b158015612e6c57600080fd5b505af1925050508015612e9d57506040513d601f19601f82011682018060405250810190612e9a91906138f7565b60015b612f20573d8060008114612ecd576040519150601f19603f3d011682016040523d82523d6000602084013e612ed2565b606091505b50600081511415612f18576040517f08c379a0000000000000000000000000000000000000000000000000000000008152600401612f0f90614180565b60405180910390fd5b805181602001fd5b63150b7a0260e01b7bffffffffffffffffffffffffffffffffffffffffffffffffffffffff1916817bffffffffffffffffffffffffffffffffffffffffffffffffffffffff191614915050612f75565b600190505b949350505050565b60606000821415612fc5576040518060400160405280600181526020017f30000000000000000000000000000000000000000000000000000000000000008152509050613125565b600082905060005b60008214612ff7578080612fe09061499e565b915050600a82612ff0919061479c565b9150612fcd565b60008167ffffffffffffffff811115613039577f4e487b7100000000000000000000000000000000000000000000000000000000600052604160045260246000fd5b6040519080825280601f01601f19166020018201604052801561306b5781602001600182028036833780820191505090505b5090505b6000851461311e576001826130849190614827565b9150600a8561309391906149e7565b603061309f9190614746565b60f81b8183815181106130db577f4e487b7100000000000000000000000000000000000000000000000000000000600052603260045260246000fd5b60200101907effffffffffffffffffffffffffffffffffffffffffffffffffffffffffffff1916908160001a905350600a85613117919061479c565b945061306f565b8093505050505b919050565b600073ffffffffffffffffffffffffffffffffffffffff168273ffffffffffffffffffffffffffffffffffffffff16141561319a576040517f08c379a000000000000000000000000000000000000000000000000000000000815260040161319190614360565b60405180910390fd5b6131a381612068565b156131e3576040517f08c379a00000000000000000000000000000000000000000000000000000000081526004016131da906141e0565b60405180910390fd5b6131ef60008383612b10565b6001600360008473ffffffffffffffffffffffffffffffffffffffff1673ffffffffffffffffffffffffffffffffffffffff168152602001908152602001600020600082825461323f9190614746565b92505081905550816002600083815260200190815260200160002060006101000a81548173ffffffffffffffffffffffffffffffffffffffff021916908373ffffffffffffffffffffffffffffffffffffffff160217905550808273ffffffffffffffffffffffffffffffffffffffff16600073ffffffffffffffffffffffffffffffffffffffff167fddf252ad1be2c89b69c2b068fc378daa952ba7f163c4a11628f55a4df523b3ef60405160405180910390a461330060008383612b15565b5050565b7f3fa96d7b6bcbfe71ef171666d84db3cf52fa2d1c8afdb1cc8e486177f208b7df828260405161333592919061455d565b60405180910390a15050565b6000808273ffffffffffffffffffffffffffffffffffffffff163b119050919050565b6040518060800160405280600081526020016060815260200160608152602001606081525090565b604051806040016040528060008152602001606081525090565b8280546133b29061493b565b90600052602060002090601f0160209004810192826133d4576000855561341b565b82601f106133ed57805160ff191683800117855561341b565b8280016001018555821561341b579182015b8281111561341a5782518255916020019190600101906133ff565b5b509050613428919061346a565b5090565b6040518060400160405280600073ffffffffffffffffffffffffffffffffffffffff16815260200160006bffffffffffffffffffffffff1681525090565b5b8082111561348357600081600090555060010161346b565b5090565b600061349a61349584614657565b614632565b9050828152602081018484840111156134b257600080fd5b6134bd8482856148f9565b509392505050565b60006134d86134d384614688565b614632565b9050828152602081018484840111156134f057600080fd5b6134fb8482856148f9565b509392505050565b6000813590506135128161525f565b92915050565b60008135905061352781615276565b92915050565b60008135905061353c8161528d565b92915050565b6000815190506135518161528d565b92915050565b600082601f83011261356857600080fd5b8135613578848260208601613487565b91505092915050565b600082601f83011261359257600080fd5b81356135a28482602086016134c5565b91505092915050565b6000608082840312156135bd57600080fd5b6135c76080614632565b905060006135d784828501613667565b600083015250602082013567ffffffffffffffff8111156135f757600080fd5b61360384828501613581565b602083015250604082013567ffffffffffffffff81111561362357600080fd5b61362f84828501613581565b604083015250606082013567ffffffffffffffff81111561364f57600080fd5b61365b84828501613581565b60608301525092915050565b600081359050613676816152a4565b92915050565b60006020828403121561368e57600080fd5b600061369c84828501613503565b91505092915050565b600080604083850312156136b857600080fd5b60006136c685828601613503565b92505060206136d785828601613503565b9150509250929050565b6000806000606084860312156136f657600080fd5b600061370486828701613503565b935050602061371586828701613503565b925050604061372686828701613667565b9150509250925092565b6000806000806080858703121561374657600080fd5b600061375487828801613503565b945050602061376587828801613503565b935050604061377687828801613667565b925050606085013567ffffffffffffffff81111561379357600080fd5b61379f87828801613557565b91505092959194509250565b600080604083850312156137be57600080fd5b60006137cc85828601613503565b92505060206137dd85828601613518565b9150509250929050565b600080600080608085870312156137fd57600080fd5b600061380b87828801613503565b945050602085013567ffffffffffffffff81111561382857600080fd5b61383487828801613581565b935050604085013567ffffffffffffffff81111561385157600080fd5b61385d87828801613581565b925050606085013567ffffffffffffffff81111561387a57600080fd5b613886878288016135ab565b91505092959194509250565b600080604083850312156138a557600080fd5b60006138b385828601613503565b92505060206138c485828601613667565b9150509250929050565b6000602082840312156138e057600080fd5b60006138ee8482850161352d565b91505092915050565b60006020828403121561390957600080fd5b600061391784828501613542565b91505092915050565b60006020828403121561393257600080fd5b600061394084828501613667565b91505092915050565b6000806040838503121561395c57600080fd5b600061396a85828601613667565b925050602061397b85828601613667565b9150509250929050565b60006139918383613f9e565b60408301905092915050565b6139a68161486d565b82525050565b6139b58161486d565b82525050565b6139c48161485b565b82525050565b60006139d5826146c9565b6139df81856146f7565b93506139ea836146b9565b8060005b83811015613a1b578151613a028882613985565b9750613a0d836146ea565b9250506001810190506139ee565b5085935050505092915050565b613a318161487f565b82525050565b6000613a42826146d4565b613a4c8185614708565b9350613a5c818560208601614908565b613a6581614ad4565b840191505092915050565b6000613a7b826146df565b613a858185614719565b9350613a95818560208601614908565b613a9e81614ad4565b840191505092915050565b6000613ab4826146df565b613abe818561472a565b9350613ace818560208601614908565b613ad781614ad4565b840191505092915050565b6000613aed826146df565b613af7818561473b565b9350613b07818560208601614908565b80840191505092915050565b6000613b2060248361472a565b9150613b2b82614ae5565b604082019050919050565b6000613b4360328361472a565b9150613b4e82614b34565b604082019050919050565b6000613b6660268361472a565b9150613b7182614b83565b604082019050919050565b6000613b8960258361472a565b9150613b9482614bd2565b604082019050919050565b6000613bac601c8361472a565b9150613bb782614c21565b602082019050919050565b6000613bcf60248361472a565b9150613bda82614c4a565b604082019050919050565b6000613bf260198361472a565b9150613bfd82614c99565b602082019050919050565b6000613c15602c8361472a565b9150613c2082614cc2565b604082019050919050565b6000613c3860208361472a565b9150613c4382614d11565b602082019050919050565b6000613c5b60238361472a565b9150613c6682614d3a565b604082019050919050565b6000613c7e601d8361472a565b9150613c8982614d89565b602082019050919050565b6000613ca160388361472a565b9150613cac82614db2565b604082019050919050565b6000613cc4602a8361472a565b9150613ccf82614e01565b604082019050919050565b6000613ce760298361472a565b9150613cf282614e50565b604082019050919050565b6000613d0a602e8361472a565b9150613d1582614e9f565b604082019050919050565b6000613d2d60358361472a565b9150613d3882614eee565b604082019050919050565b6000613d5060208361472a565b9150613d5b82614f3d565b602082019050919050565b6000613d7360318361472a565b9150613d7e82614f66565b604082019050919050565b6000613d96602c8361472a565b9150613da182614fb5565b604082019050919050565b6000613db960208361472a565b9150613dc482615004565b602082019050919050565b6000613ddc601c8361472a565b9150613de78261502d565b602082019050919050565b6000613dff602f8361472a565b9150613e0a82615056565b604082019050919050565b6000613e22601a8361472a565b9150613e2d826150a5565b602082019050919050565b6000613e4560218361472a565b9150613e50826150ce565b604082019050919050565b6000613e68601c8361472a565b9150613e738261511d565b602082019050919050565b6000613e8b60318361472a565b9150613e9682615146565b604082019050919050565b6000613eae601d8361472a565b9150613eb982615195565b602082019050919050565b6000613ed1601f8361472a565b9150613edc826151be565b602082019050919050565b6000613ef4601b8361472a565b9150613eff826151e7565b602082019050919050565b6000613f1760338361472a565b9150613f2282615210565b604082019050919050565b6000608083016000830151613f456000860182613fcd565b5060208301518482036020860152613f5d8282613a70565b91505060408301518482036040860152613f778282613a70565b91505060608301518482036060860152613f918282613a70565b9150508091505092915050565b604082016000820151613fb4600085018261399d565b506020820151613fc76020850182613feb565b50505050565b613fd6816148d7565b82525050565b613fe5816148d7565b82525050565b613ff4816148e1565b82525050565b614003816148e1565b82525050565b60006140158285613ae2565b91506140218284613ae2565b91508190509392505050565b600060208201905061404260008301846139bb565b92915050565b600060208201905061405d60008301846139ac565b92915050565b600060408201905061407860008301856139ac565b6140856020830184613ffa565b9392505050565b60006080820190506140a160008301876139bb565b6140ae60208301866139bb565b6140bb6040830185613fdc565b81810360608301526140cd8184613a37565b905095945050505050565b60006040820190506140ed60008301856139bb565b6140fa6020830184613fdc565b9392505050565b6000602082019050818103600083015261411b81846139ca565b905092915050565b60006020820190506141386000830184613a28565b92915050565b600060208201905081810360008301526141588184613aa9565b905092915050565b6000602082019050818103600083015261417981613b13565b9050919050565b6000602082019050818103600083015261419981613b36565b9050919050565b600060208201905081810360008301526141b981613b59565b9050919050565b600060208201905081810360008301526141d981613b7c565b9050919050565b600060208201905081810360008301526141f981613b9f565b9050919050565b6000602082019050818103600083015261421981613bc2565b9050919050565b6000602082019050818103600083015261423981613be5565b9050919050565b6000602082019050818103600083015261425981613c08565b9050919050565b6000602082019050818103600083015261427981613c2b565b9050919050565b6000602082019050818103600083015261429981613c4e565b9050919050565b600060208201905081810360008301526142b981613c71565b9050919050565b600060208201905081810360008301526142d981613c94565b9050919050565b600060208201905081810360008301526142f981613cb7565b9050919050565b6000602082019050818103600083015261431981613cda565b9050919050565b6000602082019050818103600083015261433981613cfd565b9050919050565b6000602082019050818103600083015261435981613d20565b9050919050565b6000602082019050818103600083015261437981613d43565b9050919050565b6000602082019050818103600083015261439981613d66565b9050919050565b600060208201905081810360008301526143b981613d89565b9050919050565b600060208201905081810360008301526143d981613dac565b9050919050565b600060208201905081810360008301526143f981613dcf565b9050919050565b6000602082019050818103600083015261441981613df2565b9050919050565b6000602082019050818103600083015261443981613e15565b9050919050565b6000602082019050818103600083015261445981613e38565b9050919050565b6000602082019050818103600083015261447981613e5b565b9050919050565b6000602082019050818103600083015261449981613e7e565b9050919050565b600060208201905081810360008301526144b981613ea1565b9050919050565b600060208201905081810360008301526144d981613ec4565b9050919050565b600060208201905081810360008301526144f981613ee7565b9050919050565b6000602082019050818103600083015261451981613f0a565b9050919050565b6000602082019050818103600083015261453a8184613f2d565b905092915050565b60006020820190506145576000830184613fdc565b92915050565b60006040820190506145726000830185613fdc565b818103602083015261458481846139ca565b90509392505050565b60006040820190506145a26000830185613fdc565b81810360208301526145b48184613aa9565b90509392505050565b60006080820190506145d26000830187613fdc565b81810360208301526145e48186613aa9565b905081810360408301526145f88185613aa9565b9050818103606083015261460c8184613aa9565b905095945050505050565b600060208201905061462c6000830184613ffa565b92915050565b600061463c61464d565b9050614648828261496d565b919050565b6000604051905090565b600067ffffffffffffffff82111561467257614671614aa5565b5b61467b82614ad4565b9050602081019050919050565b600067ffffffffffffffff8211156146a3576146a2614aa5565b5b6146ac82614ad4565b9050602081019050919050565b6000819050602082019050919050565b600081519050919050565b600081519050919050565b600081519050919050565b6000602082019050919050565b600082825260208201905092915050565b600082825260208201905092915050565b600082825260208201905092915050565b600082825260208201905092915050565b600081905092915050565b6000614751826148d7565b915061475c836148d7565b9250827fffffffffffffffffffffffffffffffffffffffffffffffffffffffffffffffff0382111561479157614790614a18565b5b828201905092915050565b60006147a7826148d7565b91506147b2836148d7565b9250826147c2576147c1614a47565b5b828204905092915050565b60006147d8826148d7565b91506147e3836148d7565b9250817fffffffffffffffffffffffffffffffffffffffffffffffffffffffffffffffff048311821515161561481c5761481b614a18565b5b828202905092915050565b6000614832826148d7565b915061483d836148d7565b9250828210156148505761484f614a18565b5b828203905092915050565b6000614866826148b7565b9050919050565b6000614878826148b7565b9050919050565b60008115159050919050565b60007fffffffff0000000000000000000000000000000000000000000000000000000082169050919050565b600073ffffffffffffffffffffffffffffffffffffffff82169050919050565b6000819050919050565b60006bffffffffffffffffffffffff82169050919050565b82818337600083830152505050565b60005b8381101561492657808201518184015260208101905061490b565b83811115614935576000848401525b50505050565b6000600282049050600182168061495357607f821691505b6020821081141561496757614966614a76565b5b50919050565b61497682614ad4565b810181811067ffffffffffffffff8211171561499557614994614aa5565b5b80604052505050565b60006149a9826148d7565b91507fffffffffffffffffffffffffffffffffffffffffffffffffffffffffffffffff8214156149dc576149db614a18565b5b600182019050919050565b60006149f2826148d7565b91506149fd836148d7565b925082614a0d57614a0c614a47565b5b828206905092915050565b7f4e487b7100000000000000000000000000000000000000000000000000000000600052601160045260246000fd5b7f4e487b7100000000000000000000000000000000000000000000000000000000600052601260045260246000fd5b7f4e487b7100000000000000000000000000000000000000000000000000000000600052602260045260246000fd5b7f4e487b7100000000000000000000000000000000000000000000000000000000600052604160045260246000fd5b6000601f19601f8301169050919050565b7f4552433732313a205469636b65742068617320616c7265616479206265656e2060008201527f7573656400000000000000000000000000000000000000000000000000000000602082015250565b7f4552433732313a207472616e7366657220746f206e6f6e20455243373231526560008201527f63656976657220696d706c656d656e7465720000000000000000000000000000602082015250565b7f4f776e61626c653a206e6577206f776e657220697320746865207a65726f206160008201527f6464726573730000000000000000000000000000000000000000000000000000602082015250565b7f4552433732313a207472616e736665722066726f6d20696e636f72726563742060008201527f6f776e6572000000000000000000000000000000000000000000000000000000602082015250565b7f4552433732313a20746f6b656e20616c7265616479206d696e74656400000000600082015250565b7f4552433732313a207472616e7366657220746f20746865207a65726f2061646460008201527f7265737300000000000000000000000000000000000000000000000000000000602082015250565b7f4552433732313a20617070726f766520746f2063616c6c657200000000000000600082015250565b7f4552433732313a206f70657261746f7220717565727920666f72206e6f6e657860008201527f697374656e7420746f6b656e0000000000000000000000000000000000000000602082015250565b7f526f79616c74792076616c75652073686f756c6420626520706f736974697665600082015250565b7f4552433732313a204e6f742061207469636b65742066726f6d2074686520657660008201527f656e740000000000000000000000000000000000000000000000000000000000602082015250565b7f4552433732313a205469636b657420646f6573206e6f74206578697374000000600082015250565b7f4552433732313a20617070726f76652063616c6c6572206973206e6f74206f7760008201527f6e6572206e6f7220617070726f76656420666f7220616c6c0000000000000000602082015250565b7f4552433732313a2062616c616e636520717565727920666f7220746865207a6560008201527f726f206164647265737300000000000000000000000000000000000000000000602082015250565b7f4552433732313a206f776e657220717565727920666f72206e6f6e657869737460008201527f656e7420746f6b656e0000000000000000000000000000000000000000000000602082015250565b7f45524337323155524953746f726167653a2055524920736574206f66206e6f6e60008201527f6578697374656e7420746f6b656e000000000000000000000000000000000000602082015250565b7f4552433732313a20546f206164647265737320697320616c726561647920746860008201527f65206f776e6572206f6620746865207469636b65740000000000000000000000602082015250565b7f4552433732313a206d696e7420746f20746865207a65726f2061646472657373600082015250565b7f45524337323155524953746f726167653a2055524920717565727920666f722060008201527f6e6f6e6578697374656e7420746f6b656e000000000000000000000000000000602082015250565b7f4552433732313a20617070726f76656420717565727920666f72206e6f6e657860008201527f697374656e7420746f6b656e0000000000000000000000000000000000000000602082015250565b7f4f776e61626c653a2063616c6c6572206973206e6f7420746865206f776e6572600082015250565b7f4552433732313a204e6f7420746865207469636b6574206f776e657200000000600082015250565b7f4552433732314d657461646174613a2055524920717565727920666f72206e6f60008201527f6e6578697374656e7420746f6b656e0000000000000000000000000000000000602082015250565b7f4552433732313a20496e76616c696420746f2061646472657373000000000000600082015250565b7f4552433732313a20617070726f76616c20746f2063757272656e74206f776e6560008201527f7200000000000000000000000000000000000000000000000000000000000000602082015250565b7f4552433732313a20496e76616c69642066726f6d206164647265737300000000600082015250565b7f4552433732313a207472616e736665722063616c6c6572206973206e6f74206f60008201527f776e6572206e6f7220617070726f766564000000000000000000000000000000602082015250565b7f4552433732313a205469636b657420616c726561647920657869737473000000600082015250565b7f5265656e7472616e637947756172643a207265656e7472616e742063616c6c00600082015250565b7f526563697069656e742073686f756c642062652070726573656e740000000000600082015250565b7f4552433732313a2046726f6d2061646472657373206973206e6f74207468652060008201527f6f776e6572206f6620746865207469636b657400000000000000000000000000602082015250565b6152688161485b565b811461527357600080fd5b50565b61527f8161487f565b811461528a57600080fd5b50565b6152968161488b565b81146152a157600080fd5b50565b6152ad816148d7565b81146152b857600080fd5b5056fea26469706673582212208bdf5c84750702b6571b3c118ffbeb1100a1e2fbaee2560d7c23effc2c4c624d64736f6c63430008040033","opcodes":"PUSH1 0x80 PUSH1 0x40 MSTORE PUSH1 0x0 PUSH1 0xA SSTORE CALLVALUE DUP1 ISZERO PUSH3 0x16 JUMPI PUSH1 0x0 DUP1 REVERT JUMPDEST POP PUSH1 0x40 MLOAD PUSH3 0x56D6 CODESIZE SUB DUP1 PUSH3 0x56D6 DUP4 CODECOPY DUP2 DUP2 ADD PUSH1 0x40 MSTORE DUP2 ADD SWAP1 PUSH3 0x3C SWAP2 SWAP1 PUSH3 0x312 JUMP JUMPDEST PUSH1 0x40 MLOAD DUP1 PUSH1 0x40 ADD PUSH1 0x40 MSTORE DUP1 PUSH1 0x8 DUP2 MSTORE PUSH1 0x20 ADD PUSH32 0x4E465469636B6574000000000000000000000000000000000000000000000000 DUP2 MSTORE POP PUSH1 0x40 MLOAD DUP1 PUSH1 0x40 ADD PUSH1 0x40 MSTORE DUP1 PUSH1 0x6 DUP2 MSTORE PUSH1 0x20 ADD PUSH32 0x5449434B45540000000000000000000000000000000000000000000000000000 DUP2 MSTORE POP DUP2 PUSH1 0x0 SWAP1 DUP1 MLOAD SWAP1 PUSH1 0x20 ADD SWAP1 PUSH3 0xC0 SWAP3 SWAP2 SWAP1 PUSH3 0x24B JUMP JUMPDEST POP DUP1 PUSH1 0x1 SWAP1 DUP1 MLOAD SWAP1 PUSH1 0x20 ADD SWAP1 PUSH3 0xD9 SWAP3 SWAP2 SWAP1 PUSH3 0x24B JUMP JUMPDEST POP POP POP PUSH3 0xFC PUSH3 0xF0 PUSH3 0x17D PUSH1 0x20 SHL PUSH1 0x20 SHR JUMP JUMPDEST PUSH3 0x185 PUSH1 0x20 SHL PUSH1 0x20 SHR JUMP JUMPDEST PUSH1 0x1 PUSH1 0x8 DUP2 SWAP1 SSTORE POP DUP1 PUSH1 0xB PUSH1 0x0 PUSH2 0x100 EXP DUP2 SLOAD DUP2 PUSH12 0xFFFFFFFFFFFFFFFFFFFFFFFF MUL NOT AND SWAP1 DUP4 PUSH12 0xFFFFFFFFFFFFFFFFFFFFFFFF AND MUL OR SWAP1 SSTORE POP CALLER PUSH1 0xB PUSH1 0xC PUSH2 0x100 EXP DUP2 SLOAD DUP2 PUSH20 0xFFFFFFFFFFFFFFFFFFFFFFFFFFFFFFFFFFFFFFFF MUL NOT AND SWAP1 DUP4 PUSH20 0xFFFFFFFFFFFFFFFFFFFFFFFFFFFFFFFFFFFFFFFF AND MUL OR SWAP1 SSTORE POP POP PUSH3 0x3D5 JUMP JUMPDEST PUSH1 0x0 CALLER SWAP1 POP SWAP1 JUMP JUMPDEST PUSH1 0x0 PUSH1 0x7 PUSH1 0x0 SWAP1 SLOAD SWAP1 PUSH2 0x100 EXP SWAP1 DIV PUSH20 0xFFFFFFFFFFFFFFFFFFFFFFFFFFFFFFFFFFFFFFFF AND SWAP1 POP DUP2 PUSH1 0x7 PUSH1 0x0 PUSH2 0x100 EXP DUP2 SLOAD DUP2 PUSH20 0xFFFFFFFFFFFFFFFFFFFFFFFFFFFFFFFFFFFFFFFF MUL NOT AND SWAP1 DUP4 PUSH20 0xFFFFFFFFFFFFFFFFFFFFFFFFFFFFFFFFFFFFFFFF AND MUL OR SWAP1 SSTORE POP DUP2 PUSH20 0xFFFFFFFFFFFFFFFFFFFFFFFFFFFFFFFFFFFFFFFF AND DUP2 PUSH20 0xFFFFFFFFFFFFFFFFFFFFFFFFFFFFFFFFFFFFFFFF AND PUSH32 0x8BE0079C531659141344CD1FD0A4F28419497F9722A3DAAFE3B4186F6B6457E0 PUSH1 0x40 MLOAD PUSH1 0x40 MLOAD DUP1 SWAP2 SUB SWAP1 LOG3 POP POP JUMP JUMPDEST DUP3 DUP1 SLOAD PUSH3 0x259 SWAP1 PUSH3 0x356 JUMP JUMPDEST SWAP1 PUSH1 0x0 MSTORE PUSH1 0x20 PUSH1 0x0 KECCAK256 SWAP1 PUSH1 0x1F ADD PUSH1 0x20 SWAP1 DIV DUP2 ADD SWAP3 DUP3 PUSH3 0x27D JUMPI PUSH1 0x0 DUP6 SSTORE PUSH3 0x2C9 JUMP JUMPDEST DUP3 PUSH1 0x1F LT PUSH3 0x298 JUMPI DUP1 MLOAD PUSH1 0xFF NOT AND DUP4 DUP1 ADD OR DUP6 SSTORE PUSH3 0x2C9 JUMP JUMPDEST DUP3 DUP1 ADD PUSH1 0x1 ADD DUP6 SSTORE DUP3 ISZERO PUSH3 0x2C9 JUMPI SWAP2 DUP3 ADD JUMPDEST DUP3 DUP2 GT ISZERO PUSH3 0x2C8 JUMPI DUP3 MLOAD DUP3 SSTORE SWAP2 PUSH1 0x20 ADD SWAP2 SWAP1 PUSH1 0x1 ADD SWAP1 PUSH3 0x2AB JUMP JUMPDEST JUMPDEST POP SWAP1 POP PUSH3 0x2D8 SWAP2 SWAP1 PUSH3 0x2DC JUMP JUMPDEST POP SWAP1 JUMP JUMPDEST JUMPDEST DUP1 DUP3 GT ISZERO PUSH3 0x2F7 JUMPI PUSH1 0x0 DUP2 PUSH1 0x0 SWAP1 SSTORE POP PUSH1 0x1 ADD PUSH3 0x2DD JUMP JUMPDEST POP SWAP1 JUMP JUMPDEST PUSH1 0x0 DUP2 MLOAD SWAP1 POP PUSH3 0x30C DUP2 PUSH3 0x3BB JUMP JUMPDEST SWAP3 SWAP2 POP POP JUMP JUMPDEST PUSH1 0x0 PUSH1 0x20 DUP3 DUP5 SUB SLT ISZERO PUSH3 0x325 JUMPI PUSH1 0x0 DUP1 REVERT JUMPDEST PUSH1 0x0 PUSH3 0x335 DUP5 DUP3 DUP6 ADD PUSH3 0x2FB JUMP JUMPDEST SWAP2 POP POP SWAP3 SWAP2 POP POP JUMP JUMPDEST PUSH1 0x0 PUSH12 0xFFFFFFFFFFFFFFFFFFFFFFFF DUP3 AND SWAP1 POP SWAP2 SWAP1 POP JUMP JUMPDEST PUSH1 0x0 PUSH1 0x2 DUP3 DIV SWAP1 POP PUSH1 0x1 DUP3 AND DUP1 PUSH3 0x36F JUMPI PUSH1 0x7F DUP3 AND SWAP2 POP JUMPDEST PUSH1 0x20 DUP3 LT DUP2 EQ ISZERO PUSH3 0x386 JUMPI PUSH3 0x385 PUSH3 0x38C JUMP JUMPDEST JUMPDEST POP SWAP2 SWAP1 POP JUMP JUMPDEST PUSH32 0x4E487B7100000000000000000000000000000000000000000000000000000000 PUSH1 0x0 MSTORE PUSH1 0x22 PUSH1 0x4 MSTORE PUSH1 0x24 PUSH1 0x0 REVERT JUMPDEST PUSH3 0x3C6 DUP2 PUSH3 0x33E JUMP JUMPDEST DUP2 EQ PUSH3 0x3D2 JUMPI PUSH1 0x0 DUP1 REVERT JUMPDEST POP JUMP JUMPDEST PUSH2 0x52F1 DUP1 PUSH3 0x3E5 PUSH1 0x0 CODECOPY PUSH1 0x0 RETURN INVALID PUSH1 0x80 PUSH1 0x40 MSTORE CALLVALUE DUP1 ISZERO PUSH2 0x10 JUMPI PUSH1 0x0 DUP1 REVERT JUMPDEST POP PUSH1 0x4 CALLDATASIZE LT PUSH2 0x1DA JUMPI PUSH1 0x0 CALLDATALOAD PUSH1 0xE0 SHR DUP1 PUSH4 0x79391281 GT PUSH2 0x104 JUMPI DUP1 PUSH4 0xACDDA9AD GT PUSH2 0xA2 JUMPI DUP1 PUSH4 0xCAD96CCA GT PUSH2 0x71 JUMPI DUP1 PUSH4 0xCAD96CCA EQ PUSH2 0x5CF JUMPI DUP1 PUSH4 0xD7E2E678 EQ PUSH2 0x5FF JUMPI DUP1 PUSH4 0xE985E9C5 EQ PUSH2 0x62F JUMPI DUP1 PUSH4 0xF2FDE38B EQ PUSH2 0x65F JUMPI PUSH2 0x1DA JUMP JUMPDEST DUP1 PUSH4 0xACDDA9AD EQ PUSH2 0x523 JUMPI DUP1 PUSH4 0xB88D4FDE EQ PUSH2 0x553 JUMPI DUP1 PUSH4 0xC41A360A EQ PUSH2 0x56F JUMPI DUP1 PUSH4 0xC87B56DD EQ PUSH2 0x59F JUMPI PUSH2 0x1DA JUMP JUMPDEST DUP1 PUSH4 0x8DA5CB5B GT PUSH2 0xDE JUMPI DUP1 PUSH4 0x8DA5CB5B EQ PUSH2 0x4AD JUMPI DUP1 PUSH4 0x95D89B41 EQ PUSH2 0x4CB JUMPI DUP1 PUSH4 0x9F181B5E EQ PUSH2 0x4E9 JUMPI DUP1 PUSH4 0xA22CB465 EQ PUSH2 0x507 JUMPI PUSH2 0x1DA JUMP JUMPDEST DUP1 PUSH4 0x79391281 EQ PUSH2 0x42E JUMPI DUP1 PUSH4 0x82A6C5D2 EQ PUSH2 0x44C JUMPI DUP1 PUSH4 0x8924AF74 EQ PUSH2 0x47C JUMPI PUSH2 0x1DA JUMP JUMPDEST DUP1 PUSH4 0x3366A2BC GT PUSH2 0x17C JUMPI DUP1 PUSH4 0x642B5F9B GT PUSH2 0x14B JUMPI DUP1 PUSH4 0x642B5F9B EQ PUSH2 0x394 JUMPI DUP1 PUSH4 0x6D1884E0 EQ PUSH2 0x3C4 JUMPI DUP1 PUSH4 0x70A08231 EQ PUSH2 0x3F4 JUMPI DUP1 PUSH4 0x715018A6 EQ PUSH2 0x424 JUMPI PUSH2 0x1DA JUMP JUMPDEST DUP1 PUSH4 0x3366A2BC EQ PUSH2 0x2F7 JUMPI DUP1 PUSH4 0x42842E0E EQ PUSH2 0x315 JUMPI DUP1 PUSH4 0x58AB31F3 EQ PUSH2 0x331 JUMPI DUP1 PUSH4 0x6352211E EQ PUSH2 0x364 JUMPI PUSH2 0x1DA JUMP JUMPDEST DUP1 PUSH4 0x95EA7B3 GT PUSH2 0x1B8 JUMPI DUP1 PUSH4 0x95EA7B3 EQ PUSH2 0x25D JUMPI DUP1 PUSH4 0x1D4AB540 EQ PUSH2 0x279 JUMPI DUP1 PUSH4 0x23B872DD EQ PUSH2 0x2AA JUMPI DUP1 PUSH4 0x2A55205A EQ PUSH2 0x2C6 JUMPI PUSH2 0x1DA JUMP JUMPDEST DUP1 PUSH4 0x1FFC9A7 EQ PUSH2 0x1DF JUMPI DUP1 PUSH4 0x6FDDE03 EQ PUSH2 0x20F JUMPI DUP1 PUSH4 0x81812FC EQ PUSH2 0x22D JUMPI JUMPDEST PUSH1 0x0 DUP1 REVERT JUMPDEST PUSH2 0x1F9 PUSH1 0x4 DUP1 CALLDATASIZE SUB DUP2 ADD SWAP1 PUSH2 0x1F4 SWAP2 SWAP1 PUSH2 0x38CE JUMP JUMPDEST PUSH2 0x67B JUMP JUMPDEST PUSH1 0x40 MLOAD PUSH2 0x206 SWAP2 SWAP1 PUSH2 0x4123 JUMP JUMPDEST PUSH1 0x40 MLOAD DUP1 SWAP2 SUB SWAP1 RETURN JUMPDEST PUSH2 0x217 PUSH2 0x73A JUMP JUMPDEST PUSH1 0x40 MLOAD PUSH2 0x224 SWAP2 SWAP1 PUSH2 0x413E JUMP JUMPDEST PUSH1 0x40 MLOAD DUP1 SWAP2 SUB SWAP1 RETURN JUMPDEST PUSH2 0x247 PUSH1 0x4 DUP1 CALLDATASIZE SUB DUP2 ADD SWAP1 PUSH2 0x242 SWAP2 SWAP1 PUSH2 0x3920 JUMP JUMPDEST PUSH2 0x7CC JUMP JUMPDEST PUSH1 0x40 MLOAD PUSH2 0x254 SWAP2 SWAP1 PUSH2 0x402D JUMP JUMPDEST PUSH1 0x40 MLOAD DUP1 SWAP2 SUB SWAP1 RETURN JUMPDEST PUSH2 0x277 PUSH1 0x4 DUP1 CALLDATASIZE SUB DUP2 ADD SWAP1 PUSH2 0x272 SWAP2 SWAP1 PUSH2 0x3892 JUMP JUMPDEST PUSH2 0x851 JUMP JUMPDEST STOP JUMPDEST PUSH2 0x293 PUSH1 0x4 DUP1 CALLDATASIZE SUB DUP2 ADD SWAP1 PUSH2 0x28E SWAP2 SWAP1 PUSH2 0x3920 JUMP JUMPDEST PUSH2 0x969 JUMP JUMPDEST PUSH1 0x40 MLOAD PUSH2 0x2A1 SWAP3 SWAP2 SWAP1 PUSH2 0x458D JUMP JUMPDEST PUSH1 0x40 MLOAD DUP1 SWAP2 SUB SWAP1 RETURN JUMPDEST PUSH2 0x2C4 PUSH1 0x4 DUP1 CALLDATASIZE SUB DUP2 ADD SWAP1 PUSH2 0x2BF SWAP2 SWAP1 PUSH2 0x36E1 JUMP JUMPDEST PUSH2 0xA15 JUMP JUMPDEST STOP JUMPDEST PUSH2 0x2E0 PUSH1 0x4 DUP1 CALLDATASIZE SUB DUP2 ADD SWAP1 PUSH2 0x2DB SWAP2 SWAP1 PUSH2 0x3949 JUMP JUMPDEST PUSH2 0xCB8 JUMP JUMPDEST PUSH1 0x40 MLOAD PUSH2 0x2EE SWAP3 SWAP2 SWAP1 PUSH2 0x40D8 JUMP JUMPDEST PUSH1 0x40 MLOAD DUP1 SWAP2 SUB SWAP1 RETURN JUMPDEST PUSH2 0x2FF PUSH2 0xE8E JUMP JUMPDEST PUSH1 0x40 MLOAD PUSH2 0x30C SWAP2 SWAP1 PUSH2 0x4048 JUMP JUMPDEST PUSH1 0x40 MLOAD DUP1 SWAP2 SUB SWAP1 RETURN JUMPDEST PUSH2 0x32F PUSH1 0x4 DUP1 CALLDATASIZE SUB DUP2 ADD SWAP1 PUSH2 0x32A SWAP2 SWAP1 PUSH2 0x36E1 JUMP JUMPDEST PUSH2 0xEB4 JUMP JUMPDEST STOP JUMPDEST PUSH2 0x34B PUSH1 0x4 DUP1 CALLDATASIZE SUB DUP2 ADD SWAP1 PUSH2 0x346 SWAP2 SWAP1 PUSH2 0x3920 JUMP JUMPDEST PUSH2 0xED4 JUMP JUMPDEST PUSH1 0x40 MLOAD PUSH2 0x35B SWAP5 SWAP4 SWAP3 SWAP2 SWAP1 PUSH2 0x45BD JUMP JUMPDEST PUSH1 0x40 MLOAD DUP1 SWAP2 SUB SWAP1 RETURN JUMPDEST PUSH2 0x37E PUSH1 0x4 DUP1 CALLDATASIZE SUB DUP2 ADD SWAP1 PUSH2 0x379 SWAP2 SWAP1 PUSH2 0x3920 JUMP JUMPDEST PUSH2 0x109C JUMP JUMPDEST PUSH1 0x40 MLOAD PUSH2 0x38B SWAP2 SWAP1 PUSH2 0x402D JUMP JUMPDEST PUSH1 0x40 MLOAD DUP1 SWAP2 SUB SWAP1 RETURN JUMPDEST PUSH2 0x3AE PUSH1 0x4 DUP1 CALLDATASIZE SUB DUP2 ADD SWAP1 PUSH2 0x3A9 SWAP2 SWAP1 PUSH2 0x3920 JUMP JUMPDEST PUSH2 0x114E JUMP JUMPDEST PUSH1 0x40 MLOAD PUSH2 0x3BB SWAP2 SWAP1 PUSH2 0x4123 JUMP JUMPDEST PUSH1 0x40 MLOAD DUP1 SWAP2 SUB SWAP1 RETURN JUMPDEST PUSH2 0x3DE PUSH1 0x4 DUP1 CALLDATASIZE SUB DUP2 ADD SWAP1 PUSH2 0x3D9 SWAP2 SWAP1 PUSH2 0x3920 JUMP JUMPDEST PUSH2 0x1178 JUMP JUMPDEST PUSH1 0x40 MLOAD PUSH2 0x3EB SWAP2 SWAP1 PUSH2 0x4520 JUMP JUMPDEST PUSH1 0x40 MLOAD DUP1 SWAP2 SUB SWAP1 RETURN JUMPDEST PUSH2 0x40E PUSH1 0x4 DUP1 CALLDATASIZE SUB DUP2 ADD SWAP1 PUSH2 0x409 SWAP2 SWAP1 PUSH2 0x367C JUMP JUMPDEST PUSH2 0x1365 JUMP JUMPDEST PUSH1 0x40 MLOAD PUSH2 0x41B SWAP2 SWAP1 PUSH2 0x4542 JUMP JUMPDEST PUSH1 0x40 MLOAD DUP1 SWAP2 SUB SWAP1 RETURN JUMPDEST PUSH2 0x42C PUSH2 0x141D JUMP JUMPDEST STOP JUMPDEST PUSH2 0x436 PUSH2 0x14A5 JUMP JUMPDEST PUSH1 0x40 MLOAD PUSH2 0x443 SWAP2 SWAP1 PUSH2 0x4617 JUMP JUMPDEST PUSH1 0x40 MLOAD DUP1 SWAP2 SUB SWAP1 RETURN JUMPDEST PUSH2 0x466 PUSH1 0x4 DUP1 CALLDATASIZE SUB DUP2 ADD SWAP1 PUSH2 0x461 SWAP2 SWAP1 PUSH2 0x3920 JUMP JUMPDEST PUSH2 0x14C3 JUMP JUMPDEST PUSH1 0x40 MLOAD PUSH2 0x473 SWAP2 SWAP1 PUSH2 0x4123 JUMP JUMPDEST PUSH1 0x40 MLOAD DUP1 SWAP2 SUB SWAP1 RETURN JUMPDEST PUSH2 0x496 PUSH1 0x4 DUP1 CALLDATASIZE SUB DUP2 ADD SWAP1 PUSH2 0x491 SWAP2 SWAP1 PUSH2 0x3949 JUMP JUMPDEST PUSH2 0x14ED JUMP JUMPDEST PUSH1 0x40 MLOAD PUSH2 0x4A4 SWAP3 SWAP2 SWAP1 PUSH2 0x4063 JUMP JUMPDEST PUSH1 0x40 MLOAD DUP1 SWAP2 SUB SWAP1 RETURN JUMPDEST PUSH2 0x4B5 PUSH2 0x1562 JUMP JUMPDEST PUSH1 0x40 MLOAD PUSH2 0x4C2 SWAP2 SWAP1 PUSH2 0x402D JUMP JUMPDEST PUSH1 0x40 MLOAD DUP1 SWAP2 SUB SWAP1 RETURN JUMPDEST PUSH2 0x4D3 PUSH2 0x158C JUMP JUMPDEST PUSH1 0x40 MLOAD PUSH2 0x4E0 SWAP2 SWAP1 PUSH2 0x413E JUMP JUMPDEST PUSH1 0x40 MLOAD DUP1 SWAP2 SUB SWAP1 RETURN JUMPDEST PUSH2 0x4F1 PUSH2 0x161E JUMP JUMPDEST PUSH1 0x40 MLOAD PUSH2 0x4FE SWAP2 SWAP1 PUSH2 0x4542 JUMP JUMPDEST PUSH1 0x40 MLOAD DUP1 SWAP2 SUB SWAP1 RETURN JUMPDEST PUSH2 0x521 PUSH1 0x4 DUP1 CALLDATASIZE SUB DUP2 ADD SWAP1 PUSH2 0x51C SWAP2 SWAP1 PUSH2 0x37AB JUMP JUMPDEST PUSH2 0x1624 JUMP JUMPDEST STOP JUMPDEST PUSH2 0x53D PUSH1 0x4 DUP1 CALLDATASIZE SUB DUP2 ADD SWAP1 PUSH2 0x538 SWAP2 SWAP1 PUSH2 0x37E7 JUMP JUMPDEST PUSH2 0x163A JUMP JUMPDEST PUSH1 0x40 MLOAD PUSH2 0x54A SWAP2 SWAP1 PUSH2 0x4542 JUMP JUMPDEST PUSH1 0x40 MLOAD DUP1 SWAP2 SUB SWAP1 RETURN JUMPDEST PUSH2 0x56D PUSH1 0x4 DUP1 CALLDATASIZE SUB DUP2 ADD SWAP1 PUSH2 0x568 SWAP2 SWAP1 PUSH2 0x3730 JUMP JUMPDEST PUSH2 0x19A5 JUMP JUMPDEST STOP JUMPDEST PUSH2 0x589 PUSH1 0x4 DUP1 CALLDATASIZE SUB DUP2 ADD SWAP1 PUSH2 0x584 SWAP2 SWAP1 PUSH2 0x3920 JUMP JUMPDEST PUSH2 0x1A07 JUMP JUMPDEST PUSH1 0x40 MLOAD PUSH2 0x596 SWAP2 SWAP1 PUSH2 0x402D JUMP JUMPDEST PUSH1 0x40 MLOAD DUP1 SWAP2 SUB SWAP1 RETURN JUMPDEST PUSH2 0x5B9 PUSH1 0x4 DUP1 CALLDATASIZE SUB DUP2 ADD SWAP1 PUSH2 0x5B4 SWAP2 SWAP1 PUSH2 0x3920 JUMP JUMPDEST PUSH2 0x1A19 JUMP JUMPDEST PUSH1 0x40 MLOAD PUSH2 0x5C6 SWAP2 SWAP1 PUSH2 0x413E JUMP JUMPDEST PUSH1 0x40 MLOAD DUP1 SWAP2 SUB SWAP1 RETURN JUMPDEST PUSH2 0x5E9 PUSH1 0x4 DUP1 CALLDATASIZE SUB DUP2 ADD SWAP1 PUSH2 0x5E4 SWAP2 SWAP1 PUSH2 0x3920 JUMP JUMPDEST PUSH2 0x1B6B JUMP JUMPDEST PUSH1 0x40 MLOAD PUSH2 0x5F6 SWAP2 SWAP1 PUSH2 0x4101 JUMP JUMPDEST PUSH1 0x40 MLOAD DUP1 SWAP2 SUB SWAP1 RETURN JUMPDEST PUSH2 0x619 PUSH1 0x4 DUP1 CALLDATASIZE SUB DUP2 ADD SWAP1 PUSH2 0x614 SWAP2 SWAP1 PUSH2 0x3949 JUMP JUMPDEST PUSH2 0x1C6D JUMP JUMPDEST PUSH1 0x40 MLOAD PUSH2 0x626 SWAP2 SWAP1 PUSH2 0x4123 JUMP JUMPDEST PUSH1 0x40 MLOAD DUP1 SWAP2 SUB SWAP1 RETURN JUMPDEST PUSH2 0x649 PUSH1 0x4 DUP1 CALLDATASIZE SUB DUP2 ADD SWAP1 PUSH2 0x644 SWAP2 SWAP1 PUSH2 0x36A5 JUMP JUMPDEST PUSH2 0x1DFA JUMP JUMPDEST PUSH1 0x40 MLOAD PUSH2 0x656 SWAP2 SWAP1 PUSH2 0x4123 JUMP JUMPDEST PUSH1 0x40 MLOAD DUP1 SWAP2 SUB SWAP1 RETURN JUMPDEST PUSH2 0x679 PUSH1 0x4 DUP1 CALLDATASIZE SUB DUP2 ADD SWAP1 PUSH2 0x674 SWAP2 SWAP1 PUSH2 0x367C JUMP JUMPDEST PUSH2 0x1E8E JUMP JUMPDEST STOP JUMPDEST PUSH1 0x0 PUSH4 0xCAD96CCA PUSH1 0xE0 SHL PUSH28 0xFFFFFFFFFFFFFFFFFFFFFFFFFFFFFFFFFFFFFFFFFFFFFFFFFFFFFFFF NOT AND DUP3 PUSH28 0xFFFFFFFFFFFFFFFFFFFFFFFFFFFFFFFFFFFFFFFFFFFFFFFFFFFFFFFF NOT AND EQ ISZERO PUSH2 0x6D3 JUMPI PUSH1 0x1 SWAP1 POP PUSH2 0x735 JUMP JUMPDEST PUSH4 0x2A55205A PUSH1 0xE0 SHL PUSH28 0xFFFFFFFFFFFFFFFFFFFFFFFFFFFFFFFFFFFFFFFFFFFFFFFFFFFFFFFF NOT AND DUP3 PUSH28 0xFFFFFFFFFFFFFFFFFFFFFFFFFFFFFFFFFFFFFFFFFFFFFFFFFFFFFFFF NOT AND EQ ISZERO PUSH2 0x729 JUMPI PUSH1 0x1 SWAP1 POP PUSH2 0x735 JUMP JUMPDEST PUSH2 0x732 DUP3 PUSH2 0x1F86 JUMP JUMPDEST SWAP1 POP JUMPDEST SWAP2 SWAP1 POP JUMP JUMPDEST PUSH1 0x60 PUSH1 0x0 DUP1 SLOAD PUSH2 0x749 SWAP1 PUSH2 0x493B JUMP JUMPDEST DUP1 PUSH1 0x1F ADD PUSH1 0x20 DUP1 SWAP2 DIV MUL PUSH1 0x20 ADD PUSH1 0x40 MLOAD SWAP1 DUP2 ADD PUSH1 0x40 MSTORE DUP1 SWAP3 SWAP2 SWAP1 DUP2 DUP2 MSTORE PUSH1 0x20 ADD DUP3 DUP1 SLOAD PUSH2 0x775 SWAP1 PUSH2 0x493B JUMP JUMPDEST DUP1 ISZERO PUSH2 0x7C2 JUMPI DUP1 PUSH1 0x1F LT PUSH2 0x797 JUMPI PUSH2 0x100 DUP1 DUP4 SLOAD DIV MUL DUP4 MSTORE SWAP2 PUSH1 0x20 ADD SWAP2 PUSH2 0x7C2 JUMP JUMPDEST DUP3 ADD SWAP2 SWAP1 PUSH1 0x0 MSTORE PUSH1 0x20 PUSH1 0x0 KECCAK256 SWAP1 JUMPDEST DUP2 SLOAD DUP2 MSTORE SWAP1 PUSH1 0x1 ADD SWAP1 PUSH1 0x20 ADD DUP1 DUP4 GT PUSH2 0x7A5 JUMPI DUP3 SWAP1 SUB PUSH1 0x1F AND DUP3 ADD SWAP2 JUMPDEST POP POP POP POP POP SWAP1 POP SWAP1 JUMP JUMPDEST PUSH1 0x0 PUSH2 0x7D7 DUP3 PUSH2 0x2068 JUMP JUMPDEST PUSH2 0x816 JUMPI PUSH1 0x40 MLOAD PUSH32 0x8C379A000000000000000000000000000000000000000000000000000000000 DUP2 MSTORE PUSH1 0x4 ADD PUSH2 0x80D SWAP1 PUSH2 0x43A0 JUMP JUMPDEST PUSH1 0x40 MLOAD DUP1 SWAP2 SUB SWAP1 REVERT JUMPDEST PUSH1 0x4 PUSH1 0x0 DUP4 DUP2 MSTORE PUSH1 0x20 ADD SWAP1 DUP2 MSTORE PUSH1 0x20 ADD PUSH1 0x0 KECCAK256 PUSH1 0x0 SWAP1 SLOAD SWAP1 PUSH2 0x100 EXP SWAP1 DIV PUSH20 0xFFFFFFFFFFFFFFFFFFFFFFFFFFFFFFFFFFFFFFFF AND SWAP1 POP SWAP2 SWAP1 POP JUMP JUMPDEST PUSH1 0x0 PUSH2 0x85C DUP3 PUSH2 0x109C JUMP JUMPDEST SWAP1 POP DUP1 PUSH20 0xFFFFFFFFFFFFFFFFFFFFFFFFFFFFFFFFFFFFFFFF AND DUP4 PUSH20 0xFFFFFFFFFFFFFFFFFFFFFFFFFFFFFFFFFFFFFFFF AND EQ ISZERO PUSH2 0x8CD JUMPI PUSH1 0x40 MLOAD PUSH32 0x8C379A000000000000000000000000000000000000000000000000000000000 DUP2 MSTORE PUSH1 0x4 ADD PUSH2 0x8C4 SWAP1 PUSH2 0x4440 JUMP JUMPDEST PUSH1 0x40 MLOAD DUP1 SWAP2 SUB SWAP1 REVERT JUMPDEST DUP1 PUSH20 0xFFFFFFFFFFFFFFFFFFFFFFFFFFFFFFFFFFFFFFFF AND PUSH2 0x8EC PUSH2 0x20D4 JUMP JUMPDEST PUSH20 0xFFFFFFFFFFFFFFFFFFFFFFFFFFFFFFFFFFFFFFFF AND EQ DUP1 PUSH2 0x91B JUMPI POP PUSH2 0x91A DUP2 PUSH2 0x915 PUSH2 0x20D4 JUMP JUMPDEST PUSH2 0x1DFA JUMP JUMPDEST JUMPDEST PUSH2 0x95A JUMPI PUSH1 0x40 MLOAD PUSH32 0x8C379A000000000000000000000000000000000000000000000000000000000 DUP2 MSTORE PUSH1 0x4 ADD PUSH2 0x951 SWAP1 PUSH2 0x42C0 JUMP JUMPDEST PUSH1 0x40 MLOAD DUP1 SWAP2 SUB SWAP1 REVERT JUMPDEST PUSH2 0x964 DUP4 DUP4 PUSH2 0x20DC JUMP JUMPDEST POP POP POP JUMP JUMPDEST PUSH1 0xC PUSH1 0x20 MSTORE DUP1 PUSH1 0x0 MSTORE PUSH1 0x40 PUSH1 0x0 KECCAK256 PUSH1 0x0 SWAP2 POP SWAP1 POP DUP1 PUSH1 0x0 ADD SLOAD SWAP1 DUP1 PUSH1 0x1 ADD DUP1 SLOAD PUSH2 0x992 SWAP1 PUSH2 0x493B JUMP JUMPDEST DUP1 PUSH1 0x1F ADD PUSH1 0x20 DUP1 SWAP2 DIV MUL PUSH1 0x20 ADD PUSH1 0x40 MLOAD SWAP1 DUP2 ADD PUSH1 0x40 MSTORE DUP1 SWAP3 SWAP2 SWAP1 DUP2 DUP2 MSTORE PUSH1 0x20 ADD DUP3 DUP1 SLOAD PUSH2 0x9BE SWAP1 PUSH2 0x493B JUMP JUMPDEST DUP1 ISZERO PUSH2 0xA0B JUMPI DUP1 PUSH1 0x1F LT PUSH2 0x9E0 JUMPI PUSH2 0x100 DUP1 DUP4 SLOAD DIV MUL DUP4 MSTORE SWAP2 PUSH1 0x20 ADD SWAP2 PUSH2 0xA0B JUMP JUMPDEST DUP3 ADD SWAP2 SWAP1 PUSH1 0x0 MSTORE PUSH1 0x20 PUSH1 0x0 KECCAK256 SWAP1 JUMPDEST DUP2 SLOAD DUP2 MSTORE SWAP1 PUSH1 0x1 ADD SWAP1 PUSH1 0x20 ADD DUP1 DUP4 GT PUSH2 0x9EE JUMPI DUP3 SWAP1 SUB PUSH1 0x1F AND DUP3 ADD SWAP2 JUMPDEST POP POP POP POP POP SWAP1 POP DUP3 JUMP JUMPDEST PUSH2 0xA1E DUP2 PUSH2 0x2068 JUMP JUMPDEST PUSH2 0xA5D JUMPI PUSH1 0x40 MLOAD PUSH32 0x8C379A000000000000000000000000000000000000000000000000000000000 DUP2 MSTORE PUSH1 0x4 ADD PUSH2 0xA54 SWAP1 PUSH2 0x42A0 JUMP JUMPDEST PUSH1 0x40 MLOAD DUP1 SWAP2 SUB SWAP1 REVERT JUMPDEST DUP2 PUSH20 0xFFFFFFFFFFFFFFFFFFFFFFFFFFFFFFFFFFFFFFFF AND PUSH2 0xA7D DUP3 PUSH2 0x1A07 JUMP JUMPDEST PUSH20 0xFFFFFFFFFFFFFFFFFFFFFFFFFFFFFFFFFFFFFFFF AND EQ ISZERO PUSH2 0xAD4 JUMPI PUSH1 0x40 MLOAD PUSH32 0x8C379A000000000000000000000000000000000000000000000000000000000 DUP2 MSTORE PUSH1 0x4 ADD PUSH2 0xACB SWAP1 PUSH2 0x4340 JUMP JUMPDEST PUSH1 0x40 MLOAD DUP1 SWAP2 SUB SWAP1 REVERT JUMPDEST DUP3 PUSH20 0xFFFFFFFFFFFFFFFFFFFFFFFFFFFFFFFFFFFFFFFF AND PUSH2 0xAF4 DUP3 PUSH2 0x1A07 JUMP JUMPDEST PUSH20 0xFFFFFFFFFFFFFFFFFFFFFFFFFFFFFFFFFFFFFFFF AND EQ PUSH2 0xB4A JUMPI PUSH1 0x40 MLOAD PUSH32 0x8C379A000000000000000000000000000000000000000000000000000000000 DUP2 MSTORE PUSH1 0x4 ADD PUSH2 0xB41 SWAP1 PUSH2 0x4500 JUMP JUMPDEST PUSH1 0x40 MLOAD DUP1 SWAP2 SUB SWAP1 REVERT JUMPDEST PUSH1 0x0 PUSH20 0xFFFFFFFFFFFFFFFFFFFFFFFFFFFFFFFFFFFFFFFF AND DUP4 PUSH20 0xFFFFFFFFFFFFFFFFFFFFFFFFFFFFFFFFFFFFFFFF AND EQ ISZERO PUSH2 0xBBA JUMPI PUSH1 0x40 MLOAD PUSH32 0x8C379A000000000000000000000000000000000000000000000000000000000 DUP2 MSTORE PUSH1 0x4 ADD PUSH2 0xBB1 SWAP1 PUSH2 0x4460 JUMP JUMPDEST PUSH1 0x40 MLOAD DUP1 SWAP2 SUB SWAP1 REVERT JUMPDEST PUSH1 0x0 PUSH20 0xFFFFFFFFFFFFFFFFFFFFFFFFFFFFFFFFFFFFFFFF AND DUP3 PUSH20 0xFFFFFFFFFFFFFFFFFFFFFFFFFFFFFFFFFFFFFFFF AND EQ ISZERO PUSH2 0xC2A JUMPI PUSH1 0x40 MLOAD PUSH32 0x8C379A000000000000000000000000000000000000000000000000000000000 DUP2 MSTORE PUSH1 0x4 ADD PUSH2 0xC21 SWAP1 PUSH2 0x4420 JUMP JUMPDEST PUSH1 0x40 MLOAD DUP1 SWAP2 SUB SWAP1 REVERT JUMPDEST PUSH2 0xC35 DUP4 DUP4 DUP4 PUSH2 0x2195 JUMP JUMPDEST PUSH1 0x1 PUSH1 0xE PUSH1 0x0 DUP4 DUP2 MSTORE PUSH1 0x20 ADD SWAP1 DUP2 MSTORE PUSH1 0x20 ADD PUSH1 0x0 KECCAK256 PUSH1 0x0 PUSH2 0x100 EXP DUP2 SLOAD DUP2 PUSH1 0xFF MUL NOT AND SWAP1 DUP4 ISZERO ISZERO MUL OR SWAP1 SSTORE POP DUP2 PUSH1 0xF PUSH1 0x0 DUP4 DUP2 MSTORE PUSH1 0x20 ADD SWAP1 DUP2 MSTORE PUSH1 0x20 ADD PUSH1 0x0 KECCAK256 PUSH1 0x0 PUSH2 0x100 EXP DUP2 SLOAD DUP2 PUSH20 0xFFFFFFFFFFFFFFFFFFFFFFFFFFFFFFFFFFFFFFFF MUL NOT AND SWAP1 DUP4 PUSH20 0xFFFFFFFFFFFFFFFFFFFFFFFFFFFFFFFFFFFFFFFF AND MUL OR SWAP1 SSTORE POP POP POP POP JUMP JUMPDEST PUSH1 0x0 DUP1 PUSH1 0x0 PUSH1 0x9 PUSH1 0x0 DUP7 DUP2 MSTORE PUSH1 0x20 ADD SWAP1 DUP2 MSTORE PUSH1 0x20 ADD PUSH1 0x0 KECCAK256 DUP1 SLOAD DUP1 PUSH1 0x20 MUL PUSH1 0x20 ADD PUSH1 0x40 MLOAD SWAP1 DUP2 ADD PUSH1 0x40 MSTORE DUP1 SWAP3 SWAP2 SWAP1 DUP2 DUP2 MSTORE PUSH1 0x20 ADD PUSH1 0x0 SWAP1 JUMPDEST DUP3 DUP3 LT ISZERO PUSH2 0xDB2 JUMPI DUP4 DUP3 SWAP1 PUSH1 0x0 MSTORE PUSH1 0x20 PUSH1 0x0 KECCAK256 ADD PUSH1 0x40 MLOAD DUP1 PUSH1 0x40 ADD PUSH1 0x40 MSTORE SWAP1 DUP2 PUSH1 0x0 DUP3 ADD PUSH1 0x0 SWAP1 SLOAD SWAP1 PUSH2 0x100 EXP SWAP1 DIV PUSH20 0xFFFFFFFFFFFFFFFFFFFFFFFFFFFFFFFFFFFFFFFF AND PUSH20 0xFFFFFFFFFFFFFFFFFFFFFFFFFFFFFFFFFFFFFFFF AND PUSH20 0xFFFFFFFFFFFFFFFFFFFFFFFFFFFFFFFFFFFFFFFF AND DUP2 MSTORE PUSH1 0x20 ADD PUSH1 0x0 DUP3 ADD PUSH1 0x14 SWAP1 SLOAD SWAP1 PUSH2 0x100 EXP SWAP1 DIV PUSH12 0xFFFFFFFFFFFFFFFFFFFFFFFF AND PUSH12 0xFFFFFFFFFFFFFFFFFFFFFFFF AND PUSH12 0xFFFFFFFFFFFFFFFFFFFFFFFF AND DUP2 MSTORE POP POP DUP2 MSTORE PUSH1 0x20 ADD SWAP1 PUSH1 0x1 ADD SWAP1 PUSH2 0xCF0 JUMP JUMPDEST POP POP POP POP SWAP1 POP PUSH1 0x0 DUP2 MLOAD GT ISZERO PUSH2 0xE7E JUMPI DUP1 PUSH1 0x0 DUP2 MLOAD DUP2 LT PUSH2 0xDFC JUMPI PUSH32 0x4E487B7100000000000000000000000000000000000000000000000000000000 PUSH1 0x0 MSTORE PUSH1 0x32 PUSH1 0x4 MSTORE PUSH1 0x24 PUSH1 0x0 REVERT JUMPDEST PUSH1 0x20 MUL PUSH1 0x20 ADD ADD MLOAD PUSH1 0x0 ADD MLOAD PUSH2 0x2710 DUP3 PUSH1 0x0 DUP2 MLOAD DUP2 LT PUSH2 0xE45 JUMPI PUSH32 0x4E487B7100000000000000000000000000000000000000000000000000000000 PUSH1 0x0 MSTORE PUSH1 0x32 PUSH1 0x4 MSTORE PUSH1 0x24 PUSH1 0x0 REVERT JUMPDEST PUSH1 0x20 MUL PUSH1 0x20 ADD ADD MLOAD PUSH1 0x20 ADD MLOAD PUSH12 0xFFFFFFFFFFFFFFFFFFFFFFFF AND DUP7 PUSH2 0xE6A SWAP2 SWAP1 PUSH2 0x47CD JUMP JUMPDEST PUSH2 0xE74 SWAP2 SWAP1 PUSH2 0x479C JUMP JUMPDEST SWAP3 POP SWAP3 POP POP PUSH2 0xE87 JUMP JUMPDEST PUSH1 0x0 DUP1 SWAP3 POP SWAP3 POP POP JUMPDEST SWAP3 POP SWAP3 SWAP1 POP JUMP JUMPDEST PUSH1 0xB PUSH1 0xC SWAP1 SLOAD SWAP1 PUSH2 0x100 EXP SWAP1 DIV PUSH20 0xFFFFFFFFFFFFFFFFFFFFFFFFFFFFFFFFFFFFFFFF AND DUP2 JUMP JUMPDEST PUSH2 0xECF DUP4 DUP4 DUP4 PUSH1 0x40 MLOAD DUP1 PUSH1 0x20 ADD PUSH1 0x40 MSTORE DUP1 PUSH1 0x0 DUP2 MSTORE POP PUSH2 0x19A5 JUMP JUMPDEST POP POP POP JUMP JUMPDEST PUSH1 0xD PUSH1 0x20 MSTORE DUP1 PUSH1 0x0 MSTORE PUSH1 0x40 PUSH1 0x0 KECCAK256 PUSH1 0x0 SWAP2 POP SWAP1 POP DUP1 PUSH1 0x0 ADD SLOAD SWAP1 DUP1 PUSH1 0x1 ADD DUP1 SLOAD PUSH2 0xEFD SWAP1 PUSH2 0x493B JUMP JUMPDEST DUP1 PUSH1 0x1F ADD PUSH1 0x20 DUP1 SWAP2 DIV MUL PUSH1 0x20 ADD PUSH1 0x40 MLOAD SWAP1 DUP2 ADD PUSH1 0x40 MSTORE DUP1 SWAP3 SWAP2 SWAP1 DUP2 DUP2 MSTORE PUSH1 0x20 ADD DUP3 DUP1 SLOAD PUSH2 0xF29 SWAP1 PUSH2 0x493B JUMP JUMPDEST DUP1 ISZERO PUSH2 0xF76 JUMPI DUP1 PUSH1 0x1F LT PUSH2 0xF4B JUMPI PUSH2 0x100 DUP1 DUP4 SLOAD DIV MUL DUP4 MSTORE SWAP2 PUSH1 0x20 ADD SWAP2 PUSH2 0xF76 JUMP JUMPDEST DUP3 ADD SWAP2 SWAP1 PUSH1 0x0 MSTORE PUSH1 0x20 PUSH1 0x0 KECCAK256 SWAP1 JUMPDEST DUP2 SLOAD DUP2 MSTORE SWAP1 PUSH1 0x1 ADD SWAP1 PUSH1 0x20 ADD DUP1 DUP4 GT PUSH2 0xF59 JUMPI DUP3 SWAP1 SUB PUSH1 0x1F AND DUP3 ADD SWAP2 JUMPDEST POP POP POP POP POP SWAP1 DUP1 PUSH1 0x2 ADD DUP1 SLOAD PUSH2 0xF8B SWAP1 PUSH2 0x493B JUMP JUMPDEST DUP1 PUSH1 0x1F ADD PUSH1 0x20 DUP1 SWAP2 DIV MUL PUSH1 0x20 ADD PUSH1 0x40 MLOAD SWAP1 DUP2 ADD PUSH1 0x40 MSTORE DUP1 SWAP3 SWAP2 SWAP1 DUP2 DUP2 MSTORE PUSH1 0x20 ADD DUP3 DUP1 SLOAD PUSH2 0xFB7 SWAP1 PUSH2 0x493B JUMP JUMPDEST DUP1 ISZERO PUSH2 0x1004 JUMPI DUP1 PUSH1 0x1F LT PUSH2 0xFD9 JUMPI PUSH2 0x100 DUP1 DUP4 SLOAD DIV MUL DUP4 MSTORE SWAP2 PUSH1 0x20 ADD SWAP2 PUSH2 0x1004 JUMP JUMPDEST DUP3 ADD SWAP2 SWAP1 PUSH1 0x0 MSTORE PUSH1 0x20 PUSH1 0x0 KECCAK256 SWAP1 JUMPDEST DUP2 SLOAD DUP2 MSTORE SWAP1 PUSH1 0x1 ADD SWAP1 PUSH1 0x20 ADD DUP1 DUP4 GT PUSH2 0xFE7 JUMPI DUP3 SWAP1 SUB PUSH1 0x1F AND DUP3 ADD SWAP2 JUMPDEST POP POP POP POP POP SWAP1 DUP1 PUSH1 0x3 ADD DUP1 SLOAD PUSH2 0x1019 SWAP1 PUSH2 0x493B JUMP JUMPDEST DUP1 PUSH1 0x1F ADD PUSH1 0x20 DUP1 SWAP2 DIV MUL PUSH1 0x20 ADD PUSH1 0x40 MLOAD SWAP1 DUP2 ADD PUSH1 0x40 MSTORE DUP1 SWAP3 SWAP2 SWAP1 DUP2 DUP2 MSTORE PUSH1 0x20 ADD DUP3 DUP1 SLOAD PUSH2 0x1045 SWAP1 PUSH2 0x493B JUMP JUMPDEST DUP1 ISZERO PUSH2 0x1092 JUMPI DUP1 PUSH1 0x1F LT PUSH2 0x1067 JUMPI PUSH2 0x100 DUP1 DUP4 SLOAD DIV MUL DUP4 MSTORE SWAP2 PUSH1 0x20 ADD SWAP2 PUSH2 0x1092 JUMP JUMPDEST DUP3 ADD SWAP2 SWAP1 PUSH1 0x0 MSTORE PUSH1 0x20 PUSH1 0x0 KECCAK256 SWAP1 JUMPDEST DUP2 SLOAD DUP2 MSTORE SWAP1 PUSH1 0x1 ADD SWAP1 PUSH1 0x20 ADD DUP1 DUP4 GT PUSH2 0x1075 JUMPI DUP3 SWAP1 SUB PUSH1 0x1F AND DUP3 ADD SWAP2 JUMPDEST POP POP POP POP POP SWAP1 POP DUP5 JUMP JUMPDEST PUSH1 0x0 DUP1 PUSH1 0x2 PUSH1 0x0 DUP5 DUP2 MSTORE PUSH1 0x20 ADD SWAP1 DUP2 MSTORE PUSH1 0x20 ADD PUSH1 0x0 KECCAK256 PUSH1 0x0 SWAP1 SLOAD SWAP1 PUSH2 0x100 EXP SWAP1 DIV PUSH20 0xFFFFFFFFFFFFFFFFFFFFFFFFFFFFFFFFFFFFFFFF AND SWAP1 POP PUSH1 0x0 PUSH20 0xFFFFFFFFFFFFFFFFFFFFFFFFFFFFFFFFFFFFFFFF AND DUP2 PUSH20 0xFFFFFFFFFFFFFFFFFFFFFFFFFFFFFFFFFFFFFFFF AND EQ ISZERO PUSH2 0x1145 JUMPI PUSH1 0x40 MLOAD PUSH32 0x8C379A000000000000000000000000000000000000000000000000000000000 DUP2 MSTORE PUSH1 0x4 ADD PUSH2 0x113C SWAP1 PUSH2 0x4300 JUMP JUMPDEST PUSH1 0x40 MLOAD DUP1 SWAP2 SUB SWAP1 REVERT JUMPDEST DUP1 SWAP2 POP POP SWAP2 SWAP1 POP JUMP JUMPDEST PUSH1 0x0 PUSH1 0x10 PUSH1 0x0 DUP4 DUP2 MSTORE PUSH1 0x20 ADD SWAP1 DUP2 MSTORE PUSH1 0x20 ADD PUSH1 0x0 KECCAK256 PUSH1 0x0 SWAP1 SLOAD SWAP1 PUSH2 0x100 EXP SWAP1 DIV PUSH1 0xFF AND SWAP1 POP SWAP2 SWAP1 POP JUMP JUMPDEST PUSH2 0x1180 PUSH2 0x3364 JUMP JUMPDEST PUSH1 0xD PUSH1 0x0 DUP4 DUP2 MSTORE PUSH1 0x20 ADD SWAP1 DUP2 MSTORE PUSH1 0x20 ADD PUSH1 0x0 KECCAK256 PUSH1 0x40 MLOAD DUP1 PUSH1 0x80 ADD PUSH1 0x40 MSTORE SWAP1 DUP2 PUSH1 0x0 DUP3 ADD SLOAD DUP2 MSTORE PUSH1 0x20 ADD PUSH1 0x1 DUP3 ADD DUP1 SLOAD PUSH2 0x11B8 SWAP1 PUSH2 0x493B JUMP JUMPDEST DUP1 PUSH1 0x1F ADD PUSH1 0x20 DUP1 SWAP2 DIV MUL PUSH1 0x20 ADD PUSH1 0x40 MLOAD SWAP1 DUP2 ADD PUSH1 0x40 MSTORE DUP1 SWAP3 SWAP2 SWAP1 DUP2 DUP2 MSTORE PUSH1 0x20 ADD DUP3 DUP1 SLOAD PUSH2 0x11E4 SWAP1 PUSH2 0x493B JUMP JUMPDEST DUP1 ISZERO PUSH2 0x1231 JUMPI DUP1 PUSH1 0x1F LT PUSH2 0x1206 JUMPI PUSH2 0x100 DUP1 DUP4 SLOAD DIV MUL DUP4 MSTORE SWAP2 PUSH1 0x20 ADD SWAP2 PUSH2 0x1231 JUMP JUMPDEST DUP3 ADD SWAP2 SWAP1 PUSH1 0x0 MSTORE PUSH1 0x20 PUSH1 0x0 KECCAK256 SWAP1 JUMPDEST DUP2 SLOAD DUP2 MSTORE SWAP1 PUSH1 0x1 ADD SWAP1 PUSH1 0x20 ADD DUP1 DUP4 GT PUSH2 0x1214 JUMPI DUP3 SWAP1 SUB PUSH1 0x1F AND DUP3 ADD SWAP2 JUMPDEST POP POP POP POP POP DUP2 MSTORE PUSH1 0x20 ADD PUSH1 0x2 DUP3 ADD DUP1 SLOAD PUSH2 0x124A SWAP1 PUSH2 0x493B JUMP JUMPDEST DUP1 PUSH1 0x1F ADD PUSH1 0x20 DUP1 SWAP2 DIV MUL PUSH1 0x20 ADD PUSH1 0x40 MLOAD SWAP1 DUP2 ADD PUSH1 0x40 MSTORE DUP1 SWAP3 SWAP2 SWAP1 DUP2 DUP2 MSTORE PUSH1 0x20 ADD DUP3 DUP1 SLOAD PUSH2 0x1276 SWAP1 PUSH2 0x493B JUMP JUMPDEST DUP1 ISZERO PUSH2 0x12C3 JUMPI DUP1 PUSH1 0x1F LT PUSH2 0x1298 JUMPI PUSH2 0x100 DUP1 DUP4 SLOAD DIV MUL DUP4 MSTORE SWAP2 PUSH1 0x20 ADD SWAP2 PUSH2 0x12C3 JUMP JUMPDEST DUP3 ADD SWAP2 SWAP1 PUSH1 0x0 MSTORE PUSH1 0x20 PUSH1 0x0 KECCAK256 SWAP1 JUMPDEST DUP2 SLOAD DUP2 MSTORE SWAP1 PUSH1 0x1 ADD SWAP1 PUSH1 0x20 ADD DUP1 DUP4 GT PUSH2 0x12A6 JUMPI DUP3 SWAP1 SUB PUSH1 0x1F AND DUP3 ADD SWAP2 JUMPDEST POP POP POP POP POP DUP2 MSTORE PUSH1 0x20 ADD PUSH1 0x3 DUP3 ADD DUP1 SLOAD PUSH2 0x12DC SWAP1 PUSH2 0x493B JUMP JUMPDEST DUP1 PUSH1 0x1F ADD PUSH1 0x20 DUP1 SWAP2 DIV MUL PUSH1 0x20 ADD PUSH1 0x40 MLOAD SWAP1 DUP2 ADD PUSH1 0x40 MSTORE DUP1 SWAP3 SWAP2 SWAP1 DUP2 DUP2 MSTORE PUSH1 0x20 ADD DUP3 DUP1 SLOAD PUSH2 0x1308 SWAP1 PUSH2 0x493B JUMP JUMPDEST DUP1 ISZERO PUSH2 0x1355 JUMPI DUP1 PUSH1 0x1F LT PUSH2 0x132A JUMPI PUSH2 0x100 DUP1 DUP4 SLOAD DIV MUL DUP4 MSTORE SWAP2 PUSH1 0x20 ADD SWAP2 PUSH2 0x1355 JUMP JUMPDEST DUP3 ADD SWAP2 SWAP1 PUSH1 0x0 MSTORE PUSH1 0x20 PUSH1 0x0 KECCAK256 SWAP1 JUMPDEST DUP2 SLOAD DUP2 MSTORE SWAP1 PUSH1 0x1 ADD SWAP1 PUSH1 0x20 ADD DUP1 DUP4 GT PUSH2 0x1338 JUMPI DUP3 SWAP1 SUB PUSH1 0x1F AND DUP3 ADD SWAP2 JUMPDEST POP POP POP POP POP DUP2 MSTORE POP POP SWAP1 POP SWAP2 SWAP1 POP JUMP JUMPDEST PUSH1 0x0 DUP1 PUSH20 0xFFFFFFFFFFFFFFFFFFFFFFFFFFFFFFFFFFFFFFFF AND DUP3 PUSH20 0xFFFFFFFFFFFFFFFFFFFFFFFFFFFFFFFFFFFFFFFF AND EQ ISZERO PUSH2 0x13D6 JUMPI PUSH1 0x40 MLOAD PUSH32 0x8C379A000000000000000000000000000000000000000000000000000000000 DUP2 MSTORE PUSH1 0x4 ADD PUSH2 0x13CD SWAP1 PUSH2 0x42E0 JUMP JUMPDEST PUSH1 0x40 MLOAD DUP1 SWAP2 SUB SWAP1 REVERT JUMPDEST PUSH1 0x3 PUSH1 0x0 DUP4 PUSH20 0xFFFFFFFFFFFFFFFFFFFFFFFFFFFFFFFFFFFFFFFF AND PUSH20 0xFFFFFFFFFFFFFFFFFFFFFFFFFFFFFFFFFFFFFFFF AND DUP2 MSTORE PUSH1 0x20 ADD SWAP1 DUP2 MSTORE PUSH1 0x20 ADD PUSH1 0x0 KECCAK256 SLOAD SWAP1 POP SWAP2 SWAP1 POP JUMP JUMPDEST PUSH2 0x1425 PUSH2 0x20D4 JUMP JUMPDEST PUSH20 0xFFFFFFFFFFFFFFFFFFFFFFFFFFFFFFFFFFFFFFFF AND PUSH2 0x1443 PUSH2 0x1562 JUMP JUMPDEST PUSH20 0xFFFFFFFFFFFFFFFFFFFFFFFFFFFFFFFFFFFFFFFF AND EQ PUSH2 0x1499 JUMPI PUSH1 0x40 MLOAD PUSH32 0x8C379A000000000000000000000000000000000000000000000000000000000 DUP2 MSTORE PUSH1 0x4 ADD PUSH2 0x1490 SWAP1 PUSH2 0x43C0 JUMP JUMPDEST PUSH1 0x40 MLOAD DUP1 SWAP2 SUB SWAP1 REVERT JUMPDEST PUSH2 0x14A3 PUSH1 0x0 PUSH2 0x23FC JUMP JUMPDEST JUMP JUMPDEST PUSH1 0xB PUSH1 0x0 SWAP1 SLOAD SWAP1 PUSH2 0x100 EXP SWAP1 DIV PUSH12 0xFFFFFFFFFFFFFFFFFFFFFFFF AND DUP2 JUMP JUMPDEST PUSH1 0x0 PUSH1 0xE PUSH1 0x0 DUP4 DUP2 MSTORE PUSH1 0x20 ADD SWAP1 DUP2 MSTORE PUSH1 0x20 ADD PUSH1 0x0 KECCAK256 PUSH1 0x0 SWAP1 SLOAD SWAP1 PUSH2 0x100 EXP SWAP1 DIV PUSH1 0xFF AND SWAP1 POP SWAP2 SWAP1 POP JUMP JUMPDEST PUSH1 0x9 PUSH1 0x20 MSTORE DUP2 PUSH1 0x0 MSTORE PUSH1 0x40 PUSH1 0x0 KECCAK256 DUP2 DUP2 SLOAD DUP2 LT PUSH2 0x1509 JUMPI PUSH1 0x0 DUP1 REVERT JUMPDEST SWAP1 PUSH1 0x0 MSTORE PUSH1 0x20 PUSH1 0x0 KECCAK256 ADD PUSH1 0x0 SWAP2 POP SWAP2 POP POP DUP1 PUSH1 0x0 ADD PUSH1 0x0 SWAP1 SLOAD SWAP1 PUSH2 0x100 EXP SWAP1 DIV PUSH20 0xFFFFFFFFFFFFFFFFFFFFFFFFFFFFFFFFFFFFFFFF AND SWAP1 DUP1 PUSH1 0x0 ADD PUSH1 0x14 SWAP1 SLOAD SWAP1 PUSH2 0x100 EXP SWAP1 DIV PUSH12 0xFFFFFFFFFFFFFFFFFFFFFFFF AND SWAP1 POP DUP3 JUMP JUMPDEST PUSH1 0x0 PUSH1 0x7 PUSH1 0x0 SWAP1 SLOAD SWAP1 PUSH2 0x100 EXP SWAP1 DIV PUSH20 0xFFFFFFFFFFFFFFFFFFFFFFFFFFFFFFFFFFFFFFFF AND SWAP1 POP SWAP1 JUMP JUMPDEST PUSH1 0x60 PUSH1 0x1 DUP1 SLOAD PUSH2 0x159B SWAP1 PUSH2 0x493B JUMP JUMPDEST DUP1 PUSH1 0x1F ADD PUSH1 0x20 DUP1 SWAP2 DIV MUL PUSH1 0x20 ADD PUSH1 0x40 MLOAD SWAP1 DUP2 ADD PUSH1 0x40 MSTORE DUP1 SWAP3 SWAP2 SWAP1 DUP2 DUP2 MSTORE PUSH1 0x20 ADD DUP3 DUP1 SLOAD PUSH2 0x15C7 SWAP1 PUSH2 0x493B JUMP JUMPDEST DUP1 ISZERO PUSH2 0x1614 JUMPI DUP1 PUSH1 0x1F LT PUSH2 0x15E9 JUMPI PUSH2 0x100 DUP1 DUP4 SLOAD DIV MUL DUP4 MSTORE SWAP2 PUSH1 0x20 ADD SWAP2 PUSH2 0x1614 JUMP JUMPDEST DUP3 ADD SWAP2 SWAP1 PUSH1 0x0 MSTORE PUSH1 0x20 PUSH1 0x0 KECCAK256 SWAP1 JUMPDEST DUP2 SLOAD DUP2 MSTORE SWAP1 PUSH1 0x1 ADD SWAP1 PUSH1 0x20 ADD DUP1 DUP4 GT PUSH2 0x15F7 JUMPI DUP3 SWAP1 SUB PUSH1 0x1F AND DUP3 ADD SWAP2 JUMPDEST POP POP POP POP POP SWAP1 POP SWAP1 JUMP JUMPDEST PUSH1 0xA SLOAD DUP2 JUMP JUMPDEST PUSH2 0x1636 PUSH2 0x162F PUSH2 0x20D4 JUMP JUMPDEST DUP4 DUP4 PUSH2 0x24C2 JUMP JUMPDEST POP POP JUMP JUMPDEST PUSH1 0x0 PUSH1 0x2 PUSH1 0x8 SLOAD EQ ISZERO PUSH2 0x1682 JUMPI PUSH1 0x40 MLOAD PUSH32 0x8C379A000000000000000000000000000000000000000000000000000000000 DUP2 MSTORE PUSH1 0x4 ADD PUSH2 0x1679 SWAP1 PUSH2 0x44C0 JUMP JUMPDEST PUSH1 0x40 MLOAD DUP1 SWAP2 SUB SWAP1 REVERT JUMPDEST PUSH1 0x2 PUSH1 0x8 DUP2 SWAP1 SSTORE POP PUSH2 0x1692 PUSH2 0x20D4 JUMP JUMPDEST PUSH20 0xFFFFFFFFFFFFFFFFFFFFFFFFFFFFFFFFFFFFFFFF AND PUSH2 0x16B0 PUSH2 0x1562 JUMP JUMPDEST PUSH20 0xFFFFFFFFFFFFFFFFFFFFFFFFFFFFFFFFFFFFFFFF AND EQ PUSH2 0x1706 JUMPI PUSH1 0x40 MLOAD PUSH32 0x8C379A000000000000000000000000000000000000000000000000000000000 DUP2 MSTORE PUSH1 0x4 ADD PUSH2 0x16FD SWAP1 PUSH2 0x43C0 JUMP JUMPDEST PUSH1 0x40 MLOAD DUP1 SWAP2 SUB SWAP1 REVERT JUMPDEST PUSH1 0xA PUSH1 0x0 DUP2 SLOAD DUP1 SWAP3 SWAP2 SWAP1 PUSH2 0x1719 SWAP1 PUSH2 0x499E JUMP JUMPDEST SWAP2 SWAP1 POP SSTORE POP PUSH2 0x1729 PUSH1 0xA SLOAD PUSH2 0x2068 JUMP JUMPDEST ISZERO PUSH2 0x1769 JUMPI PUSH1 0x40 MLOAD PUSH32 0x8C379A000000000000000000000000000000000000000000000000000000000 DUP2 MSTORE PUSH1 0x4 ADD PUSH2 0x1760 SWAP1 PUSH2 0x44A0 JUMP JUMPDEST PUSH1 0x40 MLOAD DUP1 SWAP2 SUB SWAP1 REVERT JUMPDEST PUSH2 0x1775 DUP6 PUSH1 0xA SLOAD PUSH2 0x262F JUMP JUMPDEST PUSH2 0x1781 PUSH1 0xA SLOAD DUP6 PUSH2 0x264D JUMP JUMPDEST PUSH2 0x1789 PUSH2 0x338C JUMP JUMPDEST PUSH1 0xA SLOAD DUP2 PUSH1 0x0 ADD DUP2 DUP2 MSTORE POP POP DUP4 DUP2 PUSH1 0x20 ADD DUP2 SWAP1 MSTORE POP DUP1 PUSH1 0xC PUSH1 0x0 PUSH1 0xA SLOAD DUP2 MSTORE PUSH1 0x20 ADD SWAP1 DUP2 MSTORE PUSH1 0x20 ADD PUSH1 0x0 KECCAK256 PUSH1 0x0 DUP3 ADD MLOAD DUP2 PUSH1 0x0 ADD SSTORE PUSH1 0x20 DUP3 ADD MLOAD DUP2 PUSH1 0x1 ADD SWAP1 DUP1 MLOAD SWAP1 PUSH1 0x20 ADD SWAP1 PUSH2 0x17DA SWAP3 SWAP2 SWAP1 PUSH2 0x33A6 JUMP JUMPDEST POP SWAP1 POP POP PUSH2 0x17E6 PUSH2 0x3364 JUMP JUMPDEST DUP4 PUSH1 0x0 ADD MLOAD DUP2 PUSH1 0x0 ADD DUP2 DUP2 MSTORE POP POP DUP4 PUSH1 0x20 ADD MLOAD DUP2 PUSH1 0x20 ADD DUP2 SWAP1 MSTORE POP DUP4 PUSH1 0x40 ADD MLOAD DUP2 PUSH1 0x40 ADD DUP2 SWAP1 MSTORE POP DUP4 PUSH1 0x60 ADD MLOAD DUP2 PUSH1 0x60 ADD DUP2 SWAP1 MSTORE POP DUP1 PUSH1 0xD PUSH1 0x0 PUSH1 0xA SLOAD DUP2 MSTORE PUSH1 0x20 ADD SWAP1 DUP2 MSTORE PUSH1 0x20 ADD PUSH1 0x0 KECCAK256 PUSH1 0x0 DUP3 ADD MLOAD DUP2 PUSH1 0x0 ADD SSTORE PUSH1 0x20 DUP3 ADD MLOAD DUP2 PUSH1 0x1 ADD SWAP1 DUP1 MLOAD SWAP1 PUSH1 0x20 ADD SWAP1 PUSH2 0x1857 SWAP3 SWAP2 SWAP1 PUSH2 0x33A6 JUMP JUMPDEST POP PUSH1 0x40 DUP3 ADD MLOAD DUP2 PUSH1 0x2 ADD SWAP1 DUP1 MLOAD SWAP1 PUSH1 0x20 ADD SWAP1 PUSH2 0x1874 SWAP3 SWAP2 SWAP1 PUSH2 0x33A6 JUMP JUMPDEST POP PUSH1 0x60 DUP3 ADD MLOAD DUP2 PUSH1 0x3 ADD SWAP1 DUP1 MLOAD SWAP1 PUSH1 0x20 ADD SWAP1 PUSH2 0x1891 SWAP3 SWAP2 SWAP1 PUSH2 0x33A6 JUMP JUMPDEST POP SWAP1 POP POP PUSH1 0x0 PUSH1 0xE PUSH1 0x0 PUSH1 0xA SLOAD DUP2 MSTORE PUSH1 0x20 ADD SWAP1 DUP2 MSTORE PUSH1 0x20 ADD PUSH1 0x0 KECCAK256 PUSH1 0x0 PUSH2 0x100 EXP DUP2 SLOAD DUP2 PUSH1 0xFF MUL NOT AND SWAP1 DUP4 ISZERO ISZERO MUL OR SWAP1 SSTORE POP PUSH1 0x0 PUSH1 0x10 PUSH1 0x0 PUSH1 0xA SLOAD DUP2 MSTORE PUSH1 0x20 ADD SWAP1 DUP2 MSTORE PUSH1 0x20 ADD PUSH1 0x0 KECCAK256 PUSH1 0x0 PUSH2 0x100 EXP DUP2 SLOAD DUP2 PUSH1 0xFF MUL NOT AND SWAP1 DUP4 ISZERO ISZERO MUL OR SWAP1 SSTORE POP DUP7 PUSH1 0xF PUSH1 0x0 PUSH1 0xA SLOAD DUP2 MSTORE PUSH1 0x20 ADD SWAP1 DUP2 MSTORE PUSH1 0x20 ADD PUSH1 0x0 KECCAK256 PUSH1 0x0 PUSH2 0x100 EXP DUP2 SLOAD DUP2 PUSH20 0xFFFFFFFFFFFFFFFFFFFFFFFFFFFFFFFFFFFFFFFF MUL NOT AND SWAP1 DUP4 PUSH20 0xFFFFFFFFFFFFFFFFFFFFFFFFFFFFFFFFFFFFFFFF AND MUL OR SWAP1 SSTORE POP PUSH2 0x198E PUSH1 0xA SLOAD PUSH1 0xB PUSH1 0xC SWAP1 SLOAD SWAP1 PUSH2 0x100 EXP SWAP1 DIV PUSH20 0xFFFFFFFFFFFFFFFFFFFFFFFFFFFFFFFFFFFFFFFF AND PUSH1 0xB PUSH1 0x0 SWAP1 SLOAD SWAP1 PUSH2 0x100 EXP SWAP1 DIV PUSH12 0xFFFFFFFFFFFFFFFFFFFFFFFF AND PUSH2 0x26C1 JUMP JUMPDEST PUSH1 0xA SLOAD SWAP3 POP POP POP PUSH1 0x1 PUSH1 0x8 DUP2 SWAP1 SSTORE POP SWAP5 SWAP4 POP POP POP POP JUMP JUMPDEST PUSH2 0x19B6 PUSH2 0x19B0 PUSH2 0x20D4 JUMP JUMPDEST DUP4 PUSH2 0x28AE JUMP JUMPDEST PUSH2 0x19F5 JUMPI PUSH1 0x40 MLOAD PUSH32 0x8C379A000000000000000000000000000000000000000000000000000000000 DUP2 MSTORE PUSH1 0x4 ADD PUSH2 0x19EC SWAP1 PUSH2 0x4480 JUMP JUMPDEST PUSH1 0x40 MLOAD DUP1 SWAP2 SUB SWAP1 REVERT JUMPDEST PUSH2 0x1A01 DUP5 DUP5 DUP5 DUP5 PUSH2 0x298C JUMP JUMPDEST POP POP POP POP JUMP JUMPDEST PUSH1 0x0 PUSH2 0x1A12 DUP3 PUSH2 0x109C JUMP JUMPDEST SWAP1 POP SWAP2 SWAP1 POP JUMP JUMPDEST PUSH1 0x60 PUSH2 0x1A24 DUP3 PUSH2 0x2068 JUMP JUMPDEST PUSH2 0x1A63 JUMPI PUSH1 0x40 MLOAD PUSH32 0x8C379A000000000000000000000000000000000000000000000000000000000 DUP2 MSTORE PUSH1 0x4 ADD PUSH2 0x1A5A SWAP1 PUSH2 0x4380 JUMP JUMPDEST PUSH1 0x40 MLOAD DUP1 SWAP2 SUB SWAP1 REVERT JUMPDEST PUSH1 0x0 PUSH1 0x6 PUSH1 0x0 DUP5 DUP2 MSTORE PUSH1 0x20 ADD SWAP1 DUP2 MSTORE PUSH1 0x20 ADD PUSH1 0x0 KECCAK256 DUP1 SLOAD PUSH2 0x1A83 SWAP1 PUSH2 0x493B JUMP JUMPDEST DUP1 PUSH1 0x1F ADD PUSH1 0x20 DUP1 SWAP2 DIV MUL PUSH1 0x20 ADD PUSH1 0x40 MLOAD SWAP1 DUP2 ADD PUSH1 0x40 MSTORE DUP1 SWAP3 SWAP2 SWAP1 DUP2 DUP2 MSTORE PUSH1 0x20 ADD DUP3 DUP1 SLOAD PUSH2 0x1AAF SWAP1 PUSH2 0x493B JUMP JUMPDEST DUP1 ISZERO PUSH2 0x1AFC JUMPI DUP1 PUSH1 0x1F LT PUSH2 0x1AD1 JUMPI PUSH2 0x100 DUP1 DUP4 SLOAD DIV MUL DUP4 MSTORE SWAP2 PUSH1 0x20 ADD SWAP2 PUSH2 0x1AFC JUMP JUMPDEST DUP3 ADD SWAP2 SWAP1 PUSH1 0x0 MSTORE PUSH1 0x20 PUSH1 0x0 KECCAK256 SWAP1 JUMPDEST DUP2 SLOAD DUP2 MSTORE SWAP1 PUSH1 0x1 ADD SWAP1 PUSH1 0x20 ADD DUP1 DUP4 GT PUSH2 0x1ADF JUMPI DUP3 SWAP1 SUB PUSH1 0x1F AND DUP3 ADD SWAP2 JUMPDEST POP POP POP POP POP SWAP1 POP PUSH1 0x0 PUSH2 0x1B0D PUSH2 0x29E8 JUMP JUMPDEST SWAP1 POP PUSH1 0x0 DUP2 MLOAD EQ ISZERO PUSH2 0x1B23 JUMPI DUP2 SWAP3 POP POP POP PUSH2 0x1B66 JUMP JUMPDEST PUSH1 0x0 DUP3 MLOAD GT ISZERO PUSH2 0x1B58 JUMPI DUP1 DUP3 PUSH1 0x40 MLOAD PUSH1 0x20 ADD PUSH2 0x1B40 SWAP3 SWAP2 SWAP1 PUSH2 0x4009 JUMP JUMPDEST PUSH1 0x40 MLOAD PUSH1 0x20 DUP2 DUP4 SUB SUB DUP2 MSTORE SWAP1 PUSH1 0x40 MSTORE SWAP3 POP POP POP PUSH2 0x1B66 JUMP JUMPDEST PUSH2 0x1B61 DUP5 PUSH2 0x29FF JUMP JUMPDEST SWAP3 POP POP POP JUMPDEST SWAP2 SWAP1 POP JUMP JUMPDEST PUSH1 0x60 PUSH1 0x9 PUSH1 0x0 DUP4 DUP2 MSTORE PUSH1 0x20 ADD SWAP1 DUP2 MSTORE PUSH1 0x20 ADD PUSH1 0x0 KECCAK256 DUP1 SLOAD DUP1 PUSH1 0x20 MUL PUSH1 0x20 ADD PUSH1 0x40 MLOAD SWAP1 DUP2 ADD PUSH1 0x40 MSTORE DUP1 SWAP3 SWAP2 SWAP1 DUP2 DUP2 MSTORE PUSH1 0x20 ADD PUSH1 0x0 SWAP1 JUMPDEST DUP3 DUP3 LT ISZERO PUSH2 0x1C62 JUMPI DUP4 DUP3 SWAP1 PUSH1 0x0 MSTORE PUSH1 0x20 PUSH1 0x0 KECCAK256 ADD PUSH1 0x40 MLOAD DUP1 PUSH1 0x40 ADD PUSH1 0x40 MSTORE SWAP1 DUP2 PUSH1 0x0 DUP3 ADD PUSH1 0x0 SWAP1 SLOAD SWAP1 PUSH2 0x100 EXP SWAP1 DIV PUSH20 0xFFFFFFFFFFFFFFFFFFFFFFFFFFFFFFFFFFFFFFFF AND PUSH20 0xFFFFFFFFFFFFFFFFFFFFFFFFFFFFFFFFFFFFFFFF AND PUSH20 0xFFFFFFFFFFFFFFFFFFFFFFFFFFFFFFFFFFFFFFFF AND DUP2 MSTORE PUSH1 0x20 ADD PUSH1 0x0 DUP3 ADD PUSH1 0x14 SWAP1 SLOAD SWAP1 PUSH2 0x100 EXP SWAP1 DIV PUSH12 0xFFFFFFFFFFFFFFFFFFFFFFFF AND PUSH12 0xFFFFFFFFFFFFFFFFFFFFFFFF AND PUSH12 0xFFFFFFFFFFFFFFFFFFFFFFFF AND DUP2 MSTORE POP POP DUP2 MSTORE PUSH1 0x20 ADD SWAP1 PUSH1 0x1 ADD SWAP1 PUSH2 0x1BA0 JUMP JUMPDEST POP POP POP POP SWAP1 POP SWAP2 SWAP1 POP JUMP JUMPDEST PUSH1 0x0 PUSH2 0x1C78 DUP4 PUSH2 0x2068 JUMP JUMPDEST PUSH2 0x1CB7 JUMPI PUSH1 0x40 MLOAD PUSH32 0x8C379A000000000000000000000000000000000000000000000000000000000 DUP2 MSTORE PUSH1 0x4 ADD PUSH2 0x1CAE SWAP1 PUSH2 0x42A0 JUMP JUMPDEST PUSH1 0x40 MLOAD DUP1 SWAP2 SUB SWAP1 REVERT JUMPDEST PUSH2 0x1CC0 DUP4 PUSH2 0x114E JUMP JUMPDEST ISZERO PUSH2 0x1D00 JUMPI PUSH1 0x40 MLOAD PUSH32 0x8C379A000000000000000000000000000000000000000000000000000000000 DUP2 MSTORE PUSH1 0x4 ADD PUSH2 0x1CF7 SWAP1 PUSH2 0x4160 JUMP JUMPDEST PUSH1 0x40 MLOAD DUP1 SWAP2 SUB SWAP1 REVERT JUMPDEST DUP2 PUSH2 0x1D0A DUP5 PUSH2 0x1178 JUMP JUMPDEST PUSH1 0x0 ADD MLOAD EQ PUSH2 0x1D4E JUMPI PUSH1 0x40 MLOAD PUSH32 0x8C379A000000000000000000000000000000000000000000000000000000000 DUP2 MSTORE PUSH1 0x4 ADD PUSH2 0x1D45 SWAP1 PUSH2 0x4280 JUMP JUMPDEST PUSH1 0x40 MLOAD DUP1 SWAP2 SUB SWAP1 REVERT JUMPDEST CALLER PUSH20 0xFFFFFFFFFFFFFFFFFFFFFFFFFFFFFFFFFFFFFFFF AND PUSH2 0x1D6E DUP5 PUSH2 0x1A07 JUMP JUMPDEST PUSH20 0xFFFFFFFFFFFFFFFFFFFFFFFFFFFFFFFFFFFFFFFF AND EQ PUSH2 0x1DC4 JUMPI PUSH1 0x40 MLOAD PUSH32 0x8C379A000000000000000000000000000000000000000000000000000000000 DUP2 MSTORE PUSH1 0x4 ADD PUSH2 0x1DBB SWAP1 PUSH2 0x43E0 JUMP JUMPDEST PUSH1 0x40 MLOAD DUP1 SWAP2 SUB SWAP1 REVERT JUMPDEST PUSH1 0x1 PUSH1 0x10 PUSH1 0x0 DUP6 DUP2 MSTORE PUSH1 0x20 ADD SWAP1 DUP2 MSTORE PUSH1 0x20 ADD PUSH1 0x0 KECCAK256 PUSH1 0x0 PUSH2 0x100 EXP DUP2 SLOAD DUP2 PUSH1 0xFF MUL NOT AND SWAP1 DUP4 ISZERO ISZERO MUL OR SWAP1 SSTORE POP PUSH1 0x1 SWAP1 POP SWAP3 SWAP2 POP POP JUMP JUMPDEST PUSH1 0x0 PUSH1 0x5 PUSH1 0x0 DUP5 PUSH20 0xFFFFFFFFFFFFFFFFFFFFFFFFFFFFFFFFFFFFFFFF AND PUSH20 0xFFFFFFFFFFFFFFFFFFFFFFFFFFFFFFFFFFFFFFFF AND DUP2 MSTORE PUSH1 0x20 ADD SWAP1 DUP2 MSTORE PUSH1 0x20 ADD PUSH1 0x0 KECCAK256 PUSH1 0x0 DUP4 PUSH20 0xFFFFFFFFFFFFFFFFFFFFFFFFFFFFFFFFFFFFFFFF AND PUSH20 0xFFFFFFFFFFFFFFFFFFFFFFFFFFFFFFFFFFFFFFFF AND DUP2 MSTORE PUSH1 0x20 ADD SWAP1 DUP2 MSTORE PUSH1 0x20 ADD PUSH1 0x0 KECCAK256 PUSH1 0x0 SWAP1 SLOAD SWAP1 PUSH2 0x100 EXP SWAP1 DIV PUSH1 0xFF AND SWAP1 POP SWAP3 SWAP2 POP POP JUMP JUMPDEST PUSH2 0x1E96 PUSH2 0x20D4 JUMP JUMPDEST PUSH20 0xFFFFFFFFFFFFFFFFFFFFFFFFFFFFFFFFFFFFFFFF AND PUSH2 0x1EB4 PUSH2 0x1562 JUMP JUMPDEST PUSH20 0xFFFFFFFFFFFFFFFFFFFFFFFFFFFFFFFFFFFFFFFF AND EQ PUSH2 0x1F0A JUMPI PUSH1 0x40 MLOAD PUSH32 0x8C379A000000000000000000000000000000000000000000000000000000000 DUP2 MSTORE PUSH1 0x4 ADD PUSH2 0x1F01 SWAP1 PUSH2 0x43C0 JUMP JUMPDEST PUSH1 0x40 MLOAD DUP1 SWAP2 SUB SWAP1 REVERT JUMPDEST PUSH1 0x0 PUSH20 0xFFFFFFFFFFFFFFFFFFFFFFFFFFFFFFFFFFFFFFFF AND DUP2 PUSH20 0xFFFFFFFFFFFFFFFFFFFFFFFFFFFFFFFFFFFFFFFF AND EQ ISZERO PUSH2 0x1F7A JUMPI PUSH1 0x40 MLOAD PUSH32 0x8C379A000000000000000000000000000000000000000000000000000000000 DUP2 MSTORE PUSH1 0x4 ADD PUSH2 0x1F71 SWAP1 PUSH2 0x41A0 JUMP JUMPDEST PUSH1 0x40 MLOAD DUP1 SWAP2 SUB SWAP1 REVERT JUMPDEST PUSH2 0x1F83 DUP2 PUSH2 0x23FC JUMP JUMPDEST POP JUMP JUMPDEST PUSH1 0x0 PUSH32 0x80AC58CD00000000000000000000000000000000000000000000000000000000 PUSH28 0xFFFFFFFFFFFFFFFFFFFFFFFFFFFFFFFFFFFFFFFFFFFFFFFFFFFFFFFF NOT AND DUP3 PUSH28 0xFFFFFFFFFFFFFFFFFFFFFFFFFFFFFFFFFFFFFFFFFFFFFFFFFFFFFFFF NOT AND EQ DUP1 PUSH2 0x2051 JUMPI POP PUSH32 0x5B5E139F00000000000000000000000000000000000000000000000000000000 PUSH28 0xFFFFFFFFFFFFFFFFFFFFFFFFFFFFFFFFFFFFFFFFFFFFFFFFFFFFFFFF NOT AND DUP3 PUSH28 0xFFFFFFFFFFFFFFFFFFFFFFFFFFFFFFFFFFFFFFFFFFFFFFFFFFFFFFFF NOT AND EQ JUMPDEST DUP1 PUSH2 0x2061 JUMPI POP PUSH2 0x2060 DUP3 PUSH2 0x2AA6 JUMP JUMPDEST JUMPDEST SWAP1 POP SWAP2 SWAP1 POP JUMP JUMPDEST PUSH1 0x0 DUP1 PUSH20 0xFFFFFFFFFFFFFFFFFFFFFFFFFFFFFFFFFFFFFFFF AND PUSH1 0x2 PUSH1 0x0 DUP5 DUP2 MSTORE PUSH1 0x20 ADD SWAP1 DUP2 MSTORE PUSH1 0x20 ADD PUSH1 0x0 KECCAK256 PUSH1 0x0 SWAP1 SLOAD SWAP1 PUSH2 0x100 EXP SWAP1 DIV PUSH20 0xFFFFFFFFFFFFFFFFFFFFFFFFFFFFFFFFFFFFFFFF AND PUSH20 0xFFFFFFFFFFFFFFFFFFFFFFFFFFFFFFFFFFFFFFFF AND EQ ISZERO SWAP1 POP SWAP2 SWAP1 POP JUMP JUMPDEST PUSH1 0x0 CALLER SWAP1 POP SWAP1 JUMP JUMPDEST DUP2 PUSH1 0x4 PUSH1 0x0 DUP4 DUP2 MSTORE PUSH1 0x20 ADD SWAP1 DUP2 MSTORE PUSH1 0x20 ADD PUSH1 0x0 KECCAK256 PUSH1 0x0 PUSH2 0x100 EXP DUP2 SLOAD DUP2 PUSH20 0xFFFFFFFFFFFFFFFFFFFFFFFFFFFFFFFFFFFFFFFF MUL NOT AND SWAP1 DUP4 PUSH20 0xFFFFFFFFFFFFFFFFFFFFFFFFFFFFFFFFFFFFFFFF AND MUL OR SWAP1 SSTORE POP DUP1 DUP3 PUSH20 0xFFFFFFFFFFFFFFFFFFFFFFFFFFFFFFFFFFFFFFFF AND PUSH2 0x214F DUP4 PUSH2 0x109C JUMP JUMPDEST PUSH20 0xFFFFFFFFFFFFFFFFFFFFFFFFFFFFFFFFFFFFFFFF AND PUSH32 0x8C5BE1E5EBEC7D5BD14F71427D1E84F3DD0314C0F7B2291E5B200AC8C7C3B925 PUSH1 0x40 MLOAD PUSH1 0x40 MLOAD DUP1 SWAP2 SUB SWAP1 LOG4 POP POP JUMP JUMPDEST DUP3 PUSH20 0xFFFFFFFFFFFFFFFFFFFFFFFFFFFFFFFFFFFFFFFF AND PUSH2 0x21B5 DUP3 PUSH2 0x109C JUMP JUMPDEST PUSH20 0xFFFFFFFFFFFFFFFFFFFFFFFFFFFFFFFFFFFFFFFF AND EQ PUSH2 0x220B JUMPI PUSH1 0x40 MLOAD PUSH32 0x8C379A000000000000000000000000000000000000000000000000000000000 DUP2 MSTORE PUSH1 0x4 ADD PUSH2 0x2202 SWAP1 PUSH2 0x41C0 JUMP JUMPDEST PUSH1 0x40 MLOAD DUP1 SWAP2 SUB SWAP1 REVERT JUMPDEST PUSH1 0x0 PUSH20 0xFFFFFFFFFFFFFFFFFFFFFFFFFFFFFFFFFFFFFFFF AND DUP3 PUSH20 0xFFFFFFFFFFFFFFFFFFFFFFFFFFFFFFFFFFFFFFFF AND EQ ISZERO PUSH2 0x227B JUMPI PUSH1 0x40 MLOAD PUSH32 0x8C379A000000000000000000000000000000000000000000000000000000000 DUP2 MSTORE PUSH1 0x4 ADD PUSH2 0x2272 SWAP1 PUSH2 0x4200 JUMP JUMPDEST PUSH1 0x40 MLOAD DUP1 SWAP2 SUB SWAP1 REVERT JUMPDEST PUSH2 0x2286 DUP4 DUP4 DUP4 PUSH2 0x2B10 JUMP JUMPDEST PUSH2 0x2291 PUSH1 0x0 DUP3 PUSH2 0x20DC JUMP JUMPDEST PUSH1 0x1 PUSH1 0x3 PUSH1 0x0 DUP6 PUSH20 0xFFFFFFFFFFFFFFFFFFFFFFFFFFFFFFFFFFFFFFFF AND PUSH20 0xFFFFFFFFFFFFFFFFFFFFFFFFFFFFFFFFFFFFFFFF AND DUP2 MSTORE PUSH1 0x20 ADD SWAP1 DUP2 MSTORE PUSH1 0x20 ADD PUSH1 0x0 KECCAK256 PUSH1 0x0 DUP3 DUP3 SLOAD PUSH2 0x22E1 SWAP2 SWAP1 PUSH2 0x4827 JUMP JUMPDEST SWAP3 POP POP DUP2 SWAP1 SSTORE POP PUSH1 0x1 PUSH1 0x3 PUSH1 0x0 DUP5 PUSH20 0xFFFFFFFFFFFFFFFFFFFFFFFFFFFFFFFFFFFFFFFF AND PUSH20 0xFFFFFFFFFFFFFFFFFFFFFFFFFFFFFFFFFFFFFFFF AND DUP2 MSTORE PUSH1 0x20 ADD SWAP1 DUP2 MSTORE PUSH1 0x20 ADD PUSH1 0x0 KECCAK256 PUSH1 0x0 DUP3 DUP3 SLOAD PUSH2 0x2338 SWAP2 SWAP1 PUSH2 0x4746 JUMP JUMPDEST SWAP3 POP POP DUP2 SWAP1 SSTORE POP DUP2 PUSH1 0x2 PUSH1 0x0 DUP4 DUP2 MSTORE PUSH1 0x20 ADD SWAP1 DUP2 MSTORE PUSH1 0x20 ADD PUSH1 0x0 KECCAK256 PUSH1 0x0 PUSH2 0x100 EXP DUP2 SLOAD DUP2 PUSH20 0xFFFFFFFFFFFFFFFFFFFFFFFFFFFFFFFFFFFFFFFF MUL NOT AND SWAP1 DUP4 PUSH20 0xFFFFFFFFFFFFFFFFFFFFFFFFFFFFFFFFFFFFFFFF AND MUL OR SWAP1 SSTORE POP DUP1 DUP3 PUSH20 0xFFFFFFFFFFFFFFFFFFFFFFFFFFFFFFFFFFFFFFFF AND DUP5 PUSH20 0xFFFFFFFFFFFFFFFFFFFFFFFFFFFFFFFFFFFFFFFF AND PUSH32 0xDDF252AD1BE2C89B69C2B068FC378DAA952BA7F163C4A11628F55A4DF523B3EF PUSH1 0x40 MLOAD PUSH1 0x40 MLOAD DUP1 SWAP2 SUB SWAP1 LOG4 PUSH2 0x23F7 DUP4 DUP4 DUP4 PUSH2 0x2B15 JUMP JUMPDEST POP POP POP JUMP JUMPDEST PUSH1 0x0 PUSH1 0x7 PUSH1 0x0 SWAP1 SLOAD SWAP1 PUSH2 0x100 EXP SWAP1 DIV PUSH20 0xFFFFFFFFFFFFFFFFFFFFFFFFFFFFFFFFFFFFFFFF AND SWAP1 POP DUP2 PUSH1 0x7 PUSH1 0x0 PUSH2 0x100 EXP DUP2 SLOAD DUP2 PUSH20 0xFFFFFFFFFFFFFFFFFFFFFFFFFFFFFFFFFFFFFFFF MUL NOT AND SWAP1 DUP4 PUSH20 0xFFFFFFFFFFFFFFFFFFFFFFFFFFFFFFFFFFFFFFFF AND MUL OR SWAP1 SSTORE POP DUP2 PUSH20 0xFFFFFFFFFFFFFFFFFFFFFFFFFFFFFFFFFFFFFFFF AND DUP2 PUSH20 0xFFFFFFFFFFFFFFFFFFFFFFFFFFFFFFFFFFFFFFFF AND PUSH32 0x8BE0079C531659141344CD1FD0A4F28419497F9722A3DAAFE3B4186F6B6457E0 PUSH1 0x40 MLOAD PUSH1 0x40 MLOAD DUP1 SWAP2 SUB SWAP1 LOG3 POP POP JUMP JUMPDEST DUP2 PUSH20 0xFFFFFFFFFFFFFFFFFFFFFFFFFFFFFFFFFFFFFFFF AND DUP4 PUSH20 0xFFFFFFFFFFFFFFFFFFFFFFFFFFFFFFFFFFFFFFFF AND EQ ISZERO PUSH2 0x2531 JUMPI PUSH1 0x40 MLOAD PUSH32 0x8C379A000000000000000000000000000000000000000000000000000000000 DUP2 MSTORE PUSH1 0x4 ADD PUSH2 0x2528 SWAP1 PUSH2 0x4220 JUMP JUMPDEST PUSH1 0x40 MLOAD DUP1 SWAP2 SUB SWAP1 REVERT JUMPDEST DUP1 PUSH1 0x5 PUSH1 0x0 DUP6 PUSH20 0xFFFFFFFFFFFFFFFFFFFFFFFFFFFFFFFFFFFFFFFF AND PUSH20 0xFFFFFFFFFFFFFFFFFFFFFFFFFFFFFFFFFFFFFFFF AND DUP2 MSTORE PUSH1 0x20 ADD SWAP1 DUP2 MSTORE PUSH1 0x20 ADD PUSH1 0x0 KECCAK256 PUSH1 0x0 DUP5 PUSH20 0xFFFFFFFFFFFFFFFFFFFFFFFFFFFFFFFFFFFFFFFF AND PUSH20 0xFFFFFFFFFFFFFFFFFFFFFFFFFFFFFFFFFFFFFFFF AND DUP2 MSTORE PUSH1 0x20 ADD SWAP1 DUP2 MSTORE PUSH1 0x20 ADD PUSH1 0x0 KECCAK256 PUSH1 0x0 PUSH2 0x100 EXP DUP2 SLOAD DUP2 PUSH1 0xFF MUL NOT AND SWAP1 DUP4 ISZERO ISZERO MUL OR SWAP1 SSTORE POP DUP2 PUSH20 0xFFFFFFFFFFFFFFFFFFFFFFFFFFFFFFFFFFFFFFFF AND DUP4 PUSH20 0xFFFFFFFFFFFFFFFFFFFFFFFFFFFFFFFFFFFFFFFF AND PUSH32 0x17307EAB39AB6107E8899845AD3D59BD9653F200F220920489CA2B5937696C31 DUP4 PUSH1 0x40 MLOAD PUSH2 0x2622 SWAP2 SWAP1 PUSH2 0x4123 JUMP JUMPDEST PUSH1 0x40 MLOAD DUP1 SWAP2 SUB SWAP1 LOG3 POP POP POP JUMP JUMPDEST PUSH2 0x2649 DUP3 DUP3 PUSH1 0x40 MLOAD DUP1 PUSH1 0x20 ADD PUSH1 0x40 MSTORE DUP1 PUSH1 0x0 DUP2 MSTORE POP PUSH2 0x2B1A JUMP JUMPDEST POP POP JUMP JUMPDEST PUSH2 0x2656 DUP3 PUSH2 0x2068 JUMP JUMPDEST PUSH2 0x2695 JUMPI PUSH1 0x40 MLOAD PUSH32 0x8C379A000000000000000000000000000000000000000000000000000000000 DUP2 MSTORE PUSH1 0x4 ADD PUSH2 0x268C SWAP1 PUSH2 0x4320 JUMP JUMPDEST PUSH1 0x40 MLOAD DUP1 SWAP2 SUB SWAP1 REVERT JUMPDEST DUP1 PUSH1 0x6 PUSH1 0x0 DUP5 DUP2 MSTORE PUSH1 0x20 ADD SWAP1 DUP2 MSTORE PUSH1 0x20 ADD PUSH1 0x0 KECCAK256 SWAP1 DUP1 MLOAD SWAP1 PUSH1 0x20 ADD SWAP1 PUSH2 0x26BC SWAP3 SWAP2 SWAP1 PUSH2 0x33A6 JUMP JUMPDEST POP POP POP JUMP JUMPDEST PUSH2 0x26C9 PUSH2 0x20D4 JUMP JUMPDEST PUSH20 0xFFFFFFFFFFFFFFFFFFFFFFFFFFFFFFFFFFFFFFFF AND PUSH2 0x26E7 PUSH2 0x1562 JUMP JUMPDEST PUSH20 0xFFFFFFFFFFFFFFFFFFFFFFFFFFFFFFFFFFFFFFFF AND EQ PUSH2 0x273D JUMPI PUSH1 0x40 MLOAD PUSH32 0x8C379A000000000000000000000000000000000000000000000000000000000 DUP2 MSTORE PUSH1 0x4 ADD PUSH2 0x2734 SWAP1 PUSH2 0x43C0 JUMP JUMPDEST PUSH1 0x40 MLOAD DUP1 SWAP2 SUB SWAP1 REVERT JUMPDEST PUSH1 0x0 PUSH1 0x1 PUSH8 0xFFFFFFFFFFFFFFFF DUP2 GT ISZERO PUSH2 0x2780 JUMPI PUSH32 0x4E487B7100000000000000000000000000000000000000000000000000000000 PUSH1 0x0 MSTORE PUSH1 0x41 PUSH1 0x4 MSTORE PUSH1 0x24 PUSH1 0x0 REVERT JUMPDEST PUSH1 0x40 MLOAD SWAP1 DUP1 DUP3 MSTORE DUP1 PUSH1 0x20 MUL PUSH1 0x20 ADD DUP3 ADD PUSH1 0x40 MSTORE DUP1 ISZERO PUSH2 0x27B9 JUMPI DUP2 PUSH1 0x20 ADD JUMPDEST PUSH2 0x27A6 PUSH2 0x342C JUMP JUMPDEST DUP2 MSTORE PUSH1 0x20 ADD SWAP1 PUSH1 0x1 SWAP1 SUB SWAP1 DUP2 PUSH2 0x279E JUMPI SWAP1 POP JUMPDEST POP SWAP1 POP DUP2 DUP2 PUSH1 0x0 DUP2 MLOAD DUP2 LT PUSH2 0x27F7 JUMPI PUSH32 0x4E487B7100000000000000000000000000000000000000000000000000000000 PUSH1 0x0 MSTORE PUSH1 0x32 PUSH1 0x4 MSTORE PUSH1 0x24 PUSH1 0x0 REVERT JUMPDEST PUSH1 0x20 MUL PUSH1 0x20 ADD ADD MLOAD PUSH1 0x20 ADD SWAP1 PUSH12 0xFFFFFFFFFFFFFFFFFFFFFFFF AND SWAP1 DUP2 PUSH12 0xFFFFFFFFFFFFFFFFFFFFFFFF AND DUP2 MSTORE POP POP DUP3 DUP2 PUSH1 0x0 DUP2 MLOAD DUP2 LT PUSH2 0x2860 JUMPI PUSH32 0x4E487B7100000000000000000000000000000000000000000000000000000000 PUSH1 0x0 MSTORE PUSH1 0x32 PUSH1 0x4 MSTORE PUSH1 0x24 PUSH1 0x0 REVERT JUMPDEST PUSH1 0x20 MUL PUSH1 0x20 ADD ADD MLOAD PUSH1 0x0 ADD SWAP1 PUSH20 0xFFFFFFFFFFFFFFFFFFFFFFFFFFFFFFFFFFFFFFFF AND SWAP1 DUP2 PUSH20 0xFFFFFFFFFFFFFFFFFFFFFFFFFFFFFFFFFFFFFFFF AND DUP2 MSTORE POP POP PUSH2 0x28A8 DUP5 DUP3 PUSH2 0x2B75 JUMP JUMPDEST POP POP POP POP JUMP JUMPDEST PUSH1 0x0 PUSH2 0x28B9 DUP3 PUSH2 0x2068 JUMP JUMPDEST PUSH2 0x28F8 JUMPI PUSH1 0x40 MLOAD PUSH32 0x8C379A000000000000000000000000000000000000000000000000000000000 DUP2 MSTORE PUSH1 0x4 ADD PUSH2 0x28EF SWAP1 PUSH2 0x4240 JUMP JUMPDEST PUSH1 0x40 MLOAD DUP1 SWAP2 SUB SWAP1 REVERT JUMPDEST PUSH1 0x0 PUSH2 0x2903 DUP4 PUSH2 0x109C JUMP JUMPDEST SWAP1 POP DUP1 PUSH20 0xFFFFFFFFFFFFFFFFFFFFFFFFFFFFFFFFFFFFFFFF AND DUP5 PUSH20 0xFFFFFFFFFFFFFFFFFFFFFFFFFFFFFFFFFFFFFFFF AND EQ DUP1 PUSH2 0x2972 JUMPI POP DUP4 PUSH20 0xFFFFFFFFFFFFFFFFFFFFFFFFFFFFFFFFFFFFFFFF AND PUSH2 0x295A DUP5 PUSH2 0x7CC JUMP JUMPDEST PUSH20 0xFFFFFFFFFFFFFFFFFFFFFFFFFFFFFFFFFFFFFFFF AND EQ JUMPDEST DUP1 PUSH2 0x2983 JUMPI POP PUSH2 0x2982 DUP2 DUP6 PUSH2 0x1DFA JUMP JUMPDEST JUMPDEST SWAP2 POP POP SWAP3 SWAP2 POP POP JUMP JUMPDEST PUSH2 0x2997 DUP5 DUP5 DUP5 PUSH2 0x2195 JUMP JUMPDEST PUSH2 0x29A3 DUP5 DUP5 DUP5 DUP5 PUSH2 0x2DE6 JUMP JUMPDEST PUSH2 0x29E2 JUMPI PUSH1 0x40 MLOAD PUSH32 0x8C379A000000000000000000000000000000000000000000000000000000000 DUP2 MSTORE PUSH1 0x4 ADD PUSH2 0x29D9 SWAP1 PUSH2 0x4180 JUMP JUMPDEST PUSH1 0x40 MLOAD DUP1 SWAP2 SUB SWAP1 REVERT JUMPDEST POP POP POP POP JUMP JUMPDEST PUSH1 0x60 PUSH1 0x40 MLOAD DUP1 PUSH1 0x20 ADD PUSH1 0x40 MSTORE DUP1 PUSH1 0x0 DUP2 MSTORE POP SWAP1 POP SWAP1 JUMP JUMPDEST PUSH1 0x60 PUSH2 0x2A0A DUP3 PUSH2 0x2068 JUMP JUMPDEST PUSH2 0x2A49 JUMPI PUSH1 0x40 MLOAD PUSH32 0x8C379A000000000000000000000000000000000000000000000000000000000 DUP2 MSTORE PUSH1 0x4 ADD PUSH2 0x2A40 SWAP1 PUSH2 0x4400 JUMP JUMPDEST PUSH1 0x40 MLOAD DUP1 SWAP2 SUB SWAP1 REVERT JUMPDEST PUSH1 0x0 PUSH2 0x2A53 PUSH2 0x29E8 JUMP JUMPDEST SWAP1 POP PUSH1 0x0 DUP2 MLOAD GT PUSH2 0x2A73 JUMPI PUSH1 0x40 MLOAD DUP1 PUSH1 0x20 ADD PUSH1 0x40 MSTORE DUP1 PUSH1 0x0 DUP2 MSTORE POP PUSH2 0x2A9E JUMP JUMPDEST DUP1 PUSH2 0x2A7D DUP5 PUSH2 0x2F7D JUMP JUMPDEST PUSH1 0x40 MLOAD PUSH1 0x20 ADD PUSH2 0x2A8E SWAP3 SWAP2 SWAP1 PUSH2 0x4009 JUMP JUMPDEST PUSH1 0x40 MLOAD PUSH1 0x20 DUP2 DUP4 SUB SUB DUP2 MSTORE SWAP1 PUSH1 0x40 MSTORE JUMPDEST SWAP2 POP POP SWAP2 SWAP1 POP JUMP JUMPDEST PUSH1 0x0 PUSH32 0x1FFC9A700000000000000000000000000000000000000000000000000000000 PUSH28 0xFFFFFFFFFFFFFFFFFFFFFFFFFFFFFFFFFFFFFFFFFFFFFFFFFFFFFFFF NOT AND DUP3 PUSH28 0xFFFFFFFFFFFFFFFFFFFFFFFFFFFFFFFFFFFFFFFFFFFFFFFFFFFFFFFF NOT AND EQ SWAP1 POP SWAP2 SWAP1 POP JUMP JUMPDEST POP POP POP JUMP JUMPDEST POP POP POP JUMP JUMPDEST PUSH2 0x2B24 DUP4 DUP4 PUSH2 0x312A JUMP JUMPDEST PUSH2 0x2B31 PUSH1 0x0 DUP5 DUP5 DUP5 PUSH2 0x2DE6 JUMP JUMPDEST PUSH2 0x2B70 JUMPI PUSH1 0x40 MLOAD PUSH32 0x8C379A000000000000000000000000000000000000000000000000000000000 DUP2 MSTORE PUSH1 0x4 ADD PUSH2 0x2B67 SWAP1 PUSH2 0x4180 JUMP JUMPDEST PUSH1 0x40 MLOAD DUP1 SWAP2 SUB SWAP1 REVERT JUMPDEST POP POP POP JUMP JUMPDEST PUSH1 0x0 JUMPDEST DUP2 MLOAD DUP2 LT ISZERO PUSH2 0x2DD7 JUMPI PUSH1 0x0 PUSH20 0xFFFFFFFFFFFFFFFFFFFFFFFFFFFFFFFFFFFFFFFF AND DUP3 DUP3 DUP2 MLOAD DUP2 LT PUSH2 0x2BD2 JUMPI PUSH32 0x4E487B7100000000000000000000000000000000000000000000000000000000 PUSH1 0x0 MSTORE PUSH1 0x32 PUSH1 0x4 MSTORE PUSH1 0x24 PUSH1 0x0 REVERT JUMPDEST PUSH1 0x20 MUL PUSH1 0x20 ADD ADD MLOAD PUSH1 0x0 ADD MLOAD PUSH20 0xFFFFFFFFFFFFFFFFFFFFFFFFFFFFFFFFFFFFFFFF AND EQ ISZERO PUSH2 0x2C35 JUMPI PUSH1 0x40 MLOAD PUSH32 0x8C379A000000000000000000000000000000000000000000000000000000000 DUP2 MSTORE PUSH1 0x4 ADD PUSH2 0x2C2C SWAP1 PUSH2 0x44E0 JUMP JUMPDEST PUSH1 0x40 MLOAD DUP1 SWAP2 SUB SWAP1 REVERT JUMPDEST PUSH1 0x0 DUP3 DUP3 DUP2 MLOAD DUP2 LT PUSH2 0x2C70 JUMPI PUSH32 0x4E487B7100000000000000000000000000000000000000000000000000000000 PUSH1 0x0 MSTORE PUSH1 0x32 PUSH1 0x4 MSTORE PUSH1 0x24 PUSH1 0x0 REVERT JUMPDEST PUSH1 0x20 MUL PUSH1 0x20 ADD ADD MLOAD PUSH1 0x20 ADD MLOAD PUSH12 0xFFFFFFFFFFFFFFFFFFFFFFFF AND EQ ISZERO PUSH2 0x2CCB JUMPI PUSH1 0x40 MLOAD PUSH32 0x8C379A000000000000000000000000000000000000000000000000000000000 DUP2 MSTORE PUSH1 0x4 ADD PUSH2 0x2CC2 SWAP1 PUSH2 0x4260 JUMP JUMPDEST PUSH1 0x40 MLOAD DUP1 SWAP2 SUB SWAP1 REVERT JUMPDEST PUSH1 0x9 PUSH1 0x0 DUP5 DUP2 MSTORE PUSH1 0x20 ADD SWAP1 DUP2 MSTORE PUSH1 0x20 ADD PUSH1 0x0 KECCAK256 DUP3 DUP3 DUP2 MLOAD DUP2 LT PUSH2 0x2D17 JUMPI PUSH32 0x4E487B7100000000000000000000000000000000000000000000000000000000 PUSH1 0x0 MSTORE PUSH1 0x32 PUSH1 0x4 MSTORE PUSH1 0x24 PUSH1 0x0 REVERT JUMPDEST PUSH1 0x20 MUL PUSH1 0x20 ADD ADD MLOAD SWAP1 DUP1 PUSH1 0x1 DUP2 SLOAD ADD DUP1 DUP3 SSTORE DUP1 SWAP2 POP POP PUSH1 0x1 SWAP1 SUB SWAP1 PUSH1 0x0 MSTORE PUSH1 0x20 PUSH1 0x0 KECCAK256 ADD PUSH1 0x0 SWAP1 SWAP2 SWAP1 SWAP2 SWAP1 SWAP2 POP PUSH1 0x0 DUP3 ADD MLOAD DUP2 PUSH1 0x0 ADD PUSH1 0x0 PUSH2 0x100 EXP DUP2 SLOAD DUP2 PUSH20 0xFFFFFFFFFFFFFFFFFFFFFFFFFFFFFFFFFFFFFFFF MUL NOT AND SWAP1 DUP4 PUSH20 0xFFFFFFFFFFFFFFFFFFFFFFFFFFFFFFFFFFFFFFFF AND MUL OR SWAP1 SSTORE POP PUSH1 0x20 DUP3 ADD MLOAD DUP2 PUSH1 0x0 ADD PUSH1 0x14 PUSH2 0x100 EXP DUP2 SLOAD DUP2 PUSH12 0xFFFFFFFFFFFFFFFFFFFFFFFF MUL NOT AND SWAP1 DUP4 PUSH12 0xFFFFFFFFFFFFFFFFFFFFFFFF AND MUL OR SWAP1 SSTORE POP POP POP DUP1 DUP1 PUSH2 0x2DCF SWAP1 PUSH2 0x499E JUMP JUMPDEST SWAP2 POP POP PUSH2 0x2B78 JUMP JUMPDEST POP PUSH2 0x2DE2 DUP3 DUP3 PUSH2 0x3304 JUMP JUMPDEST POP POP JUMP JUMPDEST PUSH1 0x0 PUSH2 0x2E07 DUP5 PUSH20 0xFFFFFFFFFFFFFFFFFFFFFFFFFFFFFFFFFFFFFFFF AND PUSH2 0x3341 JUMP JUMPDEST ISZERO PUSH2 0x2F70 JUMPI DUP4 PUSH20 0xFFFFFFFFFFFFFFFFFFFFFFFFFFFFFFFFFFFFFFFF AND PUSH4 0x150B7A02 PUSH2 0x2E30 PUSH2 0x20D4 JUMP JUMPDEST DUP8 DUP7 DUP7 PUSH1 0x40 MLOAD DUP6 PUSH4 0xFFFFFFFF AND PUSH1 0xE0 SHL DUP2 MSTORE PUSH1 0x4 ADD PUSH2 0x2E52 SWAP5 SWAP4 SWAP3 SWAP2 SWAP1 PUSH2 0x408C JUMP JUMPDEST PUSH1 0x20 PUSH1 0x40 MLOAD DUP1 DUP4 SUB DUP2 PUSH1 0x0 DUP8 DUP1 EXTCODESIZE ISZERO DUP1 ISZERO PUSH2 0x2E6C JUMPI PUSH1 0x0 DUP1 REVERT JUMPDEST POP GAS CALL SWAP3 POP POP POP DUP1 ISZERO PUSH2 0x2E9D JUMPI POP PUSH1 0x40 MLOAD RETURNDATASIZE PUSH1 0x1F NOT PUSH1 0x1F DUP3 ADD AND DUP3 ADD DUP1 PUSH1 0x40 MSTORE POP DUP2 ADD SWAP1 PUSH2 0x2E9A SWAP2 SWAP1 PUSH2 0x38F7 JUMP JUMPDEST PUSH1 0x1 JUMPDEST PUSH2 0x2F20 JUMPI RETURNDATASIZE DUP1 PUSH1 0x0 DUP2 EQ PUSH2 0x2ECD JUMPI PUSH1 0x40 MLOAD SWAP2 POP PUSH1 0x1F NOT PUSH1 0x3F RETURNDATASIZE ADD AND DUP3 ADD PUSH1 0x40 MSTORE RETURNDATASIZE DUP3 MSTORE RETURNDATASIZE PUSH1 0x0 PUSH1 0x20 DUP5 ADD RETURNDATACOPY PUSH2 0x2ED2 JUMP JUMPDEST PUSH1 0x60 SWAP2 POP JUMPDEST POP PUSH1 0x0 DUP2 MLOAD EQ ISZERO PUSH2 0x2F18 JUMPI PUSH1 0x40 MLOAD PUSH32 0x8C379A000000000000000000000000000000000000000000000000000000000 DUP2 MSTORE PUSH1 0x4 ADD PUSH2 0x2F0F SWAP1 PUSH2 0x4180 JUMP JUMPDEST PUSH1 0x40 MLOAD DUP1 SWAP2 SUB SWAP1 REVERT JUMPDEST DUP1 MLOAD DUP2 PUSH1 0x20 ADD REVERT JUMPDEST PUSH4 0x150B7A02 PUSH1 0xE0 SHL PUSH28 0xFFFFFFFFFFFFFFFFFFFFFFFFFFFFFFFFFFFFFFFFFFFFFFFFFFFFFFFF NOT AND DUP2 PUSH28 0xFFFFFFFFFFFFFFFFFFFFFFFFFFFFFFFFFFFFFFFFFFFFFFFFFFFFFFFF NOT AND EQ SWAP2 POP POP PUSH2 0x2F75 JUMP JUMPDEST PUSH1 0x1 SWAP1 POP JUMPDEST SWAP5 SWAP4 POP POP POP POP JUMP JUMPDEST PUSH1 0x60 PUSH1 0x0 DUP3 EQ ISZERO PUSH2 0x2FC5 JUMPI PUSH1 0x40 MLOAD DUP1 PUSH1 0x40 ADD PUSH1 0x40 MSTORE DUP1 PUSH1 0x1 DUP2 MSTORE PUSH1 0x20 ADD PUSH32 0x3000000000000000000000000000000000000000000000000000000000000000 DUP2 MSTORE POP SWAP1 POP PUSH2 0x3125 JUMP JUMPDEST PUSH1 0x0 DUP3 SWAP1 POP PUSH1 0x0 JUMPDEST PUSH1 0x0 DUP3 EQ PUSH2 0x2FF7 JUMPI DUP1 DUP1 PUSH2 0x2FE0 SWAP1 PUSH2 0x499E JUMP JUMPDEST SWAP2 POP POP PUSH1 0xA DUP3 PUSH2 0x2FF0 SWAP2 SWAP1 PUSH2 0x479C JUMP JUMPDEST SWAP2 POP PUSH2 0x2FCD JUMP JUMPDEST PUSH1 0x0 DUP2 PUSH8 0xFFFFFFFFFFFFFFFF DUP2 GT ISZERO PUSH2 0x3039 JUMPI PUSH32 0x4E487B7100000000000000000000000000000000000000000000000000000000 PUSH1 0x0 MSTORE PUSH1 0x41 PUSH1 0x4 MSTORE PUSH1 0x24 PUSH1 0x0 REVERT JUMPDEST PUSH1 0x40 MLOAD SWAP1 DUP1 DUP3 MSTORE DUP1 PUSH1 0x1F ADD PUSH1 0x1F NOT AND PUSH1 0x20 ADD DUP3 ADD PUSH1 0x40 MSTORE DUP1 ISZERO PUSH2 0x306B JUMPI DUP2 PUSH1 0x20 ADD PUSH1 0x1 DUP3 MUL DUP1 CALLDATASIZE DUP4 CALLDATACOPY DUP1 DUP3 ADD SWAP2 POP POP SWAP1 POP JUMPDEST POP SWAP1 POP JUMPDEST PUSH1 0x0 DUP6 EQ PUSH2 0x311E JUMPI PUSH1 0x1 DUP3 PUSH2 0x3084 SWAP2 SWAP1 PUSH2 0x4827 JUMP JUMPDEST SWAP2 POP PUSH1 0xA DUP6 PUSH2 0x3093 SWAP2 SWAP1 PUSH2 0x49E7 JUMP JUMPDEST PUSH1 0x30 PUSH2 0x309F SWAP2 SWAP1 PUSH2 0x4746 JUMP JUMPDEST PUSH1 0xF8 SHL DUP2 DUP4 DUP2 MLOAD DUP2 LT PUSH2 0x30DB JUMPI PUSH32 0x4E487B7100000000000000000000000000000000000000000000000000000000 PUSH1 0x0 MSTORE PUSH1 0x32 PUSH1 0x4 MSTORE PUSH1 0x24 PUSH1 0x0 REVERT JUMPDEST PUSH1 0x20 ADD ADD SWAP1 PUSH31 0xFFFFFFFFFFFFFFFFFFFFFFFFFFFFFFFFFFFFFFFFFFFFFFFFFFFFFFFFFFFFFF NOT AND SWAP1 DUP2 PUSH1 0x0 BYTE SWAP1 MSTORE8 POP PUSH1 0xA DUP6 PUSH2 0x3117 SWAP2 SWAP1 PUSH2 0x479C JUMP JUMPDEST SWAP5 POP PUSH2 0x306F JUMP JUMPDEST DUP1 SWAP4 POP POP POP POP JUMPDEST SWAP2 SWAP1 POP JUMP JUMPDEST PUSH1 0x0 PUSH20 0xFFFFFFFFFFFFFFFFFFFFFFFFFFFFFFFFFFFFFFFF AND DUP3 PUSH20 0xFFFFFFFFFFFFFFFFFFFFFFFFFFFFFFFFFFFFFFFF AND EQ ISZERO PUSH2 0x319A JUMPI PUSH1 0x40 MLOAD PUSH32 0x8C379A000000000000000000000000000000000000000000000000000000000 DUP2 MSTORE PUSH1 0x4 ADD PUSH2 0x3191 SWAP1 PUSH2 0x4360 JUMP JUMPDEST PUSH1 0x40 MLOAD DUP1 SWAP2 SUB SWAP1 REVERT JUMPDEST PUSH2 0x31A3 DUP2 PUSH2 0x2068 JUMP JUMPDEST ISZERO PUSH2 0x31E3 JUMPI PUSH1 0x40 MLOAD PUSH32 0x8C379A000000000000000000000000000000000000000000000000000000000 DUP2 MSTORE PUSH1 0x4 ADD PUSH2 0x31DA SWAP1 PUSH2 0x41E0 JUMP JUMPDEST PUSH1 0x40 MLOAD DUP1 SWAP2 SUB SWAP1 REVERT JUMPDEST PUSH2 0x31EF PUSH1 0x0 DUP4 DUP4 PUSH2 0x2B10 JUMP JUMPDEST PUSH1 0x1 PUSH1 0x3 PUSH1 0x0 DUP5 PUSH20 0xFFFFFFFFFFFFFFFFFFFFFFFFFFFFFFFFFFFFFFFF AND PUSH20 0xFFFFFFFFFFFFFFFFFFFFFFFFFFFFFFFFFFFFFFFF AND DUP2 MSTORE PUSH1 0x20 ADD SWAP1 DUP2 MSTORE PUSH1 0x20 ADD PUSH1 0x0 KECCAK256 PUSH1 0x0 DUP3 DUP3 SLOAD PUSH2 0x323F SWAP2 SWAP1 PUSH2 0x4746 JUMP JUMPDEST SWAP3 POP POP DUP2 SWAP1 SSTORE POP DUP2 PUSH1 0x2 PUSH1 0x0 DUP4 DUP2 MSTORE PUSH1 0x20 ADD SWAP1 DUP2 MSTORE PUSH1 0x20 ADD PUSH1 0x0 KECCAK256 PUSH1 0x0 PUSH2 0x100 EXP DUP2 SLOAD DUP2 PUSH20 0xFFFFFFFFFFFFFFFFFFFFFFFFFFFFFFFFFFFFFFFF MUL NOT AND SWAP1 DUP4 PUSH20 0xFFFFFFFFFFFFFFFFFFFFFFFFFFFFFFFFFFFFFFFF AND MUL OR SWAP1 SSTORE POP DUP1 DUP3 PUSH20 0xFFFFFFFFFFFFFFFFFFFFFFFFFFFFFFFFFFFFFFFF AND PUSH1 0x0 PUSH20 0xFFFFFFFFFFFFFFFFFFFFFFFFFFFFFFFFFFFFFFFF AND PUSH32 0xDDF252AD1BE2C89B69C2B068FC378DAA952BA7F163C4A11628F55A4DF523B3EF PUSH1 0x40 MLOAD PUSH1 0x40 MLOAD DUP1 SWAP2 SUB SWAP1 LOG4 PUSH2 0x3300 PUSH1 0x0 DUP4 DUP4 PUSH2 0x2B15 JUMP JUMPDEST POP POP JUMP JUMPDEST PUSH32 0x3FA96D7B6BCBFE71EF171666D84DB3CF52FA2D1C8AFDB1CC8E486177F208B7DF DUP3 DUP3 PUSH1 0x40 MLOAD PUSH2 0x3335 SWAP3 SWAP2 SWAP1 PUSH2 0x455D JUMP JUMPDEST PUSH1 0x40 MLOAD DUP1 SWAP2 SUB SWAP1 LOG1 POP POP JUMP JUMPDEST PUSH1 0x0 DUP1 DUP3 PUSH20 0xFFFFFFFFFFFFFFFFFFFFFFFFFFFFFFFFFFFFFFFF AND EXTCODESIZE GT SWAP1 POP SWAP2 SWAP1 POP JUMP JUMPDEST PUSH1 0x40 MLOAD DUP1 PUSH1 0x80 ADD PUSH1 0x40 MSTORE DUP1 PUSH1 0x0 DUP2 MSTORE PUSH1 0x20 ADD PUSH1 0x60 DUP2 MSTORE PUSH1 0x20 ADD PUSH1 0x60 DUP2 MSTORE PUSH1 0x20 ADD PUSH1 0x60 DUP2 MSTORE POP SWAP1 JUMP JUMPDEST PUSH1 0x40 MLOAD DUP1 PUSH1 0x40 ADD PUSH1 0x40 MSTORE DUP1 PUSH1 0x0 DUP2 MSTORE PUSH1 0x20 ADD PUSH1 0x60 DUP2 MSTORE POP SWAP1 JUMP JUMPDEST DUP3 DUP1 SLOAD PUSH2 0x33B2 SWAP1 PUSH2 0x493B JUMP JUMPDEST SWAP1 PUSH1 0x0 MSTORE PUSH1 0x20 PUSH1 0x0 KECCAK256 SWAP1 PUSH1 0x1F ADD PUSH1 0x20 SWAP1 DIV DUP2 ADD SWAP3 DUP3 PUSH2 0x33D4 JUMPI PUSH1 0x0 DUP6 SSTORE PUSH2 0x341B JUMP JUMPDEST DUP3 PUSH1 0x1F LT PUSH2 0x33ED JUMPI DUP1 MLOAD PUSH1 0xFF NOT AND DUP4 DUP1 ADD OR DUP6 SSTORE PUSH2 0x341B JUMP JUMPDEST DUP3 DUP1 ADD PUSH1 0x1 ADD DUP6 SSTORE DUP3 ISZERO PUSH2 0x341B JUMPI SWAP2 DUP3 ADD JUMPDEST DUP3 DUP2 GT ISZERO PUSH2 0x341A JUMPI DUP3 MLOAD DUP3 SSTORE SWAP2 PUSH1 0x20 ADD SWAP2 SWAP1 PUSH1 0x1 ADD SWAP1 PUSH2 0x33FF JUMP JUMPDEST JUMPDEST POP SWAP1 POP PUSH2 0x3428 SWAP2 SWAP1 PUSH2 0x346A JUMP JUMPDEST POP SWAP1 JUMP JUMPDEST PUSH1 0x40 MLOAD DUP1 PUSH1 0x40 ADD PUSH1 0x40 MSTORE DUP1 PUSH1 0x0 PUSH20 0xFFFFFFFFFFFFFFFFFFFFFFFFFFFFFFFFFFFFFFFF AND DUP2 MSTORE PUSH1 0x20 ADD PUSH1 0x0 PUSH12 0xFFFFFFFFFFFFFFFFFFFFFFFF AND DUP2 MSTORE POP SWAP1 JUMP JUMPDEST JUMPDEST DUP1 DUP3 GT ISZERO PUSH2 0x3483 JUMPI PUSH1 0x0 DUP2 PUSH1 0x0 SWAP1 SSTORE POP PUSH1 0x1 ADD PUSH2 0x346B JUMP JUMPDEST POP SWAP1 JUMP JUMPDEST PUSH1 0x0 PUSH2 0x349A PUSH2 0x3495 DUP5 PUSH2 0x4657 JUMP JUMPDEST PUSH2 0x4632 JUMP JUMPDEST SWAP1 POP DUP3 DUP2 MSTORE PUSH1 0x20 DUP2 ADD DUP5 DUP5 DUP5 ADD GT ISZERO PUSH2 0x34B2 JUMPI PUSH1 0x0 DUP1 REVERT JUMPDEST PUSH2 0x34BD DUP5 DUP3 DUP6 PUSH2 0x48F9 JUMP JUMPDEST POP SWAP4 SWAP3 POP POP POP JUMP JUMPDEST PUSH1 0x0 PUSH2 0x34D8 PUSH2 0x34D3 DUP5 PUSH2 0x4688 JUMP JUMPDEST PUSH2 0x4632 JUMP JUMPDEST SWAP1 POP DUP3 DUP2 MSTORE PUSH1 0x20 DUP2 ADD DUP5 DUP5 DUP5 ADD GT ISZERO PUSH2 0x34F0 JUMPI PUSH1 0x0 DUP1 REVERT JUMPDEST PUSH2 0x34FB DUP5 DUP3 DUP6 PUSH2 0x48F9 JUMP JUMPDEST POP SWAP4 SWAP3 POP POP POP JUMP JUMPDEST PUSH1 0x0 DUP2 CALLDATALOAD SWAP1 POP PUSH2 0x3512 DUP2 PUSH2 0x525F JUMP JUMPDEST SWAP3 SWAP2 POP POP JUMP JUMPDEST PUSH1 0x0 DUP2 CALLDATALOAD SWAP1 POP PUSH2 0x3527 DUP2 PUSH2 0x5276 JUMP JUMPDEST SWAP3 SWAP2 POP POP JUMP JUMPDEST PUSH1 0x0 DUP2 CALLDATALOAD SWAP1 POP PUSH2 0x353C DUP2 PUSH2 0x528D JUMP JUMPDEST SWAP3 SWAP2 POP POP JUMP JUMPDEST PUSH1 0x0 DUP2 MLOAD SWAP1 POP PUSH2 0x3551 DUP2 PUSH2 0x528D JUMP JUMPDEST SWAP3 SWAP2 POP POP JUMP JUMPDEST PUSH1 0x0 DUP3 PUSH1 0x1F DUP4 ADD SLT PUSH2 0x3568 JUMPI PUSH1 0x0 DUP1 REVERT JUMPDEST DUP2 CALLDATALOAD PUSH2 0x3578 DUP5 DUP3 PUSH1 0x20 DUP7 ADD PUSH2 0x3487 JUMP JUMPDEST SWAP2 POP POP SWAP3 SWAP2 POP POP JUMP JUMPDEST PUSH1 0x0 DUP3 PUSH1 0x1F DUP4 ADD SLT PUSH2 0x3592 JUMPI PUSH1 0x0 DUP1 REVERT JUMPDEST DUP2 CALLDATALOAD PUSH2 0x35A2 DUP5 DUP3 PUSH1 0x20 DUP7 ADD PUSH2 0x34C5 JUMP JUMPDEST SWAP2 POP POP SWAP3 SWAP2 POP POP JUMP JUMPDEST PUSH1 0x0 PUSH1 0x80 DUP3 DUP5 SUB SLT ISZERO PUSH2 0x35BD JUMPI PUSH1 0x0 DUP1 REVERT JUMPDEST PUSH2 0x35C7 PUSH1 0x80 PUSH2 0x4632 JUMP JUMPDEST SWAP1 POP PUSH1 0x0 PUSH2 0x35D7 DUP5 DUP3 DUP6 ADD PUSH2 0x3667 JUMP JUMPDEST PUSH1 0x0 DUP4 ADD MSTORE POP PUSH1 0x20 DUP3 ADD CALLDATALOAD PUSH8 0xFFFFFFFFFFFFFFFF DUP2 GT ISZERO PUSH2 0x35F7 JUMPI PUSH1 0x0 DUP1 REVERT JUMPDEST PUSH2 0x3603 DUP5 DUP3 DUP6 ADD PUSH2 0x3581 JUMP JUMPDEST PUSH1 0x20 DUP4 ADD MSTORE POP PUSH1 0x40 DUP3 ADD CALLDATALOAD PUSH8 0xFFFFFFFFFFFFFFFF DUP2 GT ISZERO PUSH2 0x3623 JUMPI PUSH1 0x0 DUP1 REVERT JUMPDEST PUSH2 0x362F DUP5 DUP3 DUP6 ADD PUSH2 0x3581 JUMP JUMPDEST PUSH1 0x40 DUP4 ADD MSTORE POP PUSH1 0x60 DUP3 ADD CALLDATALOAD PUSH8 0xFFFFFFFFFFFFFFFF DUP2 GT ISZERO PUSH2 0x364F JUMPI PUSH1 0x0 DUP1 REVERT JUMPDEST PUSH2 0x365B DUP5 DUP3 DUP6 ADD PUSH2 0x3581 JUMP JUMPDEST PUSH1 0x60 DUP4 ADD MSTORE POP SWAP3 SWAP2 POP POP JUMP JUMPDEST PUSH1 0x0 DUP2 CALLDATALOAD SWAP1 POP PUSH2 0x3676 DUP2 PUSH2 0x52A4 JUMP JUMPDEST SWAP3 SWAP2 POP POP JUMP JUMPDEST PUSH1 0x0 PUSH1 0x20 DUP3 DUP5 SUB SLT ISZERO PUSH2 0x368E JUMPI PUSH1 0x0 DUP1 REVERT JUMPDEST PUSH1 0x0 PUSH2 0x369C DUP5 DUP3 DUP6 ADD PUSH2 0x3503 JUMP JUMPDEST SWAP2 POP POP SWAP3 SWAP2 POP POP JUMP JUMPDEST PUSH1 0x0 DUP1 PUSH1 0x40 DUP4 DUP6 SUB SLT ISZERO PUSH2 0x36B8 JUMPI PUSH1 0x0 DUP1 REVERT JUMPDEST PUSH1 0x0 PUSH2 0x36C6 DUP6 DUP3 DUP7 ADD PUSH2 0x3503 JUMP JUMPDEST SWAP3 POP POP PUSH1 0x20 PUSH2 0x36D7 DUP6 DUP3 DUP7 ADD PUSH2 0x3503 JUMP JUMPDEST SWAP2 POP POP SWAP3 POP SWAP3 SWAP1 POP JUMP JUMPDEST PUSH1 0x0 DUP1 PUSH1 0x0 PUSH1 0x60 DUP5 DUP7 SUB SLT ISZERO PUSH2 0x36F6 JUMPI PUSH1 0x0 DUP1 REVERT JUMPDEST PUSH1 0x0 PUSH2 0x3704 DUP7 DUP3 DUP8 ADD PUSH2 0x3503 JUMP JUMPDEST SWAP4 POP POP PUSH1 0x20 PUSH2 0x3715 DUP7 DUP3 DUP8 ADD PUSH2 0x3503 JUMP JUMPDEST SWAP3 POP POP PUSH1 0x40 PUSH2 0x3726 DUP7 DUP3 DUP8 ADD PUSH2 0x3667 JUMP JUMPDEST SWAP2 POP POP SWAP3 POP SWAP3 POP SWAP3 JUMP JUMPDEST PUSH1 0x0 DUP1 PUSH1 0x0 DUP1 PUSH1 0x80 DUP6 DUP8 SUB SLT ISZERO PUSH2 0x3746 JUMPI PUSH1 0x0 DUP1 REVERT JUMPDEST PUSH1 0x0 PUSH2 0x3754 DUP8 DUP3 DUP9 ADD PUSH2 0x3503 JUMP JUMPDEST SWAP5 POP POP PUSH1 0x20 PUSH2 0x3765 DUP8 DUP3 DUP9 ADD PUSH2 0x3503 JUMP JUMPDEST SWAP4 POP POP PUSH1 0x40 PUSH2 0x3776 DUP8 DUP3 DUP9 ADD PUSH2 0x3667 JUMP JUMPDEST SWAP3 POP POP PUSH1 0x60 DUP6 ADD CALLDATALOAD PUSH8 0xFFFFFFFFFFFFFFFF DUP2 GT ISZERO PUSH2 0x3793 JUMPI PUSH1 0x0 DUP1 REVERT JUMPDEST PUSH2 0x379F DUP8 DUP3 DUP9 ADD PUSH2 0x3557 JUMP JUMPDEST SWAP2 POP POP SWAP3 SWAP6 SWAP2 SWAP5 POP SWAP3 POP JUMP JUMPDEST PUSH1 0x0 DUP1 PUSH1 0x40 DUP4 DUP6 SUB SLT ISZERO PUSH2 0x37BE JUMPI PUSH1 0x0 DUP1 REVERT JUMPDEST PUSH1 0x0 PUSH2 0x37CC DUP6 DUP3 DUP7 ADD PUSH2 0x3503 JUMP JUMPDEST SWAP3 POP POP PUSH1 0x20 PUSH2 0x37DD DUP6 DUP3 DUP7 ADD PUSH2 0x3518 JUMP JUMPDEST SWAP2 POP POP SWAP3 POP SWAP3 SWAP1 POP JUMP JUMPDEST PUSH1 0x0 DUP1 PUSH1 0x0 DUP1 PUSH1 0x80 DUP6 DUP8 SUB SLT ISZERO PUSH2 0x37FD JUMPI PUSH1 0x0 DUP1 REVERT JUMPDEST PUSH1 0x0 PUSH2 0x380B DUP8 DUP3 DUP9 ADD PUSH2 0x3503 JUMP JUMPDEST SWAP5 POP POP PUSH1 0x20 DUP6 ADD CALLDATALOAD PUSH8 0xFFFFFFFFFFFFFFFF DUP2 GT ISZERO PUSH2 0x3828 JUMPI PUSH1 0x0 DUP1 REVERT JUMPDEST PUSH2 0x3834 DUP8 DUP3 DUP9 ADD PUSH2 0x3581 JUMP JUMPDEST SWAP4 POP POP PUSH1 0x40 DUP6 ADD CALLDATALOAD PUSH8 0xFFFFFFFFFFFFFFFF DUP2 GT ISZERO PUSH2 0x3851 JUMPI PUSH1 0x0 DUP1 REVERT JUMPDEST PUSH2 0x385D DUP8 DUP3 DUP9 ADD PUSH2 0x3581 JUMP JUMPDEST SWAP3 POP POP PUSH1 0x60 DUP6 ADD CALLDATALOAD PUSH8 0xFFFFFFFFFFFFFFFF DUP2 GT ISZERO PUSH2 0x387A JUMPI PUSH1 0x0 DUP1 REVERT JUMPDEST PUSH2 0x3886 DUP8 DUP3 DUP9 ADD PUSH2 0x35AB JUMP JUMPDEST SWAP2 POP POP SWAP3 SWAP6 SWAP2 SWAP5 POP SWAP3 POP JUMP JUMPDEST PUSH1 0x0 DUP1 PUSH1 0x40 DUP4 DUP6 SUB SLT ISZERO PUSH2 0x38A5 JUMPI PUSH1 0x0 DUP1 REVERT JUMPDEST PUSH1 0x0 PUSH2 0x38B3 DUP6 DUP3 DUP7 ADD PUSH2 0x3503 JUMP JUMPDEST SWAP3 POP POP PUSH1 0x20 PUSH2 0x38C4 DUP6 DUP3 DUP7 ADD PUSH2 0x3667 JUMP JUMPDEST SWAP2 POP POP SWAP3 POP SWAP3 SWAP1 POP JUMP JUMPDEST PUSH1 0x0 PUSH1 0x20 DUP3 DUP5 SUB SLT ISZERO PUSH2 0x38E0 JUMPI PUSH1 0x0 DUP1 REVERT JUMPDEST PUSH1 0x0 PUSH2 0x38EE DUP5 DUP3 DUP6 ADD PUSH2 0x352D JUMP JUMPDEST SWAP2 POP POP SWAP3 SWAP2 POP POP JUMP JUMPDEST PUSH1 0x0 PUSH1 0x20 DUP3 DUP5 SUB SLT ISZERO PUSH2 0x3909 JUMPI PUSH1 0x0 DUP1 REVERT JUMPDEST PUSH1 0x0 PUSH2 0x3917 DUP5 DUP3 DUP6 ADD PUSH2 0x3542 JUMP JUMPDEST SWAP2 POP POP SWAP3 SWAP2 POP POP JUMP JUMPDEST PUSH1 0x0 PUSH1 0x20 DUP3 DUP5 SUB SLT ISZERO PUSH2 0x3932 JUMPI PUSH1 0x0 DUP1 REVERT JUMPDEST PUSH1 0x0 PUSH2 0x3940 DUP5 DUP3 DUP6 ADD PUSH2 0x3667 JUMP JUMPDEST SWAP2 POP POP SWAP3 SWAP2 POP POP JUMP JUMPDEST PUSH1 0x0 DUP1 PUSH1 0x40 DUP4 DUP6 SUB SLT ISZERO PUSH2 0x395C JUMPI PUSH1 0x0 DUP1 REVERT JUMPDEST PUSH1 0x0 PUSH2 0x396A DUP6 DUP3 DUP7 ADD PUSH2 0x3667 JUMP JUMPDEST SWAP3 POP POP PUSH1 0x20 PUSH2 0x397B DUP6 DUP3 DUP7 ADD PUSH2 0x3667 JUMP JUMPDEST SWAP2 POP POP SWAP3 POP SWAP3 SWAP1 POP JUMP JUMPDEST PUSH1 0x0 PUSH2 0x3991 DUP4 DUP4 PUSH2 0x3F9E JUMP JUMPDEST PUSH1 0x40 DUP4 ADD SWAP1 POP SWAP3 SWAP2 POP POP JUMP JUMPDEST PUSH2 0x39A6 DUP2 PUSH2 0x486D JUMP JUMPDEST DUP3 MSTORE POP POP JUMP JUMPDEST PUSH2 0x39B5 DUP2 PUSH2 0x486D JUMP JUMPDEST DUP3 MSTORE POP POP JUMP JUMPDEST PUSH2 0x39C4 DUP2 PUSH2 0x485B JUMP JUMPDEST DUP3 MSTORE POP POP JUMP JUMPDEST PUSH1 0x0 PUSH2 0x39D5 DUP3 PUSH2 0x46C9 JUMP JUMPDEST PUSH2 0x39DF DUP2 DUP6 PUSH2 0x46F7 JUMP JUMPDEST SWAP4 POP PUSH2 0x39EA DUP4 PUSH2 0x46B9 JUMP JUMPDEST DUP1 PUSH1 0x0 JUMPDEST DUP4 DUP2 LT ISZERO PUSH2 0x3A1B JUMPI DUP2 MLOAD PUSH2 0x3A02 DUP9 DUP3 PUSH2 0x3985 JUMP JUMPDEST SWAP8 POP PUSH2 0x3A0D DUP4 PUSH2 0x46EA JUMP JUMPDEST SWAP3 POP POP PUSH1 0x1 DUP2 ADD SWAP1 POP PUSH2 0x39EE JUMP JUMPDEST POP DUP6 SWAP4 POP POP POP POP SWAP3 SWAP2 POP POP JUMP JUMPDEST PUSH2 0x3A31 DUP2 PUSH2 0x487F JUMP JUMPDEST DUP3 MSTORE POP POP JUMP JUMPDEST PUSH1 0x0 PUSH2 0x3A42 DUP3 PUSH2 0x46D4 JUMP JUMPDEST PUSH2 0x3A4C DUP2 DUP6 PUSH2 0x4708 JUMP JUMPDEST SWAP4 POP PUSH2 0x3A5C DUP2 DUP6 PUSH1 0x20 DUP7 ADD PUSH2 0x4908 JUMP JUMPDEST PUSH2 0x3A65 DUP2 PUSH2 0x4AD4 JUMP JUMPDEST DUP5 ADD SWAP2 POP POP SWAP3 SWAP2 POP POP JUMP JUMPDEST PUSH1 0x0 PUSH2 0x3A7B DUP3 PUSH2 0x46DF JUMP JUMPDEST PUSH2 0x3A85 DUP2 DUP6 PUSH2 0x4719 JUMP JUMPDEST SWAP4 POP PUSH2 0x3A95 DUP2 DUP6 PUSH1 0x20 DUP7 ADD PUSH2 0x4908 JUMP JUMPDEST PUSH2 0x3A9E DUP2 PUSH2 0x4AD4 JUMP JUMPDEST DUP5 ADD SWAP2 POP POP SWAP3 SWAP2 POP POP JUMP JUMPDEST PUSH1 0x0 PUSH2 0x3AB4 DUP3 PUSH2 0x46DF JUMP JUMPDEST PUSH2 0x3ABE DUP2 DUP6 PUSH2 0x472A JUMP JUMPDEST SWAP4 POP PUSH2 0x3ACE DUP2 DUP6 PUSH1 0x20 DUP7 ADD PUSH2 0x4908 JUMP JUMPDEST PUSH2 0x3AD7 DUP2 PUSH2 0x4AD4 JUMP JUMPDEST DUP5 ADD SWAP2 POP POP SWAP3 SWAP2 POP POP JUMP JUMPDEST PUSH1 0x0 PUSH2 0x3AED DUP3 PUSH2 0x46DF JUMP JUMPDEST PUSH2 0x3AF7 DUP2 DUP6 PUSH2 0x473B JUMP JUMPDEST SWAP4 POP PUSH2 0x3B07 DUP2 DUP6 PUSH1 0x20 DUP7 ADD PUSH2 0x4908 JUMP JUMPDEST DUP1 DUP5 ADD SWAP2 POP POP SWAP3 SWAP2 POP POP JUMP JUMPDEST PUSH1 0x0 PUSH2 0x3B20 PUSH1 0x24 DUP4 PUSH2 0x472A JUMP JUMPDEST SWAP2 POP PUSH2 0x3B2B DUP3 PUSH2 0x4AE5 JUMP JUMPDEST PUSH1 0x40 DUP3 ADD SWAP1 POP SWAP2 SWAP1 POP JUMP JUMPDEST PUSH1 0x0 PUSH2 0x3B43 PUSH1 0x32 DUP4 PUSH2 0x472A JUMP JUMPDEST SWAP2 POP PUSH2 0x3B4E DUP3 PUSH2 0x4B34 JUMP JUMPDEST PUSH1 0x40 DUP3 ADD SWAP1 POP SWAP2 SWAP1 POP JUMP JUMPDEST PUSH1 0x0 PUSH2 0x3B66 PUSH1 0x26 DUP4 PUSH2 0x472A JUMP JUMPDEST SWAP2 POP PUSH2 0x3B71 DUP3 PUSH2 0x4B83 JUMP JUMPDEST PUSH1 0x40 DUP3 ADD SWAP1 POP SWAP2 SWAP1 POP JUMP JUMPDEST PUSH1 0x0 PUSH2 0x3B89 PUSH1 0x25 DUP4 PUSH2 0x472A JUMP JUMPDEST SWAP2 POP PUSH2 0x3B94 DUP3 PUSH2 0x4BD2 JUMP JUMPDEST PUSH1 0x40 DUP3 ADD SWAP1 POP SWAP2 SWAP1 POP JUMP JUMPDEST PUSH1 0x0 PUSH2 0x3BAC PUSH1 0x1C DUP4 PUSH2 0x472A JUMP JUMPDEST SWAP2 POP PUSH2 0x3BB7 DUP3 PUSH2 0x4C21 JUMP JUMPDEST PUSH1 0x20 DUP3 ADD SWAP1 POP SWAP2 SWAP1 POP JUMP JUMPDEST PUSH1 0x0 PUSH2 0x3BCF PUSH1 0x24 DUP4 PUSH2 0x472A JUMP JUMPDEST SWAP2 POP PUSH2 0x3BDA DUP3 PUSH2 0x4C4A JUMP JUMPDEST PUSH1 0x40 DUP3 ADD SWAP1 POP SWAP2 SWAP1 POP JUMP JUMPDEST PUSH1 0x0 PUSH2 0x3BF2 PUSH1 0x19 DUP4 PUSH2 0x472A JUMP JUMPDEST SWAP2 POP PUSH2 0x3BFD DUP3 PUSH2 0x4C99 JUMP JUMPDEST PUSH1 0x20 DUP3 ADD SWAP1 POP SWAP2 SWAP1 POP JUMP JUMPDEST PUSH1 0x0 PUSH2 0x3C15 PUSH1 0x2C DUP4 PUSH2 0x472A JUMP JUMPDEST SWAP2 POP PUSH2 0x3C20 DUP3 PUSH2 0x4CC2 JUMP JUMPDEST PUSH1 0x40 DUP3 ADD SWAP1 POP SWAP2 SWAP1 POP JUMP JUMPDEST PUSH1 0x0 PUSH2 0x3C38 PUSH1 0x20 DUP4 PUSH2 0x472A JUMP JUMPDEST SWAP2 POP PUSH2 0x3C43 DUP3 PUSH2 0x4D11 JUMP JUMPDEST PUSH1 0x20 DUP3 ADD SWAP1 POP SWAP2 SWAP1 POP JUMP JUMPDEST PUSH1 0x0 PUSH2 0x3C5B PUSH1 0x23 DUP4 PUSH2 0x472A JUMP JUMPDEST SWAP2 POP PUSH2 0x3C66 DUP3 PUSH2 0x4D3A JUMP JUMPDEST PUSH1 0x40 DUP3 ADD SWAP1 POP SWAP2 SWAP1 POP JUMP JUMPDEST PUSH1 0x0 PUSH2 0x3C7E PUSH1 0x1D DUP4 PUSH2 0x472A JUMP JUMPDEST SWAP2 POP PUSH2 0x3C89 DUP3 PUSH2 0x4D89 JUMP JUMPDEST PUSH1 0x20 DUP3 ADD SWAP1 POP SWAP2 SWAP1 POP JUMP JUMPDEST PUSH1 0x0 PUSH2 0x3CA1 PUSH1 0x38 DUP4 PUSH2 0x472A JUMP JUMPDEST SWAP2 POP PUSH2 0x3CAC DUP3 PUSH2 0x4DB2 JUMP JUMPDEST PUSH1 0x40 DUP3 ADD SWAP1 POP SWAP2 SWAP1 POP JUMP JUMPDEST PUSH1 0x0 PUSH2 0x3CC4 PUSH1 0x2A DUP4 PUSH2 0x472A JUMP JUMPDEST SWAP2 POP PUSH2 0x3CCF DUP3 PUSH2 0x4E01 JUMP JUMPDEST PUSH1 0x40 DUP3 ADD SWAP1 POP SWAP2 SWAP1 POP JUMP JUMPDEST PUSH1 0x0 PUSH2 0x3CE7 PUSH1 0x29 DUP4 PUSH2 0x472A JUMP JUMPDEST SWAP2 POP PUSH2 0x3CF2 DUP3 PUSH2 0x4E50 JUMP JUMPDEST PUSH1 0x40 DUP3 ADD SWAP1 POP SWAP2 SWAP1 POP JUMP JUMPDEST PUSH1 0x0 PUSH2 0x3D0A PUSH1 0x2E DUP4 PUSH2 0x472A JUMP JUMPDEST SWAP2 POP PUSH2 0x3D15 DUP3 PUSH2 0x4E9F JUMP JUMPDEST PUSH1 0x40 DUP3 ADD SWAP1 POP SWAP2 SWAP1 POP JUMP JUMPDEST PUSH1 0x0 PUSH2 0x3D2D PUSH1 0x35 DUP4 PUSH2 0x472A JUMP JUMPDEST SWAP2 POP PUSH2 0x3D38 DUP3 PUSH2 0x4EEE JUMP JUMPDEST PUSH1 0x40 DUP3 ADD SWAP1 POP SWAP2 SWAP1 POP JUMP JUMPDEST PUSH1 0x0 PUSH2 0x3D50 PUSH1 0x20 DUP4 PUSH2 0x472A JUMP JUMPDEST SWAP2 POP PUSH2 0x3D5B DUP3 PUSH2 0x4F3D JUMP JUMPDEST PUSH1 0x20 DUP3 ADD SWAP1 POP SWAP2 SWAP1 POP JUMP JUMPDEST PUSH1 0x0 PUSH2 0x3D73 PUSH1 0x31 DUP4 PUSH2 0x472A JUMP JUMPDEST SWAP2 POP PUSH2 0x3D7E DUP3 PUSH2 0x4F66 JUMP JUMPDEST PUSH1 0x40 DUP3 ADD SWAP1 POP SWAP2 SWAP1 POP JUMP JUMPDEST PUSH1 0x0 PUSH2 0x3D96 PUSH1 0x2C DUP4 PUSH2 0x472A JUMP JUMPDEST SWAP2 POP PUSH2 0x3DA1 DUP3 PUSH2 0x4FB5 JUMP JUMPDEST PUSH1 0x40 DUP3 ADD SWAP1 POP SWAP2 SWAP1 POP JUMP JUMPDEST PUSH1 0x0 PUSH2 0x3DB9 PUSH1 0x20 DUP4 PUSH2 0x472A JUMP JUMPDEST SWAP2 POP PUSH2 0x3DC4 DUP3 PUSH2 0x5004 JUMP JUMPDEST PUSH1 0x20 DUP3 ADD SWAP1 POP SWAP2 SWAP1 POP JUMP JUMPDEST PUSH1 0x0 PUSH2 0x3DDC PUSH1 0x1C DUP4 PUSH2 0x472A JUMP JUMPDEST SWAP2 POP PUSH2 0x3DE7 DUP3 PUSH2 0x502D JUMP JUMPDEST PUSH1 0x20 DUP3 ADD SWAP1 POP SWAP2 SWAP1 POP JUMP JUMPDEST PUSH1 0x0 PUSH2 0x3DFF PUSH1 0x2F DUP4 PUSH2 0x472A JUMP JUMPDEST SWAP2 POP PUSH2 0x3E0A DUP3 PUSH2 0x5056 JUMP JUMPDEST PUSH1 0x40 DUP3 ADD SWAP1 POP SWAP2 SWAP1 POP JUMP JUMPDEST PUSH1 0x0 PUSH2 0x3E22 PUSH1 0x1A DUP4 PUSH2 0x472A JUMP JUMPDEST SWAP2 POP PUSH2 0x3E2D DUP3 PUSH2 0x50A5 JUMP JUMPDEST PUSH1 0x20 DUP3 ADD SWAP1 POP SWAP2 SWAP1 POP JUMP JUMPDEST PUSH1 0x0 PUSH2 0x3E45 PUSH1 0x21 DUP4 PUSH2 0x472A JUMP JUMPDEST SWAP2 POP PUSH2 0x3E50 DUP3 PUSH2 0x50CE JUMP JUMPDEST PUSH1 0x40 DUP3 ADD SWAP1 POP SWAP2 SWAP1 POP JUMP JUMPDEST PUSH1 0x0 PUSH2 0x3E68 PUSH1 0x1C DUP4 PUSH2 0x472A JUMP JUMPDEST SWAP2 POP PUSH2 0x3E73 DUP3 PUSH2 0x511D JUMP JUMPDEST PUSH1 0x20 DUP3 ADD SWAP1 POP SWAP2 SWAP1 POP JUMP JUMPDEST PUSH1 0x0 PUSH2 0x3E8B PUSH1 0x31 DUP4 PUSH2 0x472A JUMP JUMPDEST SWAP2 POP PUSH2 0x3E96 DUP3 PUSH2 0x5146 JUMP JUMPDEST PUSH1 0x40 DUP3 ADD SWAP1 POP SWAP2 SWAP1 POP JUMP JUMPDEST PUSH1 0x0 PUSH2 0x3EAE PUSH1 0x1D DUP4 PUSH2 0x472A JUMP JUMPDEST SWAP2 POP PUSH2 0x3EB9 DUP3 PUSH2 0x5195 JUMP JUMPDEST PUSH1 0x20 DUP3 ADD SWAP1 POP SWAP2 SWAP1 POP JUMP JUMPDEST PUSH1 0x0 PUSH2 0x3ED1 PUSH1 0x1F DUP4 PUSH2 0x472A JUMP JUMPDEST SWAP2 POP PUSH2 0x3EDC DUP3 PUSH2 0x51BE JUMP JUMPDEST PUSH1 0x20 DUP3 ADD SWAP1 POP SWAP2 SWAP1 POP JUMP JUMPDEST PUSH1 0x0 PUSH2 0x3EF4 PUSH1 0x1B DUP4 PUSH2 0x472A JUMP JUMPDEST SWAP2 POP PUSH2 0x3EFF DUP3 PUSH2 0x51E7 JUMP JUMPDEST PUSH1 0x20 DUP3 ADD SWAP1 POP SWAP2 SWAP1 POP JUMP JUMPDEST PUSH1 0x0 PUSH2 0x3F17 PUSH1 0x33 DUP4 PUSH2 0x472A JUMP JUMPDEST SWAP2 POP PUSH2 0x3F22 DUP3 PUSH2 0x5210 JUMP JUMPDEST PUSH1 0x40 DUP3 ADD SWAP1 POP SWAP2 SWAP1 POP JUMP JUMPDEST PUSH1 0x0 PUSH1 0x80 DUP4 ADD PUSH1 0x0 DUP4 ADD MLOAD PUSH2 0x3F45 PUSH1 0x0 DUP7 ADD DUP3 PUSH2 0x3FCD JUMP JUMPDEST POP PUSH1 0x20 DUP4 ADD MLOAD DUP5 DUP3 SUB PUSH1 0x20 DUP7 ADD MSTORE PUSH2 0x3F5D DUP3 DUP3 PUSH2 0x3A70 JUMP JUMPDEST SWAP2 POP POP PUSH1 0x40 DUP4 ADD MLOAD DUP5 DUP3 SUB PUSH1 0x40 DUP7 ADD MSTORE PUSH2 0x3F77 DUP3 DUP3 PUSH2 0x3A70 JUMP JUMPDEST SWAP2 POP POP PUSH1 0x60 DUP4 ADD MLOAD DUP5 DUP3 SUB PUSH1 0x60 DUP7 ADD MSTORE PUSH2 0x3F91 DUP3 DUP3 PUSH2 0x3A70 JUMP JUMPDEST SWAP2 POP POP DUP1 SWAP2 POP POP SWAP3 SWAP2 POP POP JUMP JUMPDEST PUSH1 0x40 DUP3 ADD PUSH1 0x0 DUP3 ADD MLOAD PUSH2 0x3FB4 PUSH1 0x0 DUP6 ADD DUP3 PUSH2 0x399D JUMP JUMPDEST POP PUSH1 0x20 DUP3 ADD MLOAD PUSH2 0x3FC7 PUSH1 0x20 DUP6 ADD DUP3 PUSH2 0x3FEB JUMP JUMPDEST POP POP POP POP JUMP JUMPDEST PUSH2 0x3FD6 DUP2 PUSH2 0x48D7 JUMP JUMPDEST DUP3 MSTORE POP POP JUMP JUMPDEST PUSH2 0x3FE5 DUP2 PUSH2 0x48D7 JUMP JUMPDEST DUP3 MSTORE POP POP JUMP JUMPDEST PUSH2 0x3FF4 DUP2 PUSH2 0x48E1 JUMP JUMPDEST DUP3 MSTORE POP POP JUMP JUMPDEST PUSH2 0x4003 DUP2 PUSH2 0x48E1 JUMP JUMPDEST DUP3 MSTORE POP POP JUMP JUMPDEST PUSH1 0x0 PUSH2 0x4015 DUP3 DUP6 PUSH2 0x3AE2 JUMP JUMPDEST SWAP2 POP PUSH2 0x4021 DUP3 DUP5 PUSH2 0x3AE2 JUMP JUMPDEST SWAP2 POP DUP2 SWAP1 POP SWAP4 SWAP3 POP POP POP JUMP JUMPDEST PUSH1 0x0 PUSH1 0x20 DUP3 ADD SWAP1 POP PUSH2 0x4042 PUSH1 0x0 DUP4 ADD DUP5 PUSH2 0x39BB JUMP JUMPDEST SWAP3 SWAP2 POP POP JUMP JUMPDEST PUSH1 0x0 PUSH1 0x20 DUP3 ADD SWAP1 POP PUSH2 0x405D PUSH1 0x0 DUP4 ADD DUP5 PUSH2 0x39AC JUMP JUMPDEST SWAP3 SWAP2 POP POP JUMP JUMPDEST PUSH1 0x0 PUSH1 0x40 DUP3 ADD SWAP1 POP PUSH2 0x4078 PUSH1 0x0 DUP4 ADD DUP6 PUSH2 0x39AC JUMP JUMPDEST PUSH2 0x4085 PUSH1 0x20 DUP4 ADD DUP5 PUSH2 0x3FFA JUMP JUMPDEST SWAP4 SWAP3 POP POP POP JUMP JUMPDEST PUSH1 0x0 PUSH1 0x80 DUP3 ADD SWAP1 POP PUSH2 0x40A1 PUSH1 0x0 DUP4 ADD DUP8 PUSH2 0x39BB JUMP JUMPDEST PUSH2 0x40AE PUSH1 0x20 DUP4 ADD DUP7 PUSH2 0x39BB JUMP JUMPDEST PUSH2 0x40BB PUSH1 0x40 DUP4 ADD DUP6 PUSH2 0x3FDC JUMP JUMPDEST DUP2 DUP2 SUB PUSH1 0x60 DUP4 ADD MSTORE PUSH2 0x40CD DUP2 DUP5 PUSH2 0x3A37 JUMP JUMPDEST SWAP1 POP SWAP6 SWAP5 POP POP POP POP POP JUMP JUMPDEST PUSH1 0x0 PUSH1 0x40 DUP3 ADD SWAP1 POP PUSH2 0x40ED PUSH1 0x0 DUP4 ADD DUP6 PUSH2 0x39BB JUMP JUMPDEST PUSH2 0x40FA PUSH1 0x20 DUP4 ADD DUP5 PUSH2 0x3FDC JUMP JUMPDEST SWAP4 SWAP3 POP POP POP JUMP JUMPDEST PUSH1 0x0 PUSH1 0x20 DUP3 ADD SWAP1 POP DUP2 DUP2 SUB PUSH1 0x0 DUP4 ADD MSTORE PUSH2 0x411B DUP2 DUP5 PUSH2 0x39CA JUMP JUMPDEST SWAP1 POP SWAP3 SWAP2 POP POP JUMP JUMPDEST PUSH1 0x0 PUSH1 0x20 DUP3 ADD SWAP1 POP PUSH2 0x4138 PUSH1 0x0 DUP4 ADD DUP5 PUSH2 0x3A28 JUMP JUMPDEST SWAP3 SWAP2 POP POP JUMP JUMPDEST PUSH1 0x0 PUSH1 0x20 DUP3 ADD SWAP1 POP DUP2 DUP2 SUB PUSH1 0x0 DUP4 ADD MSTORE PUSH2 0x4158 DUP2 DUP5 PUSH2 0x3AA9 JUMP JUMPDEST SWAP1 POP SWAP3 SWAP2 POP POP JUMP JUMPDEST PUSH1 0x0 PUSH1 0x20 DUP3 ADD SWAP1 POP DUP2 DUP2 SUB PUSH1 0x0 DUP4 ADD MSTORE PUSH2 0x4179 DUP2 PUSH2 0x3B13 JUMP JUMPDEST SWAP1 POP SWAP2 SWAP1 POP JUMP JUMPDEST PUSH1 0x0 PUSH1 0x20 DUP3 ADD SWAP1 POP DUP2 DUP2 SUB PUSH1 0x0 DUP4 ADD MSTORE PUSH2 0x4199 DUP2 PUSH2 0x3B36 JUMP JUMPDEST SWAP1 POP SWAP2 SWAP1 POP JUMP JUMPDEST PUSH1 0x0 PUSH1 0x20 DUP3 ADD SWAP1 POP DUP2 DUP2 SUB PUSH1 0x0 DUP4 ADD MSTORE PUSH2 0x41B9 DUP2 PUSH2 0x3B59 JUMP JUMPDEST SWAP1 POP SWAP2 SWAP1 POP JUMP JUMPDEST PUSH1 0x0 PUSH1 0x20 DUP3 ADD SWAP1 POP DUP2 DUP2 SUB PUSH1 0x0 DUP4 ADD MSTORE PUSH2 0x41D9 DUP2 PUSH2 0x3B7C JUMP JUMPDEST SWAP1 POP SWAP2 SWAP1 POP JUMP JUMPDEST PUSH1 0x0 PUSH1 0x20 DUP3 ADD SWAP1 POP DUP2 DUP2 SUB PUSH1 0x0 DUP4 ADD MSTORE PUSH2 0x41F9 DUP2 PUSH2 0x3B9F JUMP JUMPDEST SWAP1 POP SWAP2 SWAP1 POP JUMP JUMPDEST PUSH1 0x0 PUSH1 0x20 DUP3 ADD SWAP1 POP DUP2 DUP2 SUB PUSH1 0x0 DUP4 ADD MSTORE PUSH2 0x4219 DUP2 PUSH2 0x3BC2 JUMP JUMPDEST SWAP1 POP SWAP2 SWAP1 POP JUMP JUMPDEST PUSH1 0x0 PUSH1 0x20 DUP3 ADD SWAP1 POP DUP2 DUP2 SUB PUSH1 0x0 DUP4 ADD MSTORE PUSH2 0x4239 DUP2 PUSH2 0x3BE5 JUMP JUMPDEST SWAP1 POP SWAP2 SWAP1 POP JUMP JUMPDEST PUSH1 0x0 PUSH1 0x20 DUP3 ADD SWAP1 POP DUP2 DUP2 SUB PUSH1 0x0 DUP4 ADD MSTORE PUSH2 0x4259 DUP2 PUSH2 0x3C08 JUMP JUMPDEST SWAP1 POP SWAP2 SWAP1 POP JUMP JUMPDEST PUSH1 0x0 PUSH1 0x20 DUP3 ADD SWAP1 POP DUP2 DUP2 SUB PUSH1 0x0 DUP4 ADD MSTORE PUSH2 0x4279 DUP2 PUSH2 0x3C2B JUMP JUMPDEST SWAP1 POP SWAP2 SWAP1 POP JUMP JUMPDEST PUSH1 0x0 PUSH1 0x20 DUP3 ADD SWAP1 POP DUP2 DUP2 SUB PUSH1 0x0 DUP4 ADD MSTORE PUSH2 0x4299 DUP2 PUSH2 0x3C4E JUMP JUMPDEST SWAP1 POP SWAP2 SWAP1 POP JUMP JUMPDEST PUSH1 0x0 PUSH1 0x20 DUP3 ADD SWAP1 POP DUP2 DUP2 SUB PUSH1 0x0 DUP4 ADD MSTORE PUSH2 0x42B9 DUP2 PUSH2 0x3C71 JUMP JUMPDEST SWAP1 POP SWAP2 SWAP1 POP JUMP JUMPDEST PUSH1 0x0 PUSH1 0x20 DUP3 ADD SWAP1 POP DUP2 DUP2 SUB PUSH1 0x0 DUP4 ADD MSTORE PUSH2 0x42D9 DUP2 PUSH2 0x3C94 JUMP JUMPDEST SWAP1 POP SWAP2 SWAP1 POP JUMP JUMPDEST PUSH1 0x0 PUSH1 0x20 DUP3 ADD SWAP1 POP DUP2 DUP2 SUB PUSH1 0x0 DUP4 ADD MSTORE PUSH2 0x42F9 DUP2 PUSH2 0x3CB7 JUMP JUMPDEST SWAP1 POP SWAP2 SWAP1 POP JUMP JUMPDEST PUSH1 0x0 PUSH1 0x20 DUP3 ADD SWAP1 POP DUP2 DUP2 SUB PUSH1 0x0 DUP4 ADD MSTORE PUSH2 0x4319 DUP2 PUSH2 0x3CDA JUMP JUMPDEST SWAP1 POP SWAP2 SWAP1 POP JUMP JUMPDEST PUSH1 0x0 PUSH1 0x20 DUP3 ADD SWAP1 POP DUP2 DUP2 SUB PUSH1 0x0 DUP4 ADD MSTORE PUSH2 0x4339 DUP2 PUSH2 0x3CFD JUMP JUMPDEST SWAP1 POP SWAP2 SWAP1 POP JUMP JUMPDEST PUSH1 0x0 PUSH1 0x20 DUP3 ADD SWAP1 POP DUP2 DUP2 SUB PUSH1 0x0 DUP4 ADD MSTORE PUSH2 0x4359 DUP2 PUSH2 0x3D20 JUMP JUMPDEST SWAP1 POP SWAP2 SWAP1 POP JUMP JUMPDEST PUSH1 0x0 PUSH1 0x20 DUP3 ADD SWAP1 POP DUP2 DUP2 SUB PUSH1 0x0 DUP4 ADD MSTORE PUSH2 0x4379 DUP2 PUSH2 0x3D43 JUMP JUMPDEST SWAP1 POP SWAP2 SWAP1 POP JUMP JUMPDEST PUSH1 0x0 PUSH1 0x20 DUP3 ADD SWAP1 POP DUP2 DUP2 SUB PUSH1 0x0 DUP4 ADD MSTORE PUSH2 0x4399 DUP2 PUSH2 0x3D66 JUMP JUMPDEST SWAP1 POP SWAP2 SWAP1 POP JUMP JUMPDEST PUSH1 0x0 PUSH1 0x20 DUP3 ADD SWAP1 POP DUP2 DUP2 SUB PUSH1 0x0 DUP4 ADD MSTORE PUSH2 0x43B9 DUP2 PUSH2 0x3D89 JUMP JUMPDEST SWAP1 POP SWAP2 SWAP1 POP JUMP JUMPDEST PUSH1 0x0 PUSH1 0x20 DUP3 ADD SWAP1 POP DUP2 DUP2 SUB PUSH1 0x0 DUP4 ADD MSTORE PUSH2 0x43D9 DUP2 PUSH2 0x3DAC JUMP JUMPDEST SWAP1 POP SWAP2 SWAP1 POP JUMP JUMPDEST PUSH1 0x0 PUSH1 0x20 DUP3 ADD SWAP1 POP DUP2 DUP2 SUB PUSH1 0x0 DUP4 ADD MSTORE PUSH2 0x43F9 DUP2 PUSH2 0x3DCF JUMP JUMPDEST SWAP1 POP SWAP2 SWAP1 POP JUMP JUMPDEST PUSH1 0x0 PUSH1 0x20 DUP3 ADD SWAP1 POP DUP2 DUP2 SUB PUSH1 0x0 DUP4 ADD MSTORE PUSH2 0x4419 DUP2 PUSH2 0x3DF2 JUMP JUMPDEST SWAP1 POP SWAP2 SWAP1 POP JUMP JUMPDEST PUSH1 0x0 PUSH1 0x20 DUP3 ADD SWAP1 POP DUP2 DUP2 SUB PUSH1 0x0 DUP4 ADD MSTORE PUSH2 0x4439 DUP2 PUSH2 0x3E15 JUMP JUMPDEST SWAP1 POP SWAP2 SWAP1 POP JUMP JUMPDEST PUSH1 0x0 PUSH1 0x20 DUP3 ADD SWAP1 POP DUP2 DUP2 SUB PUSH1 0x0 DUP4 ADD MSTORE PUSH2 0x4459 DUP2 PUSH2 0x3E38 JUMP JUMPDEST SWAP1 POP SWAP2 SWAP1 POP JUMP JUMPDEST PUSH1 0x0 PUSH1 0x20 DUP3 ADD SWAP1 POP DUP2 DUP2 SUB PUSH1 0x0 DUP4 ADD MSTORE PUSH2 0x4479 DUP2 PUSH2 0x3E5B JUMP JUMPDEST SWAP1 POP SWAP2 SWAP1 POP JUMP JUMPDEST PUSH1 0x0 PUSH1 0x20 DUP3 ADD SWAP1 POP DUP2 DUP2 SUB PUSH1 0x0 DUP4 ADD MSTORE PUSH2 0x4499 DUP2 PUSH2 0x3E7E JUMP JUMPDEST SWAP1 POP SWAP2 SWAP1 POP JUMP JUMPDEST PUSH1 0x0 PUSH1 0x20 DUP3 ADD SWAP1 POP DUP2 DUP2 SUB PUSH1 0x0 DUP4 ADD MSTORE PUSH2 0x44B9 DUP2 PUSH2 0x3EA1 JUMP JUMPDEST SWAP1 POP SWAP2 SWAP1 POP JUMP JUMPDEST PUSH1 0x0 PUSH1 0x20 DUP3 ADD SWAP1 POP DUP2 DUP2 SUB PUSH1 0x0 DUP4 ADD MSTORE PUSH2 0x44D9 DUP2 PUSH2 0x3EC4 JUMP JUMPDEST SWAP1 POP SWAP2 SWAP1 POP JUMP JUMPDEST PUSH1 0x0 PUSH1 0x20 DUP3 ADD SWAP1 POP DUP2 DUP2 SUB PUSH1 0x0 DUP4 ADD MSTORE PUSH2 0x44F9 DUP2 PUSH2 0x3EE7 JUMP JUMPDEST SWAP1 POP SWAP2 SWAP1 POP JUMP JUMPDEST PUSH1 0x0 PUSH1 0x20 DUP3 ADD SWAP1 POP DUP2 DUP2 SUB PUSH1 0x0 DUP4 ADD MSTORE PUSH2 0x4519 DUP2 PUSH2 0x3F0A JUMP JUMPDEST SWAP1 POP SWAP2 SWAP1 POP JUMP JUMPDEST PUSH1 0x0 PUSH1 0x20 DUP3 ADD SWAP1 POP DUP2 DUP2 SUB PUSH1 0x0 DUP4 ADD MSTORE PUSH2 0x453A DUP2 DUP5 PUSH2 0x3F2D JUMP JUMPDEST SWAP1 POP SWAP3 SWAP2 POP POP JUMP JUMPDEST PUSH1 0x0 PUSH1 0x20 DUP3 ADD SWAP1 POP PUSH2 0x4557 PUSH1 0x0 DUP4 ADD DUP5 PUSH2 0x3FDC JUMP JUMPDEST SWAP3 SWAP2 POP POP JUMP JUMPDEST PUSH1 0x0 PUSH1 0x40 DUP3 ADD SWAP1 POP PUSH2 0x4572 PUSH1 0x0 DUP4 ADD DUP6 PUSH2 0x3FDC JUMP JUMPDEST DUP2 DUP2 SUB PUSH1 0x20 DUP4 ADD MSTORE PUSH2 0x4584 DUP2 DUP5 PUSH2 0x39CA JUMP JUMPDEST SWAP1 POP SWAP4 SWAP3 POP POP POP JUMP JUMPDEST PUSH1 0x0 PUSH1 0x40 DUP3 ADD SWAP1 POP PUSH2 0x45A2 PUSH1 0x0 DUP4 ADD DUP6 PUSH2 0x3FDC JUMP JUMPDEST DUP2 DUP2 SUB PUSH1 0x20 DUP4 ADD MSTORE PUSH2 0x45B4 DUP2 DUP5 PUSH2 0x3AA9 JUMP JUMPDEST SWAP1 POP SWAP4 SWAP3 POP POP POP JUMP JUMPDEST PUSH1 0x0 PUSH1 0x80 DUP3 ADD SWAP1 POP PUSH2 0x45D2 PUSH1 0x0 DUP4 ADD DUP8 PUSH2 0x3FDC JUMP JUMPDEST DUP2 DUP2 SUB PUSH1 0x20 DUP4 ADD MSTORE PUSH2 0x45E4 DUP2 DUP7 PUSH2 0x3AA9 JUMP JUMPDEST SWAP1 POP DUP2 DUP2 SUB PUSH1 0x40 DUP4 ADD MSTORE PUSH2 0x45F8 DUP2 DUP6 PUSH2 0x3AA9 JUMP JUMPDEST SWAP1 POP DUP2 DUP2 SUB PUSH1 0x60 DUP4 ADD MSTORE PUSH2 0x460C DUP2 DUP5 PUSH2 0x3AA9 JUMP JUMPDEST SWAP1 POP SWAP6 SWAP5 POP POP POP POP POP JUMP JUMPDEST PUSH1 0x0 PUSH1 0x20 DUP3 ADD SWAP1 POP PUSH2 0x462C PUSH1 0x0 DUP4 ADD DUP5 PUSH2 0x3FFA JUMP JUMPDEST SWAP3 SWAP2 POP POP JUMP JUMPDEST PUSH1 0x0 PUSH2 0x463C PUSH2 0x464D JUMP JUMPDEST SWAP1 POP PUSH2 0x4648 DUP3 DUP3 PUSH2 0x496D JUMP JUMPDEST SWAP2 SWAP1 POP JUMP JUMPDEST PUSH1 0x0 PUSH1 0x40 MLOAD SWAP1 POP SWAP1 JUMP JUMPDEST PUSH1 0x0 PUSH8 0xFFFFFFFFFFFFFFFF DUP3 GT ISZERO PUSH2 0x4672 JUMPI PUSH2 0x4671 PUSH2 0x4AA5 JUMP JUMPDEST JUMPDEST PUSH2 0x467B DUP3 PUSH2 0x4AD4 JUMP JUMPDEST SWAP1 POP PUSH1 0x20 DUP2 ADD SWAP1 POP SWAP2 SWAP1 POP JUMP JUMPDEST PUSH1 0x0 PUSH8 0xFFFFFFFFFFFFFFFF DUP3 GT ISZERO PUSH2 0x46A3 JUMPI PUSH2 0x46A2 PUSH2 0x4AA5 JUMP JUMPDEST JUMPDEST PUSH2 0x46AC DUP3 PUSH2 0x4AD4 JUMP JUMPDEST SWAP1 POP PUSH1 0x20 DUP2 ADD SWAP1 POP SWAP2 SWAP1 POP JUMP JUMPDEST PUSH1 0x0 DUP2 SWAP1 POP PUSH1 0x20 DUP3 ADD SWAP1 POP SWAP2 SWAP1 POP JUMP JUMPDEST PUSH1 0x0 DUP2 MLOAD SWAP1 POP SWAP2 SWAP1 POP JUMP JUMPDEST PUSH1 0x0 DUP2 MLOAD SWAP1 POP SWAP2 SWAP1 POP JUMP JUMPDEST PUSH1 0x0 DUP2 MLOAD SWAP1 POP SWAP2 SWAP1 POP JUMP JUMPDEST PUSH1 0x0 PUSH1 0x20 DUP3 ADD SWAP1 POP SWAP2 SWAP1 POP JUMP JUMPDEST PUSH1 0x0 DUP3 DUP3 MSTORE PUSH1 0x20 DUP3 ADD SWAP1 POP SWAP3 SWAP2 POP POP JUMP JUMPDEST PUSH1 0x0 DUP3 DUP3 MSTORE PUSH1 0x20 DUP3 ADD SWAP1 POP SWAP3 SWAP2 POP POP JUMP JUMPDEST PUSH1 0x0 DUP3 DUP3 MSTORE PUSH1 0x20 DUP3 ADD SWAP1 POP SWAP3 SWAP2 POP POP JUMP JUMPDEST PUSH1 0x0 DUP3 DUP3 MSTORE PUSH1 0x20 DUP3 ADD SWAP1 POP SWAP3 SWAP2 POP POP JUMP JUMPDEST PUSH1 0x0 DUP2 SWAP1 POP SWAP3 SWAP2 POP POP JUMP JUMPDEST PUSH1 0x0 PUSH2 0x4751 DUP3 PUSH2 0x48D7 JUMP JUMPDEST SWAP2 POP PUSH2 0x475C DUP4 PUSH2 0x48D7 JUMP JUMPDEST SWAP3 POP DUP3 PUSH32 0xFFFFFFFFFFFFFFFFFFFFFFFFFFFFFFFFFFFFFFFFFFFFFFFFFFFFFFFFFFFFFFFF SUB DUP3 GT ISZERO PUSH2 0x4791 JUMPI PUSH2 0x4790 PUSH2 0x4A18 JUMP JUMPDEST JUMPDEST DUP3 DUP3 ADD SWAP1 POP SWAP3 SWAP2 POP POP JUMP JUMPDEST PUSH1 0x0 PUSH2 0x47A7 DUP3 PUSH2 0x48D7 JUMP JUMPDEST SWAP2 POP PUSH2 0x47B2 DUP4 PUSH2 0x48D7 JUMP JUMPDEST SWAP3 POP DUP3 PUSH2 0x47C2 JUMPI PUSH2 0x47C1 PUSH2 0x4A47 JUMP JUMPDEST JUMPDEST DUP3 DUP3 DIV SWAP1 POP SWAP3 SWAP2 POP POP JUMP JUMPDEST PUSH1 0x0 PUSH2 0x47D8 DUP3 PUSH2 0x48D7 JUMP JUMPDEST SWAP2 POP PUSH2 0x47E3 DUP4 PUSH2 0x48D7 JUMP JUMPDEST SWAP3 POP DUP2 PUSH32 0xFFFFFFFFFFFFFFFFFFFFFFFFFFFFFFFFFFFFFFFFFFFFFFFFFFFFFFFFFFFFFFFF DIV DUP4 GT DUP3 ISZERO ISZERO AND ISZERO PUSH2 0x481C JUMPI PUSH2 0x481B PUSH2 0x4A18 JUMP JUMPDEST JUMPDEST DUP3 DUP3 MUL SWAP1 POP SWAP3 SWAP2 POP POP JUMP JUMPDEST PUSH1 0x0 PUSH2 0x4832 DUP3 PUSH2 0x48D7 JUMP JUMPDEST SWAP2 POP PUSH2 0x483D DUP4 PUSH2 0x48D7 JUMP JUMPDEST SWAP3 POP DUP3 DUP3 LT ISZERO PUSH2 0x4850 JUMPI PUSH2 0x484F PUSH2 0x4A18 JUMP JUMPDEST JUMPDEST DUP3 DUP3 SUB SWAP1 POP SWAP3 SWAP2 POP POP JUMP JUMPDEST PUSH1 0x0 PUSH2 0x4866 DUP3 PUSH2 0x48B7 JUMP JUMPDEST SWAP1 POP SWAP2 SWAP1 POP JUMP JUMPDEST PUSH1 0x0 PUSH2 0x4878 DUP3 PUSH2 0x48B7 JUMP JUMPDEST SWAP1 POP SWAP2 SWAP1 POP JUMP JUMPDEST PUSH1 0x0 DUP2 ISZERO ISZERO SWAP1 POP SWAP2 SWAP1 POP JUMP JUMPDEST PUSH1 0x0 PUSH32 0xFFFFFFFF00000000000000000000000000000000000000000000000000000000 DUP3 AND SWAP1 POP SWAP2 SWAP1 POP JUMP JUMPDEST PUSH1 0x0 PUSH20 0xFFFFFFFFFFFFFFFFFFFFFFFFFFFFFFFFFFFFFFFF DUP3 AND SWAP1 POP SWAP2 SWAP1 POP JUMP JUMPDEST PUSH1 0x0 DUP2 SWAP1 POP SWAP2 SWAP1 POP JUMP JUMPDEST PUSH1 0x0 PUSH12 0xFFFFFFFFFFFFFFFFFFFFFFFF DUP3 AND SWAP1 POP SWAP2 SWAP1 POP JUMP JUMPDEST DUP3 DUP2 DUP4 CALLDATACOPY PUSH1 0x0 DUP4 DUP4 ADD MSTORE POP POP POP JUMP JUMPDEST PUSH1 0x0 JUMPDEST DUP4 DUP2 LT ISZERO PUSH2 0x4926 JUMPI DUP1 DUP3 ADD MLOAD DUP2 DUP5 ADD MSTORE PUSH1 0x20 DUP2 ADD SWAP1 POP PUSH2 0x490B JUMP JUMPDEST DUP4 DUP2 GT ISZERO PUSH2 0x4935 JUMPI PUSH1 0x0 DUP5 DUP5 ADD MSTORE JUMPDEST POP POP POP POP JUMP JUMPDEST PUSH1 0x0 PUSH1 0x2 DUP3 DIV SWAP1 POP PUSH1 0x1 DUP3 AND DUP1 PUSH2 0x4953 JUMPI PUSH1 0x7F DUP3 AND SWAP2 POP JUMPDEST PUSH1 0x20 DUP3 LT DUP2 EQ ISZERO PUSH2 0x4967 JUMPI PUSH2 0x4966 PUSH2 0x4A76 JUMP JUMPDEST JUMPDEST POP SWAP2 SWAP1 POP JUMP JUMPDEST PUSH2 0x4976 DUP3 PUSH2 0x4AD4 JUMP JUMPDEST DUP2 ADD DUP2 DUP2 LT PUSH8 0xFFFFFFFFFFFFFFFF DUP3 GT OR ISZERO PUSH2 0x4995 JUMPI PUSH2 0x4994 PUSH2 0x4AA5 JUMP JUMPDEST JUMPDEST DUP1 PUSH1 0x40 MSTORE POP POP POP JUMP JUMPDEST PUSH1 0x0 PUSH2 0x49A9 DUP3 PUSH2 0x48D7 JUMP JUMPDEST SWAP2 POP PUSH32 0xFFFFFFFFFFFFFFFFFFFFFFFFFFFFFFFFFFFFFFFFFFFFFFFFFFFFFFFFFFFFFFFF DUP3 EQ ISZERO PUSH2 0x49DC JUMPI PUSH2 0x49DB PUSH2 0x4A18 JUMP JUMPDEST JUMPDEST PUSH1 0x1 DUP3 ADD SWAP1 POP SWAP2 SWAP1 POP JUMP JUMPDEST PUSH1 0x0 PUSH2 0x49F2 DUP3 PUSH2 0x48D7 JUMP JUMPDEST SWAP2 POP PUSH2 0x49FD DUP4 PUSH2 0x48D7 JUMP JUMPDEST SWAP3 POP DUP3 PUSH2 0x4A0D JUMPI PUSH2 0x4A0C PUSH2 0x4A47 JUMP JUMPDEST JUMPDEST DUP3 DUP3 MOD SWAP1 POP SWAP3 SWAP2 POP POP JUMP JUMPDEST PUSH32 0x4E487B7100000000000000000000000000000000000000000000000000000000 PUSH1 0x0 MSTORE PUSH1 0x11 PUSH1 0x4 MSTORE PUSH1 0x24 PUSH1 0x0 REVERT JUMPDEST PUSH32 0x4E487B7100000000000000000000000000000000000000000000000000000000 PUSH1 0x0 MSTORE PUSH1 0x12 PUSH1 0x4 MSTORE PUSH1 0x24 PUSH1 0x0 REVERT JUMPDEST PUSH32 0x4E487B7100000000000000000000000000000000000000000000000000000000 PUSH1 0x0 MSTORE PUSH1 0x22 PUSH1 0x4 MSTORE PUSH1 0x24 PUSH1 0x0 REVERT JUMPDEST PUSH32 0x4E487B7100000000000000000000000000000000000000000000000000000000 PUSH1 0x0 MSTORE PUSH1 0x41 PUSH1 0x4 MSTORE PUSH1 0x24 PUSH1 0x0 REVERT JUMPDEST PUSH1 0x0 PUSH1 0x1F NOT PUSH1 0x1F DUP4 ADD AND SWAP1 POP SWAP2 SWAP1 POP JUMP JUMPDEST PUSH32 0x4552433732313A205469636B65742068617320616C7265616479206265656E20 PUSH1 0x0 DUP3 ADD MSTORE PUSH32 0x7573656400000000000000000000000000000000000000000000000000000000 PUSH1 0x20 DUP3 ADD MSTORE POP JUMP JUMPDEST PUSH32 0x4552433732313A207472616E7366657220746F206E6F6E204552433732315265 PUSH1 0x0 DUP3 ADD MSTORE PUSH32 0x63656976657220696D706C656D656E7465720000000000000000000000000000 PUSH1 0x20 DUP3 ADD MSTORE POP JUMP JUMPDEST PUSH32 0x4F776E61626C653A206E6577206F776E657220697320746865207A65726F2061 PUSH1 0x0 DUP3 ADD MSTORE PUSH32 0x6464726573730000000000000000000000000000000000000000000000000000 PUSH1 0x20 DUP3 ADD MSTORE POP JUMP JUMPDEST PUSH32 0x4552433732313A207472616E736665722066726F6D20696E636F727265637420 PUSH1 0x0 DUP3 ADD MSTORE PUSH32 0x6F776E6572000000000000000000000000000000000000000000000000000000 PUSH1 0x20 DUP3 ADD MSTORE POP JUMP JUMPDEST PUSH32 0x4552433732313A20746F6B656E20616C7265616479206D696E74656400000000 PUSH1 0x0 DUP3 ADD MSTORE POP JUMP JUMPDEST PUSH32 0x4552433732313A207472616E7366657220746F20746865207A65726F20616464 PUSH1 0x0 DUP3 ADD MSTORE PUSH32 0x7265737300000000000000000000000000000000000000000000000000000000 PUSH1 0x20 DUP3 ADD MSTORE POP JUMP JUMPDEST PUSH32 0x4552433732313A20617070726F766520746F2063616C6C657200000000000000 PUSH1 0x0 DUP3 ADD MSTORE POP JUMP JUMPDEST PUSH32 0x4552433732313A206F70657261746F7220717565727920666F72206E6F6E6578 PUSH1 0x0 DUP3 ADD MSTORE PUSH32 0x697374656E7420746F6B656E0000000000000000000000000000000000000000 PUSH1 0x20 DUP3 ADD MSTORE POP JUMP JUMPDEST PUSH32 0x526F79616C74792076616C75652073686F756C6420626520706F736974697665 PUSH1 0x0 DUP3 ADD MSTORE POP JUMP JUMPDEST PUSH32 0x4552433732313A204E6F742061207469636B65742066726F6D20746865206576 PUSH1 0x0 DUP3 ADD MSTORE PUSH32 0x656E740000000000000000000000000000000000000000000000000000000000 PUSH1 0x20 DUP3 ADD MSTORE POP JUMP JUMPDEST PUSH32 0x4552433732313A205469636B657420646F6573206E6F74206578697374000000 PUSH1 0x0 DUP3 ADD MSTORE POP JUMP JUMPDEST PUSH32 0x4552433732313A20617070726F76652063616C6C6572206973206E6F74206F77 PUSH1 0x0 DUP3 ADD MSTORE PUSH32 0x6E6572206E6F7220617070726F76656420666F7220616C6C0000000000000000 PUSH1 0x20 DUP3 ADD MSTORE POP JUMP JUMPDEST PUSH32 0x4552433732313A2062616C616E636520717565727920666F7220746865207A65 PUSH1 0x0 DUP3 ADD MSTORE PUSH32 0x726F206164647265737300000000000000000000000000000000000000000000 PUSH1 0x20 DUP3 ADD MSTORE POP JUMP JUMPDEST PUSH32 0x4552433732313A206F776E657220717565727920666F72206E6F6E6578697374 PUSH1 0x0 DUP3 ADD MSTORE PUSH32 0x656E7420746F6B656E0000000000000000000000000000000000000000000000 PUSH1 0x20 DUP3 ADD MSTORE POP JUMP JUMPDEST PUSH32 0x45524337323155524953746F726167653A2055524920736574206F66206E6F6E PUSH1 0x0 DUP3 ADD MSTORE PUSH32 0x6578697374656E7420746F6B656E000000000000000000000000000000000000 PUSH1 0x20 DUP3 ADD MSTORE POP JUMP JUMPDEST PUSH32 0x4552433732313A20546F206164647265737320697320616C7265616479207468 PUSH1 0x0 DUP3 ADD MSTORE PUSH32 0x65206F776E6572206F6620746865207469636B65740000000000000000000000 PUSH1 0x20 DUP3 ADD MSTORE POP JUMP JUMPDEST PUSH32 0x4552433732313A206D696E7420746F20746865207A65726F2061646472657373 PUSH1 0x0 DUP3 ADD MSTORE POP JUMP JUMPDEST PUSH32 0x45524337323155524953746F726167653A2055524920717565727920666F7220 PUSH1 0x0 DUP3 ADD MSTORE PUSH32 0x6E6F6E6578697374656E7420746F6B656E000000000000000000000000000000 PUSH1 0x20 DUP3 ADD MSTORE POP JUMP JUMPDEST PUSH32 0x4552433732313A20617070726F76656420717565727920666F72206E6F6E6578 PUSH1 0x0 DUP3 ADD MSTORE PUSH32 0x697374656E7420746F6B656E0000000000000000000000000000000000000000 PUSH1 0x20 DUP3 ADD MSTORE POP JUMP JUMPDEST PUSH32 0x4F776E61626C653A2063616C6C6572206973206E6F7420746865206F776E6572 PUSH1 0x0 DUP3 ADD MSTORE POP JUMP JUMPDEST PUSH32 0x4552433732313A204E6F7420746865207469636B6574206F776E657200000000 PUSH1 0x0 DUP3 ADD MSTORE POP JUMP JUMPDEST PUSH32 0x4552433732314D657461646174613A2055524920717565727920666F72206E6F PUSH1 0x0 DUP3 ADD MSTORE PUSH32 0x6E6578697374656E7420746F6B656E0000000000000000000000000000000000 PUSH1 0x20 DUP3 ADD MSTORE POP JUMP JUMPDEST PUSH32 0x4552433732313A20496E76616C696420746F2061646472657373000000000000 PUSH1 0x0 DUP3 ADD MSTORE POP JUMP JUMPDEST PUSH32 0x4552433732313A20617070726F76616C20746F2063757272656E74206F776E65 PUSH1 0x0 DUP3 ADD MSTORE PUSH32 0x7200000000000000000000000000000000000000000000000000000000000000 PUSH1 0x20 DUP3 ADD MSTORE POP JUMP JUMPDEST PUSH32 0x4552433732313A20496E76616C69642066726F6D206164647265737300000000 PUSH1 0x0 DUP3 ADD MSTORE POP JUMP JUMPDEST PUSH32 0x4552433732313A207472616E736665722063616C6C6572206973206E6F74206F PUSH1 0x0 DUP3 ADD MSTORE PUSH32 0x776E6572206E6F7220617070726F766564000000000000000000000000000000 PUSH1 0x20 DUP3 ADD MSTORE POP JUMP JUMPDEST PUSH32 0x4552433732313A205469636B657420616C726561647920657869737473000000 PUSH1 0x0 DUP3 ADD MSTORE POP JUMP JUMPDEST PUSH32 0x5265656E7472616E637947756172643A207265656E7472616E742063616C6C00 PUSH1 0x0 DUP3 ADD MSTORE POP JUMP JUMPDEST PUSH32 0x526563697069656E742073686F756C642062652070726573656E740000000000 PUSH1 0x0 DUP3 ADD MSTORE POP JUMP JUMPDEST PUSH32 0x4552433732313A2046726F6D2061646472657373206973206E6F742074686520 PUSH1 0x0 DUP3 ADD MSTORE PUSH32 0x6F776E6572206F6620746865207469636B657400000000000000000000000000 PUSH1 0x20 DUP3 ADD MSTORE POP JUMP JUMPDEST PUSH2 0x5268 DUP2 PUSH2 0x485B JUMP JUMPDEST DUP2 EQ PUSH2 0x5273 JUMPI PUSH1 0x0 DUP1 REVERT JUMPDEST POP JUMP JUMPDEST PUSH2 0x527F DUP2 PUSH2 0x487F JUMP JUMPDEST DUP2 EQ PUSH2 0x528A JUMPI PUSH1 0x0 DUP1 REVERT JUMPDEST POP JUMP JUMPDEST PUSH2 0x5296 DUP2 PUSH2 0x488B JUMP JUMPDEST DUP2 EQ PUSH2 0x52A1 JUMPI PUSH1 0x0 DUP1 REVERT JUMPDEST POP JUMP JUMPDEST PUSH2 0x52AD DUP2 PUSH2 0x48D7 JUMP JUMPDEST DUP2 EQ PUSH2 0x52B8 JUMPI PUSH1 0x0 DUP1 REVERT JUMPDEST POP JUMP INVALID LOG2 PUSH5 0x6970667358 0x22 SLT KECCAK256 DUP12 0xDF 0x5C DUP5 PUSH22 0x702B6571B3C118FFBEB1100A1E2FBAEE2560D7C23EF 0xFC 0x2C 0x4C PUSH3 0x4D6473 PUSH16 0x6C634300080400330000000000000000 "},"methodIdentifiers":{"approve(address,uint256)":"095ea7b3","balanceOf(address)":"70a08231","cuentaMaestra()":"3366a2bc","entradas(uint256)":"1d4ab540","entradasEventos(uint256)":"58ab31f3","getApproved(uint256)":"081812fc","getEvent(uint256)":"6d1884e0","getOwner(uint256)":"c41a360a","getRaribleV2Royalties(uint256)":"cad96cca","isApprovedForAll(address,address)":"e985e9c5","mint(address,string,string,(uint256,string,string,string))":"acdda9ad","name()":"06fdde03","owner()":"8da5cb5b","ownerOf(uint256)":"6352211e","porcentajeReventa()":"79391281","renounceOwnership()":"715018a6","royalties(uint256,uint256)":"8924af74","royaltyInfo(uint256,uint256)":"2a55205a","safeTransferFrom(address,address,uint256)":"42842e0e","safeTransferFrom(address,address,uint256,bytes)":"b88d4fde","setApprovalForAll(address,bool)":"a22cb465","supportsInterface(bytes4)":"01ffc9a7","symbol()":"95d89b41","ticketSold(uint256)":"82a6c5d2","ticketUsed(uint256)":"642b5f9b","tokenCount()":"9f181b5e","tokenURI(uint256)":"c87b56dd","transferFrom(address,address,uint256)":"23b872dd","transferOwnership(address)":"f2fde38b","useTicket(uint256,uint256)":"d7e2e678"}}}}}