{
  "_format": "hh-sol-artifact-1",
  "contractName": "NFT",
  "sourceName": "src/backend/contracts/NFT.sol",
  "abi": [
    {
      "inputs": [
        {
          "internalType": "uint256",
          "name": "_porcentajeReventa",
          "type": "uint256"
        }
      ],
      "stateMutability": "nonpayable",
      "type": "constructor"
    },
    {
      "anonymous": false,
      "inputs": [
        {
          "indexed": true,
          "internalType": "address",
          "name": "owner",
          "type": "address"
        },
        {
          "indexed": true,
          "internalType": "address",
          "name": "approved",
          "type": "address"
        },
        {
          "indexed": true,
          "internalType": "uint256",
          "name": "tokenId",
          "type": "uint256"
        }
      ],
      "name": "Approval",
      "type": "event"
    },
    {
      "anonymous": false,
      "inputs": [
        {
          "indexed": true,
          "internalType": "address",
          "name": "owner",
          "type": "address"
        },
        {
          "indexed": true,
          "internalType": "address",
          "name": "operator",
          "type": "address"
        },
        {
          "indexed": false,
          "internalType": "bool",
          "name": "approved",
          "type": "bool"
        }
      ],
      "name": "ApprovalForAll",
      "type": "event"
    },
    {
      "anonymous": false,
      "inputs": [
        {
          "indexed": false,
          "internalType": "uint256",
          "name": "idEntrada",
          "type": "uint256"
        },
        {
          "indexed": false,
          "internalType": "uint256",
          "name": "precio",
          "type": "uint256"
        },
        {
          "indexed": true,
          "internalType": "address",
          "name": "vendedor",
          "type": "address"
        },
        {
          "indexed": true,
          "internalType": "address",
          "name": "comprador",
          "type": "address"
        }
      ],
      "name": "Bought",
      "type": "event"
    },
    {
      "anonymous": false,
      "inputs": [
        {
          "indexed": false,
          "internalType": "uint256",
          "name": "idEntrada",
          "type": "uint256"
        },
        {
          "indexed": false,
          "internalType": "uint256",
          "name": "precio",
          "type": "uint256"
        },
        {
          "indexed": true,
          "internalType": "address",
          "name": "vendedor",
          "type": "address"
        }
      ],
      "name": "Offered",
      "type": "event"
    },
    {
      "anonymous": false,
      "inputs": [
        {
          "indexed": true,
          "internalType": "address",
          "name": "previousOwner",
          "type": "address"
        },
        {
          "indexed": true,
          "internalType": "address",
          "name": "newOwner",
          "type": "address"
        }
      ],
      "name": "OwnershipTransferred",
      "type": "event"
    },
    {
      "anonymous": false,
      "inputs": [
        {
          "indexed": true,
          "internalType": "address",
          "name": "from",
          "type": "address"
        },
        {
          "indexed": true,
          "internalType": "address",
          "name": "to",
          "type": "address"
        },
        {
          "indexed": true,
          "internalType": "uint256",
          "name": "tokenId",
          "type": "uint256"
        }
      ],
      "name": "Transfer",
      "type": "event"
    },
    {
      "inputs": [
        {
          "internalType": "address",
          "name": "to",
          "type": "address"
        },
        {
          "internalType": "uint256",
          "name": "tokenId",
          "type": "uint256"
        }
      ],
      "name": "approve",
      "outputs": [],
      "stateMutability": "nonpayable",
      "type": "function"
    },
    {
      "inputs": [
        {
          "internalType": "address",
          "name": "owner",
          "type": "address"
        }
      ],
      "name": "balanceOf",
      "outputs": [
        {
          "internalType": "uint256",
          "name": "",
          "type": "uint256"
        }
      ],
      "stateMutability": "view",
      "type": "function"
    },
    {
      "inputs": [],
      "name": "cuentaMaestra",
      "outputs": [
        {
          "internalType": "address payable",
          "name": "",
          "type": "address"
        }
      ],
      "stateMutability": "view",
      "type": "function"
    },
    {
      "inputs": [
        {
          "internalType": "uint256",
          "name": "",
          "type": "uint256"
        }
      ],
      "name": "entradas",
      "outputs": [
        {
          "internalType": "uint256",
          "name": "idEntrada",
          "type": "uint256"
        },
        {
          "internalType": "string",
          "name": "descripcion",
          "type": "string"
        },
        {
          "internalType": "uint256",
          "name": "precio",
          "type": "uint256"
        }
      ],
      "stateMutability": "view",
      "type": "function"
    },
    {
      "inputs": [
        {
          "internalType": "uint256",
          "name": "",
          "type": "uint256"
        }
      ],
      "name": "entradasEventos",
      "outputs": [
        {
          "internalType": "uint256",
          "name": "idEvento",
          "type": "uint256"
        },
        {
          "internalType": "string",
          "name": "fecha",
          "type": "string"
        },
        {
          "internalType": "string",
          "name": "nombre",
          "type": "string"
        },
        {
          "internalType": "string",
          "name": "descripcion",
          "type": "string"
        }
      ],
      "stateMutability": "view",
      "type": "function"
    },
    {
      "inputs": [
        {
          "internalType": "uint256",
          "name": "tokenId",
          "type": "uint256"
        }
      ],
      "name": "getApproved",
      "outputs": [
        {
          "internalType": "address",
          "name": "",
          "type": "address"
        }
      ],
      "stateMutability": "view",
      "type": "function"
    },
    {
      "inputs": [
        {
          "internalType": "uint256",
          "name": "_tokenId",
          "type": "uint256"
        }
      ],
      "name": "getEvent",
      "outputs": [
        {
          "components": [
            {
              "internalType": "uint256",
              "name": "idEvento",
              "type": "uint256"
            },
            {
              "internalType": "string",
              "name": "fecha",
              "type": "string"
            },
            {
              "internalType": "string",
              "name": "nombre",
              "type": "string"
            },
            {
              "internalType": "string",
              "name": "descripcion",
              "type": "string"
            }
          ],
          "internalType": "struct NFT.Evento",
          "name": "",
          "type": "tuple"
        }
      ],
      "stateMutability": "view",
      "type": "function"
    },
    {
      "inputs": [
        {
          "internalType": "uint256",
          "name": "_tokenId",
          "type": "uint256"
        }
      ],
      "name": "getOwner",
      "outputs": [
        {
          "internalType": "address",
          "name": "",
          "type": "address"
        }
      ],
      "stateMutability": "view",
      "type": "function"
    },
    {
      "inputs": [
        {
          "internalType": "uint256",
          "name": "_tokenId",
          "type": "uint256"
        }
      ],
      "name": "getTotalPrice",
      "outputs": [
        {
          "internalType": "uint256",
          "name": "",
          "type": "uint256"
        }
      ],
      "stateMutability": "view",
      "type": "function"
    },
    {
      "inputs": [
        {
          "internalType": "address",
          "name": "owner",
          "type": "address"
        },
        {
          "internalType": "address",
          "name": "operator",
          "type": "address"
        }
      ],
      "name": "isApprovedForAll",
      "outputs": [
        {
          "internalType": "bool",
          "name": "",
          "type": "bool"
        }
      ],
      "stateMutability": "view",
      "type": "function"
    },
    {
      "inputs": [
        {
          "internalType": "string",
          "name": "_tokenURI",
          "type": "string"
        },
        {
          "internalType": "string",
          "name": "_descripcion",
          "type": "string"
        },
        {
          "internalType": "uint256",
          "name": "_precio",
          "type": "uint256"
        },
        {
          "components": [
            {
              "internalType": "uint256",
              "name": "idEvento",
              "type": "uint256"
            },
            {
              "internalType": "string",
              "name": "fecha",
              "type": "string"
            },
            {
              "internalType": "string",
              "name": "nombre",
              "type": "string"
            },
            {
              "internalType": "string",
              "name": "descripcion",
              "type": "string"
            }
          ],
          "internalType": "struct NFT.Evento",
          "name": "_evento",
          "type": "tuple"
        }
      ],
      "name": "mint",
      "outputs": [
        {
          "internalType": "uint256",
          "name": "",
          "type": "uint256"
        }
      ],
      "stateMutability": "nonpayable",
      "type": "function"
    },
    {
      "inputs": [],
      "name": "name",
      "outputs": [
        {
          "internalType": "string",
          "name": "",
          "type": "string"
        }
      ],
      "stateMutability": "view",
      "type": "function"
    },
    {
      "inputs": [],
      "name": "owner",
      "outputs": [
        {
          "internalType": "address",
          "name": "",
          "type": "address"
        }
      ],
      "stateMutability": "view",
      "type": "function"
    },
    {
      "inputs": [
        {
          "internalType": "uint256",
          "name": "tokenId",
          "type": "uint256"
        }
      ],
      "name": "ownerOf",
      "outputs": [
        {
          "internalType": "address",
          "name": "",
          "type": "address"
        }
      ],
      "stateMutability": "view",
      "type": "function"
    },
    {
      "inputs": [],
      "name": "porcentajeReventa",
      "outputs": [
        {
          "internalType": "uint256",
          "name": "",
          "type": "uint256"
        }
      ],
      "stateMutability": "view",
      "type": "function"
    },
    {
      "inputs": [],
      "name": "renounceOwnership",
      "outputs": [],
      "stateMutability": "nonpayable",
      "type": "function"
    },
    {
      "inputs": [
        {
          "internalType": "address",
          "name": "from",
          "type": "address"
        },
        {
          "internalType": "address",
          "name": "to",
          "type": "address"
        },
        {
          "internalType": "uint256",
          "name": "tokenId",
          "type": "uint256"
        }
      ],
      "name": "safeTransferFrom",
      "outputs": [],
      "stateMutability": "nonpayable",
      "type": "function"
    },
    {
      "inputs": [
        {
          "internalType": "address",
          "name": "from",
          "type": "address"
        },
        {
          "internalType": "address",
          "name": "to",
          "type": "address"
        },
        {
          "internalType": "uint256",
          "name": "tokenId",
          "type": "uint256"
        },
        {
          "internalType": "bytes",
          "name": "_data",
          "type": "bytes"
        }
      ],
      "name": "safeTransferFrom",
      "outputs": [],
      "stateMutability": "nonpayable",
      "type": "function"
    },
    {
      "inputs": [
        {
          "internalType": "uint256",
          "name": "_tokenId",
          "type": "uint256"
        }
      ],
      "name": "sellTicket",
      "outputs": [],
      "stateMutability": "payable",
      "type": "function"
    },
    {
      "inputs": [
        {
          "internalType": "address",
          "name": "operator",
          "type": "address"
        },
        {
          "internalType": "bool",
          "name": "approved",
          "type": "bool"
        }
      ],
      "name": "setApprovalForAll",
      "outputs": [],
      "stateMutability": "nonpayable",
      "type": "function"
    },
    {
      "inputs": [
        {
          "internalType": "uint256",
          "name": "_tokenId",
          "type": "uint256"
        },
        {
          "internalType": "uint256",
          "name": "_newPrice",
          "type": "uint256"
        }
      ],
      "name": "setPrice",
      "outputs": [],
      "stateMutability": "nonpayable",
      "type": "function"
    },
    {
      "inputs": [
        {
          "internalType": "bytes4",
          "name": "interfaceId",
          "type": "bytes4"
        }
      ],
      "name": "supportsInterface",
      "outputs": [
        {
          "internalType": "bool",
          "name": "",
          "type": "bool"
        }
      ],
      "stateMutability": "view",
      "type": "function"
    },
    {
      "inputs": [],
      "name": "symbol",
      "outputs": [
        {
          "internalType": "string",
          "name": "",
          "type": "string"
        }
      ],
      "stateMutability": "view",
      "type": "function"
    },
    {
      "inputs": [
        {
          "internalType": "uint256",
          "name": "_tokenId",
          "type": "uint256"
        }
      ],
      "name": "ticketSold",
      "outputs": [
        {
          "internalType": "bool",
          "name": "",
          "type": "bool"
        }
      ],
      "stateMutability": "view",
      "type": "function"
    },
    {
      "inputs": [
        {
          "internalType": "uint256",
          "name": "_tokenId",
          "type": "uint256"
        }
      ],
      "name": "ticketUsed",
      "outputs": [
        {
          "internalType": "bool",
          "name": "",
          "type": "bool"
        }
      ],
      "stateMutability": "view",
      "type": "function"
    },
    {
      "inputs": [],
      "name": "tokenCount",
      "outputs": [
        {
          "internalType": "uint256",
          "name": "",
          "type": "uint256"
        }
      ],
      "stateMutability": "view",
      "type": "function"
    },
    {
      "inputs": [
        {
          "internalType": "uint256",
          "name": "tokenId",
          "type": "uint256"
        }
      ],
      "name": "tokenURI",
      "outputs": [
        {
          "internalType": "string",
          "name": "",
          "type": "string"
        }
      ],
      "stateMutability": "view",
      "type": "function"
    },
    {
      "inputs": [
        {
          "internalType": "address",
          "name": "_from",
          "type": "address"
        },
        {
          "internalType": "address",
          "name": "_to",
          "type": "address"
        },
        {
          "internalType": "uint256",
          "name": "_tokenId",
          "type": "uint256"
        }
      ],
      "name": "transferFrom",
      "outputs": [],
      "stateMutability": "nonpayable",
      "type": "function"
    },
    {
      "inputs": [
        {
          "internalType": "address",
          "name": "newOwner",
          "type": "address"
        }
      ],
      "name": "transferOwnership",
      "outputs": [],
      "stateMutability": "nonpayable",
      "type": "function"
    },
    {
      "inputs": [
        {
          "internalType": "uint256",
          "name": "_tokenId",
          "type": "uint256"
        },
        {
          "internalType": "uint256",
          "name": "_idEvento",
          "type": "uint256"
        }
      ],
      "name": "useTicket",
      "outputs": [
        {
          "internalType": "bool",
          "name": "",
          "type": "bool"
        }
      ],
      "stateMutability": "nonpayable",
      "type": "function"
    }
  ],
  "bytecode": "0x608060405260006009553480156200001657600080fd5b506040516200545c3803806200545c83398181016040528101906200003c9190620002e8565b6040518060400160405280600881526020017f4e465469636b65740000000000000000000000000000000000000000000000008152506040518060400160405280600681526020017f5449434b455400000000000000000000000000000000000000000000000000008152508160009080519060200190620000c092919062000221565b508060019080519060200190620000d992919062000221565b505050620000fc620000f06200015360201b60201c565b6200015b60201b60201c565b600160088190555080600a8190555033600b60006101000a81548173ffffffffffffffffffffffffffffffffffffffff021916908373ffffffffffffffffffffffffffffffffffffffff160217905550506200039d565b600033905090565b6000600760009054906101000a900473ffffffffffffffffffffffffffffffffffffffff16905081600760006101000a81548173ffffffffffffffffffffffffffffffffffffffff021916908373ffffffffffffffffffffffffffffffffffffffff1602179055508173ffffffffffffffffffffffffffffffffffffffff168173ffffffffffffffffffffffffffffffffffffffff167f8be0079c531659141344cd1fd0a4f28419497f9722a3daafe3b4186f6b6457e060405160405180910390a35050565b8280546200022f906200031e565b90600052602060002090601f0160209004810192826200025357600085556200029f565b82601f106200026e57805160ff19168380011785556200029f565b828001600101855582156200029f579182015b828111156200029e57825182559160200191906001019062000281565b5b509050620002ae9190620002b2565b5090565b5b80821115620002cd576000816000905550600101620002b3565b5090565b600081519050620002e28162000383565b92915050565b600060208284031215620002fb57600080fd5b60006200030b84828501620002d1565b91505092915050565b6000819050919050565b600060028204905060018216806200033757607f821691505b602082108114156200034e576200034d62000354565b5b50919050565b7f4e487b7100000000000000000000000000000000000000000000000000000000600052602260045260246000fd5b6200038e8162000314565b81146200039a57600080fd5b50565b6150af80620003ad6000396000f3fe6080604052600436106101cd5760003560e01c806379391281116100f7578063c41a360a11610095578063e985e9c511610064578063e985e9c514610713578063f192866a14610750578063f2fde38b1461076c578063f7d9757714610795576101cd565b8063c41a360a1461061f578063c87b56dd1461065c578063ca7dd37514610699578063d7e2e678146106d6576101cd565b806395d89b41116100d157806395d89b41146105775780639f181b5e146105a2578063a22cb465146105cd578063b88d4fde146105f6576101cd565b806379391281146104e457806382a6c5d21461050f5780638da5cb5b1461054c576101cd565b806342842e0e1161016f578063642b5f9b1161013e578063642b5f9b146104165780636d1884e01461045357806370a0823114610490578063715018a6146104cd576101cd565b806342842e0e1461033357806357e2eb871461035c57806358ab31f3146103995780636352211e146103d9576101cd565b8063095ea7b3116101ab578063095ea7b3146102775780631d4ab540146102a057806323b872dd146102df5780633366a2bc14610308576101cd565b806301ffc9a7146101d257806306fdde031461020f578063081812fc1461023a575b600080fd5b3480156101de57600080fd5b506101f960048036038101906101f491906136d4565b6107be565b6040516102069190613eb1565b60405180910390f35b34801561021b57600080fd5b506102246108a0565b6040516102319190613ecc565b60405180910390f35b34801561024657600080fd5b50610261600480360381019061025c91906137d1565b610932565b60405161026e9190613e2f565b60405180910390f35b34801561028357600080fd5b5061029e60048036038101906102999190613698565b6109b7565b005b3480156102ac57600080fd5b506102c760048036038101906102c291906137d1565b610acf565b6040516102d693929190614365565b60405180910390f35b3480156102eb57600080fd5b5061030660048036038101906103019190613592565b610b81565b005b34801561031457600080fd5b5061031d610e2d565b60405161032a9190613e4a565b60405180910390f35b34801561033f57600080fd5b5061035a60048036038101906103559190613592565b610e53565b005b34801561036857600080fd5b50610383600480360381019061037e9190613726565b610e73565b60405161039091906142f0565b60405180910390f35b3480156103a557600080fd5b506103c060048036038101906103bb91906137d1565b6111fb565b6040516103d0949392919061430b565b60405180910390f35b3480156103e557600080fd5b5061040060048036038101906103fb91906137d1565b6113c3565b60405161040d9190613e2f565b60405180910390f35b34801561042257600080fd5b5061043d600480360381019061043891906137d1565b611475565b60405161044a9190613eb1565b60405180910390f35b34801561045f57600080fd5b5061047a600480360381019061047591906137d1565b61149f565b60405161048791906142ce565b60405180910390f35b34801561049c57600080fd5b506104b760048036038101906104b2919061352d565b61168c565b6040516104c491906142f0565b60405180910390f35b3480156104d957600080fd5b506104e2611744565b005b3480156104f057600080fd5b506104f96117cc565b60405161050691906142f0565b60405180910390f35b34801561051b57600080fd5b50610536600480360381019061053191906137d1565b6117d2565b6040516105439190613eb1565b60405180910390f35b34801561055857600080fd5b506105616117fc565b60405161056e9190613e2f565b60405180910390f35b34801561058357600080fd5b5061058c611826565b6040516105999190613ecc565b60405180910390f35b3480156105ae57600080fd5b506105b76118b8565b6040516105c491906142f0565b60405180910390f35b3480156105d957600080fd5b506105f460048036038101906105ef919061365c565b6118be565b005b34801561060257600080fd5b5061061d600480360381019061061891906135e1565b6118d4565b005b34801561062b57600080fd5b50610646600480360381019061064191906137d1565b611936565b6040516106539190613e2f565b60405180910390f35b34801561066857600080fd5b50610683600480360381019061067e91906137d1565b611948565b6040516106909190613ecc565b60405180910390f35b3480156106a557600080fd5b506106c060048036038101906106bb91906137d1565b611a9a565b6040516106cd91906142f0565b60405180910390f35b3480156106e257600080fd5b506106fd60048036038101906106f891906137fa565b611adf565b60405161070a9190613eb1565b60405180910390f35b34801561071f57600080fd5b5061073a60048036038101906107359190613556565b611c6c565b6040516107479190613eb1565b60405180910390f35b61076a600480360381019061076591906137d1565b611d00565b005b34801561077857600080fd5b50610793600480360381019061078e919061352d565b6120fe565b005b3480156107a157600080fd5b506107bc60048036038101906107b791906137fa565b6121f6565b005b60007f80ac58cd000000000000000000000000000000000000000000000000000000007bffffffffffffffffffffffffffffffffffffffffffffffffffffffff1916827bffffffffffffffffffffffffffffffffffffffffffffffffffffffff1916148061088957507f5b5e139f000000000000000000000000000000000000000000000000000000007bffffffffffffffffffffffffffffffffffffffffffffffffffffffff1916827bffffffffffffffffffffffffffffffffffffffffffffffffffffffff1916145b806108995750610898826122d3565b5b9050919050565b6060600080546108af90614684565b80601f01602080910402602001604051908101604052809291908181526020018280546108db90614684565b80156109285780601f106108fd57610100808354040283529160200191610928565b820191906000526020600020905b81548152906001019060200180831161090b57829003601f168201915b5050505050905090565b600061093d8261233d565b61097c576040517f08c379a00000000000000000000000000000000000000000000000000000000081526004016109739061414e565b60405180910390fd5b6004600083815260200190815260200160002060009054906101000a900473ffffffffffffffffffffffffffffffffffffffff169050919050565b60006109c2826113c3565b90508073ffffffffffffffffffffffffffffffffffffffff168373ffffffffffffffffffffffffffffffffffffffff161415610a33576040517f08c379a0000000000000000000000000000000000000000000000000000000008152600401610a2a906141ee565b60405180910390fd5b8073ffffffffffffffffffffffffffffffffffffffff16610a526123a9565b73ffffffffffffffffffffffffffffffffffffffff161480610a815750610a8081610a7b6123a9565b611c6c565b5b610ac0576040517f08c379a0000000000000000000000000000000000000000000000000000000008152600401610ab79061406e565b60405180910390fd5b610aca83836123b1565b505050565b600c602052806000526040600020600091509050806000015490806001018054610af890614684565b80601f0160208091040260200160405190810160405280929190818152602001828054610b2490614684565b8015610b715780601f10610b4657610100808354040283529160200191610b71565b820191906000526020600020905b815481529060010190602001808311610b5457829003601f168201915b5050505050908060020154905083565b610b8a8161233d565b610bc9576040517f08c379a0000000000000000000000000000000000000000000000000000000008152600401610bc09061400e565b60405180910390fd5b8173ffffffffffffffffffffffffffffffffffffffff16610be982611936565b73ffffffffffffffffffffffffffffffffffffffff161415610c40576040517f08c379a0000000000000000000000000000000000000000000000000000000008152600401610c37906140ee565b60405180910390fd5b8273ffffffffffffffffffffffffffffffffffffffff16610c6082611936565b73ffffffffffffffffffffffffffffffffffffffff1614610cb6576040517f08c379a0000000000000000000000000000000000000000000000000000000008152600401610cad906142ae565b60405180910390fd5b600073ffffffffffffffffffffffffffffffffffffffff168373ffffffffffffffffffffffffffffffffffffffff161415610d26576040517f08c379a0000000000000000000000000000000000000000000000000000000008152600401610d1d9061420e565b60405180910390fd5b600073ffffffffffffffffffffffffffffffffffffffff168273ffffffffffffffffffffffffffffffffffffffff161415610d96576040517f08c379a0000000000000000000000000000000000000000000000000000000008152600401610d8d9061404e565b60405180910390fd5b610da183838361246a565b6001600e600083815260200190815260200160002060006101000a81548160ff02191690831515021790555081600f600083815260200190815260200160002060006101000a81548173ffffffffffffffffffffffffffffffffffffffff021916908373ffffffffffffffffffffffffffffffffffffffff160217905550610e28836126d1565b505050565b600b60009054906101000a900473ffffffffffffffffffffffffffffffffffffffff1681565b610e6e838383604051806020016040528060008152506118d4565b505050565b600060026008541415610ebb576040517f08c379a0000000000000000000000000000000000000000000000000000000008152600401610eb29061426e565b60405180910390fd5b6002600881905550610ecb6123a9565b73ffffffffffffffffffffffffffffffffffffffff16610ee96117fc565b73ffffffffffffffffffffffffffffffffffffffff1614610f3f576040517f08c379a0000000000000000000000000000000000000000000000000000000008152600401610f369061416e565b60405180910390fd5b60096000815480929190610f52906146e7565b9190505550610f6260095461233d565b15610fa2576040517f08c379a0000000000000000000000000000000000000000000000000000000008152600401610f999061424e565b60405180910390fd5b610fae336009546127e9565b610fba60095486612807565b610fc261324c565b6009548160000181815250508481602001819052508381604001818152505080600c6000600954815260200190815260200160002060008201518160000155602082015181600101908051906020019061101d92919061326d565b50604082015181600201559050506110336132f3565b836000015181600001818152505083602001518160200181905250836040015181604001819052508360600151816060018190525080600d600060095481526020019081526020016000206000820151816000015560208201518160010190805190602001906110a492919061326d565b5060408201518160020190805190602001906110c192919061326d565b5060608201518160030190805190602001906110de92919061326d565b509050506000600e6000600954815260200190815260200160002060006101000a81548160ff021916908315150217905550600060106000600954815260200190815260200160002060006101000a81548160ff02191690831515021790555033600f6000600954815260200190815260200160002060006101000a81548173ffffffffffffffffffffffffffffffffffffffff021916908373ffffffffffffffffffffffffffffffffffffffff1602179055503373ffffffffffffffffffffffffffffffffffffffff167f1ab3864560512bcd762f59576711bc5e90d3ef93e9253b43cd6be191b4a5814e600954876040516111dc9291906143a3565b60405180910390a2600954925050506001600881905550949350505050565b600d60205280600052604060002060009150905080600001549080600101805461122490614684565b80601f016020809104026020016040519081016040528092919081815260200182805461125090614684565b801561129d5780601f106112725761010080835404028352916020019161129d565b820191906000526020600020905b81548152906001019060200180831161128057829003601f168201915b5050505050908060020180546112b290614684565b80601f01602080910402602001604051908101604052809291908181526020018280546112de90614684565b801561132b5780601f106113005761010080835404028352916020019161132b565b820191906000526020600020905b81548152906001019060200180831161130e57829003601f168201915b50505050509080600301805461134090614684565b80601f016020809104026020016040519081016040528092919081815260200182805461136c90614684565b80156113b95780601f1061138e576101008083540402835291602001916113b9565b820191906000526020600020905b81548152906001019060200180831161139c57829003601f168201915b5050505050905084565b6000806002600084815260200190815260200160002060009054906101000a900473ffffffffffffffffffffffffffffffffffffffff169050600073ffffffffffffffffffffffffffffffffffffffff168173ffffffffffffffffffffffffffffffffffffffff16141561146c576040517f08c379a0000000000000000000000000000000000000000000000000000000008152600401611463906140ae565b60405180910390fd5b80915050919050565b60006010600083815260200190815260200160002060009054906101000a900460ff169050919050565b6114a76132f3565b600d6000838152602001908152602001600020604051806080016040529081600082015481526020016001820180546114df90614684565b80601f016020809104026020016040519081016040528092919081815260200182805461150b90614684565b80156115585780601f1061152d57610100808354040283529160200191611558565b820191906000526020600020905b81548152906001019060200180831161153b57829003601f168201915b5050505050815260200160028201805461157190614684565b80601f016020809104026020016040519081016040528092919081815260200182805461159d90614684565b80156115ea5780601f106115bf576101008083540402835291602001916115ea565b820191906000526020600020905b8154815290600101906020018083116115cd57829003601f168201915b5050505050815260200160038201805461160390614684565b80601f016020809104026020016040519081016040528092919081815260200182805461162f90614684565b801561167c5780601f106116515761010080835404028352916020019161167c565b820191906000526020600020905b81548152906001019060200180831161165f57829003601f168201915b5050505050815250509050919050565b60008073ffffffffffffffffffffffffffffffffffffffff168273ffffffffffffffffffffffffffffffffffffffff1614156116fd576040517f08c379a00000000000000000000000000000000000000000000000000000000081526004016116f49061408e565b60405180910390fd5b600360008373ffffffffffffffffffffffffffffffffffffffff1673ffffffffffffffffffffffffffffffffffffffff168152602001908152602001600020549050919050565b61174c6123a9565b73ffffffffffffffffffffffffffffffffffffffff1661176a6117fc565b73ffffffffffffffffffffffffffffffffffffffff16146117c0576040517f08c379a00000000000000000000000000000000000000000000000000000000081526004016117b79061416e565b60405180910390fd5b6117ca600061287b565b565b600a5481565b6000600e600083815260200190815260200160002060009054906101000a900460ff169050919050565b6000600760009054906101000a900473ffffffffffffffffffffffffffffffffffffffff16905090565b60606001805461183590614684565b80601f016020809104026020016040519081016040528092919081815260200182805461186190614684565b80156118ae5780601f10611883576101008083540402835291602001916118ae565b820191906000526020600020905b81548152906001019060200180831161189157829003601f168201915b5050505050905090565b60095481565b6118d06118c96123a9565b8383612941565b5050565b6118e56118df6123a9565b83612aae565b611924576040517f08c379a000000000000000000000000000000000000000000000000000000000815260040161191b9061422e565b60405180910390fd5b61193084848484612b8c565b50505050565b6000611941826113c3565b9050919050565b60606119538261233d565b611992576040517f08c379a00000000000000000000000000000000000000000000000000000000081526004016119899061412e565b60405180910390fd5b60006006600084815260200190815260200160002080546119b290614684565b80601f01602080910402602001604051908101604052809291908181526020018280546119de90614684565b8015611a2b5780601f10611a0057610100808354040283529160200191611a2b565b820191906000526020600020905b815481529060010190602001808311611a0e57829003601f168201915b505050505090506000611a3c612be8565b9050600081511415611a52578192505050611a95565b600082511115611a87578082604051602001611a6f929190613e0b565b60405160208183030381529060405292505050611a95565b611a9084612bff565b925050505b919050565b60006064600a546064611aad91906144a7565b600c600085815260200190815260200160002060020154611ace919061452e565b611ad891906144fd565b9050919050565b6000611aea8361233d565b611b29576040517f08c379a0000000000000000000000000000000000000000000000000000000008152600401611b209061400e565b60405180910390fd5b611b3283611475565b15611b72576040517f08c379a0000000000000000000000000000000000000000000000000000000008152600401611b6990613eee565b60405180910390fd5b81611b7c8461149f565b6000015114611bc0576040517f08c379a0000000000000000000000000000000000000000000000000000000008152600401611bb790613fee565b60405180910390fd5b3373ffffffffffffffffffffffffffffffffffffffff16611be084611936565b73ffffffffffffffffffffffffffffffffffffffff1614611c36576040517f08c379a0000000000000000000000000000000000000000000000000000000008152600401611c2d9061418e565b60405180910390fd5b60016010600085815260200190815260200160002060006101000a81548160ff0219169083151502179055506001905092915050565b6000600560008473ffffffffffffffffffffffffffffffffffffffff1673ffffffffffffffffffffffffffffffffffffffff16815260200190815260200160002060008373ffffffffffffffffffffffffffffffffffffffff1673ffffffffffffffffffffffffffffffffffffffff16815260200190815260200160002060009054906101000a900460ff16905092915050565b60026008541415611d46576040517f08c379a0000000000000000000000000000000000000000000000000000000008152600401611d3d9061426e565b60405180910390fd5b6002600881905550611d578161233d565b611d96576040517f08c379a0000000000000000000000000000000000000000000000000000000008152600401611d8d9061400e565b60405180910390fd5b611d9f81611a9a565b341015611de1576040517f08c379a0000000000000000000000000000000000000000000000000000000008152600401611dd89061402e565b60405180910390fd5b600e600082815260200190815260200160002060009054906101000a900460ff1615611e42576040517f08c379a0000000000000000000000000000000000000000000000000000000008152600401611e399061428e565b60405180910390fd5b3373ffffffffffffffffffffffffffffffffffffffff16611e6282611936565b73ffffffffffffffffffffffffffffffffffffffff161415611eb9576040517f08c379a0000000000000000000000000000000000000000000000000000000008152600401611eb0906141ce565b60405180910390fd5b6000611ec4826113c3565b905060003390506000600c600085815260200190815260200160002060020154905060006064600a5483611ef8919061452e565b611f0291906144fd565b9050611f0f84848761246a565b6001600e600087815260200190815260200160002060006101000a81548160ff02191690831515021790555082600f600087815260200190815260200160002060006101000a81548173ffffffffffffffffffffffffffffffffffffffff021916908373ffffffffffffffffffffffffffffffffffffffff1602179055508373ffffffffffffffffffffffffffffffffffffffff166108fc8284611fb39190614588565b9081150290604051600060405180830381858888f19350505050158015611fde573d6000803e3d6000fd5b50611fe76117fc565b73ffffffffffffffffffffffffffffffffffffffff166108fc829081150290604051600060405180830381858888f1935050505015801561202c573d6000803e3d6000fd5b5081341115612088573373ffffffffffffffffffffffffffffffffffffffff166108fc833461205b9190614588565b9081150290604051600060405180830381858888f19350505050158015612086573d6000803e3d6000fd5b505b8273ffffffffffffffffffffffffffffffffffffffff168473ffffffffffffffffffffffffffffffffffffffff167f4ebd6ef39c1235e69ba7dedf24ad43bdeb57deb289d98473668070d6ca9b685e87856040516120e79291906143a3565b60405180910390a350505050600160088190555050565b6121066123a9565b73ffffffffffffffffffffffffffffffffffffffff166121246117fc565b73ffffffffffffffffffffffffffffffffffffffff161461217a576040517f08c379a00000000000000000000000000000000000000000000000000000000081526004016121719061416e565b60405180910390fd5b600073ffffffffffffffffffffffffffffffffffffffff168173ffffffffffffffffffffffffffffffffffffffff1614156121ea576040517f08c379a00000000000000000000000000000000000000000000000000000000081526004016121e190613f2e565b60405180910390fd5b6121f38161287b565b50565b6121ff8261233d565b61223e576040517f08c379a00000000000000000000000000000000000000000000000000000000081526004016122359061400e565b60405180910390fd5b3373ffffffffffffffffffffffffffffffffffffffff1661225e836113c3565b73ffffffffffffffffffffffffffffffffffffffff16146122b4576040517f08c379a00000000000000000000000000000000000000000000000000000000081526004016122ab9061418e565b60405180910390fd5b80600c6000848152602001908152602001600020600201819055505050565b60007f01ffc9a7000000000000000000000000000000000000000000000000000000007bffffffffffffffffffffffffffffffffffffffffffffffffffffffff1916827bffffffffffffffffffffffffffffffffffffffffffffffffffffffff1916149050919050565b60008073ffffffffffffffffffffffffffffffffffffffff166002600084815260200190815260200160002060009054906101000a900473ffffffffffffffffffffffffffffffffffffffff1673ffffffffffffffffffffffffffffffffffffffff1614159050919050565b600033905090565b816004600083815260200190815260200160002060006101000a81548173ffffffffffffffffffffffffffffffffffffffff021916908373ffffffffffffffffffffffffffffffffffffffff160217905550808273ffffffffffffffffffffffffffffffffffffffff16612424836113c3565b73ffffffffffffffffffffffffffffffffffffffff167f8c5be1e5ebec7d5bd14f71427d1e84f3dd0314c0f7b2291e5b200ac8c7c3b92560405160405180910390a45050565b8273ffffffffffffffffffffffffffffffffffffffff1661248a826113c3565b73ffffffffffffffffffffffffffffffffffffffff16146124e0576040517f08c379a00000000000000000000000000000000000000000000000000000000081526004016124d790613f4e565b60405180910390fd5b600073ffffffffffffffffffffffffffffffffffffffff168273ffffffffffffffffffffffffffffffffffffffff161415612550576040517f08c379a000000000000000000000000000000000000000000000000000000000815260040161254790613f8e565b60405180910390fd5b61255b838383612ca6565b6125666000826123b1565b6001600360008573ffffffffffffffffffffffffffffffffffffffff1673ffffffffffffffffffffffffffffffffffffffff16815260200190815260200160002060008282546125b69190614588565b925050819055506001600360008473ffffffffffffffffffffffffffffffffffffffff1673ffffffffffffffffffffffffffffffffffffffff168152602001908152602001600020600082825461260d91906144a7565b92505081905550816002600083815260200190815260200160002060006101000a81548173ffffffffffffffffffffffffffffffffffffffff021916908373ffffffffffffffffffffffffffffffffffffffff160217905550808273ffffffffffffffffffffffffffffffffffffffff168473ffffffffffffffffffffffffffffffffffffffff167fddf252ad1be2c89b69c2b068fc378daa952ba7f163c4a11628f55a4df523b3ef60405160405180910390a46126cc838383612cab565b505050565b60003411612714576040517f08c379a000000000000000000000000000000000000000000000000000000000815260040161270b9061402e565b60405180910390fd5b8073ffffffffffffffffffffffffffffffffffffffff166108fc6064600a5461273d91906144fd565b34612748919061452e565b346127539190614588565b9081150290604051600060405180830381858888f1935050505015801561277e573d6000803e3d6000fd5b506127876117fc565b73ffffffffffffffffffffffffffffffffffffffff166108fc6064600a546127af91906144fd565b346127ba919061452e565b9081150290604051600060405180830381858888f193505050501580156127e5573d6000803e3d6000fd5b5050565b612803828260405180602001604052806000815250612cb0565b5050565b6128108261233d565b61284f576040517f08c379a0000000000000000000000000000000000000000000000000000000008152600401612846906140ce565b60405180910390fd5b8060066000848152602001908152602001600020908051906020019061287692919061326d565b505050565b6000600760009054906101000a900473ffffffffffffffffffffffffffffffffffffffff16905081600760006101000a81548173ffffffffffffffffffffffffffffffffffffffff021916908373ffffffffffffffffffffffffffffffffffffffff1602179055508173ffffffffffffffffffffffffffffffffffffffff168173ffffffffffffffffffffffffffffffffffffffff167f8be0079c531659141344cd1fd0a4f28419497f9722a3daafe3b4186f6b6457e060405160405180910390a35050565b8173ffffffffffffffffffffffffffffffffffffffff168373ffffffffffffffffffffffffffffffffffffffff1614156129b0576040517f08c379a00000000000000000000000000000000000000000000000000000000081526004016129a790613fae565b60405180910390fd5b80600560008573ffffffffffffffffffffffffffffffffffffffff1673ffffffffffffffffffffffffffffffffffffffff16815260200190815260200160002060008473ffffffffffffffffffffffffffffffffffffffff1673ffffffffffffffffffffffffffffffffffffffff16815260200190815260200160002060006101000a81548160ff0219169083151502179055508173ffffffffffffffffffffffffffffffffffffffff168373ffffffffffffffffffffffffffffffffffffffff167f17307eab39ab6107e8899845ad3d59bd9653f200f220920489ca2b5937696c3183604051612aa19190613eb1565b60405180910390a3505050565b6000612ab98261233d565b612af8576040517f08c379a0000000000000000000000000000000000000000000000000000000008152600401612aef90613fce565b60405180910390fd5b6000612b03836113c3565b90508073ffffffffffffffffffffffffffffffffffffffff168473ffffffffffffffffffffffffffffffffffffffff161480612b7257508373ffffffffffffffffffffffffffffffffffffffff16612b5a84610932565b73ffffffffffffffffffffffffffffffffffffffff16145b80612b835750612b828185611c6c565b5b91505092915050565b612b9784848461246a565b612ba384848484612d0b565b612be2576040517f08c379a0000000000000000000000000000000000000000000000000000000008152600401612bd990613f0e565b60405180910390fd5b50505050565b606060405180602001604052806000815250905090565b6060612c0a8261233d565b612c49576040517f08c379a0000000000000000000000000000000000000000000000000000000008152600401612c40906141ae565b60405180910390fd5b6000612c53612be8565b90506000815111612c735760405180602001604052806000815250612c9e565b80612c7d84612ea2565b604051602001612c8e929190613e0b565b6040516020818303038152906040525b915050919050565b505050565b505050565b612cba838361304f565b612cc76000848484612d0b565b612d06576040517f08c379a0000000000000000000000000000000000000000000000000000000008152600401612cfd90613f0e565b60405180910390fd5b505050565b6000612d2c8473ffffffffffffffffffffffffffffffffffffffff16613229565b15612e95578373ffffffffffffffffffffffffffffffffffffffff1663150b7a02612d556123a9565b8786866040518563ffffffff1660e01b8152600401612d779493929190613e65565b602060405180830381600087803b158015612d9157600080fd5b505af1925050508015612dc257506040513d601f19601f82011682018060405250810190612dbf91906136fd565b60015b612e45573d8060008114612df2576040519150601f19603f3d011682016040523d82523d6000602084013e612df7565b606091505b50600081511415612e3d576040517f08c379a0000000000000000000000000000000000000000000000000000000008152600401612e3490613f0e565b60405180910390fd5b805181602001fd5b63150b7a0260e01b7bffffffffffffffffffffffffffffffffffffffffffffffffffffffff1916817bffffffffffffffffffffffffffffffffffffffffffffffffffffffff191614915050612e9a565b600190505b949350505050565b60606000821415612eea576040518060400160405280600181526020017f3000000000000000000000000000000000000000000000000000000000000000815250905061304a565b600082905060005b60008214612f1c578080612f05906146e7565b915050600a82612f1591906144fd565b9150612ef2565b60008167ffffffffffffffff811115612f5e577f4e487b7100000000000000000000000000000000000000000000000000000000600052604160045260246000fd5b6040519080825280601f01601f191660200182016040528015612f905781602001600182028036833780820191505090505b5090505b6000851461304357600182612fa99190614588565b9150600a85612fb89190614730565b6030612fc491906144a7565b60f81b818381518110613000577f4e487b7100000000000000000000000000000000000000000000000000000000600052603260045260246000fd5b60200101907effffffffffffffffffffffffffffffffffffffffffffffffffffffffffffff1916908160001a905350600a8561303c91906144fd565b9450612f94565b8093505050505b919050565b600073ffffffffffffffffffffffffffffffffffffffff168273ffffffffffffffffffffffffffffffffffffffff1614156130bf576040517f08c379a00000000000000000000000000000000000000000000000000000000081526004016130b69061410e565b60405180910390fd5b6130c88161233d565b15613108576040517f08c379a00000000000000000000000000000000000000000000000000000000081526004016130ff90613f6e565b60405180910390fd5b61311460008383612ca6565b6001600360008473ffffffffffffffffffffffffffffffffffffffff1673ffffffffffffffffffffffffffffffffffffffff168152602001908152602001600020600082825461316491906144a7565b92505081905550816002600083815260200190815260200160002060006101000a81548173ffffffffffffffffffffffffffffffffffffffff021916908373ffffffffffffffffffffffffffffffffffffffff160217905550808273ffffffffffffffffffffffffffffffffffffffff16600073ffffffffffffffffffffffffffffffffffffffff167fddf252ad1be2c89b69c2b068fc378daa952ba7f163c4a11628f55a4df523b3ef60405160405180910390a461322560008383612cab565b5050565b6000808273ffffffffffffffffffffffffffffffffffffffff163b119050919050565b60405180606001604052806000815260200160608152602001600081525090565b82805461327990614684565b90600052602060002090601f01602090048101928261329b57600085556132e2565b82601f106132b457805160ff19168380011785556132e2565b828001600101855582156132e2579182015b828111156132e15782518255916020019190600101906132c6565b5b5090506132ef919061331b565b5090565b6040518060800160405280600081526020016060815260200160608152602001606081525090565b5b8082111561333457600081600090555060010161331c565b5090565b600061334b613346846143f1565b6143cc565b90508281526020810184848401111561336357600080fd5b61336e848285614642565b509392505050565b600061338961338484614422565b6143cc565b9050828152602081018484840111156133a157600080fd5b6133ac848285614642565b509392505050565b6000813590506133c38161501d565b92915050565b6000813590506133d881615034565b92915050565b6000813590506133ed8161504b565b92915050565b6000815190506134028161504b565b92915050565b600082601f83011261341957600080fd5b8135613429848260208601613338565b91505092915050565b600082601f83011261344357600080fd5b8135613453848260208601613376565b91505092915050565b60006080828403121561346e57600080fd5b61347860806143cc565b9050600061348884828501613518565b600083015250602082013567ffffffffffffffff8111156134a857600080fd5b6134b484828501613432565b602083015250604082013567ffffffffffffffff8111156134d457600080fd5b6134e084828501613432565b604083015250606082013567ffffffffffffffff81111561350057600080fd5b61350c84828501613432565b60608301525092915050565b60008135905061352781615062565b92915050565b60006020828403121561353f57600080fd5b600061354d848285016133b4565b91505092915050565b6000806040838503121561356957600080fd5b6000613577858286016133b4565b9250506020613588858286016133b4565b9150509250929050565b6000806000606084860312156135a757600080fd5b60006135b5868287016133b4565b93505060206135c6868287016133b4565b92505060406135d786828701613518565b9150509250925092565b600080600080608085870312156135f757600080fd5b6000613605878288016133b4565b9450506020613616878288016133b4565b935050604061362787828801613518565b925050606085013567ffffffffffffffff81111561364457600080fd5b61365087828801613408565b91505092959194509250565b6000806040838503121561366f57600080fd5b600061367d858286016133b4565b925050602061368e858286016133c9565b9150509250929050565b600080604083850312156136ab57600080fd5b60006136b9858286016133b4565b92505060206136ca85828601613518565b9150509250929050565b6000602082840312156136e657600080fd5b60006136f4848285016133de565b91505092915050565b60006020828403121561370f57600080fd5b600061371d848285016133f3565b91505092915050565b6000806000806080858703121561373c57600080fd5b600085013567ffffffffffffffff81111561375657600080fd5b61376287828801613432565b945050602085013567ffffffffffffffff81111561377f57600080fd5b61378b87828801613432565b935050604061379c87828801613518565b925050606085013567ffffffffffffffff8111156137b957600080fd5b6137c58782880161345c565b91505092959194509250565b6000602082840312156137e357600080fd5b60006137f184828501613518565b91505092915050565b6000806040838503121561380d57600080fd5b600061381b85828601613518565b925050602061382c85828601613518565b9150509250929050565b61383f816145ce565b82525050565b61384e816145bc565b82525050565b61385d816145e0565b82525050565b600061386e82614453565b6138788185614469565b9350613888818560208601614651565b6138918161481d565b840191505092915050565b60006138a78261445e565b6138b1818561447a565b93506138c1818560208601614651565b6138ca8161481d565b840191505092915050565b60006138e08261445e565b6138ea818561448b565b93506138fa818560208601614651565b6139038161481d565b840191505092915050565b60006139198261445e565b613923818561449c565b9350613933818560208601614651565b80840191505092915050565b600061394c60248361448b565b91506139578261482e565b604082019050919050565b600061396f60328361448b565b915061397a8261487d565b604082019050919050565b600061399260268361448b565b915061399d826148cc565b604082019050919050565b60006139b560258361448b565b91506139c08261491b565b604082019050919050565b60006139d8601c8361448b565b91506139e38261496a565b602082019050919050565b60006139fb60248361448b565b9150613a0682614993565b604082019050919050565b6000613a1e60198361448b565b9150613a29826149e2565b602082019050919050565b6000613a41602c8361448b565b9150613a4c82614a0b565b604082019050919050565b6000613a6460238361448b565b9150613a6f82614a5a565b604082019050919050565b6000613a87601d8361448b565b9150613a9282614aa9565b602082019050919050565b6000613aaa601c8361448b565b9150613ab582614ad2565b602082019050919050565b6000613acd60128361448b565b9150613ad882614afb565b602082019050919050565b6000613af060388361448b565b9150613afb82614b24565b604082019050919050565b6000613b13602a8361448b565b9150613b1e82614b73565b604082019050919050565b6000613b3660298361448b565b9150613b4182614bc2565b604082019050919050565b6000613b59602e8361448b565b9150613b6482614c11565b604082019050919050565b6000613b7c60358361448b565b9150613b8782614c60565b604082019050919050565b6000613b9f60208361448b565b9150613baa82614caf565b602082019050919050565b6000613bc260318361448b565b9150613bcd82614cd8565b604082019050919050565b6000613be5602c8361448b565b9150613bf082614d27565b604082019050919050565b6000613c0860208361448b565b9150613c1382614d76565b602082019050919050565b6000613c2b601c8361448b565b9150613c3682614d9f565b602082019050919050565b6000613c4e602f8361448b565b9150613c5982614dc8565b604082019050919050565b6000613c7160358361448b565b9150613c7c82614e17565b604082019050919050565b6000613c9460218361448b565b9150613c9f82614e66565b604082019050919050565b6000613cb760148361448b565b9150613cc282614eb5565b602082019050919050565b6000613cda60318361448b565b9150613ce582614ede565b604082019050919050565b6000613cfd601d8361448b565b9150613d0882614f2d565b602082019050919050565b6000613d20601f8361448b565b9150613d2b82614f56565b602082019050919050565b6000613d4360248361448b565b9150613d4e82614f7f565b604082019050919050565b6000613d6660338361448b565b9150613d7182614fce565b604082019050919050565b6000608083016000830151613d946000860182613ded565b5060208301518482036020860152613dac828261389c565b91505060408301518482036040860152613dc6828261389c565b91505060608301518482036060860152613de0828261389c565b9150508091505092915050565b613df681614638565b82525050565b613e0581614638565b82525050565b6000613e17828561390e565b9150613e23828461390e565b91508190509392505050565b6000602082019050613e446000830184613845565b92915050565b6000602082019050613e5f6000830184613836565b92915050565b6000608082019050613e7a6000830187613845565b613e876020830186613845565b613e946040830185613dfc565b8181036060830152613ea68184613863565b905095945050505050565b6000602082019050613ec66000830184613854565b92915050565b60006020820190508181036000830152613ee681846138d5565b905092915050565b60006020820190508181036000830152613f078161393f565b9050919050565b60006020820190508181036000830152613f2781613962565b9050919050565b60006020820190508181036000830152613f4781613985565b9050919050565b60006020820190508181036000830152613f67816139a8565b9050919050565b60006020820190508181036000830152613f87816139cb565b9050919050565b60006020820190508181036000830152613fa7816139ee565b9050919050565b60006020820190508181036000830152613fc781613a11565b9050919050565b60006020820190508181036000830152613fe781613a34565b9050919050565b6000602082019050818103600083015261400781613a57565b9050919050565b6000602082019050818103600083015261402781613a7a565b9050919050565b6000602082019050818103600083015261404781613a9d565b9050919050565b6000602082019050818103600083015261406781613ac0565b9050919050565b6000602082019050818103600083015261408781613ae3565b9050919050565b600060208201905081810360008301526140a781613b06565b9050919050565b600060208201905081810360008301526140c781613b29565b9050919050565b600060208201905081810360008301526140e781613b4c565b9050919050565b6000602082019050818103600083015261410781613b6f565b9050919050565b6000602082019050818103600083015261412781613b92565b9050919050565b6000602082019050818103600083015261414781613bb5565b9050919050565b6000602082019050818103600083015261416781613bd8565b9050919050565b6000602082019050818103600083015261418781613bfb565b9050919050565b600060208201905081810360008301526141a781613c1e565b9050919050565b600060208201905081810360008301526141c781613c41565b9050919050565b600060208201905081810360008301526141e781613c64565b9050919050565b6000602082019050818103600083015261420781613c87565b9050919050565b6000602082019050818103600083015261422781613caa565b9050919050565b6000602082019050818103600083015261424781613ccd565b9050919050565b6000602082019050818103600083015261426781613cf0565b9050919050565b6000602082019050818103600083015261428781613d13565b9050919050565b600060208201905081810360008301526142a781613d36565b9050919050565b600060208201905081810360008301526142c781613d59565b9050919050565b600060208201905081810360008301526142e88184613d7c565b905092915050565b60006020820190506143056000830184613dfc565b92915050565b60006080820190506143206000830187613dfc565b818103602083015261433281866138d5565b9050818103604083015261434681856138d5565b9050818103606083015261435a81846138d5565b905095945050505050565b600060608201905061437a6000830186613dfc565b818103602083015261438c81856138d5565b905061439b6040830184613dfc565b949350505050565b60006040820190506143b86000830185613dfc565b6143c56020830184613dfc565b9392505050565b60006143d66143e7565b90506143e282826146b6565b919050565b6000604051905090565b600067ffffffffffffffff82111561440c5761440b6147ee565b5b6144158261481d565b9050602081019050919050565b600067ffffffffffffffff82111561443d5761443c6147ee565b5b6144468261481d565b9050602081019050919050565b600081519050919050565b600081519050919050565b600082825260208201905092915050565b600082825260208201905092915050565b600082825260208201905092915050565b600081905092915050565b60006144b282614638565b91506144bd83614638565b9250827fffffffffffffffffffffffffffffffffffffffffffffffffffffffffffffffff038211156144f2576144f1614761565b5b828201905092915050565b600061450882614638565b915061451383614638565b92508261452357614522614790565b5b828204905092915050565b600061453982614638565b915061454483614638565b9250817fffffffffffffffffffffffffffffffffffffffffffffffffffffffffffffffff048311821515161561457d5761457c614761565b5b828202905092915050565b600061459382614638565b915061459e83614638565b9250828210156145b1576145b0614761565b5b828203905092915050565b60006145c782614618565b9050919050565b60006145d982614618565b9050919050565b60008115159050919050565b60007fffffffff0000000000000000000000000000000000000000000000000000000082169050919050565b600073ffffffffffffffffffffffffffffffffffffffff82169050919050565b6000819050919050565b82818337600083830152505050565b60005b8381101561466f578082015181840152602081019050614654565b8381111561467e576000848401525b50505050565b6000600282049050600182168061469c57607f821691505b602082108114156146b0576146af6147bf565b5b50919050565b6146bf8261481d565b810181811067ffffffffffffffff821117156146de576146dd6147ee565b5b80604052505050565b60006146f282614638565b91507fffffffffffffffffffffffffffffffffffffffffffffffffffffffffffffffff82141561472557614724614761565b5b600182019050919050565b600061473b82614638565b915061474683614638565b92508261475657614755614790565b5b828206905092915050565b7f4e487b7100000000000000000000000000000000000000000000000000000000600052601160045260246000fd5b7f4e487b7100000000000000000000000000000000000000000000000000000000600052601260045260246000fd5b7f4e487b7100000000000000000000000000000000000000000000000000000000600052602260045260246000fd5b7f4e487b7100000000000000000000000000000000000000000000000000000000600052604160045260246000fd5b6000601f19601f8301169050919050565b7f4552433732313a205469636b65742068617320616c7265616479206265656e2060008201527f7573656400000000000000000000000000000000000000000000000000000000602082015250565b7f4552433732313a207472616e7366657220746f206e6f6e20455243373231526560008201527f63656976657220696d706c656d656e7465720000000000000000000000000000602082015250565b7f4f776e61626c653a206e6577206f776e657220697320746865207a65726f206160008201527f6464726573730000000000000000000000000000000000000000000000000000602082015250565b7f4552433732313a207472616e736665722066726f6d20696e636f72726563742060008201527f6f776e6572000000000000000000000000000000000000000000000000000000602082015250565b7f4552433732313a20746f6b656e20616c7265616479206d696e74656400000000600082015250565b7f4552433732313a207472616e7366657220746f20746865207a65726f2061646460008201527f7265737300000000000000000000000000000000000000000000000000000000602082015250565b7f4552433732313a20617070726f766520746f2063616c6c657200000000000000600082015250565b7f4552433732313a206f70657261746f7220717565727920666f72206e6f6e657860008201527f697374656e7420746f6b656e0000000000000000000000000000000000000000602082015250565b7f4552433732313a204e6f742061207469636b65742066726f6d2074686520657660008201527f656e740000000000000000000000000000000000000000000000000000000000602082015250565b7f4552433732313a205469636b657420646f6573206e6f74206578697374000000600082015250565b7f4552433732313a20496e73756666696369656e74207061796d656e7400000000600082015250565b7f696e76616c696420746f20616464726573730000000000000000000000000000600082015250565b7f4552433732313a20617070726f76652063616c6c6572206973206e6f74206f7760008201527f6e6572206e6f7220617070726f76656420666f7220616c6c0000000000000000602082015250565b7f4552433732313a2062616c616e636520717565727920666f7220746865207a6560008201527f726f206164647265737300000000000000000000000000000000000000000000602082015250565b7f4552433732313a206f776e657220717565727920666f72206e6f6e657869737460008201527f656e7420746f6b656e0000000000000000000000000000000000000000000000602082015250565b7f45524337323155524953746f726167653a2055524920736574206f66206e6f6e60008201527f6578697374656e7420746f6b656e000000000000000000000000000000000000602082015250565b7f4552433732313a20546f206164647265737320697320616c726561647920746860008201527f65206f776e6572206f6620746865207469636b65740000000000000000000000602082015250565b7f4552433732313a206d696e7420746f20746865207a65726f2061646472657373600082015250565b7f45524337323155524953746f726167653a2055524920717565727920666f722060008201527f6e6f6e6578697374656e7420746f6b656e000000000000000000000000000000602082015250565b7f4552433732313a20617070726f76656420717565727920666f72206e6f6e657860008201527f697374656e7420746f6b656e0000000000000000000000000000000000000000602082015250565b7f4f776e61626c653a2063616c6c6572206973206e6f7420746865206f776e6572600082015250565b7f4552433732313a204e6f7420746865207469636b6574206f776e657200000000600082015250565b7f4552433732314d657461646174613a2055524920717565727920666f72206e6f60008201527f6e6578697374656e7420746f6b656e0000000000000000000000000000000000602082015250565b7f4552433732313a204d73672e73656e64657220697320616c726561647920746860008201527f65206f776e6572206f6620746865207469636b65740000000000000000000000602082015250565b7f4552433732313a20617070726f76616c20746f2063757272656e74206f776e6560008201527f7200000000000000000000000000000000000000000000000000000000000000602082015250565b7f696e76616c69642066726f6d2061646472657373000000000000000000000000600082015250565b7f4552433732313a207472616e736665722063616c6c6572206973206e6f74206f60008201527f776e6572206e6f7220617070726f766564000000000000000000000000000000602082015250565b7f4552433732313a205469636b657420616c726561647920657869737473000000600082015250565b7f5265656e7472616e637947756172643a207265656e7472616e742063616c6c00600082015250565b7f4552433732313a205469636b65742068617320616c7265616479206265656e2060008201527f736f6c6400000000000000000000000000000000000000000000000000000000602082015250565b7f4552433732313a2046726f6d2061646472657373206973206e6f74207468652060008201527f6f776e6572206f6620746865207469636b657400000000000000000000000000602082015250565b615026816145bc565b811461503157600080fd5b50565b61503d816145e0565b811461504857600080fd5b50565b615054816145ec565b811461505f57600080fd5b50565b61506b81614638565b811461507657600080fd5b5056fea26469706673582212200ec1366b86764cee1dd55435161e8aac8b213290148fbd0fe7924e120dbd404164736f6c63430008040033",
  "linkReferences": {},
  "deployedLinkReferences": {}
}