{
  "_format": "hh-sol-artifact-1",
  "contractName": "NFT",
  "sourceName": "src/backend/contracts/NFT.sol",
  "abi": [
    {
      "inputs": [
        {
          "internalType": "uint256",
          "name": "_porcentajeReventa",
          "type": "uint256"
        }
      ],
      "stateMutability": "nonpayable",
      "type": "constructor"
    },
    {
      "anonymous": false,
      "inputs": [
        {
          "indexed": true,
          "internalType": "address",
          "name": "owner",
          "type": "address"
        },
        {
          "indexed": true,
          "internalType": "address",
          "name": "approved",
          "type": "address"
        },
        {
          "indexed": true,
          "internalType": "uint256",
          "name": "tokenId",
          "type": "uint256"
        }
      ],
      "name": "Approval",
      "type": "event"
    },
    {
      "anonymous": false,
      "inputs": [
        {
          "indexed": true,
          "internalType": "address",
          "name": "owner",
          "type": "address"
        },
        {
          "indexed": true,
          "internalType": "address",
          "name": "operator",
          "type": "address"
        },
        {
          "indexed": false,
          "internalType": "bool",
          "name": "approved",
          "type": "bool"
        }
      ],
      "name": "ApprovalForAll",
      "type": "event"
    },
    {
      "anonymous": false,
      "inputs": [
        {
          "indexed": false,
          "internalType": "uint256",
          "name": "idEntrada",
          "type": "uint256"
        },
        {
          "indexed": false,
          "internalType": "uint256",
          "name": "precio",
          "type": "uint256"
        },
        {
          "indexed": true,
          "internalType": "address",
          "name": "vendedor",
          "type": "address"
        },
        {
          "indexed": true,
          "internalType": "address",
          "name": "comprador",
          "type": "address"
        }
      ],
      "name": "Bought",
      "type": "event"
    },
    {
      "anonymous": false,
      "inputs": [
        {
          "indexed": true,
          "internalType": "address",
          "name": "previousOwner",
          "type": "address"
        },
        {
          "indexed": true,
          "internalType": "address",
          "name": "newOwner",
          "type": "address"
        }
      ],
      "name": "OwnershipTransferred",
      "type": "event"
    },
    {
      "anonymous": false,
      "inputs": [
        {
          "indexed": true,
          "internalType": "address",
          "name": "from",
          "type": "address"
        },
        {
          "indexed": true,
          "internalType": "address",
          "name": "to",
          "type": "address"
        },
        {
          "indexed": true,
          "internalType": "uint256",
          "name": "tokenId",
          "type": "uint256"
        }
      ],
      "name": "Transfer",
      "type": "event"
    },
    {
      "inputs": [
        {
          "internalType": "address",
          "name": "to",
          "type": "address"
        },
        {
          "internalType": "uint256",
          "name": "tokenId",
          "type": "uint256"
        }
      ],
      "name": "approve",
      "outputs": [],
      "stateMutability": "nonpayable",
      "type": "function"
    },
    {
      "inputs": [
        {
          "internalType": "address",
          "name": "owner",
          "type": "address"
        }
      ],
      "name": "balanceOf",
      "outputs": [
        {
          "internalType": "uint256",
          "name": "",
          "type": "uint256"
        }
      ],
      "stateMutability": "view",
      "type": "function"
    },
    {
      "inputs": [
        {
          "internalType": "bool",
          "name": "estado",
          "type": "bool"
        }
      ],
      "name": "changeSaleState",
      "outputs": [],
      "stateMutability": "nonpayable",
      "type": "function"
    },
    {
      "inputs": [],
      "name": "cuentaMaestra",
      "outputs": [
        {
          "internalType": "address payable",
          "name": "",
          "type": "address"
        }
      ],
      "stateMutability": "view",
      "type": "function"
    },
    {
      "inputs": [
        {
          "internalType": "uint256",
          "name": "",
          "type": "uint256"
        }
      ],
      "name": "entradas",
      "outputs": [
        {
          "internalType": "uint256",
          "name": "idEntrada",
          "type": "uint256"
        },
        {
          "internalType": "string",
          "name": "descripcion",
          "type": "string"
        },
        {
          "internalType": "uint256",
          "name": "precio",
          "type": "uint256"
        }
      ],
      "stateMutability": "view",
      "type": "function"
    },
    {
      "inputs": [
        {
          "internalType": "uint256",
          "name": "tokenId",
          "type": "uint256"
        }
      ],
      "name": "getApproved",
      "outputs": [
        {
          "internalType": "address",
          "name": "",
          "type": "address"
        }
      ],
      "stateMutability": "view",
      "type": "function"
    },
    {
      "inputs": [
        {
          "internalType": "uint256",
          "name": "_tokenId",
          "type": "uint256"
        }
      ],
      "name": "getOwner",
      "outputs": [
        {
          "internalType": "address",
          "name": "",
          "type": "address"
        }
      ],
      "stateMutability": "view",
      "type": "function"
    },
    {
      "inputs": [
        {
          "internalType": "uint256",
          "name": "_tokenId",
          "type": "uint256"
        }
      ],
      "name": "getTotalPrice",
      "outputs": [
        {
          "internalType": "uint256",
          "name": "",
          "type": "uint256"
        }
      ],
      "stateMutability": "view",
      "type": "function"
    },
    {
      "inputs": [
        {
          "internalType": "address",
          "name": "owner",
          "type": "address"
        },
        {
          "internalType": "address",
          "name": "operator",
          "type": "address"
        }
      ],
      "name": "isApprovedForAll",
      "outputs": [
        {
          "internalType": "bool",
          "name": "",
          "type": "bool"
        }
      ],
      "stateMutability": "view",
      "type": "function"
    },
    {
      "inputs": [
        {
          "internalType": "string",
          "name": "_tokenURI",
          "type": "string"
        },
        {
          "internalType": "string",
          "name": "_descripcion",
          "type": "string"
        },
        {
          "internalType": "uint256",
          "name": "_precio",
          "type": "uint256"
        }
      ],
      "name": "mint",
      "outputs": [
        {
          "internalType": "uint256",
          "name": "",
          "type": "uint256"
        }
      ],
      "stateMutability": "nonpayable",
      "type": "function"
    },
    {
      "inputs": [],
      "name": "name",
      "outputs": [
        {
          "internalType": "string",
          "name": "",
          "type": "string"
        }
      ],
      "stateMutability": "view",
      "type": "function"
    },
    {
      "inputs": [],
      "name": "owner",
      "outputs": [
        {
          "internalType": "address",
          "name": "",
          "type": "address"
        }
      ],
      "stateMutability": "view",
      "type": "function"
    },
    {
      "inputs": [
        {
          "internalType": "uint256",
          "name": "tokenId",
          "type": "uint256"
        }
      ],
      "name": "ownerOf",
      "outputs": [
        {
          "internalType": "address",
          "name": "",
          "type": "address"
        }
      ],
      "stateMutability": "view",
      "type": "function"
    },
    {
      "inputs": [],
      "name": "porcentajeReventa",
      "outputs": [
        {
          "internalType": "uint256",
          "name": "",
          "type": "uint256"
        }
      ],
      "stateMutability": "view",
      "type": "function"
    },
    {
      "inputs": [],
      "name": "renounceOwnership",
      "outputs": [],
      "stateMutability": "nonpayable",
      "type": "function"
    },
    {
      "inputs": [
        {
          "internalType": "address",
          "name": "from",
          "type": "address"
        },
        {
          "internalType": "address",
          "name": "to",
          "type": "address"
        },
        {
          "internalType": "uint256",
          "name": "tokenId",
          "type": "uint256"
        }
      ],
      "name": "safeTransferFrom",
      "outputs": [],
      "stateMutability": "nonpayable",
      "type": "function"
    },
    {
      "inputs": [
        {
          "internalType": "address",
          "name": "from",
          "type": "address"
        },
        {
          "internalType": "address",
          "name": "to",
          "type": "address"
        },
        {
          "internalType": "uint256",
          "name": "tokenId",
          "type": "uint256"
        },
        {
          "internalType": "bytes",
          "name": "_data",
          "type": "bytes"
        }
      ],
      "name": "safeTransferFrom",
      "outputs": [],
      "stateMutability": "nonpayable",
      "type": "function"
    },
    {
      "inputs": [
        {
          "internalType": "uint256",
          "name": "_tokenId",
          "type": "uint256"
        }
      ],
      "name": "sellTicket",
      "outputs": [],
      "stateMutability": "payable",
      "type": "function"
    },
    {
      "inputs": [
        {
          "internalType": "address",
          "name": "operator",
          "type": "address"
        },
        {
          "internalType": "bool",
          "name": "approved",
          "type": "bool"
        }
      ],
      "name": "setApprovalForAll",
      "outputs": [],
      "stateMutability": "nonpayable",
      "type": "function"
    },
    {
      "inputs": [
        {
          "internalType": "uint256",
          "name": "_tokenId",
          "type": "uint256"
        },
        {
          "internalType": "uint256",
          "name": "_newPrice",
          "type": "uint256"
        }
      ],
      "name": "setPrice",
      "outputs": [],
      "stateMutability": "nonpayable",
      "type": "function"
    },
    {
      "inputs": [
        {
          "internalType": "bytes4",
          "name": "interfaceId",
          "type": "bytes4"
        }
      ],
      "name": "supportsInterface",
      "outputs": [
        {
          "internalType": "bool",
          "name": "",
          "type": "bool"
        }
      ],
      "stateMutability": "view",
      "type": "function"
    },
    {
      "inputs": [],
      "name": "symbol",
      "outputs": [
        {
          "internalType": "string",
          "name": "",
          "type": "string"
        }
      ],
      "stateMutability": "view",
      "type": "function"
    },
    {
      "inputs": [
        {
          "internalType": "uint256",
          "name": "_tokenId",
          "type": "uint256"
        }
      ],
      "name": "ticketSold",
      "outputs": [
        {
          "internalType": "bool",
          "name": "",
          "type": "bool"
        }
      ],
      "stateMutability": "view",
      "type": "function"
    },
    {
      "inputs": [
        {
          "internalType": "uint256",
          "name": "_tokenId",
          "type": "uint256"
        }
      ],
      "name": "ticketUsed",
      "outputs": [
        {
          "internalType": "bool",
          "name": "",
          "type": "bool"
        }
      ],
      "stateMutability": "view",
      "type": "function"
    },
    {
      "inputs": [],
      "name": "tokenCount",
      "outputs": [
        {
          "internalType": "uint256",
          "name": "",
          "type": "uint256"
        }
      ],
      "stateMutability": "view",
      "type": "function"
    },
    {
      "inputs": [
        {
          "internalType": "uint256",
          "name": "tokenId",
          "type": "uint256"
        }
      ],
      "name": "tokenURI",
      "outputs": [
        {
          "internalType": "string",
          "name": "",
          "type": "string"
        }
      ],
      "stateMutability": "view",
      "type": "function"
    },
    {
      "inputs": [
        {
          "internalType": "address",
          "name": "from",
          "type": "address"
        },
        {
          "internalType": "address",
          "name": "to",
          "type": "address"
        },
        {
          "internalType": "uint256",
          "name": "tokenId",
          "type": "uint256"
        }
      ],
      "name": "transferFrom",
      "outputs": [],
      "stateMutability": "nonpayable",
      "type": "function"
    },
    {
      "inputs": [
        {
          "internalType": "address",
          "name": "newOwner",
          "type": "address"
        }
      ],
      "name": "transferOwnership",
      "outputs": [],
      "stateMutability": "nonpayable",
      "type": "function"
    },
    {
      "inputs": [
        {
          "internalType": "uint256",
          "name": "_tokenId",
          "type": "uint256"
        }
      ],
      "name": "useTicket",
      "outputs": [
        {
          "internalType": "bool",
          "name": "",
          "type": "bool"
        }
      ],
      "stateMutability": "nonpayable",
      "type": "function"
    }
  ],
  "bytecode": "0x60806040523480156200001157600080fd5b5060405162004679380380620046798339818101604052810190620000379190620002fe565b6040518060400160405280600e81526020017f5469636b6574436f6e74726163740000000000000000000000000000000000008152506040518060400160405280600681526020017f5449434b455400000000000000000000000000000000000000000000000000008152508160009080519060200190620000bb92919062000237565b508060019080519060200190620000d492919062000237565b505050620000f7620000eb6200016960201b60201c565b6200017160201b60201c565b600160088190555080600a8190555033600b60006101000a81548173ffffffffffffffffffffffffffffffffffffffff021916908373ffffffffffffffffffffffffffffffffffffffff1602179055506001600b60146101000a81548160ff02191690831515021790555050620003b3565b600033905090565b6000600760009054906101000a900473ffffffffffffffffffffffffffffffffffffffff16905081600760006101000a81548173ffffffffffffffffffffffffffffffffffffffff021916908373ffffffffffffffffffffffffffffffffffffffff1602179055508173ffffffffffffffffffffffffffffffffffffffff168173ffffffffffffffffffffffffffffffffffffffff167f8be0079c531659141344cd1fd0a4f28419497f9722a3daafe3b4186f6b6457e060405160405180910390a35050565b828054620002459062000334565b90600052602060002090601f016020900481019282620002695760008555620002b5565b82601f106200028457805160ff1916838001178555620002b5565b82800160010185558215620002b5579182015b82811115620002b457825182559160200191906001019062000297565b5b509050620002c49190620002c8565b5090565b5b80821115620002e3576000816000905550600101620002c9565b5090565b600081519050620002f88162000399565b92915050565b6000602082840312156200031157600080fd5b60006200032184828501620002e7565b91505092915050565b6000819050919050565b600060028204905060018216806200034d57607f821691505b602082108114156200036457620003636200036a565b5b50919050565b7f4e487b7100000000000000000000000000000000000000000000000000000000600052602260045260246000fd5b620003a4816200032a565b8114620003b057600080fd5b50565b6142b680620003c36000396000f3fe6080604052600436106101c25760003560e01c806382a6c5d2116100f7578063c41a360a11610095578063e985e9c511610064578063e985e9c5146106b4578063f192866a146106f1578063f2fde38b1461070d578063f7d9757714610736576101c2565b8063c41a360a146105c0578063c87b56dd146105fd578063ca7dd3751461063a578063d41d9a2714610677576101c2565b80639f181b5e116100d15780639f181b5e1461051a578063a22cb46514610545578063b322078d1461056e578063b88d4fde14610597576101c2565b806382a6c5d2146104875780638da5cb5b146104c457806395d89b41146104ef576101c2565b80633366a2bc11610164578063642b5f9b1161013e578063642b5f9b146103cb57806370a0823114610408578063715018a614610445578063793912811461045c576101c2565b80633366a2bc1461033a57806342842e0e146103655780636352211e1461038e576101c2565b8063095ea7b3116101a0578063095ea7b31461026c5780631d4ab5401461029557806323b872dd146102d457806326606448146102fd576101c2565b806301ffc9a7146101c757806306fdde0314610204578063081812fc1461022f575b600080fd5b3480156101d357600080fd5b506101ee60048036038101906101e99190612ce1565b61075f565b6040516101fb919061334d565b60405180910390f35b34801561021057600080fd5b50610219610841565b6040516102269190613368565b60405180910390f35b34801561023b57600080fd5b5061025660048036038101906102519190612db2565b6108d3565b60405161026391906132cb565b60405180910390f35b34801561027857600080fd5b50610293600480360381019061028e9190612c7c565b610958565b005b3480156102a157600080fd5b506102bc60048036038101906102b79190612db2565b610a70565b6040516102cb93929190613705565b60405180910390f35b3480156102e057600080fd5b506102fb60048036038101906102f69190612b76565b610b22565b005b34801561030957600080fd5b50610324600480360381019061031f9190612db2565b610b82565b604051610331919061334d565b60405180910390f35b34801561034657600080fd5b5061034f610c49565b60405161035c91906132e6565b60405180910390f35b34801561037157600080fd5b5061038c60048036038101906103879190612b76565b610c6f565b005b34801561039a57600080fd5b506103b560048036038101906103b09190612db2565b610c8f565b6040516103c291906132cb565b60405180910390f35b3480156103d757600080fd5b506103f260048036038101906103ed9190612db2565b610d41565b6040516103ff919061334d565b60405180910390f35b34801561041457600080fd5b5061042f600480360381019061042a9190612b11565b610d6b565b60405161043c91906136ea565b60405180910390f35b34801561045157600080fd5b5061045a610e23565b005b34801561046857600080fd5b50610471610eab565b60405161047e91906136ea565b60405180910390f35b34801561049357600080fd5b506104ae60048036038101906104a99190612db2565b610eb1565b6040516104bb919061334d565b60405180910390f35b3480156104d057600080fd5b506104d9610edb565b6040516104e691906132cb565b60405180910390f35b3480156104fb57600080fd5b50610504610f05565b6040516105119190613368565b60405180910390f35b34801561052657600080fd5b5061052f610f97565b60405161053c91906136ea565b60405180910390f35b34801561055157600080fd5b5061056c60048036038101906105679190612c40565b610f9d565b005b34801561057a57600080fd5b5061059560048036038101906105909190612cb8565b610fb3565b005b3480156105a357600080fd5b506105be60048036038101906105b99190612bc5565b61104c565b005b3480156105cc57600080fd5b506105e760048036038101906105e29190612db2565b6110ae565b6040516105f491906132cb565b60405180910390f35b34801561060957600080fd5b50610624600480360381019061061f9190612db2565b6110c0565b6040516106319190613368565b60405180910390f35b34801561064657600080fd5b50610661600480360381019061065c9190612db2565b611212565b60405161066e91906136ea565b60405180910390f35b34801561068357600080fd5b5061069e60048036038101906106999190612d33565b611257565b6040516106ab91906136ea565b60405180910390f35b3480156106c057600080fd5b506106db60048036038101906106d69190612b3a565b61146d565b6040516106e8919061334d565b60405180910390f35b61070b60048036038101906107069190612db2565b611501565b005b34801561071957600080fd5b50610734600480360381019061072f9190612b11565b6118de565b005b34801561074257600080fd5b5061075d60048036038101906107589190612ddb565b6119d6565b005b60007f80ac58cd000000000000000000000000000000000000000000000000000000007bffffffffffffffffffffffffffffffffffffffffffffffffffffffff1916827bffffffffffffffffffffffffffffffffffffffffffffffffffffffff1916148061082a57507f5b5e139f000000000000000000000000000000000000000000000000000000007bffffffffffffffffffffffffffffffffffffffffffffffffffffffff1916827bffffffffffffffffffffffffffffffffffffffffffffffffffffffff1916145b8061083a575061083982611ab3565b5b9050919050565b60606000805461085090613a13565b80601f016020809104026020016040519081016040528092919081815260200182805461087c90613a13565b80156108c95780601f1061089e576101008083540402835291602001916108c9565b820191906000526020600020905b8154815290600101906020018083116108ac57829003601f168201915b5050505050905090565b60006108de82611b1d565b61091d576040517f08c379a0000000000000000000000000000000000000000000000000000000008152600401610914906135ea565b60405180910390fd5b6004600083815260200190815260200160002060009054906101000a900473ffffffffffffffffffffffffffffffffffffffff169050919050565b600061096382610c8f565b90508073ffffffffffffffffffffffffffffffffffffffff168373ffffffffffffffffffffffffffffffffffffffff1614156109d4576040517f08c379a00000000000000000000000000000000000000000000000000000000081526004016109cb9061364a565b60405180910390fd5b8073ffffffffffffffffffffffffffffffffffffffff166109f3611b89565b73ffffffffffffffffffffffffffffffffffffffff161480610a225750610a2181610a1c611b89565b61146d565b5b610a61576040517f08c379a0000000000000000000000000000000000000000000000000000000008152600401610a58906134ea565b60405180910390fd5b610a6b8383611b91565b505050565b600c602052806000526040600020600091509050806000015490806001018054610a9990613a13565b80601f0160208091040260200160405190810160405280929190818152602001828054610ac590613a13565b8015610b125780601f10610ae757610100808354040283529160200191610b12565b820191906000526020600020905b815481529060010190602001808311610af557829003601f168201915b5050505050908060020154905083565b610b33610b2d611b89565b82611c4a565b610b72576040517f08c379a0000000000000000000000000000000000000000000000000000000008152600401610b699061368a565b60405180910390fd5b610b7d838383611d28565b505050565b6000610b8d82611b1d565b610bcc576040517f08c379a0000000000000000000000000000000000000000000000000000000008152600401610bc39061350a565b60405180910390fd5b610bd582610d41565b610c14576040517f08c379a0000000000000000000000000000000000000000000000000000000008152600401610c0b9061344a565b60405180910390fd5b6001600f600084815260200190815260200160002060006101000a81548160ff02191690831515021790555060019050919050565b600b60009054906101000a900473ffffffffffffffffffffffffffffffffffffffff1681565b610c8a8383836040518060200160405280600081525061104c565b505050565b6000806002600084815260200190815260200160002060009054906101000a900473ffffffffffffffffffffffffffffffffffffffff169050600073ffffffffffffffffffffffffffffffffffffffff168173ffffffffffffffffffffffffffffffffffffffff161415610d38576040517f08c379a0000000000000000000000000000000000000000000000000000000008152600401610d2f9061354a565b60405180910390fd5b80915050919050565b6000600f600083815260200190815260200160002060009054906101000a900460ff169050919050565b60008073ffffffffffffffffffffffffffffffffffffffff168273ffffffffffffffffffffffffffffffffffffffff161415610ddc576040517f08c379a0000000000000000000000000000000000000000000000000000000008152600401610dd39061352a565b60405180910390fd5b600360008373ffffffffffffffffffffffffffffffffffffffff1673ffffffffffffffffffffffffffffffffffffffff168152602001908152602001600020549050919050565b610e2b611b89565b73ffffffffffffffffffffffffffffffffffffffff16610e49610edb565b73ffffffffffffffffffffffffffffffffffffffff1614610e9f576040517f08c379a0000000000000000000000000000000000000000000000000000000008152600401610e969061360a565b60405180910390fd5b610ea96000611f8f565b565b600a5481565b6000600d600083815260200190815260200160002060009054906101000a900460ff169050919050565b6000600760009054906101000a900473ffffffffffffffffffffffffffffffffffffffff16905090565b606060018054610f1490613a13565b80601f0160208091040260200160405190810160405280929190818152602001828054610f4090613a13565b8015610f8d5780601f10610f6257610100808354040283529160200191610f8d565b820191906000526020600020905b815481529060010190602001808311610f7057829003601f168201915b5050505050905090565b60095481565b610faf610fa8611b89565b8383612055565b5050565b610fbb611b89565b73ffffffffffffffffffffffffffffffffffffffff16610fd9610edb565b73ffffffffffffffffffffffffffffffffffffffff161461102f576040517f08c379a00000000000000000000000000000000000000000000000000000000081526004016110269061360a565b60405180910390fd5b80600b60146101000a81548160ff02191690831515021790555050565b61105d611057611b89565b83611c4a565b61109c576040517f08c379a00000000000000000000000000000000000000000000000000000000081526004016110939061368a565b60405180910390fd5b6110a8848484846121c2565b50505050565b60006110b982610c8f565b9050919050565b60606110cb82611b1d565b61110a576040517f08c379a0000000000000000000000000000000000000000000000000000000008152600401611101906135ca565b60405180910390fd5b600060066000848152602001908152602001600020805461112a90613a13565b80601f016020809104026020016040519081016040528092919081815260200182805461115690613a13565b80156111a35780601f10611178576101008083540402835291602001916111a3565b820191906000526020600020905b81548152906001019060200180831161118657829003601f168201915b5050505050905060006111b461221e565b90506000815114156111ca57819250505061120d565b6000825111156111ff5780826040516020016111e79291906132a7565b6040516020818303038152906040529250505061120d565b61120884612235565b925050505b919050565b60006064600a5460646112259190613836565b600c60008581526020019081526020016000206002015461124691906138bd565b611250919061388c565b9050919050565b60006002600854141561129f576040517f08c379a0000000000000000000000000000000000000000000000000000000008152600401611296906136ca565b60405180910390fd5b6002600881905550600960008154809291906112ba90613a76565b919050555060008211611302576040517f08c379a00000000000000000000000000000000000000000000000000000000081526004016112f9906133aa565b60405180910390fd5b61130d600954611b1d565b1561134d576040517f08c379a0000000000000000000000000000000000000000000000000000000008152600401611344906134aa565b60405180910390fd5b611359336009546122dc565b611365600954856122fa565b61136d612914565b6009548160000181815250508381602001819052508281604001818152505080600c600060095481526020019081526020016000206000820151816000015560208201518160010190805190602001906113c8929190612935565b50604082015181600201559050506000600d6000600954815260200190815260200160002060006101000a81548160ff02191690831515021790555033600e6000600954815260200190815260200160002060006101000a81548173ffffffffffffffffffffffffffffffffffffffff021916908373ffffffffffffffffffffffffffffffffffffffff16021790555060095491505060016008819055509392505050565b6000600560008473ffffffffffffffffffffffffffffffffffffffff1673ffffffffffffffffffffffffffffffffffffffff16815260200190815260200160002060008373ffffffffffffffffffffffffffffffffffffffff1673ffffffffffffffffffffffffffffffffffffffff16815260200190815260200160002060009054906101000a900460ff16905092915050565b60026008541415611547576040517f08c379a000000000000000000000000000000000000000000000000000000000815260040161153e906136ca565b60405180910390fd5b600260088190555061155881611b1d565b611597576040517f08c379a000000000000000000000000000000000000000000000000000000000815260040161158e9061350a565b60405180910390fd5b6115a081611212565b3410156115e2576040517f08c379a00000000000000000000000000000000000000000000000000000000081526004016115d9906135aa565b60405180910390fd5b600d600082815260200190815260200160002060009054906101000a900460ff1615611643576040517f08c379a000000000000000000000000000000000000000000000000000000000815260040161163a9061338a565b60405180910390fd5b60011515600b60149054906101000a900460ff16151514611699576040517f08c379a00000000000000000000000000000000000000000000000000000000081526004016116909061366a565b60405180910390fd5b60006116a482610c8f565b905060003390506000600c600085815260200190815260200160002060020154905060006064600a54836116d891906138bd565b6116e2919061388c565b90506116ef848487611d28565b6001600d600087815260200190815260200160002060006101000a81548160ff02191690831515021790555082600e600087815260200190815260200160002060006101000a81548173ffffffffffffffffffffffffffffffffffffffff021916908373ffffffffffffffffffffffffffffffffffffffff1602179055508373ffffffffffffffffffffffffffffffffffffffff166108fc82846117939190613917565b9081150290604051600060405180830381858888f193505050501580156117be573d6000803e3d6000fd5b506117c7610edb565b73ffffffffffffffffffffffffffffffffffffffff166108fc829081150290604051600060405180830381858888f1935050505015801561180c573d6000803e3d6000fd5b5081341115611868573373ffffffffffffffffffffffffffffffffffffffff166108fc833461183b9190613917565b9081150290604051600060405180830381858888f19350505050158015611866573d6000803e3d6000fd5b505b8273ffffffffffffffffffffffffffffffffffffffff168473ffffffffffffffffffffffffffffffffffffffff167f4ebd6ef39c1235e69ba7dedf24ad43bdeb57deb289d98473668070d6ca9b685e87856040516118c7929190613743565b60405180910390a350505050600160088190555050565b6118e6611b89565b73ffffffffffffffffffffffffffffffffffffffff16611904610edb565b73ffffffffffffffffffffffffffffffffffffffff161461195a576040517f08c379a00000000000000000000000000000000000000000000000000000000081526004016119519061360a565b60405180910390fd5b600073ffffffffffffffffffffffffffffffffffffffff168173ffffffffffffffffffffffffffffffffffffffff1614156119ca576040517f08c379a00000000000000000000000000000000000000000000000000000000081526004016119c1906133ea565b60405180910390fd5b6119d381611f8f565b50565b6119df82611b1d565b611a1e576040517f08c379a0000000000000000000000000000000000000000000000000000000008152600401611a159061350a565b60405180910390fd5b3373ffffffffffffffffffffffffffffffffffffffff16611a3e83610c8f565b73ffffffffffffffffffffffffffffffffffffffff1614611a94576040517f08c379a0000000000000000000000000000000000000000000000000000000008152600401611a8b906136aa565b60405180910390fd5b80600c6000848152602001908152602001600020600201819055505050565b60007f01ffc9a7000000000000000000000000000000000000000000000000000000007bffffffffffffffffffffffffffffffffffffffffffffffffffffffff1916827bffffffffffffffffffffffffffffffffffffffffffffffffffffffff1916149050919050565b60008073ffffffffffffffffffffffffffffffffffffffff166002600084815260200190815260200160002060009054906101000a900473ffffffffffffffffffffffffffffffffffffffff1673ffffffffffffffffffffffffffffffffffffffff1614159050919050565b600033905090565b816004600083815260200190815260200160002060006101000a81548173ffffffffffffffffffffffffffffffffffffffff021916908373ffffffffffffffffffffffffffffffffffffffff160217905550808273ffffffffffffffffffffffffffffffffffffffff16611c0483610c8f565b73ffffffffffffffffffffffffffffffffffffffff167f8c5be1e5ebec7d5bd14f71427d1e84f3dd0314c0f7b2291e5b200ac8c7c3b92560405160405180910390a45050565b6000611c5582611b1d565b611c94576040517f08c379a0000000000000000000000000000000000000000000000000000000008152600401611c8b906134ca565b60405180910390fd5b6000611c9f83610c8f565b90508073ffffffffffffffffffffffffffffffffffffffff168473ffffffffffffffffffffffffffffffffffffffff161480611d0e57508373ffffffffffffffffffffffffffffffffffffffff16611cf6846108d3565b73ffffffffffffffffffffffffffffffffffffffff16145b80611d1f5750611d1e818561146d565b5b91505092915050565b8273ffffffffffffffffffffffffffffffffffffffff16611d4882610c8f565b73ffffffffffffffffffffffffffffffffffffffff1614611d9e576040517f08c379a0000000000000000000000000000000000000000000000000000000008152600401611d959061340a565b60405180910390fd5b600073ffffffffffffffffffffffffffffffffffffffff168273ffffffffffffffffffffffffffffffffffffffff161415611e0e576040517f08c379a0000000000000000000000000000000000000000000000000000000008152600401611e059061346a565b60405180910390fd5b611e1983838361236e565b611e24600082611b91565b6001600360008573ffffffffffffffffffffffffffffffffffffffff1673ffffffffffffffffffffffffffffffffffffffff1681526020019081526020016000206000828254611e749190613917565b925050819055506001600360008473ffffffffffffffffffffffffffffffffffffffff1673ffffffffffffffffffffffffffffffffffffffff1681526020019081526020016000206000828254611ecb9190613836565b92505081905550816002600083815260200190815260200160002060006101000a81548173ffffffffffffffffffffffffffffffffffffffff021916908373ffffffffffffffffffffffffffffffffffffffff160217905550808273ffffffffffffffffffffffffffffffffffffffff168473ffffffffffffffffffffffffffffffffffffffff167fddf252ad1be2c89b69c2b068fc378daa952ba7f163c4a11628f55a4df523b3ef60405160405180910390a4611f8a838383612373565b505050565b6000600760009054906101000a900473ffffffffffffffffffffffffffffffffffffffff16905081600760006101000a81548173ffffffffffffffffffffffffffffffffffffffff021916908373ffffffffffffffffffffffffffffffffffffffff1602179055508173ffffffffffffffffffffffffffffffffffffffff168173ffffffffffffffffffffffffffffffffffffffff167f8be0079c531659141344cd1fd0a4f28419497f9722a3daafe3b4186f6b6457e060405160405180910390a35050565b8173ffffffffffffffffffffffffffffffffffffffff168373ffffffffffffffffffffffffffffffffffffffff1614156120c4576040517f08c379a00000000000000000000000000000000000000000000000000000000081526004016120bb9061348a565b60405180910390fd5b80600560008573ffffffffffffffffffffffffffffffffffffffff1673ffffffffffffffffffffffffffffffffffffffff16815260200190815260200160002060008473ffffffffffffffffffffffffffffffffffffffff1673ffffffffffffffffffffffffffffffffffffffff16815260200190815260200160002060006101000a81548160ff0219169083151502179055508173ffffffffffffffffffffffffffffffffffffffff168373ffffffffffffffffffffffffffffffffffffffff167f17307eab39ab6107e8899845ad3d59bd9653f200f220920489ca2b5937696c31836040516121b5919061334d565b60405180910390a3505050565b6121cd848484611d28565b6121d984848484612378565b612218576040517f08c379a000000000000000000000000000000000000000000000000000000000815260040161220f906133ca565b60405180910390fd5b50505050565b606060405180602001604052806000815250905090565b606061224082611b1d565b61227f576040517f08c379a00000000000000000000000000000000000000000000000000000000081526004016122769061362a565b60405180910390fd5b600061228961221e565b905060008151116122a957604051806020016040528060008152506122d4565b806122b38461250f565b6040516020016122c49291906132a7565b6040516020818303038152906040525b915050919050565b6122f68282604051806020016040528060008152506126bc565b5050565b61230382611b1d565b612342576040517f08c379a00000000000000000000000000000000000000000000000000000000081526004016123399061356a565b60405180910390fd5b80600660008481526020019081526020016000209080519060200190612369929190612935565b505050565b505050565b505050565b60006123998473ffffffffffffffffffffffffffffffffffffffff16612717565b15612502578373ffffffffffffffffffffffffffffffffffffffff1663150b7a026123c2611b89565b8786866040518563ffffffff1660e01b81526004016123e49493929190613301565b602060405180830381600087803b1580156123fe57600080fd5b505af192505050801561242f57506040513d601f19601f8201168201806040525081019061242c9190612d0a565b60015b6124b2573d806000811461245f576040519150601f19603f3d011682016040523d82523d6000602084013e612464565b606091505b506000815114156124aa576040517f08c379a00000000000000000000000000000000000000000000000000000000081526004016124a1906133ca565b60405180910390fd5b805181602001fd5b63150b7a0260e01b7bffffffffffffffffffffffffffffffffffffffffffffffffffffffff1916817bffffffffffffffffffffffffffffffffffffffffffffffffffffffff191614915050612507565b600190505b949350505050565b60606000821415612557576040518060400160405280600181526020017f300000000000000000000000000000000000000000000000000000000000000081525090506126b7565b600082905060005b6000821461258957808061257290613a76565b915050600a82612582919061388c565b915061255f565b60008167ffffffffffffffff8111156125cb577f4e487b7100000000000000000000000000000000000000000000000000000000600052604160045260246000fd5b6040519080825280601f01601f1916602001820160405280156125fd5781602001600182028036833780820191505090505b5090505b600085146126b0576001826126169190613917565b9150600a856126259190613abf565b60306126319190613836565b60f81b81838151811061266d577f4e487b7100000000000000000000000000000000000000000000000000000000600052603260045260246000fd5b60200101907effffffffffffffffffffffffffffffffffffffffffffffffffffffffffffff1916908160001a905350600a856126a9919061388c565b9450612601565b8093505050505b919050565b6126c6838361273a565b6126d36000848484612378565b612712576040517f08c379a0000000000000000000000000000000000000000000000000000000008152600401612709906133ca565b60405180910390fd5b505050565b6000808273ffffffffffffffffffffffffffffffffffffffff163b119050919050565b600073ffffffffffffffffffffffffffffffffffffffff168273ffffffffffffffffffffffffffffffffffffffff1614156127aa576040517f08c379a00000000000000000000000000000000000000000000000000000000081526004016127a19061358a565b60405180910390fd5b6127b381611b1d565b156127f3576040517f08c379a00000000000000000000000000000000000000000000000000000000081526004016127ea9061342a565b60405180910390fd5b6127ff6000838361236e565b6001600360008473ffffffffffffffffffffffffffffffffffffffff1673ffffffffffffffffffffffffffffffffffffffff168152602001908152602001600020600082825461284f9190613836565b92505081905550816002600083815260200190815260200160002060006101000a81548173ffffffffffffffffffffffffffffffffffffffff021916908373ffffffffffffffffffffffffffffffffffffffff160217905550808273ffffffffffffffffffffffffffffffffffffffff16600073ffffffffffffffffffffffffffffffffffffffff167fddf252ad1be2c89b69c2b068fc378daa952ba7f163c4a11628f55a4df523b3ef60405160405180910390a461291060008383612373565b5050565b60405180606001604052806000815260200160608152602001600081525090565b82805461294190613a13565b90600052602060002090601f01602090048101928261296357600085556129aa565b82601f1061297c57805160ff19168380011785556129aa565b828001600101855582156129aa579182015b828111156129a957825182559160200191906001019061298e565b5b5090506129b791906129bb565b5090565b5b808211156129d45760008160009055506001016129bc565b5090565b60006129eb6129e684613791565b61376c565b905082815260208101848484011115612a0357600080fd5b612a0e8482856139d1565b509392505050565b6000612a29612a24846137c2565b61376c565b905082815260208101848484011115612a4157600080fd5b612a4c8482856139d1565b509392505050565b600081359050612a6381614224565b92915050565b600081359050612a788161423b565b92915050565b600081359050612a8d81614252565b92915050565b600081519050612aa281614252565b92915050565b600082601f830112612ab957600080fd5b8135612ac98482602086016129d8565b91505092915050565b600082601f830112612ae357600080fd5b8135612af3848260208601612a16565b91505092915050565b600081359050612b0b81614269565b92915050565b600060208284031215612b2357600080fd5b6000612b3184828501612a54565b91505092915050565b60008060408385031215612b4d57600080fd5b6000612b5b85828601612a54565b9250506020612b6c85828601612a54565b9150509250929050565b600080600060608486031215612b8b57600080fd5b6000612b9986828701612a54565b9350506020612baa86828701612a54565b9250506040612bbb86828701612afc565b9150509250925092565b60008060008060808587031215612bdb57600080fd5b6000612be987828801612a54565b9450506020612bfa87828801612a54565b9350506040612c0b87828801612afc565b925050606085013567ffffffffffffffff811115612c2857600080fd5b612c3487828801612aa8565b91505092959194509250565b60008060408385031215612c5357600080fd5b6000612c6185828601612a54565b9250506020612c7285828601612a69565b9150509250929050565b60008060408385031215612c8f57600080fd5b6000612c9d85828601612a54565b9250506020612cae85828601612afc565b9150509250929050565b600060208284031215612cca57600080fd5b6000612cd884828501612a69565b91505092915050565b600060208284031215612cf357600080fd5b6000612d0184828501612a7e565b91505092915050565b600060208284031215612d1c57600080fd5b6000612d2a84828501612a93565b91505092915050565b600080600060608486031215612d4857600080fd5b600084013567ffffffffffffffff811115612d6257600080fd5b612d6e86828701612ad2565b935050602084013567ffffffffffffffff811115612d8b57600080fd5b612d9786828701612ad2565b9250506040612da886828701612afc565b9150509250925092565b600060208284031215612dc457600080fd5b6000612dd284828501612afc565b91505092915050565b60008060408385031215612dee57600080fd5b6000612dfc85828601612afc565b9250506020612e0d85828601612afc565b9150509250929050565b612e208161395d565b82525050565b612e2f8161394b565b82525050565b612e3e8161396f565b82525050565b6000612e4f826137f3565b612e598185613809565b9350612e698185602086016139e0565b612e7281613bac565b840191505092915050565b6000612e88826137fe565b612e92818561381a565b9350612ea28185602086016139e0565b612eab81613bac565b840191505092915050565b6000612ec1826137fe565b612ecb818561382b565b9350612edb8185602086016139e0565b80840191505092915050565b6000612ef4601c8361381a565b9150612eff82613bbd565b602082019050919050565b6000612f17601f8361381a565b9150612f2282613be6565b602082019050919050565b6000612f3a60328361381a565b9150612f4582613c0f565b604082019050919050565b6000612f5d60268361381a565b9150612f6882613c5e565b604082019050919050565b6000612f8060258361381a565b9150612f8b82613cad565b604082019050919050565b6000612fa3601c8361381a565b9150612fae82613cfc565b602082019050919050565b6000612fc6601c8361381a565b9150612fd182613d25565b602082019050919050565b6000612fe960248361381a565b9150612ff482613d4e565b604082019050919050565b600061300c60198361381a565b915061301782613d9d565b602082019050919050565b600061302f60158361381a565b915061303a82613dc6565b602082019050919050565b6000613052602c8361381a565b915061305d82613def565b604082019050919050565b600061307560388361381a565b915061308082613e3e565b604082019050919050565b600061309860158361381a565b91506130a382613e8d565b602082019050919050565b60006130bb602a8361381a565b91506130c682613eb6565b604082019050919050565b60006130de60298361381a565b91506130e982613f05565b604082019050919050565b6000613101602e8361381a565b915061310c82613f54565b604082019050919050565b600061312460208361381a565b915061312f82613fa3565b602082019050919050565b600061314760148361381a565b915061315282613fcc565b602082019050919050565b600061316a60318361381a565b915061317582613ff5565b604082019050919050565b600061318d602c8361381a565b915061319882614044565b604082019050919050565b60006131b060208361381a565b91506131bb82614093565b602082019050919050565b60006131d3602f8361381a565b91506131de826140bc565b604082019050919050565b60006131f660218361381a565b91506132018261410b565b604082019050919050565b600061321960148361381a565b91506132248261415a565b602082019050919050565b600061323c60318361381a565b915061324782614183565b604082019050919050565b600061325f60148361381a565b915061326a826141d2565b602082019050919050565b6000613282601f8361381a565b915061328d826141fb565b602082019050919050565b6132a1816139c7565b82525050565b60006132b38285612eb6565b91506132bf8284612eb6565b91508190509392505050565b60006020820190506132e06000830184612e26565b92915050565b60006020820190506132fb6000830184612e17565b92915050565b60006080820190506133166000830187612e26565b6133236020830186612e26565b6133306040830185613298565b81810360608301526133428184612e44565b905095945050505050565b60006020820190506133626000830184612e35565b92915050565b600060208201905081810360008301526133828184612e7d565b905092915050565b600060208201905081810360008301526133a381612ee7565b9050919050565b600060208201905081810360008301526133c381612f0a565b9050919050565b600060208201905081810360008301526133e381612f2d565b9050919050565b6000602082019050818103600083015261340381612f50565b9050919050565b6000602082019050818103600083015261342381612f73565b9050919050565b6000602082019050818103600083015261344381612f96565b9050919050565b6000602082019050818103600083015261346381612fb9565b9050919050565b6000602082019050818103600083015261348381612fdc565b9050919050565b600060208201905081810360008301526134a381612fff565b9050919050565b600060208201905081810360008301526134c381613022565b9050919050565b600060208201905081810360008301526134e381613045565b9050919050565b6000602082019050818103600083015261350381613068565b9050919050565b600060208201905081810360008301526135238161308b565b9050919050565b60006020820190508181036000830152613543816130ae565b9050919050565b60006020820190508181036000830152613563816130d1565b9050919050565b60006020820190508181036000830152613583816130f4565b9050919050565b600060208201905081810360008301526135a381613117565b9050919050565b600060208201905081810360008301526135c38161313a565b9050919050565b600060208201905081810360008301526135e38161315d565b9050919050565b6000602082019050818103600083015261360381613180565b9050919050565b60006020820190508181036000830152613623816131a3565b9050919050565b60006020820190508181036000830152613643816131c6565b9050919050565b60006020820190508181036000830152613663816131e9565b9050919050565b600060208201905081810360008301526136838161320c565b9050919050565b600060208201905081810360008301526136a38161322f565b9050919050565b600060208201905081810360008301526136c381613252565b9050919050565b600060208201905081810360008301526136e381613275565b9050919050565b60006020820190506136ff6000830184613298565b92915050565b600060608201905061371a6000830186613298565b818103602083015261372c8185612e7d565b905061373b6040830184613298565b949350505050565b60006040820190506137586000830185613298565b6137656020830184613298565b9392505050565b6000613776613787565b90506137828282613a45565b919050565b6000604051905090565b600067ffffffffffffffff8211156137ac576137ab613b7d565b5b6137b582613bac565b9050602081019050919050565b600067ffffffffffffffff8211156137dd576137dc613b7d565b5b6137e682613bac565b9050602081019050919050565b600081519050919050565b600081519050919050565b600082825260208201905092915050565b600082825260208201905092915050565b600081905092915050565b6000613841826139c7565b915061384c836139c7565b9250827fffffffffffffffffffffffffffffffffffffffffffffffffffffffffffffffff0382111561388157613880613af0565b5b828201905092915050565b6000613897826139c7565b91506138a2836139c7565b9250826138b2576138b1613b1f565b5b828204905092915050565b60006138c8826139c7565b91506138d3836139c7565b9250817fffffffffffffffffffffffffffffffffffffffffffffffffffffffffffffffff048311821515161561390c5761390b613af0565b5b828202905092915050565b6000613922826139c7565b915061392d836139c7565b9250828210156139405761393f613af0565b5b828203905092915050565b6000613956826139a7565b9050919050565b6000613968826139a7565b9050919050565b60008115159050919050565b60007fffffffff0000000000000000000000000000000000000000000000000000000082169050919050565b600073ffffffffffffffffffffffffffffffffffffffff82169050919050565b6000819050919050565b82818337600083830152505050565b60005b838110156139fe5780820151818401526020810190506139e3565b83811115613a0d576000848401525b50505050565b60006002820490506001821680613a2b57607f821691505b60208210811415613a3f57613a3e613b4e565b5b50919050565b613a4e82613bac565b810181811067ffffffffffffffff82111715613a6d57613a6c613b7d565b5b80604052505050565b6000613a81826139c7565b91507fffffffffffffffffffffffffffffffffffffffffffffffffffffffffffffffff821415613ab457613ab3613af0565b5b600182019050919050565b6000613aca826139c7565b9150613ad5836139c7565b925082613ae557613ae4613b1f565b5b828206905092915050565b7f4e487b7100000000000000000000000000000000000000000000000000000000600052601160045260246000fd5b7f4e487b7100000000000000000000000000000000000000000000000000000000600052601260045260246000fd5b7f4e487b7100000000000000000000000000000000000000000000000000000000600052602260045260246000fd5b7f4e487b7100000000000000000000000000000000000000000000000000000000600052604160045260246000fd5b6000601f19601f8301169050919050565b7f5469636b65742068617320616c7265616479206265656e20736f6c6400000000600082015250565b7f5072696365206d7573742062652067726561746572207468616e207a65726f00600082015250565b7f4552433732313a207472616e7366657220746f206e6f6e20455243373231526560008201527f63656976657220696d706c656d656e7465720000000000000000000000000000602082015250565b7f4f776e61626c653a206e6577206f776e657220697320746865207a65726f206160008201527f6464726573730000000000000000000000000000000000000000000000000000602082015250565b7f4552433732313a207472616e736665722066726f6d20696e636f72726563742060008201527f6f776e6572000000000000000000000000000000000000000000000000000000602082015250565b7f4552433732313a20746f6b656e20616c7265616479206d696e74656400000000600082015250565b7f5469636b65742068617320616c7265616479206265656e207573656400000000600082015250565b7f4552433732313a207472616e7366657220746f20746865207a65726f2061646460008201527f7265737300000000000000000000000000000000000000000000000000000000602082015250565b7f4552433732313a20617070726f766520746f2063616c6c657200000000000000600082015250565b7f5469636b657420616c7265616479206578697374730000000000000000000000600082015250565b7f4552433732313a206f70657261746f7220717565727920666f72206e6f6e657860008201527f697374656e7420746f6b656e0000000000000000000000000000000000000000602082015250565b7f4552433732313a20617070726f76652063616c6c6572206973206e6f74206f7760008201527f6e6572206e6f7220617070726f76656420666f7220616c6c0000000000000000602082015250565b7f5469636b657420646f6573206e6f742065786973740000000000000000000000600082015250565b7f4552433732313a2062616c616e636520717565727920666f7220746865207a6560008201527f726f206164647265737300000000000000000000000000000000000000000000602082015250565b7f4552433732313a206f776e657220717565727920666f72206e6f6e657869737460008201527f656e7420746f6b656e0000000000000000000000000000000000000000000000602082015250565b7f45524337323155524953746f726167653a2055524920736574206f66206e6f6e60008201527f6578697374656e7420746f6b656e000000000000000000000000000000000000602082015250565b7f4552433732313a206d696e7420746f20746865207a65726f2061646472657373600082015250565b7f496e73756666696369656e74207061796d656e74000000000000000000000000600082015250565b7f45524337323155524953746f726167653a2055524920717565727920666f722060008201527f6e6f6e6578697374656e7420746f6b656e000000000000000000000000000000602082015250565b7f4552433732313a20617070726f76656420717565727920666f72206e6f6e657860008201527f697374656e7420746f6b656e0000000000000000000000000000000000000000602082015250565b7f4f776e61626c653a2063616c6c6572206973206e6f7420746865206f776e6572600082015250565b7f4552433732314d657461646174613a2055524920717565727920666f72206e6f60008201527f6e6578697374656e7420746f6b656e0000000000000000000000000000000000602082015250565b7f4552433732313a20617070726f76616c20746f2063757272656e74206f776e6560008201527f7200000000000000000000000000000000000000000000000000000000000000602082015250565b7f5469636b65742073616c6520697320636c6f7365000000000000000000000000600082015250565b7f4552433732313a207472616e736665722063616c6c6572206973206e6f74206f60008201527f776e6572206e6f7220617070726f766564000000000000000000000000000000602082015250565b7f4e6f7420746865207469636b6574206f776e6572000000000000000000000000600082015250565b7f5265656e7472616e637947756172643a207265656e7472616e742063616c6c00600082015250565b61422d8161394b565b811461423857600080fd5b50565b6142448161396f565b811461424f57600080fd5b50565b61425b8161397b565b811461426657600080fd5b50565b614272816139c7565b811461427d57600080fd5b5056fea26469706673582212207ab5cbddb093d21c60b3b2ebba9694438d9c8752239cb1f0ce46f609762717d964736f6c63430008040033",
  "linkReferences": {},
  "deployedLinkReferences": {}
}