{
  "_format": "hh-sol-artifact-1",
  "contractName": "NFT",
  "sourceName": "src/backend/contracts/NFT.sol",
  "abi": [
    {
      "inputs": [
        {
          "internalType": "uint256",
          "name": "_porcentajeReventa",
          "type": "uint256"
        }
      ],
      "stateMutability": "nonpayable",
      "type": "constructor"
    },
    {
      "anonymous": false,
      "inputs": [
        {
          "indexed": true,
          "internalType": "address",
          "name": "owner",
          "type": "address"
        },
        {
          "indexed": true,
          "internalType": "address",
          "name": "approved",
          "type": "address"
        },
        {
          "indexed": true,
          "internalType": "uint256",
          "name": "tokenId",
          "type": "uint256"
        }
      ],
      "name": "Approval",
      "type": "event"
    },
    {
      "anonymous": false,
      "inputs": [
        {
          "indexed": true,
          "internalType": "address",
          "name": "owner",
          "type": "address"
        },
        {
          "indexed": true,
          "internalType": "address",
          "name": "operator",
          "type": "address"
        },
        {
          "indexed": false,
          "internalType": "bool",
          "name": "approved",
          "type": "bool"
        }
      ],
      "name": "ApprovalForAll",
      "type": "event"
    },
    {
      "anonymous": false,
      "inputs": [
        {
          "indexed": false,
          "internalType": "uint256",
          "name": "idEntrada",
          "type": "uint256"
        },
        {
          "indexed": false,
          "internalType": "uint256",
          "name": "precio",
          "type": "uint256"
        },
        {
          "indexed": true,
          "internalType": "address",
          "name": "vendedor",
          "type": "address"
        },
        {
          "indexed": true,
          "internalType": "address",
          "name": "comprador",
          "type": "address"
        }
      ],
      "name": "Bought",
      "type": "event"
    },
    {
      "anonymous": false,
      "inputs": [
        {
          "indexed": false,
          "internalType": "uint256",
          "name": "idEntrada",
          "type": "uint256"
        },
        {
          "indexed": false,
          "internalType": "uint256",
          "name": "precio",
          "type": "uint256"
        },
        {
          "indexed": true,
          "internalType": "address",
          "name": "vendedor",
          "type": "address"
        }
      ],
      "name": "Offered",
      "type": "event"
    },
    {
      "anonymous": false,
      "inputs": [
        {
          "indexed": true,
          "internalType": "address",
          "name": "previousOwner",
          "type": "address"
        },
        {
          "indexed": true,
          "internalType": "address",
          "name": "newOwner",
          "type": "address"
        }
      ],
      "name": "OwnershipTransferred",
      "type": "event"
    },
    {
      "anonymous": false,
      "inputs": [
        {
          "indexed": true,
          "internalType": "address",
          "name": "from",
          "type": "address"
        },
        {
          "indexed": true,
          "internalType": "address",
          "name": "to",
          "type": "address"
        },
        {
          "indexed": true,
          "internalType": "uint256",
          "name": "tokenId",
          "type": "uint256"
        }
      ],
      "name": "Transfer",
      "type": "event"
    },
    {
      "inputs": [
        {
          "internalType": "address",
          "name": "to",
          "type": "address"
        },
        {
          "internalType": "uint256",
          "name": "tokenId",
          "type": "uint256"
        }
      ],
      "name": "approve",
      "outputs": [],
      "stateMutability": "nonpayable",
      "type": "function"
    },
    {
      "inputs": [
        {
          "internalType": "address",
          "name": "owner",
          "type": "address"
        }
      ],
      "name": "balanceOf",
      "outputs": [
        {
          "internalType": "uint256",
          "name": "",
          "type": "uint256"
        }
      ],
      "stateMutability": "view",
      "type": "function"
    },
    {
      "inputs": [],
      "name": "changeSaleState",
      "outputs": [
        {
          "internalType": "bool",
          "name": "",
          "type": "bool"
        }
      ],
      "stateMutability": "nonpayable",
      "type": "function"
    },
    {
      "inputs": [],
      "name": "cuentaMaestra",
      "outputs": [
        {
          "internalType": "address payable",
          "name": "",
          "type": "address"
        }
      ],
      "stateMutability": "view",
      "type": "function"
    },
    {
      "inputs": [
        {
          "internalType": "uint256",
          "name": "",
          "type": "uint256"
        }
      ],
      "name": "entradas",
      "outputs": [
        {
          "internalType": "uint256",
          "name": "idEntrada",
          "type": "uint256"
        },
        {
          "internalType": "string",
          "name": "descripcion",
          "type": "string"
        },
        {
          "internalType": "uint256",
          "name": "precio",
          "type": "uint256"
        },
        {
          "internalType": "uint256",
          "name": "idEvento",
          "type": "uint256"
        }
      ],
      "stateMutability": "view",
      "type": "function"
    },
    {
      "inputs": [
        {
          "internalType": "uint256",
          "name": "tokenId",
          "type": "uint256"
        }
      ],
      "name": "getApproved",
      "outputs": [
        {
          "internalType": "address",
          "name": "",
          "type": "address"
        }
      ],
      "stateMutability": "view",
      "type": "function"
    },
    {
      "inputs": [
        {
          "internalType": "uint256",
          "name": "_tokenId",
          "type": "uint256"
        }
      ],
      "name": "getEvent",
      "outputs": [
        {
          "internalType": "uint256",
          "name": "",
          "type": "uint256"
        }
      ],
      "stateMutability": "view",
      "type": "function"
    },
    {
      "inputs": [
        {
          "internalType": "uint256",
          "name": "_tokenId",
          "type": "uint256"
        }
      ],
      "name": "getOwner",
      "outputs": [
        {
          "internalType": "address",
          "name": "",
          "type": "address"
        }
      ],
      "stateMutability": "view",
      "type": "function"
    },
    {
      "inputs": [],
      "name": "getSaleState",
      "outputs": [
        {
          "internalType": "bool",
          "name": "",
          "type": "bool"
        }
      ],
      "stateMutability": "view",
      "type": "function"
    },
    {
      "inputs": [
        {
          "internalType": "uint256",
          "name": "_tokenId",
          "type": "uint256"
        }
      ],
      "name": "getTotalPrice",
      "outputs": [
        {
          "internalType": "uint256",
          "name": "",
          "type": "uint256"
        }
      ],
      "stateMutability": "view",
      "type": "function"
    },
    {
      "inputs": [
        {
          "internalType": "address",
          "name": "owner",
          "type": "address"
        },
        {
          "internalType": "address",
          "name": "operator",
          "type": "address"
        }
      ],
      "name": "isApprovedForAll",
      "outputs": [
        {
          "internalType": "bool",
          "name": "",
          "type": "bool"
        }
      ],
      "stateMutability": "view",
      "type": "function"
    },
    {
      "inputs": [
        {
          "internalType": "string",
          "name": "_tokenURI",
          "type": "string"
        },
        {
          "internalType": "string",
          "name": "_descripcion",
          "type": "string"
        },
        {
          "internalType": "uint256",
          "name": "_precio",
          "type": "uint256"
        },
        {
          "internalType": "uint256",
          "name": "_idEvento",
          "type": "uint256"
        }
      ],
      "name": "mint",
      "outputs": [
        {
          "internalType": "uint256",
          "name": "",
          "type": "uint256"
        }
      ],
      "stateMutability": "nonpayable",
      "type": "function"
    },
    {
      "inputs": [],
      "name": "name",
      "outputs": [
        {
          "internalType": "string",
          "name": "",
          "type": "string"
        }
      ],
      "stateMutability": "view",
      "type": "function"
    },
    {
      "inputs": [],
      "name": "owner",
      "outputs": [
        {
          "internalType": "address",
          "name": "",
          "type": "address"
        }
      ],
      "stateMutability": "view",
      "type": "function"
    },
    {
      "inputs": [
        {
          "internalType": "uint256",
          "name": "tokenId",
          "type": "uint256"
        }
      ],
      "name": "ownerOf",
      "outputs": [
        {
          "internalType": "address",
          "name": "",
          "type": "address"
        }
      ],
      "stateMutability": "view",
      "type": "function"
    },
    {
      "inputs": [],
      "name": "porcentajeReventa",
      "outputs": [
        {
          "internalType": "uint256",
          "name": "",
          "type": "uint256"
        }
      ],
      "stateMutability": "view",
      "type": "function"
    },
    {
      "inputs": [],
      "name": "renounceOwnership",
      "outputs": [],
      "stateMutability": "nonpayable",
      "type": "function"
    },
    {
      "inputs": [
        {
          "internalType": "address",
          "name": "from",
          "type": "address"
        },
        {
          "internalType": "address",
          "name": "to",
          "type": "address"
        },
        {
          "internalType": "uint256",
          "name": "tokenId",
          "type": "uint256"
        }
      ],
      "name": "safeTransferFrom",
      "outputs": [],
      "stateMutability": "nonpayable",
      "type": "function"
    },
    {
      "inputs": [
        {
          "internalType": "address",
          "name": "from",
          "type": "address"
        },
        {
          "internalType": "address",
          "name": "to",
          "type": "address"
        },
        {
          "internalType": "uint256",
          "name": "tokenId",
          "type": "uint256"
        },
        {
          "internalType": "bytes",
          "name": "_data",
          "type": "bytes"
        }
      ],
      "name": "safeTransferFrom",
      "outputs": [],
      "stateMutability": "nonpayable",
      "type": "function"
    },
    {
      "inputs": [
        {
          "internalType": "uint256",
          "name": "_tokenId",
          "type": "uint256"
        }
      ],
      "name": "sellTicket",
      "outputs": [],
      "stateMutability": "payable",
      "type": "function"
    },
    {
      "inputs": [
        {
          "internalType": "address",
          "name": "operator",
          "type": "address"
        },
        {
          "internalType": "bool",
          "name": "approved",
          "type": "bool"
        }
      ],
      "name": "setApprovalForAll",
      "outputs": [],
      "stateMutability": "nonpayable",
      "type": "function"
    },
    {
      "inputs": [
        {
          "internalType": "uint256",
          "name": "_tokenId",
          "type": "uint256"
        },
        {
          "internalType": "uint256",
          "name": "_newPrice",
          "type": "uint256"
        }
      ],
      "name": "setPrice",
      "outputs": [],
      "stateMutability": "nonpayable",
      "type": "function"
    },
    {
      "inputs": [
        {
          "internalType": "bytes4",
          "name": "interfaceId",
          "type": "bytes4"
        }
      ],
      "name": "supportsInterface",
      "outputs": [
        {
          "internalType": "bool",
          "name": "",
          "type": "bool"
        }
      ],
      "stateMutability": "view",
      "type": "function"
    },
    {
      "inputs": [],
      "name": "symbol",
      "outputs": [
        {
          "internalType": "string",
          "name": "",
          "type": "string"
        }
      ],
      "stateMutability": "view",
      "type": "function"
    },
    {
      "inputs": [
        {
          "internalType": "uint256",
          "name": "_tokenId",
          "type": "uint256"
        }
      ],
      "name": "ticketSold",
      "outputs": [
        {
          "internalType": "bool",
          "name": "",
          "type": "bool"
        }
      ],
      "stateMutability": "view",
      "type": "function"
    },
    {
      "inputs": [
        {
          "internalType": "uint256",
          "name": "_tokenId",
          "type": "uint256"
        }
      ],
      "name": "ticketUsed",
      "outputs": [
        {
          "internalType": "bool",
          "name": "",
          "type": "bool"
        }
      ],
      "stateMutability": "view",
      "type": "function"
    },
    {
      "inputs": [],
      "name": "tokenCount",
      "outputs": [
        {
          "internalType": "uint256",
          "name": "",
          "type": "uint256"
        }
      ],
      "stateMutability": "view",
      "type": "function"
    },
    {
      "inputs": [
        {
          "internalType": "uint256",
          "name": "tokenId",
          "type": "uint256"
        }
      ],
      "name": "tokenURI",
      "outputs": [
        {
          "internalType": "string",
          "name": "",
          "type": "string"
        }
      ],
      "stateMutability": "view",
      "type": "function"
    },
    {
      "inputs": [
        {
          "internalType": "address",
          "name": "from",
          "type": "address"
        },
        {
          "internalType": "address",
          "name": "to",
          "type": "address"
        },
        {
          "internalType": "uint256",
          "name": "tokenId",
          "type": "uint256"
        }
      ],
      "name": "transferFrom",
      "outputs": [],
      "stateMutability": "nonpayable",
      "type": "function"
    },
    {
      "inputs": [
        {
          "internalType": "address",
          "name": "newOwner",
          "type": "address"
        }
      ],
      "name": "transferOwnership",
      "outputs": [],
      "stateMutability": "nonpayable",
      "type": "function"
    },
    {
      "inputs": [
        {
          "internalType": "uint256",
          "name": "_tokenId",
          "type": "uint256"
        },
        {
          "internalType": "uint256",
          "name": "_idEvento",
          "type": "uint256"
        }
      ],
      "name": "useTicket",
      "outputs": [
        {
          "internalType": "bool",
          "name": "",
          "type": "bool"
        }
      ],
      "stateMutability": "nonpayable",
      "type": "function"
    }
  ],
  "bytecode": "0x608060405260006009553480156200001657600080fd5b5060405162004a6b38038062004a6b83398181016040528101906200003c919062000303565b6040518060400160405280600881526020017f4e465469636b65740000000000000000000000000000000000000000000000008152506040518060400160405280600681526020017f5449434b455400000000000000000000000000000000000000000000000000008152508160009080519060200190620000c09291906200023c565b508060019080519060200190620000d99291906200023c565b505050620000fc620000f06200016e60201b60201c565b6200017660201b60201c565b600160088190555080600a8190555033600b60006101000a81548173ffffffffffffffffffffffffffffffffffffffff021916908373ffffffffffffffffffffffffffffffffffffffff1602179055506001600b60146101000a81548160ff02191690831515021790555050620003b8565b600033905090565b6000600760009054906101000a900473ffffffffffffffffffffffffffffffffffffffff16905081600760006101000a81548173ffffffffffffffffffffffffffffffffffffffff021916908373ffffffffffffffffffffffffffffffffffffffff1602179055508173ffffffffffffffffffffffffffffffffffffffff168173ffffffffffffffffffffffffffffffffffffffff167f8be0079c531659141344cd1fd0a4f28419497f9722a3daafe3b4186f6b6457e060405160405180910390a35050565b8280546200024a9062000339565b90600052602060002090601f0160209004810192826200026e5760008555620002ba565b82601f106200028957805160ff1916838001178555620002ba565b82800160010185558215620002ba579182015b82811115620002b95782518255916020019190600101906200029c565b5b509050620002c99190620002cd565b5090565b5b80821115620002e8576000816000905550600101620002ce565b5090565b600081519050620002fd816200039e565b92915050565b6000602082840312156200031657600080fd5b60006200032684828501620002ec565b91505092915050565b6000819050919050565b600060028204905060018216806200035257607f821691505b602082108114156200036957620003686200036f565b5b50919050565b7f4e487b7100000000000000000000000000000000000000000000000000000000600052602260045260246000fd5b620003a9816200032f565b8114620003b557600080fd5b50565b6146a380620003c86000396000f3fe6080604052600436106101d85760003560e01c806382a6c5d211610102578063c87b56dd11610095578063e985e9c511610064578063e985e9c514610735578063f192866a14610772578063f2fde38b1461078e578063f7d97577146107b7576101d8565b8063c87b56dd14610653578063ca7dd37514610690578063d7e2e678146106cd578063dd9c1f231461070a576101d8565b8063a22cb465116100d1578063a22cb46514610587578063b88d4fde146105b0578063b9a918ce146105d9578063c41a360a14610616576101d8565b806382a6c5d2146104c95780638da5cb5b1461050657806395d89b41146105315780639f181b5e1461055c576101d8565b80633366a2bc1161017a5780636d1884e0116101495780636d1884e01461040d57806370a082311461044a578063715018a614610487578063793912811461049e576101d8565b80633366a2bc1461033f57806342842e0e1461036a5780636352211e14610393578063642b5f9b146103d0576101d8565b8063095ea7b3116101b6578063095ea7b3146102825780631d4ab540146102ab57806323b872dd146102eb57806325bdb2a814610314576101d8565b806301ffc9a7146101dd57806306fdde031461021a578063081812fc14610245575b600080fd5b3480156101e957600080fd5b5061020460048036038101906101ff9190612fa8565b6107e0565b604051610211919061364b565b60405180910390f35b34801561022657600080fd5b5061022f6108c2565b60405161023c9190613666565b60405180910390f35b34801561025157600080fd5b5061026c6004803603810190610267919061308d565b610954565b60405161027991906135c9565b60405180910390f35b34801561028e57600080fd5b506102a960048036038101906102a49190612f6c565b6109d9565b005b3480156102b757600080fd5b506102d260048036038101906102cd919061308d565b610af1565b6040516102e29493929190613a23565b60405180910390f35b3480156102f757600080fd5b50610312600480360381019061030d9190612e66565b610ba9565b005b34801561032057600080fd5b50610329610c09565b604051610336919061364b565b60405180910390f35b34801561034b57600080fd5b50610354610c20565b60405161036191906135e4565b60405180910390f35b34801561037657600080fd5b50610391600480360381019061038c9190612e66565b610c46565b005b34801561039f57600080fd5b506103ba60048036038101906103b5919061308d565b610c66565b6040516103c791906135c9565b60405180910390f35b3480156103dc57600080fd5b506103f760048036038101906103f2919061308d565b610d18565b604051610404919061364b565b60405180910390f35b34801561041957600080fd5b50610434600480360381019061042f919061308d565b610d42565b6040516104419190613a08565b60405180910390f35b34801561045657600080fd5b50610471600480360381019061046c9190612e01565b610d62565b60405161047e9190613a08565b60405180910390f35b34801561049357600080fd5b5061049c610e1a565b005b3480156104aa57600080fd5b506104b3610ea2565b6040516104c09190613a08565b60405180910390f35b3480156104d557600080fd5b506104f060048036038101906104eb919061308d565b610ea8565b6040516104fd919061364b565b60405180910390f35b34801561051257600080fd5b5061051b610ed2565b60405161052891906135c9565b60405180910390f35b34801561053d57600080fd5b50610546610efc565b6040516105539190613666565b60405180910390f35b34801561056857600080fd5b50610571610f8e565b60405161057e9190613a08565b60405180910390f35b34801561059357600080fd5b506105ae60048036038101906105a99190612f30565b610f94565b005b3480156105bc57600080fd5b506105d760048036038101906105d29190612eb5565b610faa565b005b3480156105e557600080fd5b5061060060048036038101906105fb9190612ffa565b61100c565b60405161060d9190613a08565b60405180910390f35b34801561062257600080fd5b5061063d6004803603810190610638919061308d565b6112f0565b60405161064a91906135c9565b60405180910390f35b34801561065f57600080fd5b5061067a6004803603810190610675919061308d565b611302565b6040516106879190613666565b60405180910390f35b34801561069c57600080fd5b506106b760048036038101906106b2919061308d565b611454565b6040516106c49190613a08565b60405180910390f35b3480156106d957600080fd5b506106f460048036038101906106ef91906130b6565b611499565b604051610701919061364b565b60405180910390f35b34801561071657600080fd5b5061071f611622565b60405161072c919061364b565b60405180910390f35b34801561074157600080fd5b5061075c60048036038101906107579190612e2a565b6116df565b604051610769919061364b565b60405180910390f35b61078c6004803603810190610787919061308d565b611773565b005b34801561079a57600080fd5b506107b560048036038101906107b09190612e01565b611bc7565b005b3480156107c357600080fd5b506107de60048036038101906107d991906130b6565b611cbf565b005b60007f80ac58cd000000000000000000000000000000000000000000000000000000007bffffffffffffffffffffffffffffffffffffffffffffffffffffffff1916827bffffffffffffffffffffffffffffffffffffffffffffffffffffffff191614806108ab57507f5b5e139f000000000000000000000000000000000000000000000000000000007bffffffffffffffffffffffffffffffffffffffffffffffffffffffff1916827bffffffffffffffffffffffffffffffffffffffffffffffffffffffff1916145b806108bb57506108ba82611d9c565b5b9050919050565b6060600080546108d190613d3f565b80601f01602080910402602001604051908101604052809291908181526020018280546108fd90613d3f565b801561094a5780601f1061091f5761010080835404028352916020019161094a565b820191906000526020600020905b81548152906001019060200180831161092d57829003601f168201915b5050505050905090565b600061095f82611e06565b61099e576040517f08c379a0000000000000000000000000000000000000000000000000000000008152600401610995906138c8565b60405180910390fd5b6004600083815260200190815260200160002060009054906101000a900473ffffffffffffffffffffffffffffffffffffffff169050919050565b60006109e482610c66565b90508073ffffffffffffffffffffffffffffffffffffffff168373ffffffffffffffffffffffffffffffffffffffff161415610a55576040517f08c379a0000000000000000000000000000000000000000000000000000000008152600401610a4c90613968565b60405180910390fd5b8073ffffffffffffffffffffffffffffffffffffffff16610a74611e72565b73ffffffffffffffffffffffffffffffffffffffff161480610aa35750610aa281610a9d611e72565b6116df565b5b610ae2576040517f08c379a0000000000000000000000000000000000000000000000000000000008152600401610ad990613808565b60405180910390fd5b610aec8383611e7a565b505050565b600c602052806000526040600020600091509050806000015490806001018054610b1a90613d3f565b80601f0160208091040260200160405190810160405280929190818152602001828054610b4690613d3f565b8015610b935780601f10610b6857610100808354040283529160200191610b93565b820191906000526020600020905b815481529060010190602001808311610b7657829003601f168201915b5050505050908060020154908060030154905084565b610bba610bb4611e72565b82611f33565b610bf9576040517f08c379a0000000000000000000000000000000000000000000000000000000008152600401610bf090613988565b60405180910390fd5b610c04838383612011565b505050565b6000600b60149054906101000a900460ff16905090565b600b60009054906101000a900473ffffffffffffffffffffffffffffffffffffffff1681565b610c6183838360405180602001604052806000815250610faa565b505050565b6000806002600084815260200190815260200160002060009054906101000a900473ffffffffffffffffffffffffffffffffffffffff169050600073ffffffffffffffffffffffffffffffffffffffff168173ffffffffffffffffffffffffffffffffffffffff161415610d0f576040517f08c379a0000000000000000000000000000000000000000000000000000000008152600401610d0690613848565b60405180910390fd5b80915050919050565b6000600f600083815260200190815260200160002060009054906101000a900460ff169050919050565b6000600c6000838152602001908152602001600020600301549050919050565b60008073ffffffffffffffffffffffffffffffffffffffff168273ffffffffffffffffffffffffffffffffffffffff161415610dd3576040517f08c379a0000000000000000000000000000000000000000000000000000000008152600401610dca90613828565b60405180910390fd5b600360008373ffffffffffffffffffffffffffffffffffffffff1673ffffffffffffffffffffffffffffffffffffffff168152602001908152602001600020549050919050565b610e22611e72565b73ffffffffffffffffffffffffffffffffffffffff16610e40610ed2565b73ffffffffffffffffffffffffffffffffffffffff1614610e96576040517f08c379a0000000000000000000000000000000000000000000000000000000008152600401610e8d906138e8565b60405180910390fd5b610ea06000612278565b565b600a5481565b6000600d600083815260200190815260200160002060009054906101000a900460ff169050919050565b6000600760009054906101000a900473ffffffffffffffffffffffffffffffffffffffff16905090565b606060018054610f0b90613d3f565b80601f0160208091040260200160405190810160405280929190818152602001828054610f3790613d3f565b8015610f845780601f10610f5957610100808354040283529160200191610f84565b820191906000526020600020905b815481529060010190602001808311610f6757829003601f168201915b5050505050905090565b60095481565b610fa6610f9f611e72565b838361233e565b5050565b610fbb610fb5611e72565b83611f33565b610ffa576040517f08c379a0000000000000000000000000000000000000000000000000000000008152600401610ff190613988565b60405180910390fd5b611006848484846124ab565b50505050565b600060026008541415611054576040517f08c379a000000000000000000000000000000000000000000000000000000000815260040161104b906139c8565b60405180910390fd5b6002600881905550611064611e72565b73ffffffffffffffffffffffffffffffffffffffff16611082610ed2565b73ffffffffffffffffffffffffffffffffffffffff16146110d8576040517f08c379a00000000000000000000000000000000000000000000000000000000081526004016110cf906138e8565b60405180910390fd5b600960008154809291906110eb90613da2565b91905055506110fb600954611e06565b1561113b576040517f08c379a0000000000000000000000000000000000000000000000000000000008152600401611132906139a8565b60405180910390fd5b61114733600954612507565b61115360095486612525565b61115b612bfd565b600954816000018181525050848160200181905250838160400181815250508281606001818152505080600c600060095481526020019081526020016000206000820151816000015560208201518160010190805190602001906111c0929190612c25565b5060408201518160020155606082015181600301559050506000600d6000600954815260200190815260200160002060006101000a81548160ff0219169083151502179055506000600f6000600954815260200190815260200160002060006101000a81548160ff02191690831515021790555033600e6000600954815260200190815260200160002060006101000a81548173ffffffffffffffffffffffffffffffffffffffff021916908373ffffffffffffffffffffffffffffffffffffffff1602179055503373ffffffffffffffffffffffffffffffffffffffff167f1ab3864560512bcd762f59576711bc5e90d3ef93e9253b43cd6be191b4a5814e600954866040516112d2929190613a6f565b60405180910390a26009549150506001600881905550949350505050565b60006112fb82610c66565b9050919050565b606061130d82611e06565b61134c576040517f08c379a0000000000000000000000000000000000000000000000000000000008152600401611343906138a8565b60405180910390fd5b600060066000848152602001908152602001600020805461136c90613d3f565b80601f016020809104026020016040519081016040528092919081815260200182805461139890613d3f565b80156113e55780601f106113ba576101008083540402835291602001916113e5565b820191906000526020600020905b8154815290600101906020018083116113c857829003601f168201915b5050505050905060006113f6612599565b905060008151141561140c57819250505061144f565b6000825111156114415780826040516020016114299291906135a5565b6040516020818303038152906040529250505061144f565b61144a846125b0565b925050505b919050565b60006064600a5460646114679190613b62565b600c6000858152602001908152602001600020600201546114889190613be9565b6114929190613bb8565b9050919050565b60006114a483611e06565b6114e3576040517f08c379a00000000000000000000000000000000000000000000000000000000081526004016114da906137c8565b60405180910390fd5b6114ec83610d18565b1561152c576040517f08c379a000000000000000000000000000000000000000000000000000000000815260040161152390613688565b60405180910390fd5b8161153684610d42565b14611576576040517f08c379a000000000000000000000000000000000000000000000000000000000815260040161156d906137a8565b60405180910390fd5b3373ffffffffffffffffffffffffffffffffffffffff16611596846112f0565b73ffffffffffffffffffffffffffffffffffffffff16146115ec576040517f08c379a00000000000000000000000000000000000000000000000000000000081526004016115e390613908565b60405180910390fd5b6001600f600085815260200190815260200160002060006101000a81548160ff0219169083151502179055506001905092915050565b600061162c611e72565b73ffffffffffffffffffffffffffffffffffffffff1661164a610ed2565b73ffffffffffffffffffffffffffffffffffffffff16146116a0576040517f08c379a0000000000000000000000000000000000000000000000000000000008152600401611697906138e8565b60405180910390fd5b600b60149054906101000a900460ff1615600b60146101000a81548160ff021916908315150217905550600b60149054906101000a900460ff16905090565b6000600560008473ffffffffffffffffffffffffffffffffffffffff1673ffffffffffffffffffffffffffffffffffffffff16815260200190815260200160002060008373ffffffffffffffffffffffffffffffffffffffff1673ffffffffffffffffffffffffffffffffffffffff16815260200190815260200160002060009054906101000a900460ff16905092915050565b600260085414156117b9576040517f08c379a00000000000000000000000000000000000000000000000000000000081526004016117b0906139c8565b60405180910390fd5b60026008819055506117ca81611e06565b611809576040517f08c379a0000000000000000000000000000000000000000000000000000000008152600401611800906137c8565b60405180910390fd5b61181281611454565b341015611854576040517f08c379a000000000000000000000000000000000000000000000000000000000815260040161184b906137e8565b60405180910390fd5b600d600082815260200190815260200160002060009054906101000a900460ff16156118b5576040517f08c379a00000000000000000000000000000000000000000000000000000000081526004016118ac906139e8565b60405180910390fd5b60011515600b60149054906101000a900460ff1615151461190b576040517f08c379a0000000000000000000000000000000000000000000000000000000008152600401611902906136a8565b60405180910390fd5b3373ffffffffffffffffffffffffffffffffffffffff1661192b826112f0565b73ffffffffffffffffffffffffffffffffffffffff161415611982576040517f08c379a000000000000000000000000000000000000000000000000000000000815260040161197990613948565b60405180910390fd5b600061198d82610c66565b905060003390506000600c600085815260200190815260200160002060020154905060006064600a54836119c19190613be9565b6119cb9190613bb8565b90506119d8848487612011565b6001600d600087815260200190815260200160002060006101000a81548160ff02191690831515021790555082600e600087815260200190815260200160002060006101000a81548173ffffffffffffffffffffffffffffffffffffffff021916908373ffffffffffffffffffffffffffffffffffffffff1602179055508373ffffffffffffffffffffffffffffffffffffffff166108fc8284611a7c9190613c43565b9081150290604051600060405180830381858888f19350505050158015611aa7573d6000803e3d6000fd5b50611ab0610ed2565b73ffffffffffffffffffffffffffffffffffffffff166108fc829081150290604051600060405180830381858888f19350505050158015611af5573d6000803e3d6000fd5b5081341115611b51573373ffffffffffffffffffffffffffffffffffffffff166108fc8334611b249190613c43565b9081150290604051600060405180830381858888f19350505050158015611b4f573d6000803e3d6000fd5b505b8273ffffffffffffffffffffffffffffffffffffffff168473ffffffffffffffffffffffffffffffffffffffff167f4ebd6ef39c1235e69ba7dedf24ad43bdeb57deb289d98473668070d6ca9b685e8785604051611bb0929190613a6f565b60405180910390a350505050600160088190555050565b611bcf611e72565b73ffffffffffffffffffffffffffffffffffffffff16611bed610ed2565b73ffffffffffffffffffffffffffffffffffffffff1614611c43576040517f08c379a0000000000000000000000000000000000000000000000000000000008152600401611c3a906138e8565b60405180910390fd5b600073ffffffffffffffffffffffffffffffffffffffff168173ffffffffffffffffffffffffffffffffffffffff161415611cb3576040517f08c379a0000000000000000000000000000000000000000000000000000000008152600401611caa906136e8565b60405180910390fd5b611cbc81612278565b50565b611cc882611e06565b611d07576040517f08c379a0000000000000000000000000000000000000000000000000000000008152600401611cfe906137c8565b60405180910390fd5b3373ffffffffffffffffffffffffffffffffffffffff16611d2783610c66565b73ffffffffffffffffffffffffffffffffffffffff1614611d7d576040517f08c379a0000000000000000000000000000000000000000000000000000000008152600401611d7490613908565b60405180910390fd5b80600c6000848152602001908152602001600020600201819055505050565b60007f01ffc9a7000000000000000000000000000000000000000000000000000000007bffffffffffffffffffffffffffffffffffffffffffffffffffffffff1916827bffffffffffffffffffffffffffffffffffffffffffffffffffffffff1916149050919050565b60008073ffffffffffffffffffffffffffffffffffffffff166002600084815260200190815260200160002060009054906101000a900473ffffffffffffffffffffffffffffffffffffffff1673ffffffffffffffffffffffffffffffffffffffff1614159050919050565b600033905090565b816004600083815260200190815260200160002060006101000a81548173ffffffffffffffffffffffffffffffffffffffff021916908373ffffffffffffffffffffffffffffffffffffffff160217905550808273ffffffffffffffffffffffffffffffffffffffff16611eed83610c66565b73ffffffffffffffffffffffffffffffffffffffff167f8c5be1e5ebec7d5bd14f71427d1e84f3dd0314c0f7b2291e5b200ac8c7c3b92560405160405180910390a45050565b6000611f3e82611e06565b611f7d576040517f08c379a0000000000000000000000000000000000000000000000000000000008152600401611f7490613788565b60405180910390fd5b6000611f8883610c66565b90508073ffffffffffffffffffffffffffffffffffffffff168473ffffffffffffffffffffffffffffffffffffffff161480611ff757508373ffffffffffffffffffffffffffffffffffffffff16611fdf84610954565b73ffffffffffffffffffffffffffffffffffffffff16145b80612008575061200781856116df565b5b91505092915050565b8273ffffffffffffffffffffffffffffffffffffffff1661203182610c66565b73ffffffffffffffffffffffffffffffffffffffff1614612087576040517f08c379a000000000000000000000000000000000000000000000000000000000815260040161207e90613708565b60405180910390fd5b600073ffffffffffffffffffffffffffffffffffffffff168273ffffffffffffffffffffffffffffffffffffffff1614156120f7576040517f08c379a00000000000000000000000000000000000000000000000000000000081526004016120ee90613748565b60405180910390fd5b612102838383612657565b61210d600082611e7a565b6001600360008573ffffffffffffffffffffffffffffffffffffffff1673ffffffffffffffffffffffffffffffffffffffff168152602001908152602001600020600082825461215d9190613c43565b925050819055506001600360008473ffffffffffffffffffffffffffffffffffffffff1673ffffffffffffffffffffffffffffffffffffffff16815260200190815260200160002060008282546121b49190613b62565b92505081905550816002600083815260200190815260200160002060006101000a81548173ffffffffffffffffffffffffffffffffffffffff021916908373ffffffffffffffffffffffffffffffffffffffff160217905550808273ffffffffffffffffffffffffffffffffffffffff168473ffffffffffffffffffffffffffffffffffffffff167fddf252ad1be2c89b69c2b068fc378daa952ba7f163c4a11628f55a4df523b3ef60405160405180910390a461227383838361265c565b505050565b6000600760009054906101000a900473ffffffffffffffffffffffffffffffffffffffff16905081600760006101000a81548173ffffffffffffffffffffffffffffffffffffffff021916908373ffffffffffffffffffffffffffffffffffffffff1602179055508173ffffffffffffffffffffffffffffffffffffffff168173ffffffffffffffffffffffffffffffffffffffff167f8be0079c531659141344cd1fd0a4f28419497f9722a3daafe3b4186f6b6457e060405160405180910390a35050565b8173ffffffffffffffffffffffffffffffffffffffff168373ffffffffffffffffffffffffffffffffffffffff1614156123ad576040517f08c379a00000000000000000000000000000000000000000000000000000000081526004016123a490613768565b60405180910390fd5b80600560008573ffffffffffffffffffffffffffffffffffffffff1673ffffffffffffffffffffffffffffffffffffffff16815260200190815260200160002060008473ffffffffffffffffffffffffffffffffffffffff1673ffffffffffffffffffffffffffffffffffffffff16815260200190815260200160002060006101000a81548160ff0219169083151502179055508173ffffffffffffffffffffffffffffffffffffffff168373ffffffffffffffffffffffffffffffffffffffff167f17307eab39ab6107e8899845ad3d59bd9653f200f220920489ca2b5937696c318360405161249e919061364b565b60405180910390a3505050565b6124b6848484612011565b6124c284848484612661565b612501576040517f08c379a00000000000000000000000000000000000000000000000000000000081526004016124f8906136c8565b60405180910390fd5b50505050565b6125218282604051806020016040528060008152506127f8565b5050565b61252e82611e06565b61256d576040517f08c379a000000000000000000000000000000000000000000000000000000000815260040161256490613868565b60405180910390fd5b80600660008481526020019081526020016000209080519060200190612594929190612c25565b505050565b606060405180602001604052806000815250905090565b60606125bb82611e06565b6125fa576040517f08c379a00000000000000000000000000000000000000000000000000000000081526004016125f190613928565b60405180910390fd5b6000612604612599565b90506000815111612624576040518060200160405280600081525061264f565b8061262e84612853565b60405160200161263f9291906135a5565b6040516020818303038152906040525b915050919050565b505050565b505050565b60006126828473ffffffffffffffffffffffffffffffffffffffff16612a00565b156127eb578373ffffffffffffffffffffffffffffffffffffffff1663150b7a026126ab611e72565b8786866040518563ffffffff1660e01b81526004016126cd94939291906135ff565b602060405180830381600087803b1580156126e757600080fd5b505af192505050801561271857506040513d601f19601f820116820180604052508101906127159190612fd1565b60015b61279b573d8060008114612748576040519150601f19603f3d011682016040523d82523d6000602084013e61274d565b606091505b50600081511415612793576040517f08c379a000000000000000000000000000000000000000000000000000000000815260040161278a906136c8565b60405180910390fd5b805181602001fd5b63150b7a0260e01b7bffffffffffffffffffffffffffffffffffffffffffffffffffffffff1916817bffffffffffffffffffffffffffffffffffffffffffffffffffffffff1916149150506127f0565b600190505b949350505050565b6128028383612a23565b61280f6000848484612661565b61284e576040517f08c379a0000000000000000000000000000000000000000000000000000000008152600401612845906136c8565b60405180910390fd5b505050565b6060600082141561289b576040518060400160405280600181526020017f300000000000000000000000000000000000000000000000000000000000000081525090506129fb565b600082905060005b600082146128cd5780806128b690613da2565b915050600a826128c69190613bb8565b91506128a3565b60008167ffffffffffffffff81111561290f577f4e487b7100000000000000000000000000000000000000000000000000000000600052604160045260246000fd5b6040519080825280601f01601f1916602001820160405280156129415781602001600182028036833780820191505090505b5090505b600085146129f45760018261295a9190613c43565b9150600a856129699190613deb565b60306129759190613b62565b60f81b8183815181106129b1577f4e487b7100000000000000000000000000000000000000000000000000000000600052603260045260246000fd5b60200101907effffffffffffffffffffffffffffffffffffffffffffffffffffffffffffff1916908160001a905350600a856129ed9190613bb8565b9450612945565b8093505050505b919050565b6000808273ffffffffffffffffffffffffffffffffffffffff163b119050919050565b600073ffffffffffffffffffffffffffffffffffffffff168273ffffffffffffffffffffffffffffffffffffffff161415612a93576040517f08c379a0000000000000000000000000000000000000000000000000000000008152600401612a8a90613888565b60405180910390fd5b612a9c81611e06565b15612adc576040517f08c379a0000000000000000000000000000000000000000000000000000000008152600401612ad390613728565b60405180910390fd5b612ae860008383612657565b6001600360008473ffffffffffffffffffffffffffffffffffffffff1673ffffffffffffffffffffffffffffffffffffffff1681526020019081526020016000206000828254612b389190613b62565b92505081905550816002600083815260200190815260200160002060006101000a81548173ffffffffffffffffffffffffffffffffffffffff021916908373ffffffffffffffffffffffffffffffffffffffff160217905550808273ffffffffffffffffffffffffffffffffffffffff16600073ffffffffffffffffffffffffffffffffffffffff167fddf252ad1be2c89b69c2b068fc378daa952ba7f163c4a11628f55a4df523b3ef60405160405180910390a4612bf96000838361265c565b5050565b6040518060800160405280600081526020016060815260200160008152602001600081525090565b828054612c3190613d3f565b90600052602060002090601f016020900481019282612c535760008555612c9a565b82601f10612c6c57805160ff1916838001178555612c9a565b82800160010185558215612c9a579182015b82811115612c99578251825591602001919060010190612c7e565b5b509050612ca79190612cab565b5090565b5b80821115612cc4576000816000905550600101612cac565b5090565b6000612cdb612cd684613abd565b613a98565b905082815260208101848484011115612cf357600080fd5b612cfe848285613cfd565b509392505050565b6000612d19612d1484613aee565b613a98565b905082815260208101848484011115612d3157600080fd5b612d3c848285613cfd565b509392505050565b600081359050612d5381614611565b92915050565b600081359050612d6881614628565b92915050565b600081359050612d7d8161463f565b92915050565b600081519050612d928161463f565b92915050565b600082601f830112612da957600080fd5b8135612db9848260208601612cc8565b91505092915050565b600082601f830112612dd357600080fd5b8135612de3848260208601612d06565b91505092915050565b600081359050612dfb81614656565b92915050565b600060208284031215612e1357600080fd5b6000612e2184828501612d44565b91505092915050565b60008060408385031215612e3d57600080fd5b6000612e4b85828601612d44565b9250506020612e5c85828601612d44565b9150509250929050565b600080600060608486031215612e7b57600080fd5b6000612e8986828701612d44565b9350506020612e9a86828701612d44565b9250506040612eab86828701612dec565b9150509250925092565b60008060008060808587031215612ecb57600080fd5b6000612ed987828801612d44565b9450506020612eea87828801612d44565b9350506040612efb87828801612dec565b925050606085013567ffffffffffffffff811115612f1857600080fd5b612f2487828801612d98565b91505092959194509250565b60008060408385031215612f4357600080fd5b6000612f5185828601612d44565b9250506020612f6285828601612d59565b9150509250929050565b60008060408385031215612f7f57600080fd5b6000612f8d85828601612d44565b9250506020612f9e85828601612dec565b9150509250929050565b600060208284031215612fba57600080fd5b6000612fc884828501612d6e565b91505092915050565b600060208284031215612fe357600080fd5b6000612ff184828501612d83565b91505092915050565b6000806000806080858703121561301057600080fd5b600085013567ffffffffffffffff81111561302a57600080fd5b61303687828801612dc2565b945050602085013567ffffffffffffffff81111561305357600080fd5b61305f87828801612dc2565b935050604061307087828801612dec565b925050606061308187828801612dec565b91505092959194509250565b60006020828403121561309f57600080fd5b60006130ad84828501612dec565b91505092915050565b600080604083850312156130c957600080fd5b60006130d785828601612dec565b92505060206130e885828601612dec565b9150509250929050565b6130fb81613c89565b82525050565b61310a81613c77565b82525050565b61311981613c9b565b82525050565b600061312a82613b1f565b6131348185613b35565b9350613144818560208601613d0c565b61314d81613ed8565b840191505092915050565b600061316382613b2a565b61316d8185613b46565b935061317d818560208601613d0c565b61318681613ed8565b840191505092915050565b600061319c82613b2a565b6131a68185613b57565b93506131b6818560208601613d0c565b80840191505092915050565b60006131cf602483613b46565b91506131da82613ee9565b604082019050919050565b60006131f2601c83613b46565b91506131fd82613f38565b602082019050919050565b6000613215603283613b46565b915061322082613f61565b604082019050919050565b6000613238602683613b46565b915061324382613fb0565b604082019050919050565b600061325b602583613b46565b915061326682613fff565b604082019050919050565b600061327e601c83613b46565b91506132898261404e565b602082019050919050565b60006132a1602483613b46565b91506132ac82614077565b604082019050919050565b60006132c4601983613b46565b91506132cf826140c6565b602082019050919050565b60006132e7602c83613b46565b91506132f2826140ef565b604082019050919050565b600061330a602383613b46565b91506133158261413e565b604082019050919050565b600061332d601d83613b46565b91506133388261418d565b602082019050919050565b6000613350601c83613b46565b915061335b826141b6565b602082019050919050565b6000613373603883613b46565b915061337e826141df565b604082019050919050565b6000613396602a83613b46565b91506133a18261422e565b604082019050919050565b60006133b9602983613b46565b91506133c48261427d565b604082019050919050565b60006133dc602e83613b46565b91506133e7826142cc565b604082019050919050565b60006133ff602083613b46565b915061340a8261431b565b602082019050919050565b6000613422603183613b46565b915061342d82614344565b604082019050919050565b6000613445602c83613b46565b915061345082614393565b604082019050919050565b6000613468602083613b46565b9150613473826143e2565b602082019050919050565b600061348b601c83613b46565b91506134968261440b565b602082019050919050565b60006134ae602f83613b46565b91506134b982614434565b604082019050919050565b60006134d1603583613b46565b91506134dc82614483565b604082019050919050565b60006134f4602183613b46565b91506134ff826144d2565b604082019050919050565b6000613517603183613b46565b915061352282614521565b604082019050919050565b600061353a601d83613b46565b915061354582614570565b602082019050919050565b600061355d601f83613b46565b915061356882614599565b602082019050919050565b6000613580602483613b46565b915061358b826145c2565b604082019050919050565b61359f81613cf3565b82525050565b60006135b18285613191565b91506135bd8284613191565b91508190509392505050565b60006020820190506135de6000830184613101565b92915050565b60006020820190506135f960008301846130f2565b92915050565b60006080820190506136146000830187613101565b6136216020830186613101565b61362e6040830185613596565b8181036060830152613640818461311f565b905095945050505050565b60006020820190506136606000830184613110565b92915050565b600060208201905081810360008301526136808184613158565b905092915050565b600060208201905081810360008301526136a1816131c2565b9050919050565b600060208201905081810360008301526136c1816131e5565b9050919050565b600060208201905081810360008301526136e181613208565b9050919050565b600060208201905081810360008301526137018161322b565b9050919050565b600060208201905081810360008301526137218161324e565b9050919050565b6000602082019050818103600083015261374181613271565b9050919050565b6000602082019050818103600083015261376181613294565b9050919050565b60006020820190508181036000830152613781816132b7565b9050919050565b600060208201905081810360008301526137a1816132da565b9050919050565b600060208201905081810360008301526137c1816132fd565b9050919050565b600060208201905081810360008301526137e181613320565b9050919050565b6000602082019050818103600083015261380181613343565b9050919050565b6000602082019050818103600083015261382181613366565b9050919050565b6000602082019050818103600083015261384181613389565b9050919050565b60006020820190508181036000830152613861816133ac565b9050919050565b60006020820190508181036000830152613881816133cf565b9050919050565b600060208201905081810360008301526138a1816133f2565b9050919050565b600060208201905081810360008301526138c181613415565b9050919050565b600060208201905081810360008301526138e181613438565b9050919050565b600060208201905081810360008301526139018161345b565b9050919050565b600060208201905081810360008301526139218161347e565b9050919050565b60006020820190508181036000830152613941816134a1565b9050919050565b60006020820190508181036000830152613961816134c4565b9050919050565b60006020820190508181036000830152613981816134e7565b9050919050565b600060208201905081810360008301526139a18161350a565b9050919050565b600060208201905081810360008301526139c18161352d565b9050919050565b600060208201905081810360008301526139e181613550565b9050919050565b60006020820190508181036000830152613a0181613573565b9050919050565b6000602082019050613a1d6000830184613596565b92915050565b6000608082019050613a386000830187613596565b8181036020830152613a4a8186613158565b9050613a596040830185613596565b613a666060830184613596565b95945050505050565b6000604082019050613a846000830185613596565b613a916020830184613596565b9392505050565b6000613aa2613ab3565b9050613aae8282613d71565b919050565b6000604051905090565b600067ffffffffffffffff821115613ad857613ad7613ea9565b5b613ae182613ed8565b9050602081019050919050565b600067ffffffffffffffff821115613b0957613b08613ea9565b5b613b1282613ed8565b9050602081019050919050565b600081519050919050565b600081519050919050565b600082825260208201905092915050565b600082825260208201905092915050565b600081905092915050565b6000613b6d82613cf3565b9150613b7883613cf3565b9250827fffffffffffffffffffffffffffffffffffffffffffffffffffffffffffffffff03821115613bad57613bac613e1c565b5b828201905092915050565b6000613bc382613cf3565b9150613bce83613cf3565b925082613bde57613bdd613e4b565b5b828204905092915050565b6000613bf482613cf3565b9150613bff83613cf3565b9250817fffffffffffffffffffffffffffffffffffffffffffffffffffffffffffffffff0483118215151615613c3857613c37613e1c565b5b828202905092915050565b6000613c4e82613cf3565b9150613c5983613cf3565b925082821015613c6c57613c6b613e1c565b5b828203905092915050565b6000613c8282613cd3565b9050919050565b6000613c9482613cd3565b9050919050565b60008115159050919050565b60007fffffffff0000000000000000000000000000000000000000000000000000000082169050919050565b600073ffffffffffffffffffffffffffffffffffffffff82169050919050565b6000819050919050565b82818337600083830152505050565b60005b83811015613d2a578082015181840152602081019050613d0f565b83811115613d39576000848401525b50505050565b60006002820490506001821680613d5757607f821691505b60208210811415613d6b57613d6a613e7a565b5b50919050565b613d7a82613ed8565b810181811067ffffffffffffffff82111715613d9957613d98613ea9565b5b80604052505050565b6000613dad82613cf3565b91507fffffffffffffffffffffffffffffffffffffffffffffffffffffffffffffffff821415613de057613ddf613e1c565b5b600182019050919050565b6000613df682613cf3565b9150613e0183613cf3565b925082613e1157613e10613e4b565b5b828206905092915050565b7f4e487b7100000000000000000000000000000000000000000000000000000000600052601160045260246000fd5b7f4e487b7100000000000000000000000000000000000000000000000000000000600052601260045260246000fd5b7f4e487b7100000000000000000000000000000000000000000000000000000000600052602260045260246000fd5b7f4e487b7100000000000000000000000000000000000000000000000000000000600052604160045260246000fd5b6000601f19601f8301169050919050565b7f4552433732313a205469636b65742068617320616c7265616479206265656e2060008201527f7573656400000000000000000000000000000000000000000000000000000000602082015250565b7f4552433732313a205469636b65742073616c6520697320636c6f736500000000600082015250565b7f4552433732313a207472616e7366657220746f206e6f6e20455243373231526560008201527f63656976657220696d706c656d656e7465720000000000000000000000000000602082015250565b7f4f776e61626c653a206e6577206f776e657220697320746865207a65726f206160008201527f6464726573730000000000000000000000000000000000000000000000000000602082015250565b7f4552433732313a207472616e736665722066726f6d20696e636f72726563742060008201527f6f776e6572000000000000000000000000000000000000000000000000000000602082015250565b7f4552433732313a20746f6b656e20616c7265616479206d696e74656400000000600082015250565b7f4552433732313a207472616e7366657220746f20746865207a65726f2061646460008201527f7265737300000000000000000000000000000000000000000000000000000000602082015250565b7f4552433732313a20617070726f766520746f2063616c6c657200000000000000600082015250565b7f4552433732313a206f70657261746f7220717565727920666f72206e6f6e657860008201527f697374656e7420746f6b656e0000000000000000000000000000000000000000602082015250565b7f4552433732313a204e6f742061207469636b65742066726f6d2074686520657660008201527f656e740000000000000000000000000000000000000000000000000000000000602082015250565b7f4552433732313a205469636b657420646f6573206e6f74206578697374000000600082015250565b7f4552433732313a20496e73756666696369656e74207061796d656e7400000000600082015250565b7f4552433732313a20617070726f76652063616c6c6572206973206e6f74206f7760008201527f6e6572206e6f7220617070726f76656420666f7220616c6c0000000000000000602082015250565b7f4552433732313a2062616c616e636520717565727920666f7220746865207a6560008201527f726f206164647265737300000000000000000000000000000000000000000000602082015250565b7f4552433732313a206f776e657220717565727920666f72206e6f6e657869737460008201527f656e7420746f6b656e0000000000000000000000000000000000000000000000602082015250565b7f45524337323155524953746f726167653a2055524920736574206f66206e6f6e60008201527f6578697374656e7420746f6b656e000000000000000000000000000000000000602082015250565b7f4552433732313a206d696e7420746f20746865207a65726f2061646472657373600082015250565b7f45524337323155524953746f726167653a2055524920717565727920666f722060008201527f6e6f6e6578697374656e7420746f6b656e000000000000000000000000000000602082015250565b7f4552433732313a20617070726f76656420717565727920666f72206e6f6e657860008201527f697374656e7420746f6b656e0000000000000000000000000000000000000000602082015250565b7f4f776e61626c653a2063616c6c6572206973206e6f7420746865206f776e6572600082015250565b7f4552433732313a204e6f7420746865207469636b6574206f776e657200000000600082015250565b7f4552433732314d657461646174613a2055524920717565727920666f72206e6f60008201527f6e6578697374656e7420746f6b656e0000000000000000000000000000000000602082015250565b7f4552433732313a204d73672e73656e64657220697320616c726561647920746860008201527f65206f776e6572206f6620746865207469636b65740000000000000000000000602082015250565b7f4552433732313a20617070726f76616c20746f2063757272656e74206f776e6560008201527f7200000000000000000000000000000000000000000000000000000000000000602082015250565b7f4552433732313a207472616e736665722063616c6c6572206973206e6f74206f60008201527f776e6572206e6f7220617070726f766564000000000000000000000000000000602082015250565b7f4552433732313a205469636b657420616c726561647920657869737473000000600082015250565b7f5265656e7472616e637947756172643a207265656e7472616e742063616c6c00600082015250565b7f4552433732313a205469636b65742068617320616c7265616479206265656e2060008201527f736f6c6400000000000000000000000000000000000000000000000000000000602082015250565b61461a81613c77565b811461462557600080fd5b50565b61463181613c9b565b811461463c57600080fd5b50565b61464881613ca7565b811461465357600080fd5b50565b61465f81613cf3565b811461466a57600080fd5b5056fea264697066735822122068d7e02072dc8a3871eb8fe6f2c9e58af9487b067e214a5f49a6241e50e5b2a164736f6c63430008040033",
  "linkReferences": {},
  "deployedLinkReferences": {}
}