{
  "_format": "hh-sol-artifact-1",
  "contractName": "NFT",
  "sourceName": "src/backend/contracts/NFT.sol",
  "abi": [
    {
      "inputs": [
        {
          "internalType": "uint96",
          "name": "_porcentajeReventa",
          "type": "uint96"
        }
      ],
      "stateMutability": "nonpayable",
      "type": "constructor"
    },
    {
      "anonymous": false,
      "inputs": [
        {
          "indexed": true,
          "internalType": "address",
          "name": "owner",
          "type": "address"
        },
        {
          "indexed": true,
          "internalType": "address",
          "name": "approved",
          "type": "address"
        },
        {
          "indexed": true,
          "internalType": "uint256",
          "name": "tokenId",
          "type": "uint256"
        }
      ],
      "name": "Approval",
      "type": "event"
    },
    {
      "anonymous": false,
      "inputs": [
        {
          "indexed": true,
          "internalType": "address",
          "name": "owner",
          "type": "address"
        },
        {
          "indexed": true,
          "internalType": "address",
          "name": "operator",
          "type": "address"
        },
        {
          "indexed": false,
          "internalType": "bool",
          "name": "approved",
          "type": "bool"
        }
      ],
      "name": "ApprovalForAll",
      "type": "event"
    },
    {
      "anonymous": false,
      "inputs": [
        {
          "indexed": true,
          "internalType": "address",
          "name": "previousOwner",
          "type": "address"
        },
        {
          "indexed": true,
          "internalType": "address",
          "name": "newOwner",
          "type": "address"
        }
      ],
      "name": "OwnershipTransferred",
      "type": "event"
    },
    {
      "anonymous": false,
      "inputs": [
        {
          "indexed": false,
          "internalType": "uint256",
          "name": "tokenId",
          "type": "uint256"
        },
        {
          "components": [
            {
              "internalType": "address payable",
              "name": "account",
              "type": "address"
            },
            {
              "internalType": "uint96",
              "name": "value",
              "type": "uint96"
            }
          ],
          "indexed": false,
          "internalType": "struct LibPart.Part[]",
          "name": "royalties",
          "type": "tuple[]"
        }
      ],
      "name": "RoyaltiesSet",
      "type": "event"
    },
    {
      "anonymous": false,
      "inputs": [
        {
          "indexed": true,
          "internalType": "address",
          "name": "from",
          "type": "address"
        },
        {
          "indexed": true,
          "internalType": "address",
          "name": "to",
          "type": "address"
        },
        {
          "indexed": true,
          "internalType": "uint256",
          "name": "tokenId",
          "type": "uint256"
        }
      ],
      "name": "Transfer",
      "type": "event"
    },
    {
      "inputs": [
        {
          "internalType": "address",
          "name": "to",
          "type": "address"
        },
        {
          "internalType": "uint256",
          "name": "tokenId",
          "type": "uint256"
        }
      ],
      "name": "approve",
      "outputs": [],
      "stateMutability": "nonpayable",
      "type": "function"
    },
    {
      "inputs": [
        {
          "internalType": "address",
          "name": "owner",
          "type": "address"
        }
      ],
      "name": "balanceOf",
      "outputs": [
        {
          "internalType": "uint256",
          "name": "",
          "type": "uint256"
        }
      ],
      "stateMutability": "view",
      "type": "function"
    },
    {
      "inputs": [],
      "name": "cuentaMaestra",
      "outputs": [
        {
          "internalType": "address payable",
          "name": "",
          "type": "address"
        }
      ],
      "stateMutability": "view",
      "type": "function"
    },
    {
      "inputs": [
        {
          "internalType": "uint256",
          "name": "",
          "type": "uint256"
        }
      ],
      "name": "entradas",
      "outputs": [
        {
          "internalType": "uint256",
          "name": "idEntrada",
          "type": "uint256"
        },
        {
          "internalType": "string",
          "name": "descripcion",
          "type": "string"
        }
      ],
      "stateMutability": "view",
      "type": "function"
    },
    {
      "inputs": [
        {
          "internalType": "uint256",
          "name": "",
          "type": "uint256"
        }
      ],
      "name": "entradasEventos",
      "outputs": [
        {
          "internalType": "uint256",
          "name": "idEvento",
          "type": "uint256"
        },
        {
          "internalType": "string",
          "name": "fecha",
          "type": "string"
        },
        {
          "internalType": "string",
          "name": "nombre",
          "type": "string"
        },
        {
          "internalType": "string",
          "name": "descripcion",
          "type": "string"
        }
      ],
      "stateMutability": "view",
      "type": "function"
    },
    {
      "inputs": [
        {
          "internalType": "uint256",
          "name": "tokenId",
          "type": "uint256"
        }
      ],
      "name": "getApproved",
      "outputs": [
        {
          "internalType": "address",
          "name": "",
          "type": "address"
        }
      ],
      "stateMutability": "view",
      "type": "function"
    },
    {
      "inputs": [
        {
          "internalType": "uint256",
          "name": "_tokenId",
          "type": "uint256"
        }
      ],
      "name": "getEvent",
      "outputs": [
        {
          "components": [
            {
              "internalType": "uint256",
              "name": "idEvento",
              "type": "uint256"
            },
            {
              "internalType": "string",
              "name": "fecha",
              "type": "string"
            },
            {
              "internalType": "string",
              "name": "nombre",
              "type": "string"
            },
            {
              "internalType": "string",
              "name": "descripcion",
              "type": "string"
            }
          ],
          "internalType": "struct NFT.Evento",
          "name": "",
          "type": "tuple"
        }
      ],
      "stateMutability": "view",
      "type": "function"
    },
    {
      "inputs": [
        {
          "internalType": "uint256",
          "name": "_tokenId",
          "type": "uint256"
        }
      ],
      "name": "getOwner",
      "outputs": [
        {
          "internalType": "address",
          "name": "",
          "type": "address"
        }
      ],
      "stateMutability": "view",
      "type": "function"
    },
    {
      "inputs": [
        {
          "internalType": "uint256",
          "name": "id",
          "type": "uint256"
        }
      ],
      "name": "getRaribleV2Royalties",
      "outputs": [
        {
          "components": [
            {
              "internalType": "address payable",
              "name": "account",
              "type": "address"
            },
            {
              "internalType": "uint96",
              "name": "value",
              "type": "uint96"
            }
          ],
          "internalType": "struct LibPart.Part[]",
          "name": "",
          "type": "tuple[]"
        }
      ],
      "stateMutability": "view",
      "type": "function"
    },
    {
      "inputs": [
        {
          "internalType": "address",
          "name": "owner",
          "type": "address"
        },
        {
          "internalType": "address",
          "name": "operator",
          "type": "address"
        }
      ],
      "name": "isApprovedForAll",
      "outputs": [
        {
          "internalType": "bool",
          "name": "",
          "type": "bool"
        }
      ],
      "stateMutability": "view",
      "type": "function"
    },
    {
      "inputs": [
        {
          "internalType": "address",
          "name": "_address",
          "type": "address"
        },
        {
          "internalType": "string",
          "name": "_tokenURI",
          "type": "string"
        },
        {
          "internalType": "string",
          "name": "_descripcion",
          "type": "string"
        },
        {
          "components": [
            {
              "internalType": "uint256",
              "name": "idEvento",
              "type": "uint256"
            },
            {
              "internalType": "string",
              "name": "fecha",
              "type": "string"
            },
            {
              "internalType": "string",
              "name": "nombre",
              "type": "string"
            },
            {
              "internalType": "string",
              "name": "descripcion",
              "type": "string"
            }
          ],
          "internalType": "struct NFT.Evento",
          "name": "_evento",
          "type": "tuple"
        }
      ],
      "name": "mint",
      "outputs": [
        {
          "internalType": "uint256",
          "name": "",
          "type": "uint256"
        }
      ],
      "stateMutability": "nonpayable",
      "type": "function"
    },
    {
      "inputs": [],
      "name": "name",
      "outputs": [
        {
          "internalType": "string",
          "name": "",
          "type": "string"
        }
      ],
      "stateMutability": "view",
      "type": "function"
    },
    {
      "inputs": [],
      "name": "owner",
      "outputs": [
        {
          "internalType": "address",
          "name": "",
          "type": "address"
        }
      ],
      "stateMutability": "view",
      "type": "function"
    },
    {
      "inputs": [
        {
          "internalType": "uint256",
          "name": "tokenId",
          "type": "uint256"
        }
      ],
      "name": "ownerOf",
      "outputs": [
        {
          "internalType": "address",
          "name": "",
          "type": "address"
        }
      ],
      "stateMutability": "view",
      "type": "function"
    },
    {
      "inputs": [],
      "name": "porcentajeReventa",
      "outputs": [
        {
          "internalType": "uint96",
          "name": "",
          "type": "uint96"
        }
      ],
      "stateMutability": "view",
      "type": "function"
    },
    {
      "inputs": [],
      "name": "renounceOwnership",
      "outputs": [],
      "stateMutability": "nonpayable",
      "type": "function"
    },
    {
      "inputs": [
        {
          "internalType": "uint256",
          "name": "",
          "type": "uint256"
        },
        {
          "internalType": "uint256",
          "name": "",
          "type": "uint256"
        }
      ],
      "name": "royalties",
      "outputs": [
        {
          "internalType": "address payable",
          "name": "account",
          "type": "address"
        },
        {
          "internalType": "uint96",
          "name": "value",
          "type": "uint96"
        }
      ],
      "stateMutability": "view",
      "type": "function"
    },
    {
      "inputs": [
        {
          "internalType": "uint256",
          "name": "_tokenId",
          "type": "uint256"
        },
        {
          "internalType": "uint256",
          "name": "_salePrice",
          "type": "uint256"
        }
      ],
      "name": "royaltyInfo",
      "outputs": [
        {
          "internalType": "address",
          "name": "receiver",
          "type": "address"
        },
        {
          "internalType": "uint256",
          "name": "royaltyAmount",
          "type": "uint256"
        }
      ],
      "stateMutability": "view",
      "type": "function"
    },
    {
      "inputs": [
        {
          "internalType": "address",
          "name": "from",
          "type": "address"
        },
        {
          "internalType": "address",
          "name": "to",
          "type": "address"
        },
        {
          "internalType": "uint256",
          "name": "tokenId",
          "type": "uint256"
        }
      ],
      "name": "safeTransferFrom",
      "outputs": [],
      "stateMutability": "nonpayable",
      "type": "function"
    },
    {
      "inputs": [
        {
          "internalType": "address",
          "name": "from",
          "type": "address"
        },
        {
          "internalType": "address",
          "name": "to",
          "type": "address"
        },
        {
          "internalType": "uint256",
          "name": "tokenId",
          "type": "uint256"
        },
        {
          "internalType": "bytes",
          "name": "_data",
          "type": "bytes"
        }
      ],
      "name": "safeTransferFrom",
      "outputs": [],
      "stateMutability": "nonpayable",
      "type": "function"
    },
    {
      "inputs": [
        {
          "internalType": "address",
          "name": "operator",
          "type": "address"
        },
        {
          "internalType": "bool",
          "name": "approved",
          "type": "bool"
        }
      ],
      "name": "setApprovalForAll",
      "outputs": [],
      "stateMutability": "nonpayable",
      "type": "function"
    },
    {
      "inputs": [
        {
          "internalType": "bytes4",
          "name": "interfaceId",
          "type": "bytes4"
        }
      ],
      "name": "supportsInterface",
      "outputs": [
        {
          "internalType": "bool",
          "name": "",
          "type": "bool"
        }
      ],
      "stateMutability": "view",
      "type": "function"
    },
    {
      "inputs": [],
      "name": "symbol",
      "outputs": [
        {
          "internalType": "string",
          "name": "",
          "type": "string"
        }
      ],
      "stateMutability": "view",
      "type": "function"
    },
    {
      "inputs": [
        {
          "internalType": "uint256",
          "name": "_tokenId",
          "type": "uint256"
        }
      ],
      "name": "ticketSold",
      "outputs": [
        {
          "internalType": "bool",
          "name": "",
          "type": "bool"
        }
      ],
      "stateMutability": "view",
      "type": "function"
    },
    {
      "inputs": [
        {
          "internalType": "uint256",
          "name": "_tokenId",
          "type": "uint256"
        }
      ],
      "name": "ticketUsed",
      "outputs": [
        {
          "internalType": "bool",
          "name": "",
          "type": "bool"
        }
      ],
      "stateMutability": "view",
      "type": "function"
    },
    {
      "inputs": [],
      "name": "tokenCount",
      "outputs": [
        {
          "internalType": "uint256",
          "name": "",
          "type": "uint256"
        }
      ],
      "stateMutability": "view",
      "type": "function"
    },
    {
      "inputs": [
        {
          "internalType": "uint256",
          "name": "tokenId",
          "type": "uint256"
        }
      ],
      "name": "tokenURI",
      "outputs": [
        {
          "internalType": "string",
          "name": "",
          "type": "string"
        }
      ],
      "stateMutability": "view",
      "type": "function"
    },
    {
      "inputs": [
        {
          "internalType": "address",
          "name": "_from",
          "type": "address"
        },
        {
          "internalType": "address",
          "name": "_to",
          "type": "address"
        },
        {
          "internalType": "uint256",
          "name": "_tokenId",
          "type": "uint256"
        }
      ],
      "name": "transferFrom",
      "outputs": [],
      "stateMutability": "nonpayable",
      "type": "function"
    },
    {
      "inputs": [
        {
          "internalType": "address",
          "name": "newOwner",
          "type": "address"
        }
      ],
      "name": "transferOwnership",
      "outputs": [],
      "stateMutability": "nonpayable",
      "type": "function"
    },
    {
      "inputs": [
        {
          "internalType": "uint256",
          "name": "_tokenId",
          "type": "uint256"
        },
        {
          "internalType": "uint256",
          "name": "_idEvento",
          "type": "uint256"
        }
      ],
      "name": "useTicket",
      "outputs": [
        {
          "internalType": "bool",
          "name": "",
          "type": "bool"
        }
      ],
      "stateMutability": "nonpayable",
      "type": "function"
    }
  ],
  "bytecode": "0x60806040526000600a553480156200001657600080fd5b50604051620056d6380380620056d683398181016040528101906200003c919062000312565b6040518060400160405280600881526020017f4e465469636b65740000000000000000000000000000000000000000000000008152506040518060400160405280600681526020017f5449434b455400000000000000000000000000000000000000000000000000008152508160009080519060200190620000c09291906200024b565b508060019080519060200190620000d99291906200024b565b505050620000fc620000f06200017d60201b60201c565b6200018560201b60201c565b600160088190555080600b60006101000a8154816bffffffffffffffffffffffff02191690836bffffffffffffffffffffffff16021790555033600b600c6101000a81548173ffffffffffffffffffffffffffffffffffffffff021916908373ffffffffffffffffffffffffffffffffffffffff16021790555050620003d5565b600033905090565b6000600760009054906101000a900473ffffffffffffffffffffffffffffffffffffffff16905081600760006101000a81548173ffffffffffffffffffffffffffffffffffffffff021916908373ffffffffffffffffffffffffffffffffffffffff1602179055508173ffffffffffffffffffffffffffffffffffffffff168173ffffffffffffffffffffffffffffffffffffffff167f8be0079c531659141344cd1fd0a4f28419497f9722a3daafe3b4186f6b6457e060405160405180910390a35050565b828054620002599062000356565b90600052602060002090601f0160209004810192826200027d5760008555620002c9565b82601f106200029857805160ff1916838001178555620002c9565b82800160010185558215620002c9579182015b82811115620002c8578251825591602001919060010190620002ab565b5b509050620002d89190620002dc565b5090565b5b80821115620002f7576000816000905550600101620002dd565b5090565b6000815190506200030c81620003bb565b92915050565b6000602082840312156200032557600080fd5b60006200033584828501620002fb565b91505092915050565b60006bffffffffffffffffffffffff82169050919050565b600060028204905060018216806200036f57607f821691505b602082108114156200038657620003856200038c565b5b50919050565b7f4e487b7100000000000000000000000000000000000000000000000000000000600052602260045260246000fd5b620003c6816200033e565b8114620003d257600080fd5b50565b6152f180620003e56000396000f3fe608060405234801561001057600080fd5b50600436106101da5760003560e01c80637939128111610104578063acdda9ad116100a2578063cad96cca11610071578063cad96cca146105cf578063d7e2e678146105ff578063e985e9c51461062f578063f2fde38b1461065f576101da565b8063acdda9ad14610523578063b88d4fde14610553578063c41a360a1461056f578063c87b56dd1461059f576101da565b80638da5cb5b116100de5780638da5cb5b146104ad57806395d89b41146104cb5780639f181b5e146104e9578063a22cb46514610507576101da565b8063793912811461042e57806382a6c5d21461044c5780638924af741461047c576101da565b80633366a2bc1161017c578063642b5f9b1161014b578063642b5f9b146103945780636d1884e0146103c457806370a08231146103f4578063715018a614610424576101da565b80633366a2bc146102f757806342842e0e1461031557806358ab31f3146103315780636352211e14610364576101da565b8063095ea7b3116101b8578063095ea7b31461025d5780631d4ab5401461027957806323b872dd146102aa5780632a55205a146102c6576101da565b806301ffc9a7146101df57806306fdde031461020f578063081812fc1461022d575b600080fd5b6101f960048036038101906101f491906138ce565b61067b565b6040516102069190614123565b60405180910390f35b61021761073a565b604051610224919061413e565b60405180910390f35b61024760048036038101906102429190613920565b6107cc565b604051610254919061402d565b60405180910390f35b61027760048036038101906102729190613892565b610851565b005b610293600480360381019061028e9190613920565b610969565b6040516102a192919061458d565b60405180910390f35b6102c460048036038101906102bf91906136e1565b610a15565b005b6102e060048036038101906102db9190613949565b610cb8565b6040516102ee9291906140d8565b60405180910390f35b6102ff610e8e565b60405161030c9190614048565b60405180910390f35b61032f600480360381019061032a91906136e1565b610eb4565b005b61034b60048036038101906103469190613920565b610ed4565b60405161035b94939291906145bd565b60405180910390f35b61037e60048036038101906103799190613920565b61109c565b60405161038b919061402d565b60405180910390f35b6103ae60048036038101906103a99190613920565b61114e565b6040516103bb9190614123565b60405180910390f35b6103de60048036038101906103d99190613920565b611178565b6040516103eb9190614520565b60405180910390f35b61040e6004803603810190610409919061367c565b611365565b60405161041b9190614542565b60405180910390f35b61042c61141d565b005b6104366114a5565b6040516104439190614617565b60405180910390f35b61046660048036038101906104619190613920565b6114c3565b6040516104739190614123565b60405180910390f35b61049660048036038101906104919190613949565b6114ed565b6040516104a4929190614063565b60405180910390f35b6104b5611562565b6040516104c2919061402d565b60405180910390f35b6104d361158c565b6040516104e0919061413e565b60405180910390f35b6104f161161e565b6040516104fe9190614542565b60405180910390f35b610521600480360381019061051c91906137ab565b611624565b005b61053d600480360381019061053891906137e7565b61163a565b60405161054a9190614542565b60405180910390f35b61056d60048036038101906105689190613730565b6119a5565b005b61058960048036038101906105849190613920565b611a07565b604051610596919061402d565b60405180910390f35b6105b960048036038101906105b49190613920565b611a19565b6040516105c6919061413e565b60405180910390f35b6105e960048036038101906105e49190613920565b611b6b565b6040516105f69190614101565b60405180910390f35b61061960048036038101906106149190613949565b611c6d565b6040516106269190614123565b60405180910390f35b610649600480360381019061064491906136a5565b611dfa565b6040516106569190614123565b60405180910390f35b6106796004803603810190610674919061367c565b611e8e565b005b600063cad96cca60e01b7bffffffffffffffffffffffffffffffffffffffffffffffffffffffff1916827bffffffffffffffffffffffffffffffffffffffffffffffffffffffff191614156106d35760019050610735565b632a55205a60e01b7bffffffffffffffffffffffffffffffffffffffffffffffffffffffff1916827bffffffffffffffffffffffffffffffffffffffffffffffffffffffff191614156107295760019050610735565b61073282611f86565b90505b919050565b6060600080546107499061493b565b80601f01602080910402602001604051908101604052809291908181526020018280546107759061493b565b80156107c25780601f10610797576101008083540402835291602001916107c2565b820191906000526020600020905b8154815290600101906020018083116107a557829003601f168201915b5050505050905090565b60006107d782612068565b610816576040517f08c379a000000000000000000000000000000000000000000000000000000000815260040161080d906143a0565b60405180910390fd5b6004600083815260200190815260200160002060009054906101000a900473ffffffffffffffffffffffffffffffffffffffff169050919050565b600061085c8261109c565b90508073ffffffffffffffffffffffffffffffffffffffff168373ffffffffffffffffffffffffffffffffffffffff1614156108cd576040517f08c379a00000000000000000000000000000000000000000000000000000000081526004016108c490614440565b60405180910390fd5b8073ffffffffffffffffffffffffffffffffffffffff166108ec6120d4565b73ffffffffffffffffffffffffffffffffffffffff16148061091b575061091a816109156120d4565b611dfa565b5b61095a576040517f08c379a0000000000000000000000000000000000000000000000000000000008152600401610951906142c0565b60405180910390fd5b61096483836120dc565b505050565b600c6020528060005260406000206000915090508060000154908060010180546109929061493b565b80601f01602080910402602001604051908101604052809291908181526020018280546109be9061493b565b8015610a0b5780601f106109e057610100808354040283529160200191610a0b565b820191906000526020600020905b8154815290600101906020018083116109ee57829003601f168201915b5050505050905082565b610a1e81612068565b610a5d576040517f08c379a0000000000000000000000000000000000000000000000000000000008152600401610a54906142a0565b60405180910390fd5b8173ffffffffffffffffffffffffffffffffffffffff16610a7d82611a07565b73ffffffffffffffffffffffffffffffffffffffff161415610ad4576040517f08c379a0000000000000000000000000000000000000000000000000000000008152600401610acb90614340565b60405180910390fd5b8273ffffffffffffffffffffffffffffffffffffffff16610af482611a07565b73ffffffffffffffffffffffffffffffffffffffff1614610b4a576040517f08c379a0000000000000000000000000000000000000000000000000000000008152600401610b4190614500565b60405180910390fd5b600073ffffffffffffffffffffffffffffffffffffffff168373ffffffffffffffffffffffffffffffffffffffff161415610bba576040517f08c379a0000000000000000000000000000000000000000000000000000000008152600401610bb190614460565b60405180910390fd5b600073ffffffffffffffffffffffffffffffffffffffff168273ffffffffffffffffffffffffffffffffffffffff161415610c2a576040517f08c379a0000000000000000000000000000000000000000000000000000000008152600401610c2190614420565b60405180910390fd5b610c35838383612195565b6001600e600083815260200190815260200160002060006101000a81548160ff02191690831515021790555081600f600083815260200190815260200160002060006101000a81548173ffffffffffffffffffffffffffffffffffffffff021916908373ffffffffffffffffffffffffffffffffffffffff160217905550505050565b600080600060096000868152602001908152602001600020805480602002602001604051908101604052809291908181526020016000905b82821015610db2578382906000526020600020016040518060400160405290816000820160009054906101000a900473ffffffffffffffffffffffffffffffffffffffff1673ffffffffffffffffffffffffffffffffffffffff1673ffffffffffffffffffffffffffffffffffffffff1681526020016000820160149054906101000a90046bffffffffffffffffffffffff166bffffffffffffffffffffffff166bffffffffffffffffffffffff168152505081526020019060010190610cf0565b505050509050600081511115610e7e5780600081518110610dfc577f4e487b7100000000000000000000000000000000000000000000000000000000600052603260045260246000fd5b60200260200101516000015161271082600081518110610e45577f4e487b7100000000000000000000000000000000000000000000000000000000600052603260045260246000fd5b6020026020010151602001516bffffffffffffffffffffffff1686610e6a91906147cd565b610e74919061479c565b9250925050610e87565b60008092509250505b9250929050565b600b600c9054906101000a900473ffffffffffffffffffffffffffffffffffffffff1681565b610ecf838383604051806020016040528060008152506119a5565b505050565b600d602052806000526040600020600091509050806000015490806001018054610efd9061493b565b80601f0160208091040260200160405190810160405280929190818152602001828054610f299061493b565b8015610f765780601f10610f4b57610100808354040283529160200191610f76565b820191906000526020600020905b815481529060010190602001808311610f5957829003601f168201915b505050505090806002018054610f8b9061493b565b80601f0160208091040260200160405190810160405280929190818152602001828054610fb79061493b565b80156110045780601f10610fd957610100808354040283529160200191611004565b820191906000526020600020905b815481529060010190602001808311610fe757829003601f168201915b5050505050908060030180546110199061493b565b80601f01602080910402602001604051908101604052809291908181526020018280546110459061493b565b80156110925780601f1061106757610100808354040283529160200191611092565b820191906000526020600020905b81548152906001019060200180831161107557829003601f168201915b5050505050905084565b6000806002600084815260200190815260200160002060009054906101000a900473ffffffffffffffffffffffffffffffffffffffff169050600073ffffffffffffffffffffffffffffffffffffffff168173ffffffffffffffffffffffffffffffffffffffff161415611145576040517f08c379a000000000000000000000000000000000000000000000000000000000815260040161113c90614300565b60405180910390fd5b80915050919050565b60006010600083815260200190815260200160002060009054906101000a900460ff169050919050565b611180613364565b600d6000838152602001908152602001600020604051806080016040529081600082015481526020016001820180546111b89061493b565b80601f01602080910402602001604051908101604052809291908181526020018280546111e49061493b565b80156112315780601f1061120657610100808354040283529160200191611231565b820191906000526020600020905b81548152906001019060200180831161121457829003601f168201915b5050505050815260200160028201805461124a9061493b565b80601f01602080910402602001604051908101604052809291908181526020018280546112769061493b565b80156112c35780601f10611298576101008083540402835291602001916112c3565b820191906000526020600020905b8154815290600101906020018083116112a657829003601f168201915b505050505081526020016003820180546112dc9061493b565b80601f01602080910402602001604051908101604052809291908181526020018280546113089061493b565b80156113555780601f1061132a57610100808354040283529160200191611355565b820191906000526020600020905b81548152906001019060200180831161133857829003601f168201915b5050505050815250509050919050565b60008073ffffffffffffffffffffffffffffffffffffffff168273ffffffffffffffffffffffffffffffffffffffff1614156113d6576040517f08c379a00000000000000000000000000000000000000000000000000000000081526004016113cd906142e0565b60405180910390fd5b600360008373ffffffffffffffffffffffffffffffffffffffff1673ffffffffffffffffffffffffffffffffffffffff168152602001908152602001600020549050919050565b6114256120d4565b73ffffffffffffffffffffffffffffffffffffffff16611443611562565b73ffffffffffffffffffffffffffffffffffffffff1614611499576040517f08c379a0000000000000000000000000000000000000000000000000000000008152600401611490906143c0565b60405180910390fd5b6114a360006123fc565b565b600b60009054906101000a90046bffffffffffffffffffffffff1681565b6000600e600083815260200190815260200160002060009054906101000a900460ff169050919050565b6009602052816000526040600020818154811061150957600080fd5b90600052602060002001600091509150508060000160009054906101000a900473ffffffffffffffffffffffffffffffffffffffff16908060000160149054906101000a90046bffffffffffffffffffffffff16905082565b6000600760009054906101000a900473ffffffffffffffffffffffffffffffffffffffff16905090565b60606001805461159b9061493b565b80601f01602080910402602001604051908101604052809291908181526020018280546115c79061493b565b80156116145780601f106115e957610100808354040283529160200191611614565b820191906000526020600020905b8154815290600101906020018083116115f757829003601f168201915b5050505050905090565b600a5481565b61163661162f6120d4565b83836124c2565b5050565b600060026008541415611682576040517f08c379a0000000000000000000000000000000000000000000000000000000008152600401611679906144c0565b60405180910390fd5b60026008819055506116926120d4565b73ffffffffffffffffffffffffffffffffffffffff166116b0611562565b73ffffffffffffffffffffffffffffffffffffffff1614611706576040517f08c379a00000000000000000000000000000000000000000000000000000000081526004016116fd906143c0565b60405180910390fd5b600a60008154809291906117199061499e565b9190505550611729600a54612068565b15611769576040517f08c379a0000000000000000000000000000000000000000000000000000000008152600401611760906144a0565b60405180910390fd5b61177585600a5461262f565b611781600a548561264d565b61178961338c565b600a5481600001818152505083816020018190525080600c6000600a5481526020019081526020016000206000820151816000015560208201518160010190805190602001906117da9291906133a6565b509050506117e6613364565b836000015181600001818152505083602001518160200181905250836040015181604001819052508360600151816060018190525080600d6000600a5481526020019081526020016000206000820151816000015560208201518160010190805190602001906118579291906133a6565b5060408201518160020190805190602001906118749291906133a6565b5060608201518160030190805190602001906118919291906133a6565b509050506000600e6000600a54815260200190815260200160002060006101000a81548160ff021916908315150217905550600060106000600a54815260200190815260200160002060006101000a81548160ff02191690831515021790555086600f6000600a54815260200190815260200160002060006101000a81548173ffffffffffffffffffffffffffffffffffffffff021916908373ffffffffffffffffffffffffffffffffffffffff16021790555061198e600a54600b600c9054906101000a900473ffffffffffffffffffffffffffffffffffffffff16600b60009054906101000a90046bffffffffffffffffffffffff166126c1565b600a54925050506001600881905550949350505050565b6119b66119b06120d4565b836128ae565b6119f5576040517f08c379a00000000000000000000000000000000000000000000000000000000081526004016119ec90614480565b60405180910390fd5b611a018484848461298c565b50505050565b6000611a128261109c565b9050919050565b6060611a2482612068565b611a63576040517f08c379a0000000000000000000000000000000000000000000000000000000008152600401611a5a90614380565b60405180910390fd5b6000600660008481526020019081526020016000208054611a839061493b565b80601f0160208091040260200160405190810160405280929190818152602001828054611aaf9061493b565b8015611afc5780601f10611ad157610100808354040283529160200191611afc565b820191906000526020600020905b815481529060010190602001808311611adf57829003601f168201915b505050505090506000611b0d6129e8565b9050600081511415611b23578192505050611b66565b600082511115611b58578082604051602001611b40929190614009565b60405160208183030381529060405292505050611b66565b611b61846129ff565b925050505b919050565b606060096000838152602001908152602001600020805480602002602001604051908101604052809291908181526020016000905b82821015611c62578382906000526020600020016040518060400160405290816000820160009054906101000a900473ffffffffffffffffffffffffffffffffffffffff1673ffffffffffffffffffffffffffffffffffffffff1673ffffffffffffffffffffffffffffffffffffffff1681526020016000820160149054906101000a90046bffffffffffffffffffffffff166bffffffffffffffffffffffff166bffffffffffffffffffffffff168152505081526020019060010190611ba0565b505050509050919050565b6000611c7883612068565b611cb7576040517f08c379a0000000000000000000000000000000000000000000000000000000008152600401611cae906142a0565b60405180910390fd5b611cc08361114e565b15611d00576040517f08c379a0000000000000000000000000000000000000000000000000000000008152600401611cf790614160565b60405180910390fd5b81611d0a84611178565b6000015114611d4e576040517f08c379a0000000000000000000000000000000000000000000000000000000008152600401611d4590614280565b60405180910390fd5b3373ffffffffffffffffffffffffffffffffffffffff16611d6e84611a07565b73ffffffffffffffffffffffffffffffffffffffff1614611dc4576040517f08c379a0000000000000000000000000000000000000000000000000000000008152600401611dbb906143e0565b60405180910390fd5b60016010600085815260200190815260200160002060006101000a81548160ff0219169083151502179055506001905092915050565b6000600560008473ffffffffffffffffffffffffffffffffffffffff1673ffffffffffffffffffffffffffffffffffffffff16815260200190815260200160002060008373ffffffffffffffffffffffffffffffffffffffff1673ffffffffffffffffffffffffffffffffffffffff16815260200190815260200160002060009054906101000a900460ff16905092915050565b611e966120d4565b73ffffffffffffffffffffffffffffffffffffffff16611eb4611562565b73ffffffffffffffffffffffffffffffffffffffff1614611f0a576040517f08c379a0000000000000000000000000000000000000000000000000000000008152600401611f01906143c0565b60405180910390fd5b600073ffffffffffffffffffffffffffffffffffffffff168173ffffffffffffffffffffffffffffffffffffffff161415611f7a576040517f08c379a0000000000000000000000000000000000000000000000000000000008152600401611f71906141a0565b60405180910390fd5b611f83816123fc565b50565b60007f80ac58cd000000000000000000000000000000000000000000000000000000007bffffffffffffffffffffffffffffffffffffffffffffffffffffffff1916827bffffffffffffffffffffffffffffffffffffffffffffffffffffffff1916148061205157507f5b5e139f000000000000000000000000000000000000000000000000000000007bffffffffffffffffffffffffffffffffffffffffffffffffffffffff1916827bffffffffffffffffffffffffffffffffffffffffffffffffffffffff1916145b80612061575061206082612aa6565b5b9050919050565b60008073ffffffffffffffffffffffffffffffffffffffff166002600084815260200190815260200160002060009054906101000a900473ffffffffffffffffffffffffffffffffffffffff1673ffffffffffffffffffffffffffffffffffffffff1614159050919050565b600033905090565b816004600083815260200190815260200160002060006101000a81548173ffffffffffffffffffffffffffffffffffffffff021916908373ffffffffffffffffffffffffffffffffffffffff160217905550808273ffffffffffffffffffffffffffffffffffffffff1661214f8361109c565b73ffffffffffffffffffffffffffffffffffffffff167f8c5be1e5ebec7d5bd14f71427d1e84f3dd0314c0f7b2291e5b200ac8c7c3b92560405160405180910390a45050565b8273ffffffffffffffffffffffffffffffffffffffff166121b58261109c565b73ffffffffffffffffffffffffffffffffffffffff161461220b576040517f08c379a0000000000000000000000000000000000000000000000000000000008152600401612202906141c0565b60405180910390fd5b600073ffffffffffffffffffffffffffffffffffffffff168273ffffffffffffffffffffffffffffffffffffffff16141561227b576040517f08c379a000000000000000000000000000000000000000000000000000000000815260040161227290614200565b60405180910390fd5b612286838383612b10565b6122916000826120dc565b6001600360008573ffffffffffffffffffffffffffffffffffffffff1673ffffffffffffffffffffffffffffffffffffffff16815260200190815260200160002060008282546122e19190614827565b925050819055506001600360008473ffffffffffffffffffffffffffffffffffffffff1673ffffffffffffffffffffffffffffffffffffffff16815260200190815260200160002060008282546123389190614746565b92505081905550816002600083815260200190815260200160002060006101000a81548173ffffffffffffffffffffffffffffffffffffffff021916908373ffffffffffffffffffffffffffffffffffffffff160217905550808273ffffffffffffffffffffffffffffffffffffffff168473ffffffffffffffffffffffffffffffffffffffff167fddf252ad1be2c89b69c2b068fc378daa952ba7f163c4a11628f55a4df523b3ef60405160405180910390a46123f7838383612b15565b505050565b6000600760009054906101000a900473ffffffffffffffffffffffffffffffffffffffff16905081600760006101000a81548173ffffffffffffffffffffffffffffffffffffffff021916908373ffffffffffffffffffffffffffffffffffffffff1602179055508173ffffffffffffffffffffffffffffffffffffffff168173ffffffffffffffffffffffffffffffffffffffff167f8be0079c531659141344cd1fd0a4f28419497f9722a3daafe3b4186f6b6457e060405160405180910390a35050565b8173ffffffffffffffffffffffffffffffffffffffff168373ffffffffffffffffffffffffffffffffffffffff161415612531576040517f08c379a000000000000000000000000000000000000000000000000000000000815260040161252890614220565b60405180910390fd5b80600560008573ffffffffffffffffffffffffffffffffffffffff1673ffffffffffffffffffffffffffffffffffffffff16815260200190815260200160002060008473ffffffffffffffffffffffffffffffffffffffff1673ffffffffffffffffffffffffffffffffffffffff16815260200190815260200160002060006101000a81548160ff0219169083151502179055508173ffffffffffffffffffffffffffffffffffffffff168373ffffffffffffffffffffffffffffffffffffffff167f17307eab39ab6107e8899845ad3d59bd9653f200f220920489ca2b5937696c31836040516126229190614123565b60405180910390a3505050565b612649828260405180602001604052806000815250612b1a565b5050565b61265682612068565b612695576040517f08c379a000000000000000000000000000000000000000000000000000000000815260040161268c90614320565b60405180910390fd5b806006600084815260200190815260200160002090805190602001906126bc9291906133a6565b505050565b6126c96120d4565b73ffffffffffffffffffffffffffffffffffffffff166126e7611562565b73ffffffffffffffffffffffffffffffffffffffff161461273d576040517f08c379a0000000000000000000000000000000000000000000000000000000008152600401612734906143c0565b60405180910390fd5b6000600167ffffffffffffffff811115612780577f4e487b7100000000000000000000000000000000000000000000000000000000600052604160045260246000fd5b6040519080825280602002602001820160405280156127b957816020015b6127a661342c565b81526020019060019003908161279e5790505b50905081816000815181106127f7577f4e487b7100000000000000000000000000000000000000000000000000000000600052603260045260246000fd5b6020026020010151602001906bffffffffffffffffffffffff1690816bffffffffffffffffffffffff16815250508281600081518110612860577f4e487b7100000000000000000000000000000000000000000000000000000000600052603260045260246000fd5b60200260200101516000019073ffffffffffffffffffffffffffffffffffffffff16908173ffffffffffffffffffffffffffffffffffffffff16815250506128a88482612b75565b50505050565b60006128b982612068565b6128f8576040517f08c379a00000000000000000000000000000000000000000000000000000000081526004016128ef90614240565b60405180910390fd5b60006129038361109c565b90508073ffffffffffffffffffffffffffffffffffffffff168473ffffffffffffffffffffffffffffffffffffffff16148061297257508373ffffffffffffffffffffffffffffffffffffffff1661295a846107cc565b73ffffffffffffffffffffffffffffffffffffffff16145b8061298357506129828185611dfa565b5b91505092915050565b612997848484612195565b6129a384848484612de6565b6129e2576040517f08c379a00000000000000000000000000000000000000000000000000000000081526004016129d990614180565b60405180910390fd5b50505050565b606060405180602001604052806000815250905090565b6060612a0a82612068565b612a49576040517f08c379a0000000000000000000000000000000000000000000000000000000008152600401612a4090614400565b60405180910390fd5b6000612a536129e8565b90506000815111612a735760405180602001604052806000815250612a9e565b80612a7d84612f7d565b604051602001612a8e929190614009565b6040516020818303038152906040525b915050919050565b60007f01ffc9a7000000000000000000000000000000000000000000000000000000007bffffffffffffffffffffffffffffffffffffffffffffffffffffffff1916827bffffffffffffffffffffffffffffffffffffffffffffffffffffffff1916149050919050565b505050565b505050565b612b24838361312a565b612b316000848484612de6565b612b70576040517f08c379a0000000000000000000000000000000000000000000000000000000008152600401612b6790614180565b60405180910390fd5b505050565b60005b8151811015612dd757600073ffffffffffffffffffffffffffffffffffffffff16828281518110612bd2577f4e487b7100000000000000000000000000000000000000000000000000000000600052603260045260246000fd5b60200260200101516000015173ffffffffffffffffffffffffffffffffffffffff161415612c35576040517f08c379a0000000000000000000000000000000000000000000000000000000008152600401612c2c906144e0565b60405180910390fd5b6000828281518110612c70577f4e487b7100000000000000000000000000000000000000000000000000000000600052603260045260246000fd5b6020026020010151602001516bffffffffffffffffffffffff161415612ccb576040517f08c379a0000000000000000000000000000000000000000000000000000000008152600401612cc290614260565b60405180910390fd5b60096000848152602001908152602001600020828281518110612d17577f4e487b7100000000000000000000000000000000000000000000000000000000600052603260045260246000fd5b60200260200101519080600181540180825580915050600190039060005260206000200160009091909190915060008201518160000160006101000a81548173ffffffffffffffffffffffffffffffffffffffff021916908373ffffffffffffffffffffffffffffffffffffffff16021790555060208201518160000160146101000a8154816bffffffffffffffffffffffff02191690836bffffffffffffffffffffffff16021790555050508080612dcf9061499e565b915050612b78565b50612de28282613304565b5050565b6000612e078473ffffffffffffffffffffffffffffffffffffffff16613341565b15612f70578373ffffffffffffffffffffffffffffffffffffffff1663150b7a02612e306120d4565b8786866040518563ffffffff1660e01b8152600401612e52949392919061408c565b602060405180830381600087803b158015612e6c57600080fd5b505af1925050508015612e9d57506040513d601f19601f82011682018060405250810190612e9a91906138f7565b60015b612f20573d8060008114612ecd576040519150601f19603f3d011682016040523d82523d6000602084013e612ed2565b606091505b50600081511415612f18576040517f08c379a0000000000000000000000000000000000000000000000000000000008152600401612f0f90614180565b60405180910390fd5b805181602001fd5b63150b7a0260e01b7bffffffffffffffffffffffffffffffffffffffffffffffffffffffff1916817bffffffffffffffffffffffffffffffffffffffffffffffffffffffff191614915050612f75565b600190505b949350505050565b60606000821415612fc5576040518060400160405280600181526020017f30000000000000000000000000000000000000000000000000000000000000008152509050613125565b600082905060005b60008214612ff7578080612fe09061499e565b915050600a82612ff0919061479c565b9150612fcd565b60008167ffffffffffffffff811115613039577f4e487b7100000000000000000000000000000000000000000000000000000000600052604160045260246000fd5b6040519080825280601f01601f19166020018201604052801561306b5781602001600182028036833780820191505090505b5090505b6000851461311e576001826130849190614827565b9150600a8561309391906149e7565b603061309f9190614746565b60f81b8183815181106130db577f4e487b7100000000000000000000000000000000000000000000000000000000600052603260045260246000fd5b60200101907effffffffffffffffffffffffffffffffffffffffffffffffffffffffffffff1916908160001a905350600a85613117919061479c565b945061306f565b8093505050505b919050565b600073ffffffffffffffffffffffffffffffffffffffff168273ffffffffffffffffffffffffffffffffffffffff16141561319a576040517f08c379a000000000000000000000000000000000000000000000000000000000815260040161319190614360565b60405180910390fd5b6131a381612068565b156131e3576040517f08c379a00000000000000000000000000000000000000000000000000000000081526004016131da906141e0565b60405180910390fd5b6131ef60008383612b10565b6001600360008473ffffffffffffffffffffffffffffffffffffffff1673ffffffffffffffffffffffffffffffffffffffff168152602001908152602001600020600082825461323f9190614746565b92505081905550816002600083815260200190815260200160002060006101000a81548173ffffffffffffffffffffffffffffffffffffffff021916908373ffffffffffffffffffffffffffffffffffffffff160217905550808273ffffffffffffffffffffffffffffffffffffffff16600073ffffffffffffffffffffffffffffffffffffffff167fddf252ad1be2c89b69c2b068fc378daa952ba7f163c4a11628f55a4df523b3ef60405160405180910390a461330060008383612b15565b5050565b7f3fa96d7b6bcbfe71ef171666d84db3cf52fa2d1c8afdb1cc8e486177f208b7df828260405161333592919061455d565b60405180910390a15050565b6000808273ffffffffffffffffffffffffffffffffffffffff163b119050919050565b6040518060800160405280600081526020016060815260200160608152602001606081525090565b604051806040016040528060008152602001606081525090565b8280546133b29061493b565b90600052602060002090601f0160209004810192826133d4576000855561341b565b82601f106133ed57805160ff191683800117855561341b565b8280016001018555821561341b579182015b8281111561341a5782518255916020019190600101906133ff565b5b509050613428919061346a565b5090565b6040518060400160405280600073ffffffffffffffffffffffffffffffffffffffff16815260200160006bffffffffffffffffffffffff1681525090565b5b8082111561348357600081600090555060010161346b565b5090565b600061349a61349584614657565b614632565b9050828152602081018484840111156134b257600080fd5b6134bd8482856148f9565b509392505050565b60006134d86134d384614688565b614632565b9050828152602081018484840111156134f057600080fd5b6134fb8482856148f9565b509392505050565b6000813590506135128161525f565b92915050565b60008135905061352781615276565b92915050565b60008135905061353c8161528d565b92915050565b6000815190506135518161528d565b92915050565b600082601f83011261356857600080fd5b8135613578848260208601613487565b91505092915050565b600082601f83011261359257600080fd5b81356135a28482602086016134c5565b91505092915050565b6000608082840312156135bd57600080fd5b6135c76080614632565b905060006135d784828501613667565b600083015250602082013567ffffffffffffffff8111156135f757600080fd5b61360384828501613581565b602083015250604082013567ffffffffffffffff81111561362357600080fd5b61362f84828501613581565b604083015250606082013567ffffffffffffffff81111561364f57600080fd5b61365b84828501613581565b60608301525092915050565b600081359050613676816152a4565b92915050565b60006020828403121561368e57600080fd5b600061369c84828501613503565b91505092915050565b600080604083850312156136b857600080fd5b60006136c685828601613503565b92505060206136d785828601613503565b9150509250929050565b6000806000606084860312156136f657600080fd5b600061370486828701613503565b935050602061371586828701613503565b925050604061372686828701613667565b9150509250925092565b6000806000806080858703121561374657600080fd5b600061375487828801613503565b945050602061376587828801613503565b935050604061377687828801613667565b925050606085013567ffffffffffffffff81111561379357600080fd5b61379f87828801613557565b91505092959194509250565b600080604083850312156137be57600080fd5b60006137cc85828601613503565b92505060206137dd85828601613518565b9150509250929050565b600080600080608085870312156137fd57600080fd5b600061380b87828801613503565b945050602085013567ffffffffffffffff81111561382857600080fd5b61383487828801613581565b935050604085013567ffffffffffffffff81111561385157600080fd5b61385d87828801613581565b925050606085013567ffffffffffffffff81111561387a57600080fd5b613886878288016135ab565b91505092959194509250565b600080604083850312156138a557600080fd5b60006138b385828601613503565b92505060206138c485828601613667565b9150509250929050565b6000602082840312156138e057600080fd5b60006138ee8482850161352d565b91505092915050565b60006020828403121561390957600080fd5b600061391784828501613542565b91505092915050565b60006020828403121561393257600080fd5b600061394084828501613667565b91505092915050565b6000806040838503121561395c57600080fd5b600061396a85828601613667565b925050602061397b85828601613667565b9150509250929050565b60006139918383613f9e565b60408301905092915050565b6139a68161486d565b82525050565b6139b58161486d565b82525050565b6139c48161485b565b82525050565b60006139d5826146c9565b6139df81856146f7565b93506139ea836146b9565b8060005b83811015613a1b578151613a028882613985565b9750613a0d836146ea565b9250506001810190506139ee565b5085935050505092915050565b613a318161487f565b82525050565b6000613a42826146d4565b613a4c8185614708565b9350613a5c818560208601614908565b613a6581614ad4565b840191505092915050565b6000613a7b826146df565b613a858185614719565b9350613a95818560208601614908565b613a9e81614ad4565b840191505092915050565b6000613ab4826146df565b613abe818561472a565b9350613ace818560208601614908565b613ad781614ad4565b840191505092915050565b6000613aed826146df565b613af7818561473b565b9350613b07818560208601614908565b80840191505092915050565b6000613b2060248361472a565b9150613b2b82614ae5565b604082019050919050565b6000613b4360328361472a565b9150613b4e82614b34565b604082019050919050565b6000613b6660268361472a565b9150613b7182614b83565b604082019050919050565b6000613b8960258361472a565b9150613b9482614bd2565b604082019050919050565b6000613bac601c8361472a565b9150613bb782614c21565b602082019050919050565b6000613bcf60248361472a565b9150613bda82614c4a565b604082019050919050565b6000613bf260198361472a565b9150613bfd82614c99565b602082019050919050565b6000613c15602c8361472a565b9150613c2082614cc2565b604082019050919050565b6000613c3860208361472a565b9150613c4382614d11565b602082019050919050565b6000613c5b60238361472a565b9150613c6682614d3a565b604082019050919050565b6000613c7e601d8361472a565b9150613c8982614d89565b602082019050919050565b6000613ca160388361472a565b9150613cac82614db2565b604082019050919050565b6000613cc4602a8361472a565b9150613ccf82614e01565b604082019050919050565b6000613ce760298361472a565b9150613cf282614e50565b604082019050919050565b6000613d0a602e8361472a565b9150613d1582614e9f565b604082019050919050565b6000613d2d60358361472a565b9150613d3882614eee565b604082019050919050565b6000613d5060208361472a565b9150613d5b82614f3d565b602082019050919050565b6000613d7360318361472a565b9150613d7e82614f66565b604082019050919050565b6000613d96602c8361472a565b9150613da182614fb5565b604082019050919050565b6000613db960208361472a565b9150613dc482615004565b602082019050919050565b6000613ddc601c8361472a565b9150613de78261502d565b602082019050919050565b6000613dff602f8361472a565b9150613e0a82615056565b604082019050919050565b6000613e22601a8361472a565b9150613e2d826150a5565b602082019050919050565b6000613e4560218361472a565b9150613e50826150ce565b604082019050919050565b6000613e68601c8361472a565b9150613e738261511d565b602082019050919050565b6000613e8b60318361472a565b9150613e9682615146565b604082019050919050565b6000613eae601d8361472a565b9150613eb982615195565b602082019050919050565b6000613ed1601f8361472a565b9150613edc826151be565b602082019050919050565b6000613ef4601b8361472a565b9150613eff826151e7565b602082019050919050565b6000613f1760338361472a565b9150613f2282615210565b604082019050919050565b6000608083016000830151613f456000860182613fcd565b5060208301518482036020860152613f5d8282613a70565b91505060408301518482036040860152613f778282613a70565b91505060608301518482036060860152613f918282613a70565b9150508091505092915050565b604082016000820151613fb4600085018261399d565b506020820151613fc76020850182613feb565b50505050565b613fd6816148d7565b82525050565b613fe5816148d7565b82525050565b613ff4816148e1565b82525050565b614003816148e1565b82525050565b60006140158285613ae2565b91506140218284613ae2565b91508190509392505050565b600060208201905061404260008301846139bb565b92915050565b600060208201905061405d60008301846139ac565b92915050565b600060408201905061407860008301856139ac565b6140856020830184613ffa565b9392505050565b60006080820190506140a160008301876139bb565b6140ae60208301866139bb565b6140bb6040830185613fdc565b81810360608301526140cd8184613a37565b905095945050505050565b60006040820190506140ed60008301856139bb565b6140fa6020830184613fdc565b9392505050565b6000602082019050818103600083015261411b81846139ca565b905092915050565b60006020820190506141386000830184613a28565b92915050565b600060208201905081810360008301526141588184613aa9565b905092915050565b6000602082019050818103600083015261417981613b13565b9050919050565b6000602082019050818103600083015261419981613b36565b9050919050565b600060208201905081810360008301526141b981613b59565b9050919050565b600060208201905081810360008301526141d981613b7c565b9050919050565b600060208201905081810360008301526141f981613b9f565b9050919050565b6000602082019050818103600083015261421981613bc2565b9050919050565b6000602082019050818103600083015261423981613be5565b9050919050565b6000602082019050818103600083015261425981613c08565b9050919050565b6000602082019050818103600083015261427981613c2b565b9050919050565b6000602082019050818103600083015261429981613c4e565b9050919050565b600060208201905081810360008301526142b981613c71565b9050919050565b600060208201905081810360008301526142d981613c94565b9050919050565b600060208201905081810360008301526142f981613cb7565b9050919050565b6000602082019050818103600083015261431981613cda565b9050919050565b6000602082019050818103600083015261433981613cfd565b9050919050565b6000602082019050818103600083015261435981613d20565b9050919050565b6000602082019050818103600083015261437981613d43565b9050919050565b6000602082019050818103600083015261439981613d66565b9050919050565b600060208201905081810360008301526143b981613d89565b9050919050565b600060208201905081810360008301526143d981613dac565b9050919050565b600060208201905081810360008301526143f981613dcf565b9050919050565b6000602082019050818103600083015261441981613df2565b9050919050565b6000602082019050818103600083015261443981613e15565b9050919050565b6000602082019050818103600083015261445981613e38565b9050919050565b6000602082019050818103600083015261447981613e5b565b9050919050565b6000602082019050818103600083015261449981613e7e565b9050919050565b600060208201905081810360008301526144b981613ea1565b9050919050565b600060208201905081810360008301526144d981613ec4565b9050919050565b600060208201905081810360008301526144f981613ee7565b9050919050565b6000602082019050818103600083015261451981613f0a565b9050919050565b6000602082019050818103600083015261453a8184613f2d565b905092915050565b60006020820190506145576000830184613fdc565b92915050565b60006040820190506145726000830185613fdc565b818103602083015261458481846139ca565b90509392505050565b60006040820190506145a26000830185613fdc565b81810360208301526145b48184613aa9565b90509392505050565b60006080820190506145d26000830187613fdc565b81810360208301526145e48186613aa9565b905081810360408301526145f88185613aa9565b9050818103606083015261460c8184613aa9565b905095945050505050565b600060208201905061462c6000830184613ffa565b92915050565b600061463c61464d565b9050614648828261496d565b919050565b6000604051905090565b600067ffffffffffffffff82111561467257614671614aa5565b5b61467b82614ad4565b9050602081019050919050565b600067ffffffffffffffff8211156146a3576146a2614aa5565b5b6146ac82614ad4565b9050602081019050919050565b6000819050602082019050919050565b600081519050919050565b600081519050919050565b600081519050919050565b6000602082019050919050565b600082825260208201905092915050565b600082825260208201905092915050565b600082825260208201905092915050565b600082825260208201905092915050565b600081905092915050565b6000614751826148d7565b915061475c836148d7565b9250827fffffffffffffffffffffffffffffffffffffffffffffffffffffffffffffffff0382111561479157614790614a18565b5b828201905092915050565b60006147a7826148d7565b91506147b2836148d7565b9250826147c2576147c1614a47565b5b828204905092915050565b60006147d8826148d7565b91506147e3836148d7565b9250817fffffffffffffffffffffffffffffffffffffffffffffffffffffffffffffffff048311821515161561481c5761481b614a18565b5b828202905092915050565b6000614832826148d7565b915061483d836148d7565b9250828210156148505761484f614a18565b5b828203905092915050565b6000614866826148b7565b9050919050565b6000614878826148b7565b9050919050565b60008115159050919050565b60007fffffffff0000000000000000000000000000000000000000000000000000000082169050919050565b600073ffffffffffffffffffffffffffffffffffffffff82169050919050565b6000819050919050565b60006bffffffffffffffffffffffff82169050919050565b82818337600083830152505050565b60005b8381101561492657808201518184015260208101905061490b565b83811115614935576000848401525b50505050565b6000600282049050600182168061495357607f821691505b6020821081141561496757614966614a76565b5b50919050565b61497682614ad4565b810181811067ffffffffffffffff8211171561499557614994614aa5565b5b80604052505050565b60006149a9826148d7565b91507fffffffffffffffffffffffffffffffffffffffffffffffffffffffffffffffff8214156149dc576149db614a18565b5b600182019050919050565b60006149f2826148d7565b91506149fd836148d7565b925082614a0d57614a0c614a47565b5b828206905092915050565b7f4e487b7100000000000000000000000000000000000000000000000000000000600052601160045260246000fd5b7f4e487b7100000000000000000000000000000000000000000000000000000000600052601260045260246000fd5b7f4e487b7100000000000000000000000000000000000000000000000000000000600052602260045260246000fd5b7f4e487b7100000000000000000000000000000000000000000000000000000000600052604160045260246000fd5b6000601f19601f8301169050919050565b7f4552433732313a205469636b65742068617320616c7265616479206265656e2060008201527f7573656400000000000000000000000000000000000000000000000000000000602082015250565b7f4552433732313a207472616e7366657220746f206e6f6e20455243373231526560008201527f63656976657220696d706c656d656e7465720000000000000000000000000000602082015250565b7f4f776e61626c653a206e6577206f776e657220697320746865207a65726f206160008201527f6464726573730000000000000000000000000000000000000000000000000000602082015250565b7f4552433732313a207472616e736665722066726f6d20696e636f72726563742060008201527f6f776e6572000000000000000000000000000000000000000000000000000000602082015250565b7f4552433732313a20746f6b656e20616c7265616479206d696e74656400000000600082015250565b7f4552433732313a207472616e7366657220746f20746865207a65726f2061646460008201527f7265737300000000000000000000000000000000000000000000000000000000602082015250565b7f4552433732313a20617070726f766520746f2063616c6c657200000000000000600082015250565b7f4552433732313a206f70657261746f7220717565727920666f72206e6f6e657860008201527f697374656e7420746f6b656e0000000000000000000000000000000000000000602082015250565b7f526f79616c74792076616c75652073686f756c6420626520706f736974697665600082015250565b7f4552433732313a204e6f742061207469636b65742066726f6d2074686520657660008201527f656e740000000000000000000000000000000000000000000000000000000000602082015250565b7f4552433732313a205469636b657420646f6573206e6f74206578697374000000600082015250565b7f4552433732313a20617070726f76652063616c6c6572206973206e6f74206f7760008201527f6e6572206e6f7220617070726f76656420666f7220616c6c0000000000000000602082015250565b7f4552433732313a2062616c616e636520717565727920666f7220746865207a6560008201527f726f206164647265737300000000000000000000000000000000000000000000602082015250565b7f4552433732313a206f776e657220717565727920666f72206e6f6e657869737460008201527f656e7420746f6b656e0000000000000000000000000000000000000000000000602082015250565b7f45524337323155524953746f726167653a2055524920736574206f66206e6f6e60008201527f6578697374656e7420746f6b656e000000000000000000000000000000000000602082015250565b7f4552433732313a20546f206164647265737320697320616c726561647920746860008201527f65206f776e6572206f6620746865207469636b65740000000000000000000000602082015250565b7f4552433732313a206d696e7420746f20746865207a65726f2061646472657373600082015250565b7f45524337323155524953746f726167653a2055524920717565727920666f722060008201527f6e6f6e6578697374656e7420746f6b656e000000000000000000000000000000602082015250565b7f4552433732313a20617070726f76656420717565727920666f72206e6f6e657860008201527f697374656e7420746f6b656e0000000000000000000000000000000000000000602082015250565b7f4f776e61626c653a2063616c6c6572206973206e6f7420746865206f776e6572600082015250565b7f4552433732313a204e6f7420746865207469636b6574206f776e657200000000600082015250565b7f4552433732314d657461646174613a2055524920717565727920666f72206e6f60008201527f6e6578697374656e7420746f6b656e0000000000000000000000000000000000602082015250565b7f4552433732313a20496e76616c696420746f2061646472657373000000000000600082015250565b7f4552433732313a20617070726f76616c20746f2063757272656e74206f776e6560008201527f7200000000000000000000000000000000000000000000000000000000000000602082015250565b7f4552433732313a20496e76616c69642066726f6d206164647265737300000000600082015250565b7f4552433732313a207472616e736665722063616c6c6572206973206e6f74206f60008201527f776e6572206e6f7220617070726f766564000000000000000000000000000000602082015250565b7f4552433732313a205469636b657420616c726561647920657869737473000000600082015250565b7f5265656e7472616e637947756172643a207265656e7472616e742063616c6c00600082015250565b7f526563697069656e742073686f756c642062652070726573656e740000000000600082015250565b7f4552433732313a2046726f6d2061646472657373206973206e6f74207468652060008201527f6f776e6572206f6620746865207469636b657400000000000000000000000000602082015250565b6152688161485b565b811461527357600080fd5b50565b61527f8161487f565b811461528a57600080fd5b50565b6152968161488b565b81146152a157600080fd5b50565b6152ad816148d7565b81146152b857600080fd5b5056fea26469706673582212208bdf5c84750702b6571b3c118ffbeb1100a1e2fbaee2560d7c23effc2c4c624d64736f6c63430008040033",
  "linkReferences": {},
  "deployedLinkReferences": {}
}