{
  "_format": "hh-sol-artifact-1",
  "contractName": "RoyaltiesV2Impl",
  "sourceName": "src/backend/contracts/@rarible/royalties/contracts/impl/RoyaltiesV2Impl.sol",
  "abi": [
    {
      "anonymous": false,
      "inputs": [
        {
          "indexed": false,
          "internalType": "uint256",
          "name": "tokenId",
          "type": "uint256"
        },
        {
          "components": [
            {
              "internalType": "address payable",
              "name": "account",
              "type": "address"
            },
            {
              "internalType": "uint96",
              "name": "value",
              "type": "uint96"
            }
          ],
          "indexed": false,
          "internalType": "struct LibPart.Part[]",
          "name": "royalties",
          "type": "tuple[]"
        }
      ],
      "name": "RoyaltiesSet",
      "type": "event"
    },
    {
      "inputs": [
        {
          "internalType": "uint256",
          "name": "id",
          "type": "uint256"
        }
      ],
      "name": "getRaribleV2Royalties",
      "outputs": [
        {
          "components": [
            {
              "internalType": "address payable",
              "name": "account",
              "type": "address"
            },
            {
              "internalType": "uint96",
              "name": "value",
              "type": "uint96"
            }
          ],
          "internalType": "struct LibPart.Part[]",
          "name": "",
          "type": "tuple[]"
        }
      ],
      "stateMutability": "view",
      "type": "function"
    },
    {
      "inputs": [
        {
          "internalType": "uint256",
          "name": "",
          "type": "uint256"
        },
        {
          "internalType": "uint256",
          "name": "",
          "type": "uint256"
        }
      ],
      "name": "royalties",
      "outputs": [
        {
          "internalType": "address payable",
          "name": "account",
          "type": "address"
        },
        {
          "internalType": "uint96",
          "name": "value",
          "type": "uint96"
        }
      ],
      "stateMutability": "view",
      "type": "function"
    }
  ],
  "bytecode": "0x608060405234801561001057600080fd5b50610492806100206000396000f3fe608060405234801561001057600080fd5b50600436106100365760003560e01c80638924af741461003b578063cad96cca1461006c575b600080fd5b61005560048036038101906100509190610250565b61009c565b60405161006392919061036d565b60405180910390f35b61008660048036038101906100819190610227565b610111565b6040516100939190610396565b60405180910390f35b600060205281600052604060002081815481106100b857600080fd5b90600052602060002001600091509150508060000160009054906101000a900473ffffffffffffffffffffffffffffffffffffffff16908060000160149054906101000a90046bffffffffffffffffffffffff16905082565b6060600080838152602001908152602001600020805480602002602001604051908101604052809291908181526020016000905b82821015610207578382906000526020600020016040518060400160405290816000820160009054906101000a900473ffffffffffffffffffffffffffffffffffffffff1673ffffffffffffffffffffffffffffffffffffffff1673ffffffffffffffffffffffffffffffffffffffff1681526020016000820160149054906101000a90046bffffffffffffffffffffffff166bffffffffffffffffffffffff166bffffffffffffffffffffffff168152505081526020019060010190610145565b505050509050919050565b60008135905061022181610445565b92915050565b60006020828403121561023957600080fd5b600061024784828501610212565b91505092915050565b6000806040838503121561026357600080fd5b600061027185828601610212565b925050602061028285828601610212565b9150509250929050565b60006102988383610320565b60408301905092915050565b6102ad816103f1565b82525050565b6102bc816103f1565b82525050565b60006102cd826103c8565b6102d781856103e0565b93506102e2836103b8565b8060005b838110156103135781516102fa888261028c565b9750610305836103d3565b9250506001810190506102e6565b5085935050505092915050565b60408201600082015161033660008501826102a4565b506020820151610349602085018261034f565b50505050565b6103588161042d565b82525050565b6103678161042d565b82525050565b600060408201905061038260008301856102b3565b61038f602083018461035e565b9392505050565b600060208201905081810360008301526103b081846102c2565b905092915050565b6000819050602082019050919050565b600081519050919050565b6000602082019050919050565b600082825260208201905092915050565b60006103fc82610403565b9050919050565b600073ffffffffffffffffffffffffffffffffffffffff82169050919050565b6000819050919050565b60006bffffffffffffffffffffffff82169050919050565b61044e81610423565b811461045957600080fd5b5056fea2646970667358221220705c920e1445e30c5518471d423bae5496cb91c0ac0c925030c160e30e1265fd64736f6c63430008040033",
  "linkReferences": {},
  "deployedLinkReferences": {}
}