{
  "_format": "hh-sol-artifact-1",
  "contractName": "Marketplace",
  "sourceName": "src/backend/contracts/Marketplace.sol",
  "abi": [
    {
      "inputs": [
        {
          "internalType": "uint256",
          "name": "_feePercent",
          "type": "uint256"
        }
      ],
      "stateMutability": "nonpayable",
      "type": "constructor"
    },
    {
      "anonymous": false,
      "inputs": [
        {
          "indexed": false,
          "internalType": "uint256",
          "name": "itemId",
          "type": "uint256"
        },
        {
          "indexed": true,
          "internalType": "address",
          "name": "nft",
          "type": "address"
        },
        {
          "indexed": false,
          "internalType": "uint256",
          "name": "tokenId",
          "type": "uint256"
        },
        {
          "indexed": false,
          "internalType": "uint256",
          "name": "price",
          "type": "uint256"
        },
        {
          "indexed": true,
          "internalType": "address",
          "name": "seller",
          "type": "address"
        },
        {
          "indexed": true,
          "internalType": "address",
          "name": "buyer",
          "type": "address"
        }
      ],
      "name": "Bought",
      "type": "event"
    },
    {
      "anonymous": false,
      "inputs": [
        {
          "indexed": false,
          "internalType": "uint256",
          "name": "itemId",
          "type": "uint256"
        },
        {
          "indexed": true,
          "internalType": "address",
          "name": "nft",
          "type": "address"
        },
        {
          "indexed": false,
          "internalType": "uint256",
          "name": "tokenId",
          "type": "uint256"
        },
        {
          "indexed": false,
          "internalType": "uint256",
          "name": "price",
          "type": "uint256"
        },
        {
          "indexed": true,
          "internalType": "address",
          "name": "seller",
          "type": "address"
        }
      ],
      "name": "Offered",
      "type": "event"
    },
    {
      "anonymous": false,
      "inputs": [
        {
          "indexed": true,
          "internalType": "address",
          "name": "previousOwner",
          "type": "address"
        },
        {
          "indexed": true,
          "internalType": "address",
          "name": "newOwner",
          "type": "address"
        }
      ],
      "name": "OwnershipTransferred",
      "type": "event"
    },
    {
      "inputs": [],
      "name": "feeAccount",
      "outputs": [
        {
          "internalType": "address payable",
          "name": "",
          "type": "address"
        }
      ],
      "stateMutability": "view",
      "type": "function"
    },
    {
      "inputs": [],
      "name": "feePercent",
      "outputs": [
        {
          "internalType": "uint256",
          "name": "",
          "type": "uint256"
        }
      ],
      "stateMutability": "view",
      "type": "function"
    },
    {
      "inputs": [
        {
          "internalType": "uint256",
          "name": "_itemId",
          "type": "uint256"
        }
      ],
      "name": "getTotalPrice",
      "outputs": [
        {
          "internalType": "uint256",
          "name": "",
          "type": "uint256"
        }
      ],
      "stateMutability": "view",
      "type": "function"
    },
    {
      "inputs": [],
      "name": "itemCount",
      "outputs": [
        {
          "internalType": "uint256",
          "name": "",
          "type": "uint256"
        }
      ],
      "stateMutability": "view",
      "type": "function"
    },
    {
      "inputs": [
        {
          "internalType": "uint256",
          "name": "",
          "type": "uint256"
        }
      ],
      "name": "items",
      "outputs": [
        {
          "internalType": "uint256",
          "name": "itemId",
          "type": "uint256"
        },
        {
          "internalType": "contract IERC721",
          "name": "nft",
          "type": "address"
        },
        {
          "internalType": "uint256",
          "name": "tokenId",
          "type": "uint256"
        },
        {
          "internalType": "uint256",
          "name": "price",
          "type": "uint256"
        },
        {
          "internalType": "address payable",
          "name": "seller",
          "type": "address"
        },
        {
          "internalType": "bool",
          "name": "sold",
          "type": "bool"
        }
      ],
      "stateMutability": "view",
      "type": "function"
    },
    {
      "inputs": [
        {
          "internalType": "contract IERC721",
          "name": "_nft",
          "type": "address"
        },
        {
          "internalType": "uint256",
          "name": "_tokenId",
          "type": "uint256"
        },
        {
          "internalType": "uint256",
          "name": "_price",
          "type": "uint256"
        }
      ],
      "name": "makeItem",
      "outputs": [],
      "stateMutability": "nonpayable",
      "type": "function"
    },
    {
      "inputs": [],
      "name": "owner",
      "outputs": [
        {
          "internalType": "address",
          "name": "",
          "type": "address"
        }
      ],
      "stateMutability": "view",
      "type": "function"
    },
    {
      "inputs": [
        {
          "internalType": "uint256",
          "name": "_itemId",
          "type": "uint256"
        }
      ],
      "name": "purchaseItem",
      "outputs": [],
      "stateMutability": "payable",
      "type": "function"
    },
    {
      "inputs": [],
      "name": "renounceOwnership",
      "outputs": [],
      "stateMutability": "nonpayable",
      "type": "function"
    },
    {
      "inputs": [
        {
          "internalType": "address",
          "name": "newOwner",
          "type": "address"
        }
      ],
      "name": "transferOwnership",
      "outputs": [],
      "stateMutability": "nonpayable",
      "type": "function"
    }
  ],
  "bytecode": "0x60c06040523480156200001157600080fd5b50604051620013a6380380620013a683398181016040528101906200003791906200018a565b60016000819055506200005f62000053620000a560201b60201c565b620000ad60201b60201c565b3373ffffffffffffffffffffffffffffffffffffffff1660808173ffffffffffffffffffffffffffffffffffffffff1660601b815250508060a0818152505050620001da565b600033905090565b6000600160009054906101000a900473ffffffffffffffffffffffffffffffffffffffff16905081600160006101000a81548173ffffffffffffffffffffffffffffffffffffffff021916908373ffffffffffffffffffffffffffffffffffffffff1602179055508173ffffffffffffffffffffffffffffffffffffffff168173ffffffffffffffffffffffffffffffffffffffff167f8be0079c531659141344cd1fd0a4f28419497f9722a3daafe3b4186f6b6457e060405160405180910390a35050565b6000815190506200018481620001c0565b92915050565b6000602082840312156200019d57600080fd5b6000620001ad8482850162000173565b91505092915050565b6000819050919050565b620001cb81620001b6565b8114620001d757600080fd5b50565b60805160601c60a05161119c6200020a60003960006102fa0152600081816102480152610516015261119c6000f3fe6080604052600436106100915760003560e01c8063bfb231d211610059578063bfb231d214610159578063ca7dd3751461019b578063d38ea5bf146101d8578063f2fde38b146101f4578063fa00afc71461021d57610091565b806365e17c9d146100965780636bfb0d01146100c1578063715018a6146100ec5780637fd6f15c146101035780638da5cb5b1461012e575b600080fd5b3480156100a257600080fd5b506100ab610246565b6040516100b89190610d85565b60405180910390f35b3480156100cd57600080fd5b506100d661026a565b6040516100e39190610e57565b60405180910390f35b3480156100f857600080fd5b50610101610270565b005b34801561010f57600080fd5b506101186102f8565b6040516101259190610e57565b60405180910390f35b34801561013a57600080fd5b5061014361031c565b6040516101509190610d6a565b60405180910390f35b34801561016557600080fd5b50610180600480360381019061017b9190610c6a565b610346565b60405161019296959493929190610e72565b60405180910390f35b3480156101a757600080fd5b506101c260048036038101906101bd9190610c6a565b6103cf565b6040516101cf9190610e57565b60405180910390f35b6101f260048036038101906101ed9190610c6a565b6103ef565b005b34801561020057600080fd5b5061021b60048036038101906102169190610bf2565b61071b565b005b34801561022957600080fd5b50610244600480360381019061023f9190610c1b565b610813565b005b7f000000000000000000000000000000000000000000000000000000000000000081565b60025481565b610278610ae5565b73ffffffffffffffffffffffffffffffffffffffff1661029661031c565b73ffffffffffffffffffffffffffffffffffffffff16146102ec576040517f08c379a00000000000000000000000000000000000000000000000000000000081526004016102e390610e17565b60405180910390fd5b6102f66000610aed565b565b7f000000000000000000000000000000000000000000000000000000000000000081565b6000600160009054906101000a900473ffffffffffffffffffffffffffffffffffffffff16905090565b60036020528060005260406000206000915090508060000154908060010160009054906101000a900473ffffffffffffffffffffffffffffffffffffffff16908060020154908060030154908060040160009054906101000a900473ffffffffffffffffffffffffffffffffffffffff16908060040160149054906101000a900460ff16905086565b600060036000838152602001908152602001600020600301549050919050565b60026000541415610435576040517f08c379a000000000000000000000000000000000000000000000000000000000815260040161042c90610e37565b60405180910390fd5b60026000819055506000610448826103cf565b9050600060036000848152602001908152602001600020905060008311801561047357506002548311155b61047c57600080fd5b8134101561048957600080fd5b8060040160149054906101000a900460ff16156104a557600080fd5b8060040160009054906101000a900473ffffffffffffffffffffffffffffffffffffffff1673ffffffffffffffffffffffffffffffffffffffff166108fc82600301549081150290604051600060405180830381858888f19350505050158015610513573d6000803e3d6000fd5b507f000000000000000000000000000000000000000000000000000000000000000073ffffffffffffffffffffffffffffffffffffffff166108fc82600301548461055e9190610f1b565b9081150290604051600060405180830381858888f19350505050158015610589573d6000803e3d6000fd5b5060018160040160146101000a81548160ff0219169083151502179055508060010160009054906101000a900473ffffffffffffffffffffffffffffffffffffffff1673ffffffffffffffffffffffffffffffffffffffff166323b872dd303384600201546040518463ffffffff1660e01b815260040161060c93929190610da0565b600060405180830381600087803b15801561062657600080fd5b505af115801561063a573d6000803e3d6000fd5b505050503373ffffffffffffffffffffffffffffffffffffffff168160040160009054906101000a900473ffffffffffffffffffffffffffffffffffffffff1673ffffffffffffffffffffffffffffffffffffffff168260010160009054906101000a900473ffffffffffffffffffffffffffffffffffffffff1673ffffffffffffffffffffffffffffffffffffffff167f8b4c9c8a607d67b321582dd8461041b1dc2ceeca70c8b7f37f8e02095cf2e76d868560020154866003015460405161070693929190610ed3565b60405180910390a45050600160008190555050565b610723610ae5565b73ffffffffffffffffffffffffffffffffffffffff1661074161031c565b73ffffffffffffffffffffffffffffffffffffffff1614610797576040517f08c379a000000000000000000000000000000000000000000000000000000000815260040161078e90610e17565b60405180910390fd5b600073ffffffffffffffffffffffffffffffffffffffff168173ffffffffffffffffffffffffffffffffffffffff161415610807576040517f08c379a00000000000000000000000000000000000000000000000000000000081526004016107fe90610df7565b60405180910390fd5b61081081610aed565b50565b60026000541415610859576040517f08c379a000000000000000000000000000000000000000000000000000000000815260040161085090610e37565b60405180910390fd5b6002600081905550600081116108a4576040517f08c379a000000000000000000000000000000000000000000000000000000000815260040161089b90610dd7565b60405180910390fd5b600260008154809291906108b790610fdf565b91905055508273ffffffffffffffffffffffffffffffffffffffff166323b872dd3330856040518463ffffffff1660e01b81526004016108f993929190610da0565b600060405180830381600087803b15801561091357600080fd5b505af1158015610927573d6000803e3d6000fd5b505050506040518060c0016040528060025481526020018473ffffffffffffffffffffffffffffffffffffffff1681526020018381526020018281526020013373ffffffffffffffffffffffffffffffffffffffff168152602001600015158152506003600060025481526020019081526020016000206000820151816000015560208201518160010160006101000a81548173ffffffffffffffffffffffffffffffffffffffff021916908373ffffffffffffffffffffffffffffffffffffffff160217905550604082015181600201556060820151816003015560808201518160040160006101000a81548173ffffffffffffffffffffffffffffffffffffffff021916908373ffffffffffffffffffffffffffffffffffffffff16021790555060a08201518160040160146101000a81548160ff0219169083151502179055509050503373ffffffffffffffffffffffffffffffffffffffff168373ffffffffffffffffffffffffffffffffffffffff167f655a0cf9c8db81512be9a76dc1c5ae5380b8816ce6ad659cd61b715e2999d59a6002548585604051610ad093929190610ed3565b60405180910390a36001600081905550505050565b600033905090565b6000600160009054906101000a900473ffffffffffffffffffffffffffffffffffffffff16905081600160006101000a81548173ffffffffffffffffffffffffffffffffffffffff021916908373ffffffffffffffffffffffffffffffffffffffff1602179055508173ffffffffffffffffffffffffffffffffffffffff168173ffffffffffffffffffffffffffffffffffffffff167f8be0079c531659141344cd1fd0a4f28419497f9722a3daafe3b4186f6b6457e060405160405180910390a35050565b600081359050610bc281611121565b92915050565b600081359050610bd781611138565b92915050565b600081359050610bec8161114f565b92915050565b600060208284031215610c0457600080fd5b6000610c1284828501610bb3565b91505092915050565b600080600060608486031215610c3057600080fd5b6000610c3e86828701610bc8565b9350506020610c4f86828701610bdd565b9250506040610c6086828701610bdd565b9150509250925092565b600060208284031215610c7c57600080fd5b6000610c8a84828501610bdd565b91505092915050565b610c9c81610f61565b82525050565b610cab81610f4f565b82525050565b610cba81610f73565b82525050565b610cc981610fbb565b82525050565b6000610cdc601f83610f0a565b9150610ce782611057565b602082019050919050565b6000610cff602683610f0a565b9150610d0a82611080565b604082019050919050565b6000610d22602083610f0a565b9150610d2d826110cf565b602082019050919050565b6000610d45601f83610f0a565b9150610d50826110f8565b602082019050919050565b610d6481610fb1565b82525050565b6000602082019050610d7f6000830184610ca2565b92915050565b6000602082019050610d9a6000830184610c93565b92915050565b6000606082019050610db56000830186610ca2565b610dc26020830185610ca2565b610dcf6040830184610d5b565b949350505050565b60006020820190508181036000830152610df081610ccf565b9050919050565b60006020820190508181036000830152610e1081610cf2565b9050919050565b60006020820190508181036000830152610e3081610d15565b9050919050565b60006020820190508181036000830152610e5081610d38565b9050919050565b6000602082019050610e6c6000830184610d5b565b92915050565b600060c082019050610e876000830189610d5b565b610e946020830188610cc0565b610ea16040830187610d5b565b610eae6060830186610d5b565b610ebb6080830185610c93565b610ec860a0830184610cb1565b979650505050505050565b6000606082019050610ee86000830186610d5b565b610ef56020830185610d5b565b610f026040830184610d5b565b949350505050565b600082825260208201905092915050565b6000610f2682610fb1565b9150610f3183610fb1565b925082821015610f4457610f43611028565b5b828203905092915050565b6000610f5a82610f91565b9050919050565b6000610f6c82610f91565b9050919050565b60008115159050919050565b6000610f8a82610f4f565b9050919050565b600073ffffffffffffffffffffffffffffffffffffffff82169050919050565b6000819050919050565b6000610fc682610fcd565b9050919050565b6000610fd882610f91565b9050919050565b6000610fea82610fb1565b91507fffffffffffffffffffffffffffffffffffffffffffffffffffffffffffffffff82141561101d5761101c611028565b5b600182019050919050565b7f4e487b7100000000000000000000000000000000000000000000000000000000600052601160045260246000fd5b7f5072696365206d7573742062652067726561746572207468616e207a65726f00600082015250565b7f4f776e61626c653a206e6577206f776e657220697320746865207a65726f206160008201527f6464726573730000000000000000000000000000000000000000000000000000602082015250565b7f4f776e61626c653a2063616c6c6572206973206e6f7420746865206f776e6572600082015250565b7f5265656e7472616e637947756172643a207265656e7472616e742063616c6c00600082015250565b61112a81610f4f565b811461113557600080fd5b50565b61114181610f7f565b811461114c57600080fd5b50565b61115881610fb1565b811461116357600080fd5b5056fea2646970667358221220c3697b90dc68729b085e629d48e0bfccec89ff7a32d0ce18a5bfdded87c3afb864736f6c63430008040033",
  "linkReferences": {},
  "deployedLinkReferences": {}
}