{
  "_format": "hh-sol-artifact-1",
  "contractName": "NFT",
  "sourceName": "src/backend/contracts/NFT.sol",
  "abi": [
    {
      "inputs": [
        {
          "internalType": "uint256",
          "name": "_porcentajeReventa",
          "type": "uint256"
        }
      ],
      "stateMutability": "nonpayable",
      "type": "constructor"
    },
    {
      "anonymous": false,
      "inputs": [
        {
          "indexed": true,
          "internalType": "address",
          "name": "owner",
          "type": "address"
        },
        {
          "indexed": true,
          "internalType": "address",
          "name": "approved",
          "type": "address"
        },
        {
          "indexed": true,
          "internalType": "uint256",
          "name": "tokenId",
          "type": "uint256"
        }
      ],
      "name": "Approval",
      "type": "event"
    },
    {
      "anonymous": false,
      "inputs": [
        {
          "indexed": true,
          "internalType": "address",
          "name": "owner",
          "type": "address"
        },
        {
          "indexed": true,
          "internalType": "address",
          "name": "operator",
          "type": "address"
        },
        {
          "indexed": false,
          "internalType": "bool",
          "name": "approved",
          "type": "bool"
        }
      ],
      "name": "ApprovalForAll",
      "type": "event"
    },
    {
      "anonymous": false,
      "inputs": [
        {
          "indexed": false,
          "internalType": "uint256",
          "name": "idEntrada",
          "type": "uint256"
        },
        {
          "indexed": false,
          "internalType": "uint256",
          "name": "precio",
          "type": "uint256"
        },
        {
          "indexed": true,
          "internalType": "address",
          "name": "vendedor",
          "type": "address"
        },
        {
          "indexed": true,
          "internalType": "address",
          "name": "comprador",
          "type": "address"
        }
      ],
      "name": "Bought",
      "type": "event"
    },
    {
      "anonymous": false,
      "inputs": [
        {
          "indexed": true,
          "internalType": "address",
          "name": "previousOwner",
          "type": "address"
        },
        {
          "indexed": true,
          "internalType": "address",
          "name": "newOwner",
          "type": "address"
        }
      ],
      "name": "OwnershipTransferred",
      "type": "event"
    },
    {
      "anonymous": false,
      "inputs": [
        {
          "indexed": true,
          "internalType": "address",
          "name": "from",
          "type": "address"
        },
        {
          "indexed": true,
          "internalType": "address",
          "name": "to",
          "type": "address"
        },
        {
          "indexed": true,
          "internalType": "uint256",
          "name": "tokenId",
          "type": "uint256"
        }
      ],
      "name": "Transfer",
      "type": "event"
    },
    {
      "inputs": [
        {
          "internalType": "address",
          "name": "to",
          "type": "address"
        },
        {
          "internalType": "uint256",
          "name": "tokenId",
          "type": "uint256"
        }
      ],
      "name": "approve",
      "outputs": [],
      "stateMutability": "nonpayable",
      "type": "function"
    },
    {
      "inputs": [
        {
          "internalType": "address",
          "name": "owner",
          "type": "address"
        }
      ],
      "name": "balanceOf",
      "outputs": [
        {
          "internalType": "uint256",
          "name": "",
          "type": "uint256"
        }
      ],
      "stateMutability": "view",
      "type": "function"
    },
    {
      "inputs": [
        {
          "internalType": "bool",
          "name": "estado",
          "type": "bool"
        }
      ],
      "name": "changeSaleState",
      "outputs": [],
      "stateMutability": "nonpayable",
      "type": "function"
    },
    {
      "inputs": [],
      "name": "cuentaMaestra",
      "outputs": [
        {
          "internalType": "address payable",
          "name": "",
          "type": "address"
        }
      ],
      "stateMutability": "view",
      "type": "function"
    },
    {
      "inputs": [
        {
          "internalType": "uint256",
          "name": "",
          "type": "uint256"
        }
      ],
      "name": "entradas",
      "outputs": [
        {
          "internalType": "uint256",
          "name": "idEntrada",
          "type": "uint256"
        },
        {
          "internalType": "string",
          "name": "descripcion",
          "type": "string"
        },
        {
          "internalType": "uint256",
          "name": "precio",
          "type": "uint256"
        }
      ],
      "stateMutability": "view",
      "type": "function"
    },
    {
      "inputs": [
        {
          "internalType": "uint256",
          "name": "tokenId",
          "type": "uint256"
        }
      ],
      "name": "getApproved",
      "outputs": [
        {
          "internalType": "address",
          "name": "",
          "type": "address"
        }
      ],
      "stateMutability": "view",
      "type": "function"
    },
    {
      "inputs": [
        {
          "internalType": "uint256",
          "name": "_tokenId",
          "type": "uint256"
        }
      ],
      "name": "getOwner",
      "outputs": [
        {
          "internalType": "address",
          "name": "",
          "type": "address"
        }
      ],
      "stateMutability": "view",
      "type": "function"
    },
    {
      "inputs": [
        {
          "internalType": "uint256",
          "name": "_tokenId",
          "type": "uint256"
        }
      ],
      "name": "getTotalPrice",
      "outputs": [
        {
          "internalType": "uint256",
          "name": "",
          "type": "uint256"
        }
      ],
      "stateMutability": "view",
      "type": "function"
    },
    {
      "inputs": [
        {
          "internalType": "address",
          "name": "owner",
          "type": "address"
        },
        {
          "internalType": "address",
          "name": "operator",
          "type": "address"
        }
      ],
      "name": "isApprovedForAll",
      "outputs": [
        {
          "internalType": "bool",
          "name": "",
          "type": "bool"
        }
      ],
      "stateMutability": "view",
      "type": "function"
    },
    {
      "inputs": [
        {
          "internalType": "string",
          "name": "_tokenURI",
          "type": "string"
        },
        {
          "internalType": "string",
          "name": "_descripcion",
          "type": "string"
        },
        {
          "internalType": "uint256",
          "name": "_precio",
          "type": "uint256"
        }
      ],
      "name": "mint",
      "outputs": [
        {
          "internalType": "uint256",
          "name": "",
          "type": "uint256"
        }
      ],
      "stateMutability": "nonpayable",
      "type": "function"
    },
    {
      "inputs": [],
      "name": "name",
      "outputs": [
        {
          "internalType": "string",
          "name": "",
          "type": "string"
        }
      ],
      "stateMutability": "view",
      "type": "function"
    },
    {
      "inputs": [],
      "name": "owner",
      "outputs": [
        {
          "internalType": "address",
          "name": "",
          "type": "address"
        }
      ],
      "stateMutability": "view",
      "type": "function"
    },
    {
      "inputs": [
        {
          "internalType": "uint256",
          "name": "tokenId",
          "type": "uint256"
        }
      ],
      "name": "ownerOf",
      "outputs": [
        {
          "internalType": "address",
          "name": "",
          "type": "address"
        }
      ],
      "stateMutability": "view",
      "type": "function"
    },
    {
      "inputs": [],
      "name": "porcentajeReventa",
      "outputs": [
        {
          "internalType": "uint256",
          "name": "",
          "type": "uint256"
        }
      ],
      "stateMutability": "view",
      "type": "function"
    },
    {
      "inputs": [],
      "name": "renounceOwnership",
      "outputs": [],
      "stateMutability": "nonpayable",
      "type": "function"
    },
    {
      "inputs": [
        {
          "internalType": "address",
          "name": "from",
          "type": "address"
        },
        {
          "internalType": "address",
          "name": "to",
          "type": "address"
        },
        {
          "internalType": "uint256",
          "name": "tokenId",
          "type": "uint256"
        }
      ],
      "name": "safeTransferFrom",
      "outputs": [],
      "stateMutability": "nonpayable",
      "type": "function"
    },
    {
      "inputs": [
        {
          "internalType": "address",
          "name": "from",
          "type": "address"
        },
        {
          "internalType": "address",
          "name": "to",
          "type": "address"
        },
        {
          "internalType": "uint256",
          "name": "tokenId",
          "type": "uint256"
        },
        {
          "internalType": "bytes",
          "name": "_data",
          "type": "bytes"
        }
      ],
      "name": "safeTransferFrom",
      "outputs": [],
      "stateMutability": "nonpayable",
      "type": "function"
    },
    {
      "inputs": [
        {
          "internalType": "uint256",
          "name": "_tokenId",
          "type": "uint256"
        }
      ],
      "name": "sellTicket",
      "outputs": [],
      "stateMutability": "payable",
      "type": "function"
    },
    {
      "inputs": [
        {
          "internalType": "address",
          "name": "operator",
          "type": "address"
        },
        {
          "internalType": "bool",
          "name": "approved",
          "type": "bool"
        }
      ],
      "name": "setApprovalForAll",
      "outputs": [],
      "stateMutability": "nonpayable",
      "type": "function"
    },
    {
      "inputs": [
        {
          "internalType": "uint256",
          "name": "_tokenId",
          "type": "uint256"
        },
        {
          "internalType": "uint256",
          "name": "_newPrice",
          "type": "uint256"
        }
      ],
      "name": "setPrice",
      "outputs": [],
      "stateMutability": "nonpayable",
      "type": "function"
    },
    {
      "inputs": [
        {
          "internalType": "bytes4",
          "name": "interfaceId",
          "type": "bytes4"
        }
      ],
      "name": "supportsInterface",
      "outputs": [
        {
          "internalType": "bool",
          "name": "",
          "type": "bool"
        }
      ],
      "stateMutability": "view",
      "type": "function"
    },
    {
      "inputs": [],
      "name": "symbol",
      "outputs": [
        {
          "internalType": "string",
          "name": "",
          "type": "string"
        }
      ],
      "stateMutability": "view",
      "type": "function"
    },
    {
      "inputs": [
        {
          "internalType": "uint256",
          "name": "_tokenId",
          "type": "uint256"
        }
      ],
      "name": "ticketSold",
      "outputs": [
        {
          "internalType": "bool",
          "name": "",
          "type": "bool"
        }
      ],
      "stateMutability": "view",
      "type": "function"
    },
    {
      "inputs": [
        {
          "internalType": "uint256",
          "name": "_tokenId",
          "type": "uint256"
        }
      ],
      "name": "ticketUsed",
      "outputs": [
        {
          "internalType": "bool",
          "name": "",
          "type": "bool"
        }
      ],
      "stateMutability": "view",
      "type": "function"
    },
    {
      "inputs": [],
      "name": "tokenCount",
      "outputs": [
        {
          "internalType": "uint256",
          "name": "",
          "type": "uint256"
        }
      ],
      "stateMutability": "view",
      "type": "function"
    },
    {
      "inputs": [
        {
          "internalType": "uint256",
          "name": "tokenId",
          "type": "uint256"
        }
      ],
      "name": "tokenURI",
      "outputs": [
        {
          "internalType": "string",
          "name": "",
          "type": "string"
        }
      ],
      "stateMutability": "view",
      "type": "function"
    },
    {
      "inputs": [
        {
          "internalType": "address",
          "name": "from",
          "type": "address"
        },
        {
          "internalType": "address",
          "name": "to",
          "type": "address"
        },
        {
          "internalType": "uint256",
          "name": "tokenId",
          "type": "uint256"
        }
      ],
      "name": "transferFrom",
      "outputs": [],
      "stateMutability": "nonpayable",
      "type": "function"
    },
    {
      "inputs": [
        {
          "internalType": "address",
          "name": "newOwner",
          "type": "address"
        }
      ],
      "name": "transferOwnership",
      "outputs": [],
      "stateMutability": "nonpayable",
      "type": "function"
    },
    {
      "inputs": [
        {
          "internalType": "uint256",
          "name": "_tokenId",
          "type": "uint256"
        }
      ],
      "name": "useTicket",
      "outputs": [
        {
          "internalType": "bool",
          "name": "",
          "type": "bool"
        }
      ],
      "stateMutability": "nonpayable",
      "type": "function"
    }
  ],
  "bytecode": "0x60806040523480156200001157600080fd5b50604051620046f5380380620046f58339818101604052810190620000379190620002fe565b6040518060400160405280600e81526020017f5469636b6574436f6e74726163740000000000000000000000000000000000008152506040518060400160405280600681526020017f5449434b455400000000000000000000000000000000000000000000000000008152508160009080519060200190620000bb92919062000237565b508060019080519060200190620000d492919062000237565b505050620000f7620000eb6200016960201b60201c565b6200017160201b60201c565b600160088190555080600a8190555033600b60006101000a81548173ffffffffffffffffffffffffffffffffffffffff021916908373ffffffffffffffffffffffffffffffffffffffff1602179055506001600b60146101000a81548160ff02191690831515021790555050620003b3565b600033905090565b6000600760009054906101000a900473ffffffffffffffffffffffffffffffffffffffff16905081600760006101000a81548173ffffffffffffffffffffffffffffffffffffffff021916908373ffffffffffffffffffffffffffffffffffffffff1602179055508173ffffffffffffffffffffffffffffffffffffffff168173ffffffffffffffffffffffffffffffffffffffff167f8be0079c531659141344cd1fd0a4f28419497f9722a3daafe3b4186f6b6457e060405160405180910390a35050565b828054620002459062000334565b90600052602060002090601f016020900481019282620002695760008555620002b5565b82601f106200028457805160ff1916838001178555620002b5565b82800160010185558215620002b5579182015b82811115620002b457825182559160200191906001019062000297565b5b509050620002c49190620002c8565b5090565b5b80821115620002e3576000816000905550600101620002c9565b5090565b600081519050620002f88162000399565b92915050565b6000602082840312156200031157600080fd5b60006200032184828501620002e7565b91505092915050565b6000819050919050565b600060028204905060018216806200034d57607f821691505b602082108114156200036457620003636200036a565b5b50919050565b7f4e487b7100000000000000000000000000000000000000000000000000000000600052602260045260246000fd5b620003a4816200032a565b8114620003b057600080fd5b50565b61433280620003c36000396000f3fe6080604052600436106101c25760003560e01c806382a6c5d2116100f7578063c41a360a11610095578063e985e9c511610064578063e985e9c5146106b4578063f192866a146106f1578063f2fde38b1461070d578063f7d9757714610736576101c2565b8063c41a360a146105c0578063c87b56dd146105fd578063ca7dd3751461063a578063d41d9a2714610677576101c2565b80639f181b5e116100d15780639f181b5e1461051a578063a22cb46514610545578063b322078d1461056e578063b88d4fde14610597576101c2565b806382a6c5d2146104875780638da5cb5b146104c457806395d89b41146104ef576101c2565b80633366a2bc11610164578063642b5f9b1161013e578063642b5f9b146103cb57806370a0823114610408578063715018a614610445578063793912811461045c576101c2565b80633366a2bc1461033a57806342842e0e146103655780636352211e1461038e576101c2565b8063095ea7b3116101a0578063095ea7b31461026c5780631d4ab5401461029557806323b872dd146102d457806326606448146102fd576101c2565b806301ffc9a7146101c757806306fdde0314610204578063081812fc1461022f575b600080fd5b3480156101d357600080fd5b506101ee60048036038101906101e99190612d5d565b61075f565b6040516101fb91906133c9565b60405180910390f35b34801561021057600080fd5b50610219610841565b60405161022691906133e4565b60405180910390f35b34801561023b57600080fd5b5061025660048036038101906102519190612e2e565b6108d3565b6040516102639190613347565b60405180910390f35b34801561027857600080fd5b50610293600480360381019061028e9190612cf8565b610958565b005b3480156102a157600080fd5b506102bc60048036038101906102b79190612e2e565b610a70565b6040516102cb93929190613781565b60405180910390f35b3480156102e057600080fd5b506102fb60048036038101906102f69190612bf2565b610b22565b005b34801561030957600080fd5b50610324600480360381019061031f9190612e2e565b610b82565b60405161033191906133c9565b60405180910390f35b34801561034657600080fd5b5061034f610c49565b60405161035c9190613362565b60405180910390f35b34801561037157600080fd5b5061038c60048036038101906103879190612bf2565b610c6f565b005b34801561039a57600080fd5b506103b560048036038101906103b09190612e2e565b610c8f565b6040516103c29190613347565b60405180910390f35b3480156103d757600080fd5b506103f260048036038101906103ed9190612e2e565b610d41565b6040516103ff91906133c9565b60405180910390f35b34801561041457600080fd5b5061042f600480360381019061042a9190612b8d565b610d6b565b60405161043c9190613766565b60405180910390f35b34801561045157600080fd5b5061045a610e23565b005b34801561046857600080fd5b50610471610eab565b60405161047e9190613766565b60405180910390f35b34801561049357600080fd5b506104ae60048036038101906104a99190612e2e565b610eb1565b6040516104bb91906133c9565b60405180910390f35b3480156104d057600080fd5b506104d9610edb565b6040516104e69190613347565b60405180910390f35b3480156104fb57600080fd5b50610504610f05565b60405161051191906133e4565b60405180910390f35b34801561052657600080fd5b5061052f610f97565b60405161053c9190613766565b60405180910390f35b34801561055157600080fd5b5061056c60048036038101906105679190612cbc565b610f9d565b005b34801561057a57600080fd5b5061059560048036038101906105909190612d34565b610fb3565b005b3480156105a357600080fd5b506105be60048036038101906105b99190612c41565b61104c565b005b3480156105cc57600080fd5b506105e760048036038101906105e29190612e2e565b6110ae565b6040516105f49190613347565b60405180910390f35b34801561060957600080fd5b50610624600480360381019061061f9190612e2e565b6110c0565b60405161063191906133e4565b60405180910390f35b34801561064657600080fd5b50610661600480360381019061065c9190612e2e565b611212565b60405161066e9190613766565b60405180910390f35b34801561068357600080fd5b5061069e60048036038101906106999190612daf565b611257565b6040516106ab9190613766565b60405180910390f35b3480156106c057600080fd5b506106db60048036038101906106d69190612bb6565b6114e9565b6040516106e891906133c9565b60405180910390f35b61070b60048036038101906107069190612e2e565b61157d565b005b34801561071957600080fd5b50610734600480360381019061072f9190612b8d565b61195a565b005b34801561074257600080fd5b5061075d60048036038101906107589190612e57565b611a52565b005b60007f80ac58cd000000000000000000000000000000000000000000000000000000007bffffffffffffffffffffffffffffffffffffffffffffffffffffffff1916827bffffffffffffffffffffffffffffffffffffffffffffffffffffffff1916148061082a57507f5b5e139f000000000000000000000000000000000000000000000000000000007bffffffffffffffffffffffffffffffffffffffffffffffffffffffff1916827bffffffffffffffffffffffffffffffffffffffffffffffffffffffff1916145b8061083a575061083982611b2f565b5b9050919050565b60606000805461085090613a8f565b80601f016020809104026020016040519081016040528092919081815260200182805461087c90613a8f565b80156108c95780601f1061089e576101008083540402835291602001916108c9565b820191906000526020600020905b8154815290600101906020018083116108ac57829003601f168201915b5050505050905090565b60006108de82611b99565b61091d576040517f08c379a000000000000000000000000000000000000000000000000000000000815260040161091490613666565b60405180910390fd5b6004600083815260200190815260200160002060009054906101000a900473ffffffffffffffffffffffffffffffffffffffff169050919050565b600061096382610c8f565b90508073ffffffffffffffffffffffffffffffffffffffff168373ffffffffffffffffffffffffffffffffffffffff1614156109d4576040517f08c379a00000000000000000000000000000000000000000000000000000000081526004016109cb906136c6565b60405180910390fd5b8073ffffffffffffffffffffffffffffffffffffffff166109f3611c05565b73ffffffffffffffffffffffffffffffffffffffff161480610a225750610a2181610a1c611c05565b6114e9565b5b610a61576040517f08c379a0000000000000000000000000000000000000000000000000000000008152600401610a5890613566565b60405180910390fd5b610a6b8383611c0d565b505050565b600c602052806000526040600020600091509050806000015490806001018054610a9990613a8f565b80601f0160208091040260200160405190810160405280929190818152602001828054610ac590613a8f565b8015610b125780601f10610ae757610100808354040283529160200191610b12565b820191906000526020600020905b815481529060010190602001808311610af557829003601f168201915b5050505050908060020154905083565b610b33610b2d611c05565b82611cc6565b610b72576040517f08c379a0000000000000000000000000000000000000000000000000000000008152600401610b6990613706565b60405180910390fd5b610b7d838383611da4565b505050565b6000610b8d82611b99565b610bcc576040517f08c379a0000000000000000000000000000000000000000000000000000000008152600401610bc390613586565b60405180910390fd5b610bd582610d41565b610c14576040517f08c379a0000000000000000000000000000000000000000000000000000000008152600401610c0b906134c6565b60405180910390fd5b6001600f600084815260200190815260200160002060006101000a81548160ff02191690831515021790555060019050919050565b600b60009054906101000a900473ffffffffffffffffffffffffffffffffffffffff1681565b610c8a8383836040518060200160405280600081525061104c565b505050565b6000806002600084815260200190815260200160002060009054906101000a900473ffffffffffffffffffffffffffffffffffffffff169050600073ffffffffffffffffffffffffffffffffffffffff168173ffffffffffffffffffffffffffffffffffffffff161415610d38576040517f08c379a0000000000000000000000000000000000000000000000000000000008152600401610d2f906135c6565b60405180910390fd5b80915050919050565b6000600f600083815260200190815260200160002060009054906101000a900460ff169050919050565b60008073ffffffffffffffffffffffffffffffffffffffff168273ffffffffffffffffffffffffffffffffffffffff161415610ddc576040517f08c379a0000000000000000000000000000000000000000000000000000000008152600401610dd3906135a6565b60405180910390fd5b600360008373ffffffffffffffffffffffffffffffffffffffff1673ffffffffffffffffffffffffffffffffffffffff168152602001908152602001600020549050919050565b610e2b611c05565b73ffffffffffffffffffffffffffffffffffffffff16610e49610edb565b73ffffffffffffffffffffffffffffffffffffffff1614610e9f576040517f08c379a0000000000000000000000000000000000000000000000000000000008152600401610e9690613686565b60405180910390fd5b610ea9600061200b565b565b600a5481565b6000600d600083815260200190815260200160002060009054906101000a900460ff169050919050565b6000600760009054906101000a900473ffffffffffffffffffffffffffffffffffffffff16905090565b606060018054610f1490613a8f565b80601f0160208091040260200160405190810160405280929190818152602001828054610f4090613a8f565b8015610f8d5780601f10610f6257610100808354040283529160200191610f8d565b820191906000526020600020905b815481529060010190602001808311610f7057829003601f168201915b5050505050905090565b60095481565b610faf610fa8611c05565b83836120d1565b5050565b610fbb611c05565b73ffffffffffffffffffffffffffffffffffffffff16610fd9610edb565b73ffffffffffffffffffffffffffffffffffffffff161461102f576040517f08c379a000000000000000000000000000000000000000000000000000000000815260040161102690613686565b60405180910390fd5b80600b60146101000a81548160ff02191690831515021790555050565b61105d611057611c05565b83611cc6565b61109c576040517f08c379a000000000000000000000000000000000000000000000000000000000815260040161109390613706565b60405180910390fd5b6110a88484848461223e565b50505050565b60006110b982610c8f565b9050919050565b60606110cb82611b99565b61110a576040517f08c379a000000000000000000000000000000000000000000000000000000000815260040161110190613646565b60405180910390fd5b600060066000848152602001908152602001600020805461112a90613a8f565b80601f016020809104026020016040519081016040528092919081815260200182805461115690613a8f565b80156111a35780601f10611178576101008083540402835291602001916111a3565b820191906000526020600020905b81548152906001019060200180831161118657829003601f168201915b5050505050905060006111b461229a565b90506000815114156111ca57819250505061120d565b6000825111156111ff5780826040516020016111e7929190613323565b6040516020818303038152906040529250505061120d565b611208846122b1565b925050505b919050565b60006064600a54606461122591906138b2565b600c6000858152602001908152602001600020600201546112469190613939565b6112509190613908565b9050919050565b6000611261611c05565b73ffffffffffffffffffffffffffffffffffffffff1661127f610edb565b73ffffffffffffffffffffffffffffffffffffffff16146112d5576040517f08c379a00000000000000000000000000000000000000000000000000000000081526004016112cc90613686565b60405180910390fd5b6002600854141561131b576040517f08c379a000000000000000000000000000000000000000000000000000000000815260040161131290613746565b60405180910390fd5b60026008819055506009600081548092919061133690613af2565b91905055506000821161137e576040517f08c379a000000000000000000000000000000000000000000000000000000000815260040161137590613426565b60405180910390fd5b611389600954611b99565b156113c9576040517f08c379a00000000000000000000000000000000000000000000000000000000081526004016113c090613526565b60405180910390fd5b6113d533600954612358565b6113e160095485612376565b6113e9612990565b6009548160000181815250508381602001819052508281604001818152505080600c600060095481526020019081526020016000206000820151816000015560208201518160010190805190602001906114449291906129b1565b50604082015181600201559050506000600d6000600954815260200190815260200160002060006101000a81548160ff02191690831515021790555033600e6000600954815260200190815260200160002060006101000a81548173ffffffffffffffffffffffffffffffffffffffff021916908373ffffffffffffffffffffffffffffffffffffffff16021790555060095491505060016008819055509392505050565b6000600560008473ffffffffffffffffffffffffffffffffffffffff1673ffffffffffffffffffffffffffffffffffffffff16815260200190815260200160002060008373ffffffffffffffffffffffffffffffffffffffff1673ffffffffffffffffffffffffffffffffffffffff16815260200190815260200160002060009054906101000a900460ff16905092915050565b600260085414156115c3576040517f08c379a00000000000000000000000000000000000000000000000000000000081526004016115ba90613746565b60405180910390fd5b60026008819055506115d481611b99565b611613576040517f08c379a000000000000000000000000000000000000000000000000000000000815260040161160a90613586565b60405180910390fd5b61161c81611212565b34101561165e576040517f08c379a000000000000000000000000000000000000000000000000000000000815260040161165590613626565b60405180910390fd5b600d600082815260200190815260200160002060009054906101000a900460ff16156116bf576040517f08c379a00000000000000000000000000000000000000000000000000000000081526004016116b690613406565b60405180910390fd5b60011515600b60149054906101000a900460ff16151514611715576040517f08c379a000000000000000000000000000000000000000000000000000000000815260040161170c906136e6565b60405180910390fd5b600061172082610c8f565b905060003390506000600c600085815260200190815260200160002060020154905060006064600a54836117549190613939565b61175e9190613908565b905061176b848487611da4565b6001600d600087815260200190815260200160002060006101000a81548160ff02191690831515021790555082600e600087815260200190815260200160002060006101000a81548173ffffffffffffffffffffffffffffffffffffffff021916908373ffffffffffffffffffffffffffffffffffffffff1602179055508373ffffffffffffffffffffffffffffffffffffffff166108fc828461180f9190613993565b9081150290604051600060405180830381858888f1935050505015801561183a573d6000803e3d6000fd5b50611843610edb565b73ffffffffffffffffffffffffffffffffffffffff166108fc829081150290604051600060405180830381858888f19350505050158015611888573d6000803e3d6000fd5b50813411156118e4573373ffffffffffffffffffffffffffffffffffffffff166108fc83346118b79190613993565b9081150290604051600060405180830381858888f193505050501580156118e2573d6000803e3d6000fd5b505b8273ffffffffffffffffffffffffffffffffffffffff168473ffffffffffffffffffffffffffffffffffffffff167f4ebd6ef39c1235e69ba7dedf24ad43bdeb57deb289d98473668070d6ca9b685e87856040516119439291906137bf565b60405180910390a350505050600160088190555050565b611962611c05565b73ffffffffffffffffffffffffffffffffffffffff16611980610edb565b73ffffffffffffffffffffffffffffffffffffffff16146119d6576040517f08c379a00000000000000000000000000000000000000000000000000000000081526004016119cd90613686565b60405180910390fd5b600073ffffffffffffffffffffffffffffffffffffffff168173ffffffffffffffffffffffffffffffffffffffff161415611a46576040517f08c379a0000000000000000000000000000000000000000000000000000000008152600401611a3d90613466565b60405180910390fd5b611a4f8161200b565b50565b611a5b82611b99565b611a9a576040517f08c379a0000000000000000000000000000000000000000000000000000000008152600401611a9190613586565b60405180910390fd5b3373ffffffffffffffffffffffffffffffffffffffff16611aba83610c8f565b73ffffffffffffffffffffffffffffffffffffffff1614611b10576040517f08c379a0000000000000000000000000000000000000000000000000000000008152600401611b0790613726565b60405180910390fd5b80600c6000848152602001908152602001600020600201819055505050565b60007f01ffc9a7000000000000000000000000000000000000000000000000000000007bffffffffffffffffffffffffffffffffffffffffffffffffffffffff1916827bffffffffffffffffffffffffffffffffffffffffffffffffffffffff1916149050919050565b60008073ffffffffffffffffffffffffffffffffffffffff166002600084815260200190815260200160002060009054906101000a900473ffffffffffffffffffffffffffffffffffffffff1673ffffffffffffffffffffffffffffffffffffffff1614159050919050565b600033905090565b816004600083815260200190815260200160002060006101000a81548173ffffffffffffffffffffffffffffffffffffffff021916908373ffffffffffffffffffffffffffffffffffffffff160217905550808273ffffffffffffffffffffffffffffffffffffffff16611c8083610c8f565b73ffffffffffffffffffffffffffffffffffffffff167f8c5be1e5ebec7d5bd14f71427d1e84f3dd0314c0f7b2291e5b200ac8c7c3b92560405160405180910390a45050565b6000611cd182611b99565b611d10576040517f08c379a0000000000000000000000000000000000000000000000000000000008152600401611d0790613546565b60405180910390fd5b6000611d1b83610c8f565b90508073ffffffffffffffffffffffffffffffffffffffff168473ffffffffffffffffffffffffffffffffffffffff161480611d8a57508373ffffffffffffffffffffffffffffffffffffffff16611d72846108d3565b73ffffffffffffffffffffffffffffffffffffffff16145b80611d9b5750611d9a81856114e9565b5b91505092915050565b8273ffffffffffffffffffffffffffffffffffffffff16611dc482610c8f565b73ffffffffffffffffffffffffffffffffffffffff1614611e1a576040517f08c379a0000000000000000000000000000000000000000000000000000000008152600401611e1190613486565b60405180910390fd5b600073ffffffffffffffffffffffffffffffffffffffff168273ffffffffffffffffffffffffffffffffffffffff161415611e8a576040517f08c379a0000000000000000000000000000000000000000000000000000000008152600401611e81906134e6565b60405180910390fd5b611e958383836123ea565b611ea0600082611c0d565b6001600360008573ffffffffffffffffffffffffffffffffffffffff1673ffffffffffffffffffffffffffffffffffffffff1681526020019081526020016000206000828254611ef09190613993565b925050819055506001600360008473ffffffffffffffffffffffffffffffffffffffff1673ffffffffffffffffffffffffffffffffffffffff1681526020019081526020016000206000828254611f4791906138b2565b92505081905550816002600083815260200190815260200160002060006101000a81548173ffffffffffffffffffffffffffffffffffffffff021916908373ffffffffffffffffffffffffffffffffffffffff160217905550808273ffffffffffffffffffffffffffffffffffffffff168473ffffffffffffffffffffffffffffffffffffffff167fddf252ad1be2c89b69c2b068fc378daa952ba7f163c4a11628f55a4df523b3ef60405160405180910390a46120068383836123ef565b505050565b6000600760009054906101000a900473ffffffffffffffffffffffffffffffffffffffff16905081600760006101000a81548173ffffffffffffffffffffffffffffffffffffffff021916908373ffffffffffffffffffffffffffffffffffffffff1602179055508173ffffffffffffffffffffffffffffffffffffffff168173ffffffffffffffffffffffffffffffffffffffff167f8be0079c531659141344cd1fd0a4f28419497f9722a3daafe3b4186f6b6457e060405160405180910390a35050565b8173ffffffffffffffffffffffffffffffffffffffff168373ffffffffffffffffffffffffffffffffffffffff161415612140576040517f08c379a000000000000000000000000000000000000000000000000000000000815260040161213790613506565b60405180910390fd5b80600560008573ffffffffffffffffffffffffffffffffffffffff1673ffffffffffffffffffffffffffffffffffffffff16815260200190815260200160002060008473ffffffffffffffffffffffffffffffffffffffff1673ffffffffffffffffffffffffffffffffffffffff16815260200190815260200160002060006101000a81548160ff0219169083151502179055508173ffffffffffffffffffffffffffffffffffffffff168373ffffffffffffffffffffffffffffffffffffffff167f17307eab39ab6107e8899845ad3d59bd9653f200f220920489ca2b5937696c318360405161223191906133c9565b60405180910390a3505050565b612249848484611da4565b612255848484846123f4565b612294576040517f08c379a000000000000000000000000000000000000000000000000000000000815260040161228b90613446565b60405180910390fd5b50505050565b606060405180602001604052806000815250905090565b60606122bc82611b99565b6122fb576040517f08c379a00000000000000000000000000000000000000000000000000000000081526004016122f2906136a6565b60405180910390fd5b600061230561229a565b905060008151116123255760405180602001604052806000815250612350565b8061232f8461258b565b604051602001612340929190613323565b6040516020818303038152906040525b915050919050565b612372828260405180602001604052806000815250612738565b5050565b61237f82611b99565b6123be576040517f08c379a00000000000000000000000000000000000000000000000000000000081526004016123b5906135e6565b60405180910390fd5b806006600084815260200190815260200160002090805190602001906123e59291906129b1565b505050565b505050565b505050565b60006124158473ffffffffffffffffffffffffffffffffffffffff16612793565b1561257e578373ffffffffffffffffffffffffffffffffffffffff1663150b7a0261243e611c05565b8786866040518563ffffffff1660e01b8152600401612460949392919061337d565b602060405180830381600087803b15801561247a57600080fd5b505af19250505080156124ab57506040513d601f19601f820116820180604052508101906124a89190612d86565b60015b61252e573d80600081146124db576040519150601f19603f3d011682016040523d82523d6000602084013e6124e0565b606091505b50600081511415612526576040517f08c379a000000000000000000000000000000000000000000000000000000000815260040161251d90613446565b60405180910390fd5b805181602001fd5b63150b7a0260e01b7bffffffffffffffffffffffffffffffffffffffffffffffffffffffff1916817bffffffffffffffffffffffffffffffffffffffffffffffffffffffff191614915050612583565b600190505b949350505050565b606060008214156125d3576040518060400160405280600181526020017f30000000000000000000000000000000000000000000000000000000000000008152509050612733565b600082905060005b600082146126055780806125ee90613af2565b915050600a826125fe9190613908565b91506125db565b60008167ffffffffffffffff811115612647577f4e487b7100000000000000000000000000000000000000000000000000000000600052604160045260246000fd5b6040519080825280601f01601f1916602001820160405280156126795781602001600182028036833780820191505090505b5090505b6000851461272c576001826126929190613993565b9150600a856126a19190613b3b565b60306126ad91906138b2565b60f81b8183815181106126e9577f4e487b7100000000000000000000000000000000000000000000000000000000600052603260045260246000fd5b60200101907effffffffffffffffffffffffffffffffffffffffffffffffffffffffffffff1916908160001a905350600a856127259190613908565b945061267d565b8093505050505b919050565b61274283836127b6565b61274f60008484846123f4565b61278e576040517f08c379a000000000000000000000000000000000000000000000000000000000815260040161278590613446565b60405180910390fd5b505050565b6000808273ffffffffffffffffffffffffffffffffffffffff163b119050919050565b600073ffffffffffffffffffffffffffffffffffffffff168273ffffffffffffffffffffffffffffffffffffffff161415612826576040517f08c379a000000000000000000000000000000000000000000000000000000000815260040161281d90613606565b60405180910390fd5b61282f81611b99565b1561286f576040517f08c379a0000000000000000000000000000000000000000000000000000000008152600401612866906134a6565b60405180910390fd5b61287b600083836123ea565b6001600360008473ffffffffffffffffffffffffffffffffffffffff1673ffffffffffffffffffffffffffffffffffffffff16815260200190815260200160002060008282546128cb91906138b2565b92505081905550816002600083815260200190815260200160002060006101000a81548173ffffffffffffffffffffffffffffffffffffffff021916908373ffffffffffffffffffffffffffffffffffffffff160217905550808273ffffffffffffffffffffffffffffffffffffffff16600073ffffffffffffffffffffffffffffffffffffffff167fddf252ad1be2c89b69c2b068fc378daa952ba7f163c4a11628f55a4df523b3ef60405160405180910390a461298c600083836123ef565b5050565b60405180606001604052806000815260200160608152602001600081525090565b8280546129bd90613a8f565b90600052602060002090601f0160209004810192826129df5760008555612a26565b82601f106129f857805160ff1916838001178555612a26565b82800160010185558215612a26579182015b82811115612a25578251825591602001919060010190612a0a565b5b509050612a339190612a37565b5090565b5b80821115612a50576000816000905550600101612a38565b5090565b6000612a67612a628461380d565b6137e8565b905082815260208101848484011115612a7f57600080fd5b612a8a848285613a4d565b509392505050565b6000612aa5612aa08461383e565b6137e8565b905082815260208101848484011115612abd57600080fd5b612ac8848285613a4d565b509392505050565b600081359050612adf816142a0565b92915050565b600081359050612af4816142b7565b92915050565b600081359050612b09816142ce565b92915050565b600081519050612b1e816142ce565b92915050565b600082601f830112612b3557600080fd5b8135612b45848260208601612a54565b91505092915050565b600082601f830112612b5f57600080fd5b8135612b6f848260208601612a92565b91505092915050565b600081359050612b87816142e5565b92915050565b600060208284031215612b9f57600080fd5b6000612bad84828501612ad0565b91505092915050565b60008060408385031215612bc957600080fd5b6000612bd785828601612ad0565b9250506020612be885828601612ad0565b9150509250929050565b600080600060608486031215612c0757600080fd5b6000612c1586828701612ad0565b9350506020612c2686828701612ad0565b9250506040612c3786828701612b78565b9150509250925092565b60008060008060808587031215612c5757600080fd5b6000612c6587828801612ad0565b9450506020612c7687828801612ad0565b9350506040612c8787828801612b78565b925050606085013567ffffffffffffffff811115612ca457600080fd5b612cb087828801612b24565b91505092959194509250565b60008060408385031215612ccf57600080fd5b6000612cdd85828601612ad0565b9250506020612cee85828601612ae5565b9150509250929050565b60008060408385031215612d0b57600080fd5b6000612d1985828601612ad0565b9250506020612d2a85828601612b78565b9150509250929050565b600060208284031215612d4657600080fd5b6000612d5484828501612ae5565b91505092915050565b600060208284031215612d6f57600080fd5b6000612d7d84828501612afa565b91505092915050565b600060208284031215612d9857600080fd5b6000612da684828501612b0f565b91505092915050565b600080600060608486031215612dc457600080fd5b600084013567ffffffffffffffff811115612dde57600080fd5b612dea86828701612b4e565b935050602084013567ffffffffffffffff811115612e0757600080fd5b612e1386828701612b4e565b9250506040612e2486828701612b78565b9150509250925092565b600060208284031215612e4057600080fd5b6000612e4e84828501612b78565b91505092915050565b60008060408385031215612e6a57600080fd5b6000612e7885828601612b78565b9250506020612e8985828601612b78565b9150509250929050565b612e9c816139d9565b82525050565b612eab816139c7565b82525050565b612eba816139eb565b82525050565b6000612ecb8261386f565b612ed58185613885565b9350612ee5818560208601613a5c565b612eee81613c28565b840191505092915050565b6000612f048261387a565b612f0e8185613896565b9350612f1e818560208601613a5c565b612f2781613c28565b840191505092915050565b6000612f3d8261387a565b612f4781856138a7565b9350612f57818560208601613a5c565b80840191505092915050565b6000612f70601c83613896565b9150612f7b82613c39565b602082019050919050565b6000612f93601f83613896565b9150612f9e82613c62565b602082019050919050565b6000612fb6603283613896565b9150612fc182613c8b565b604082019050919050565b6000612fd9602683613896565b9150612fe482613cda565b604082019050919050565b6000612ffc602583613896565b915061300782613d29565b604082019050919050565b600061301f601c83613896565b915061302a82613d78565b602082019050919050565b6000613042601c83613896565b915061304d82613da1565b602082019050919050565b6000613065602483613896565b915061307082613dca565b604082019050919050565b6000613088601983613896565b915061309382613e19565b602082019050919050565b60006130ab601583613896565b91506130b682613e42565b602082019050919050565b60006130ce602c83613896565b91506130d982613e6b565b604082019050919050565b60006130f1603883613896565b91506130fc82613eba565b604082019050919050565b6000613114601583613896565b915061311f82613f09565b602082019050919050565b6000613137602a83613896565b915061314282613f32565b604082019050919050565b600061315a602983613896565b915061316582613f81565b604082019050919050565b600061317d602e83613896565b915061318882613fd0565b604082019050919050565b60006131a0602083613896565b91506131ab8261401f565b602082019050919050565b60006131c3601483613896565b91506131ce82614048565b602082019050919050565b60006131e6603183613896565b91506131f182614071565b604082019050919050565b6000613209602c83613896565b9150613214826140c0565b604082019050919050565b600061322c602083613896565b91506132378261410f565b602082019050919050565b600061324f602f83613896565b915061325a82614138565b604082019050919050565b6000613272602183613896565b915061327d82614187565b604082019050919050565b6000613295601483613896565b91506132a0826141d6565b602082019050919050565b60006132b8603183613896565b91506132c3826141ff565b604082019050919050565b60006132db601483613896565b91506132e68261424e565b602082019050919050565b60006132fe601f83613896565b915061330982614277565b602082019050919050565b61331d81613a43565b82525050565b600061332f8285612f32565b915061333b8284612f32565b91508190509392505050565b600060208201905061335c6000830184612ea2565b92915050565b60006020820190506133776000830184612e93565b92915050565b60006080820190506133926000830187612ea2565b61339f6020830186612ea2565b6133ac6040830185613314565b81810360608301526133be8184612ec0565b905095945050505050565b60006020820190506133de6000830184612eb1565b92915050565b600060208201905081810360008301526133fe8184612ef9565b905092915050565b6000602082019050818103600083015261341f81612f63565b9050919050565b6000602082019050818103600083015261343f81612f86565b9050919050565b6000602082019050818103600083015261345f81612fa9565b9050919050565b6000602082019050818103600083015261347f81612fcc565b9050919050565b6000602082019050818103600083015261349f81612fef565b9050919050565b600060208201905081810360008301526134bf81613012565b9050919050565b600060208201905081810360008301526134df81613035565b9050919050565b600060208201905081810360008301526134ff81613058565b9050919050565b6000602082019050818103600083015261351f8161307b565b9050919050565b6000602082019050818103600083015261353f8161309e565b9050919050565b6000602082019050818103600083015261355f816130c1565b9050919050565b6000602082019050818103600083015261357f816130e4565b9050919050565b6000602082019050818103600083015261359f81613107565b9050919050565b600060208201905081810360008301526135bf8161312a565b9050919050565b600060208201905081810360008301526135df8161314d565b9050919050565b600060208201905081810360008301526135ff81613170565b9050919050565b6000602082019050818103600083015261361f81613193565b9050919050565b6000602082019050818103600083015261363f816131b6565b9050919050565b6000602082019050818103600083015261365f816131d9565b9050919050565b6000602082019050818103600083015261367f816131fc565b9050919050565b6000602082019050818103600083015261369f8161321f565b9050919050565b600060208201905081810360008301526136bf81613242565b9050919050565b600060208201905081810360008301526136df81613265565b9050919050565b600060208201905081810360008301526136ff81613288565b9050919050565b6000602082019050818103600083015261371f816132ab565b9050919050565b6000602082019050818103600083015261373f816132ce565b9050919050565b6000602082019050818103600083015261375f816132f1565b9050919050565b600060208201905061377b6000830184613314565b92915050565b60006060820190506137966000830186613314565b81810360208301526137a88185612ef9565b90506137b76040830184613314565b949350505050565b60006040820190506137d46000830185613314565b6137e16020830184613314565b9392505050565b60006137f2613803565b90506137fe8282613ac1565b919050565b6000604051905090565b600067ffffffffffffffff82111561382857613827613bf9565b5b61383182613c28565b9050602081019050919050565b600067ffffffffffffffff82111561385957613858613bf9565b5b61386282613c28565b9050602081019050919050565b600081519050919050565b600081519050919050565b600082825260208201905092915050565b600082825260208201905092915050565b600081905092915050565b60006138bd82613a43565b91506138c883613a43565b9250827fffffffffffffffffffffffffffffffffffffffffffffffffffffffffffffffff038211156138fd576138fc613b6c565b5b828201905092915050565b600061391382613a43565b915061391e83613a43565b92508261392e5761392d613b9b565b5b828204905092915050565b600061394482613a43565b915061394f83613a43565b9250817fffffffffffffffffffffffffffffffffffffffffffffffffffffffffffffffff048311821515161561398857613987613b6c565b5b828202905092915050565b600061399e82613a43565b91506139a983613a43565b9250828210156139bc576139bb613b6c565b5b828203905092915050565b60006139d282613a23565b9050919050565b60006139e482613a23565b9050919050565b60008115159050919050565b60007fffffffff0000000000000000000000000000000000000000000000000000000082169050919050565b600073ffffffffffffffffffffffffffffffffffffffff82169050919050565b6000819050919050565b82818337600083830152505050565b60005b83811015613a7a578082015181840152602081019050613a5f565b83811115613a89576000848401525b50505050565b60006002820490506001821680613aa757607f821691505b60208210811415613abb57613aba613bca565b5b50919050565b613aca82613c28565b810181811067ffffffffffffffff82111715613ae957613ae8613bf9565b5b80604052505050565b6000613afd82613a43565b91507fffffffffffffffffffffffffffffffffffffffffffffffffffffffffffffffff821415613b3057613b2f613b6c565b5b600182019050919050565b6000613b4682613a43565b9150613b5183613a43565b925082613b6157613b60613b9b565b5b828206905092915050565b7f4e487b7100000000000000000000000000000000000000000000000000000000600052601160045260246000fd5b7f4e487b7100000000000000000000000000000000000000000000000000000000600052601260045260246000fd5b7f4e487b7100000000000000000000000000000000000000000000000000000000600052602260045260246000fd5b7f4e487b7100000000000000000000000000000000000000000000000000000000600052604160045260246000fd5b6000601f19601f8301169050919050565b7f5469636b65742068617320616c7265616479206265656e20736f6c6400000000600082015250565b7f5072696365206d7573742062652067726561746572207468616e207a65726f00600082015250565b7f4552433732313a207472616e7366657220746f206e6f6e20455243373231526560008201527f63656976657220696d706c656d656e7465720000000000000000000000000000602082015250565b7f4f776e61626c653a206e6577206f776e657220697320746865207a65726f206160008201527f6464726573730000000000000000000000000000000000000000000000000000602082015250565b7f4552433732313a207472616e736665722066726f6d20696e636f72726563742060008201527f6f776e6572000000000000000000000000000000000000000000000000000000602082015250565b7f4552433732313a20746f6b656e20616c7265616479206d696e74656400000000600082015250565b7f5469636b65742068617320616c7265616479206265656e207573656400000000600082015250565b7f4552433732313a207472616e7366657220746f20746865207a65726f2061646460008201527f7265737300000000000000000000000000000000000000000000000000000000602082015250565b7f4552433732313a20617070726f766520746f2063616c6c657200000000000000600082015250565b7f5469636b657420616c7265616479206578697374730000000000000000000000600082015250565b7f4552433732313a206f70657261746f7220717565727920666f72206e6f6e657860008201527f697374656e7420746f6b656e0000000000000000000000000000000000000000602082015250565b7f4552433732313a20617070726f76652063616c6c6572206973206e6f74206f7760008201527f6e6572206e6f7220617070726f76656420666f7220616c6c0000000000000000602082015250565b7f5469636b657420646f6573206e6f742065786973740000000000000000000000600082015250565b7f4552433732313a2062616c616e636520717565727920666f7220746865207a6560008201527f726f206164647265737300000000000000000000000000000000000000000000602082015250565b7f4552433732313a206f776e657220717565727920666f72206e6f6e657869737460008201527f656e7420746f6b656e0000000000000000000000000000000000000000000000602082015250565b7f45524337323155524953746f726167653a2055524920736574206f66206e6f6e60008201527f6578697374656e7420746f6b656e000000000000000000000000000000000000602082015250565b7f4552433732313a206d696e7420746f20746865207a65726f2061646472657373600082015250565b7f496e73756666696369656e74207061796d656e74000000000000000000000000600082015250565b7f45524337323155524953746f726167653a2055524920717565727920666f722060008201527f6e6f6e6578697374656e7420746f6b656e000000000000000000000000000000602082015250565b7f4552433732313a20617070726f76656420717565727920666f72206e6f6e657860008201527f697374656e7420746f6b656e0000000000000000000000000000000000000000602082015250565b7f4f776e61626c653a2063616c6c6572206973206e6f7420746865206f776e6572600082015250565b7f4552433732314d657461646174613a2055524920717565727920666f72206e6f60008201527f6e6578697374656e7420746f6b656e0000000000000000000000000000000000602082015250565b7f4552433732313a20617070726f76616c20746f2063757272656e74206f776e6560008201527f7200000000000000000000000000000000000000000000000000000000000000602082015250565b7f5469636b65742073616c6520697320636c6f7365000000000000000000000000600082015250565b7f4552433732313a207472616e736665722063616c6c6572206973206e6f74206f60008201527f776e6572206e6f7220617070726f766564000000000000000000000000000000602082015250565b7f4e6f7420746865207469636b6574206f776e6572000000000000000000000000600082015250565b7f5265656e7472616e637947756172643a207265656e7472616e742063616c6c00600082015250565b6142a9816139c7565b81146142b457600080fd5b50565b6142c0816139eb565b81146142cb57600080fd5b50565b6142d7816139f7565b81146142e257600080fd5b50565b6142ee81613a43565b81146142f957600080fd5b5056fea26469706673582212208913c6e3585b05a7006e0cb3913883b2a355327de493c22feb308197f7a8440e64736f6c63430008040033",
  "linkReferences": {},
  "deployedLinkReferences": {}
}