{
  "_format": "hh-sol-artifact-1",
  "contractName": "NFT",
  "sourceName": "src/backend/contracts/NFT.sol",
  "abi": [
    {
      "inputs": [
        {
          "internalType": "uint256",
          "name": "_porcentajeReventa",
          "type": "uint256"
        }
      ],
      "stateMutability": "nonpayable",
      "type": "constructor"
    },
    {
      "anonymous": false,
      "inputs": [
        {
          "indexed": true,
          "internalType": "address",
          "name": "owner",
          "type": "address"
        },
        {
          "indexed": true,
          "internalType": "address",
          "name": "approved",
          "type": "address"
        },
        {
          "indexed": true,
          "internalType": "uint256",
          "name": "tokenId",
          "type": "uint256"
        }
      ],
      "name": "Approval",
      "type": "event"
    },
    {
      "anonymous": false,
      "inputs": [
        {
          "indexed": true,
          "internalType": "address",
          "name": "owner",
          "type": "address"
        },
        {
          "indexed": true,
          "internalType": "address",
          "name": "operator",
          "type": "address"
        },
        {
          "indexed": false,
          "internalType": "bool",
          "name": "approved",
          "type": "bool"
        }
      ],
      "name": "ApprovalForAll",
      "type": "event"
    },
    {
      "anonymous": false,
      "inputs": [
        {
          "indexed": false,
          "internalType": "uint256",
          "name": "idEntrada",
          "type": "uint256"
        },
        {
          "indexed": false,
          "internalType": "uint256",
          "name": "precio",
          "type": "uint256"
        },
        {
          "indexed": true,
          "internalType": "address",
          "name": "vendedor",
          "type": "address"
        },
        {
          "indexed": true,
          "internalType": "address",
          "name": "comprador",
          "type": "address"
        }
      ],
      "name": "Bought",
      "type": "event"
    },
    {
      "anonymous": false,
      "inputs": [
        {
          "indexed": false,
          "internalType": "uint256",
          "name": "idEntrada",
          "type": "uint256"
        },
        {
          "indexed": false,
          "internalType": "uint256",
          "name": "precio",
          "type": "uint256"
        },
        {
          "indexed": true,
          "internalType": "address",
          "name": "vendedor",
          "type": "address"
        }
      ],
      "name": "Offered",
      "type": "event"
    },
    {
      "anonymous": false,
      "inputs": [
        {
          "indexed": true,
          "internalType": "address",
          "name": "previousOwner",
          "type": "address"
        },
        {
          "indexed": true,
          "internalType": "address",
          "name": "newOwner",
          "type": "address"
        }
      ],
      "name": "OwnershipTransferred",
      "type": "event"
    },
    {
      "anonymous": false,
      "inputs": [
        {
          "indexed": true,
          "internalType": "address",
          "name": "from",
          "type": "address"
        },
        {
          "indexed": true,
          "internalType": "address",
          "name": "to",
          "type": "address"
        },
        {
          "indexed": true,
          "internalType": "uint256",
          "name": "tokenId",
          "type": "uint256"
        }
      ],
      "name": "Transfer",
      "type": "event"
    },
    {
      "inputs": [
        {
          "internalType": "address",
          "name": "to",
          "type": "address"
        },
        {
          "internalType": "uint256",
          "name": "tokenId",
          "type": "uint256"
        }
      ],
      "name": "approve",
      "outputs": [],
      "stateMutability": "nonpayable",
      "type": "function"
    },
    {
      "inputs": [
        {
          "internalType": "address",
          "name": "owner",
          "type": "address"
        }
      ],
      "name": "balanceOf",
      "outputs": [
        {
          "internalType": "uint256",
          "name": "",
          "type": "uint256"
        }
      ],
      "stateMutability": "view",
      "type": "function"
    },
    {
      "inputs": [],
      "name": "changeSaleState",
      "outputs": [
        {
          "internalType": "bool",
          "name": "",
          "type": "bool"
        }
      ],
      "stateMutability": "nonpayable",
      "type": "function"
    },
    {
      "inputs": [],
      "name": "cuentaMaestra",
      "outputs": [
        {
          "internalType": "address payable",
          "name": "",
          "type": "address"
        }
      ],
      "stateMutability": "view",
      "type": "function"
    },
    {
      "inputs": [
        {
          "internalType": "uint256",
          "name": "",
          "type": "uint256"
        }
      ],
      "name": "entradas",
      "outputs": [
        {
          "internalType": "uint256",
          "name": "idEntrada",
          "type": "uint256"
        },
        {
          "internalType": "string",
          "name": "descripcion",
          "type": "string"
        },
        {
          "internalType": "uint256",
          "name": "precio",
          "type": "uint256"
        }
      ],
      "stateMutability": "view",
      "type": "function"
    },
    {
      "inputs": [
        {
          "internalType": "uint256",
          "name": "tokenId",
          "type": "uint256"
        }
      ],
      "name": "getApproved",
      "outputs": [
        {
          "internalType": "address",
          "name": "",
          "type": "address"
        }
      ],
      "stateMutability": "view",
      "type": "function"
    },
    {
      "inputs": [
        {
          "internalType": "uint256",
          "name": "_tokenId",
          "type": "uint256"
        }
      ],
      "name": "getOwner",
      "outputs": [
        {
          "internalType": "address",
          "name": "",
          "type": "address"
        }
      ],
      "stateMutability": "view",
      "type": "function"
    },
    {
      "inputs": [],
      "name": "getSaleState",
      "outputs": [
        {
          "internalType": "bool",
          "name": "",
          "type": "bool"
        }
      ],
      "stateMutability": "view",
      "type": "function"
    },
    {
      "inputs": [
        {
          "internalType": "uint256",
          "name": "_tokenId",
          "type": "uint256"
        }
      ],
      "name": "getTotalPrice",
      "outputs": [
        {
          "internalType": "uint256",
          "name": "",
          "type": "uint256"
        }
      ],
      "stateMutability": "view",
      "type": "function"
    },
    {
      "inputs": [
        {
          "internalType": "address",
          "name": "owner",
          "type": "address"
        },
        {
          "internalType": "address",
          "name": "operator",
          "type": "address"
        }
      ],
      "name": "isApprovedForAll",
      "outputs": [
        {
          "internalType": "bool",
          "name": "",
          "type": "bool"
        }
      ],
      "stateMutability": "view",
      "type": "function"
    },
    {
      "inputs": [
        {
          "internalType": "string",
          "name": "_tokenURI",
          "type": "string"
        },
        {
          "internalType": "string",
          "name": "_descripcion",
          "type": "string"
        },
        {
          "internalType": "uint256",
          "name": "_precio",
          "type": "uint256"
        }
      ],
      "name": "mint",
      "outputs": [
        {
          "internalType": "uint256",
          "name": "",
          "type": "uint256"
        }
      ],
      "stateMutability": "nonpayable",
      "type": "function"
    },
    {
      "inputs": [],
      "name": "name",
      "outputs": [
        {
          "internalType": "string",
          "name": "",
          "type": "string"
        }
      ],
      "stateMutability": "view",
      "type": "function"
    },
    {
      "inputs": [],
      "name": "owner",
      "outputs": [
        {
          "internalType": "address",
          "name": "",
          "type": "address"
        }
      ],
      "stateMutability": "view",
      "type": "function"
    },
    {
      "inputs": [
        {
          "internalType": "uint256",
          "name": "tokenId",
          "type": "uint256"
        }
      ],
      "name": "ownerOf",
      "outputs": [
        {
          "internalType": "address",
          "name": "",
          "type": "address"
        }
      ],
      "stateMutability": "view",
      "type": "function"
    },
    {
      "inputs": [],
      "name": "porcentajeReventa",
      "outputs": [
        {
          "internalType": "uint256",
          "name": "",
          "type": "uint256"
        }
      ],
      "stateMutability": "view",
      "type": "function"
    },
    {
      "inputs": [],
      "name": "renounceOwnership",
      "outputs": [],
      "stateMutability": "nonpayable",
      "type": "function"
    },
    {
      "inputs": [
        {
          "internalType": "address",
          "name": "from",
          "type": "address"
        },
        {
          "internalType": "address",
          "name": "to",
          "type": "address"
        },
        {
          "internalType": "uint256",
          "name": "tokenId",
          "type": "uint256"
        }
      ],
      "name": "safeTransferFrom",
      "outputs": [],
      "stateMutability": "nonpayable",
      "type": "function"
    },
    {
      "inputs": [
        {
          "internalType": "address",
          "name": "from",
          "type": "address"
        },
        {
          "internalType": "address",
          "name": "to",
          "type": "address"
        },
        {
          "internalType": "uint256",
          "name": "tokenId",
          "type": "uint256"
        },
        {
          "internalType": "bytes",
          "name": "_data",
          "type": "bytes"
        }
      ],
      "name": "safeTransferFrom",
      "outputs": [],
      "stateMutability": "nonpayable",
      "type": "function"
    },
    {
      "inputs": [
        {
          "internalType": "uint256",
          "name": "_tokenId",
          "type": "uint256"
        }
      ],
      "name": "sellTicket",
      "outputs": [],
      "stateMutability": "payable",
      "type": "function"
    },
    {
      "inputs": [
        {
          "internalType": "address",
          "name": "operator",
          "type": "address"
        },
        {
          "internalType": "bool",
          "name": "approved",
          "type": "bool"
        }
      ],
      "name": "setApprovalForAll",
      "outputs": [],
      "stateMutability": "nonpayable",
      "type": "function"
    },
    {
      "inputs": [
        {
          "internalType": "uint256",
          "name": "_tokenId",
          "type": "uint256"
        },
        {
          "internalType": "uint256",
          "name": "_newPrice",
          "type": "uint256"
        }
      ],
      "name": "setPrice",
      "outputs": [],
      "stateMutability": "nonpayable",
      "type": "function"
    },
    {
      "inputs": [
        {
          "internalType": "bytes4",
          "name": "interfaceId",
          "type": "bytes4"
        }
      ],
      "name": "supportsInterface",
      "outputs": [
        {
          "internalType": "bool",
          "name": "",
          "type": "bool"
        }
      ],
      "stateMutability": "view",
      "type": "function"
    },
    {
      "inputs": [],
      "name": "symbol",
      "outputs": [
        {
          "internalType": "string",
          "name": "",
          "type": "string"
        }
      ],
      "stateMutability": "view",
      "type": "function"
    },
    {
      "inputs": [
        {
          "internalType": "uint256",
          "name": "_tokenId",
          "type": "uint256"
        }
      ],
      "name": "ticketSold",
      "outputs": [
        {
          "internalType": "bool",
          "name": "",
          "type": "bool"
        }
      ],
      "stateMutability": "view",
      "type": "function"
    },
    {
      "inputs": [
        {
          "internalType": "uint256",
          "name": "_tokenId",
          "type": "uint256"
        }
      ],
      "name": "ticketUsed",
      "outputs": [
        {
          "internalType": "bool",
          "name": "",
          "type": "bool"
        }
      ],
      "stateMutability": "view",
      "type": "function"
    },
    {
      "inputs": [],
      "name": "tokenCount",
      "outputs": [
        {
          "internalType": "uint256",
          "name": "",
          "type": "uint256"
        }
      ],
      "stateMutability": "view",
      "type": "function"
    },
    {
      "inputs": [
        {
          "internalType": "uint256",
          "name": "tokenId",
          "type": "uint256"
        }
      ],
      "name": "tokenURI",
      "outputs": [
        {
          "internalType": "string",
          "name": "",
          "type": "string"
        }
      ],
      "stateMutability": "view",
      "type": "function"
    },
    {
      "inputs": [
        {
          "internalType": "address",
          "name": "from",
          "type": "address"
        },
        {
          "internalType": "address",
          "name": "to",
          "type": "address"
        },
        {
          "internalType": "uint256",
          "name": "tokenId",
          "type": "uint256"
        }
      ],
      "name": "transferFrom",
      "outputs": [],
      "stateMutability": "nonpayable",
      "type": "function"
    },
    {
      "inputs": [
        {
          "internalType": "address",
          "name": "newOwner",
          "type": "address"
        }
      ],
      "name": "transferOwnership",
      "outputs": [],
      "stateMutability": "nonpayable",
      "type": "function"
    },
    {
      "inputs": [
        {
          "internalType": "uint256",
          "name": "_tokenId",
          "type": "uint256"
        }
      ],
      "name": "useTicket",
      "outputs": [
        {
          "internalType": "bool",
          "name": "",
          "type": "bool"
        }
      ],
      "stateMutability": "nonpayable",
      "type": "function"
    }
  ],
  "bytecode": "0x608060405260006009553480156200001657600080fd5b506040516200486b3803806200486b83398181016040528101906200003c919062000303565b6040518060400160405280600881526020017f4e465469636b65740000000000000000000000000000000000000000000000008152506040518060400160405280600681526020017f5449434b455400000000000000000000000000000000000000000000000000008152508160009080519060200190620000c09291906200023c565b508060019080519060200190620000d99291906200023c565b505050620000fc620000f06200016e60201b60201c565b6200017660201b60201c565b600160088190555080600a8190555033600b60006101000a81548173ffffffffffffffffffffffffffffffffffffffff021916908373ffffffffffffffffffffffffffffffffffffffff1602179055506001600b60146101000a81548160ff02191690831515021790555050620003b8565b600033905090565b6000600760009054906101000a900473ffffffffffffffffffffffffffffffffffffffff16905081600760006101000a81548173ffffffffffffffffffffffffffffffffffffffff021916908373ffffffffffffffffffffffffffffffffffffffff1602179055508173ffffffffffffffffffffffffffffffffffffffff168173ffffffffffffffffffffffffffffffffffffffff167f8be0079c531659141344cd1fd0a4f28419497f9722a3daafe3b4186f6b6457e060405160405180910390a35050565b8280546200024a9062000339565b90600052602060002090601f0160209004810192826200026e5760008555620002ba565b82601f106200028957805160ff1916838001178555620002ba565b82800160010185558215620002ba579182015b82811115620002b95782518255916020019190600101906200029c565b5b509050620002c99190620002cd565b5090565b5b80821115620002e8576000816000905550600101620002ce565b5090565b600081519050620002fd816200039e565b92915050565b6000602082840312156200031657600080fd5b60006200032684828501620002ec565b91505092915050565b6000819050919050565b600060028204905060018216806200035257607f821691505b602082108114156200036957620003686200036f565b5b50919050565b7f4e487b7100000000000000000000000000000000000000000000000000000000600052602260045260246000fd5b620003a9816200032f565b8114620003b557600080fd5b50565b6144a380620003c86000396000f3fe6080604052600436106101cd5760003560e01c806382a6c5d2116100f7578063c87b56dd11610095578063e985e9c511610064578063e985e9c5146106ec578063f192866a14610729578063f2fde38b14610745578063f7d975771461076e576101cd565b8063c87b56dd1461060a578063ca7dd37514610647578063d41d9a2714610684578063dd9c1f23146106c1576101cd565b80639f181b5e116100d15780639f181b5e14610550578063a22cb4651461057b578063b88d4fde146105a4578063c41a360a146105cd576101cd565b806382a6c5d2146104bd5780638da5cb5b146104fa57806395d89b4114610525576101cd565b8063266064481161016f578063642b5f9b1161013e578063642b5f9b1461040157806370a082311461043e578063715018a61461047b5780637939128114610492576101cd565b806326606448146103335780633366a2bc1461037057806342842e0e1461039b5780636352211e146103c4576101cd565b8063095ea7b3116101ab578063095ea7b3146102775780631d4ab540146102a057806323b872dd146102df57806325bdb2a814610308576101cd565b806301ffc9a7146101d257806306fdde031461020f578063081812fc1461023a575b600080fd5b3480156101de57600080fd5b506101f960048036038101906101f49190612e5c565b610797565b60405161020691906134c8565b60405180910390f35b34801561021b57600080fd5b50610224610879565b60405161023191906134e3565b60405180910390f35b34801561024657600080fd5b50610261600480360381019061025c9190612f2d565b61090b565b60405161026e9190613446565b60405180910390f35b34801561028357600080fd5b5061029e60048036038101906102999190612e20565b610990565b005b3480156102ac57600080fd5b506102c760048036038101906102c29190612f2d565b610aa8565b6040516102d693929190613880565b60405180910390f35b3480156102eb57600080fd5b5061030660048036038101906103019190612d1a565b610b5a565b005b34801561031457600080fd5b5061031d610bba565b60405161032a91906134c8565b60405180910390f35b34801561033f57600080fd5b5061035a60048036038101906103559190612f2d565b610bd1565b60405161036791906134c8565b60405180910390f35b34801561037c57600080fd5b50610385610c99565b6040516103929190613461565b60405180910390f35b3480156103a757600080fd5b506103c260048036038101906103bd9190612d1a565b610cbf565b005b3480156103d057600080fd5b506103eb60048036038101906103e69190612f2d565b610cdf565b6040516103f89190613446565b60405180910390f35b34801561040d57600080fd5b5061042860048036038101906104239190612f2d565b610d91565b60405161043591906134c8565b60405180910390f35b34801561044a57600080fd5b5061046560048036038101906104609190612cb5565b610dbb565b6040516104729190613865565b60405180910390f35b34801561048757600080fd5b50610490610e73565b005b34801561049e57600080fd5b506104a7610efb565b6040516104b49190613865565b60405180910390f35b3480156104c957600080fd5b506104e460048036038101906104df9190612f2d565b610f01565b6040516104f191906134c8565b60405180910390f35b34801561050657600080fd5b5061050f610f2b565b60405161051c9190613446565b60405180910390f35b34801561053157600080fd5b5061053a610f55565b60405161054791906134e3565b60405180910390f35b34801561055c57600080fd5b50610565610fe7565b6040516105729190613865565b60405180910390f35b34801561058757600080fd5b506105a2600480360381019061059d9190612de4565b610fed565b005b3480156105b057600080fd5b506105cb60048036038101906105c69190612d69565b611003565b005b3480156105d957600080fd5b506105f460048036038101906105ef9190612f2d565b611065565b6040516106019190613446565b60405180910390f35b34801561061657600080fd5b50610631600480360381019061062c9190612f2d565b611077565b60405161063e91906134e3565b60405180910390f35b34801561065357600080fd5b5061066e60048036038101906106699190612f2d565b6111c9565b60405161067b9190613865565b60405180910390f35b34801561069057600080fd5b506106ab60048036038101906106a69190612eae565b61120e565b6040516106b89190613865565b60405180910390f35b3480156106cd57600080fd5b506106d66114dd565b6040516106e391906134c8565b60405180910390f35b3480156106f857600080fd5b50610713600480360381019061070e9190612cde565b61159a565b60405161072091906134c8565b60405180910390f35b610743600480360381019061073e9190612f2d565b61162e565b005b34801561075157600080fd5b5061076c60048036038101906107679190612cb5565b611a82565b005b34801561077a57600080fd5b5061079560048036038101906107909190612f56565b611b7a565b005b60007f80ac58cd000000000000000000000000000000000000000000000000000000007bffffffffffffffffffffffffffffffffffffffffffffffffffffffff1916827bffffffffffffffffffffffffffffffffffffffffffffffffffffffff1916148061086257507f5b5e139f000000000000000000000000000000000000000000000000000000007bffffffffffffffffffffffffffffffffffffffffffffffffffffffff1916827bffffffffffffffffffffffffffffffffffffffffffffffffffffffff1916145b80610872575061087182611c57565b5b9050919050565b60606000805461088890613b8e565b80601f01602080910402602001604051908101604052809291908181526020018280546108b490613b8e565b80156109015780601f106108d657610100808354040283529160200191610901565b820191906000526020600020905b8154815290600101906020018083116108e457829003601f168201915b5050505050905090565b600061091682611cc1565b610955576040517f08c379a000000000000000000000000000000000000000000000000000000000815260040161094c90613725565b60405180910390fd5b6004600083815260200190815260200160002060009054906101000a900473ffffffffffffffffffffffffffffffffffffffff169050919050565b600061099b82610cdf565b90508073ffffffffffffffffffffffffffffffffffffffff168373ffffffffffffffffffffffffffffffffffffffff161415610a0c576040517f08c379a0000000000000000000000000000000000000000000000000000000008152600401610a03906137c5565b60405180910390fd5b8073ffffffffffffffffffffffffffffffffffffffff16610a2b611d2d565b73ffffffffffffffffffffffffffffffffffffffff161480610a5a5750610a5981610a54611d2d565b61159a565b5b610a99576040517f08c379a0000000000000000000000000000000000000000000000000000000008152600401610a9090613665565b60405180910390fd5b610aa38383611d35565b505050565b600c602052806000526040600020600091509050806000015490806001018054610ad190613b8e565b80601f0160208091040260200160405190810160405280929190818152602001828054610afd90613b8e565b8015610b4a5780601f10610b1f57610100808354040283529160200191610b4a565b820191906000526020600020905b815481529060010190602001808311610b2d57829003601f168201915b5050505050908060020154905083565b610b6b610b65611d2d565b82611dee565b610baa576040517f08c379a0000000000000000000000000000000000000000000000000000000008152600401610ba1906137e5565b60405180910390fd5b610bb5838383611ecc565b505050565b6000600b60149054906101000a900460ff16905090565b6000610bdc82611cc1565b610c1b576040517f08c379a0000000000000000000000000000000000000000000000000000000008152600401610c1290613625565b60405180910390fd5b610c2482610d91565b15610c64576040517f08c379a0000000000000000000000000000000000000000000000000000000008152600401610c5b90613505565b60405180910390fd5b6001600f600084815260200190815260200160002060006101000a81548160ff02191690831515021790555060019050919050565b600b60009054906101000a900473ffffffffffffffffffffffffffffffffffffffff1681565b610cda83838360405180602001604052806000815250611003565b505050565b6000806002600084815260200190815260200160002060009054906101000a900473ffffffffffffffffffffffffffffffffffffffff169050600073ffffffffffffffffffffffffffffffffffffffff168173ffffffffffffffffffffffffffffffffffffffff161415610d88576040517f08c379a0000000000000000000000000000000000000000000000000000000008152600401610d7f906136a5565b60405180910390fd5b80915050919050565b6000600f600083815260200190815260200160002060009054906101000a900460ff169050919050565b60008073ffffffffffffffffffffffffffffffffffffffff168273ffffffffffffffffffffffffffffffffffffffff161415610e2c576040517f08c379a0000000000000000000000000000000000000000000000000000000008152600401610e2390613685565b60405180910390fd5b600360008373ffffffffffffffffffffffffffffffffffffffff1673ffffffffffffffffffffffffffffffffffffffff168152602001908152602001600020549050919050565b610e7b611d2d565b73ffffffffffffffffffffffffffffffffffffffff16610e99610f2b565b73ffffffffffffffffffffffffffffffffffffffff1614610eef576040517f08c379a0000000000000000000000000000000000000000000000000000000008152600401610ee690613745565b60405180910390fd5b610ef96000612133565b565b600a5481565b6000600d600083815260200190815260200160002060009054906101000a900460ff169050919050565b6000600760009054906101000a900473ffffffffffffffffffffffffffffffffffffffff16905090565b606060018054610f6490613b8e565b80601f0160208091040260200160405190810160405280929190818152602001828054610f9090613b8e565b8015610fdd5780601f10610fb257610100808354040283529160200191610fdd565b820191906000526020600020905b815481529060010190602001808311610fc057829003601f168201915b5050505050905090565b60095481565b610fff610ff8611d2d565b83836121f9565b5050565b61101461100e611d2d565b83611dee565b611053576040517f08c379a000000000000000000000000000000000000000000000000000000000815260040161104a906137e5565b60405180910390fd5b61105f84848484612366565b50505050565b600061107082610cdf565b9050919050565b606061108282611cc1565b6110c1576040517f08c379a00000000000000000000000000000000000000000000000000000000081526004016110b890613705565b60405180910390fd5b60006006600084815260200190815260200160002080546110e190613b8e565b80601f016020809104026020016040519081016040528092919081815260200182805461110d90613b8e565b801561115a5780601f1061112f5761010080835404028352916020019161115a565b820191906000526020600020905b81548152906001019060200180831161113d57829003601f168201915b50505050509050600061116b6123c2565b90506000815114156111815781925050506111c4565b6000825111156111b657808260405160200161119e929190613422565b604051602081830303815290604052925050506111c4565b6111bf846123d9565b925050505b919050565b60006064600a5460646111dc91906139b1565b600c6000858152602001908152602001600020600201546111fd9190613a38565b6112079190613a07565b9050919050565b600060026008541415611256576040517f08c379a000000000000000000000000000000000000000000000000000000000815260040161124d90613825565b60405180910390fd5b6002600881905550611266611d2d565b73ffffffffffffffffffffffffffffffffffffffff16611284610f2b565b73ffffffffffffffffffffffffffffffffffffffff16146112da576040517f08c379a00000000000000000000000000000000000000000000000000000000081526004016112d190613745565b60405180910390fd5b600960008154809291906112ed90613bf1565b91905055506112fd600954611cc1565b1561133d576040517f08c379a000000000000000000000000000000000000000000000000000000000815260040161133490613805565b60405180910390fd5b61134933600954612480565b6113556009548561249e565b61135d612ab8565b6009548160000181815250508381602001819052508281604001818152505080600c600060095481526020019081526020016000206000820151816000015560208201518160010190805190602001906113b8929190612ad9565b50604082015181600201559050506000600d6000600954815260200190815260200160002060006101000a81548160ff0219169083151502179055506000600f6000600954815260200190815260200160002060006101000a81548160ff02191690831515021790555033600e6000600954815260200190815260200160002060006101000a81548173ffffffffffffffffffffffffffffffffffffffff021916908373ffffffffffffffffffffffffffffffffffffffff1602179055503373ffffffffffffffffffffffffffffffffffffffff167f1ab3864560512bcd762f59576711bc5e90d3ef93e9253b43cd6be191b4a5814e600954856040516114c09291906138be565b60405180910390a260095491505060016008819055509392505050565b60006114e7611d2d565b73ffffffffffffffffffffffffffffffffffffffff16611505610f2b565b73ffffffffffffffffffffffffffffffffffffffff161461155b576040517f08c379a000000000000000000000000000000000000000000000000000000000815260040161155290613745565b60405180910390fd5b600b60149054906101000a900460ff1615600b60146101000a81548160ff021916908315150217905550600b60149054906101000a900460ff16905090565b6000600560008473ffffffffffffffffffffffffffffffffffffffff1673ffffffffffffffffffffffffffffffffffffffff16815260200190815260200160002060008373ffffffffffffffffffffffffffffffffffffffff1673ffffffffffffffffffffffffffffffffffffffff16815260200190815260200160002060009054906101000a900460ff16905092915050565b60026008541415611674576040517f08c379a000000000000000000000000000000000000000000000000000000000815260040161166b90613825565b60405180910390fd5b600260088190555061168581611cc1565b6116c4576040517f08c379a00000000000000000000000000000000000000000000000000000000081526004016116bb90613625565b60405180910390fd5b6116cd816111c9565b34101561170f576040517f08c379a000000000000000000000000000000000000000000000000000000000815260040161170690613645565b60405180910390fd5b600d600082815260200190815260200160002060009054906101000a900460ff1615611770576040517f08c379a000000000000000000000000000000000000000000000000000000000815260040161176790613845565b60405180910390fd5b60011515600b60149054906101000a900460ff161515146117c6576040517f08c379a00000000000000000000000000000000000000000000000000000000081526004016117bd90613525565b60405180910390fd5b3373ffffffffffffffffffffffffffffffffffffffff166117e682611065565b73ffffffffffffffffffffffffffffffffffffffff16141561183d576040517f08c379a0000000000000000000000000000000000000000000000000000000008152600401611834906137a5565b60405180910390fd5b600061184882610cdf565b905060003390506000600c600085815260200190815260200160002060020154905060006064600a548361187c9190613a38565b6118869190613a07565b9050611893848487611ecc565b6001600d600087815260200190815260200160002060006101000a81548160ff02191690831515021790555082600e600087815260200190815260200160002060006101000a81548173ffffffffffffffffffffffffffffffffffffffff021916908373ffffffffffffffffffffffffffffffffffffffff1602179055508373ffffffffffffffffffffffffffffffffffffffff166108fc82846119379190613a92565b9081150290604051600060405180830381858888f19350505050158015611962573d6000803e3d6000fd5b5061196b610f2b565b73ffffffffffffffffffffffffffffffffffffffff166108fc829081150290604051600060405180830381858888f193505050501580156119b0573d6000803e3d6000fd5b5081341115611a0c573373ffffffffffffffffffffffffffffffffffffffff166108fc83346119df9190613a92565b9081150290604051600060405180830381858888f19350505050158015611a0a573d6000803e3d6000fd5b505b8273ffffffffffffffffffffffffffffffffffffffff168473ffffffffffffffffffffffffffffffffffffffff167f4ebd6ef39c1235e69ba7dedf24ad43bdeb57deb289d98473668070d6ca9b685e8785604051611a6b9291906138be565b60405180910390a350505050600160088190555050565b611a8a611d2d565b73ffffffffffffffffffffffffffffffffffffffff16611aa8610f2b565b73ffffffffffffffffffffffffffffffffffffffff1614611afe576040517f08c379a0000000000000000000000000000000000000000000000000000000008152600401611af590613745565b60405180910390fd5b600073ffffffffffffffffffffffffffffffffffffffff168173ffffffffffffffffffffffffffffffffffffffff161415611b6e576040517f08c379a0000000000000000000000000000000000000000000000000000000008152600401611b6590613565565b60405180910390fd5b611b7781612133565b50565b611b8382611cc1565b611bc2576040517f08c379a0000000000000000000000000000000000000000000000000000000008152600401611bb990613625565b60405180910390fd5b3373ffffffffffffffffffffffffffffffffffffffff16611be283610cdf565b73ffffffffffffffffffffffffffffffffffffffff1614611c38576040517f08c379a0000000000000000000000000000000000000000000000000000000008152600401611c2f90613765565b60405180910390fd5b80600c6000848152602001908152602001600020600201819055505050565b60007f01ffc9a7000000000000000000000000000000000000000000000000000000007bffffffffffffffffffffffffffffffffffffffffffffffffffffffff1916827bffffffffffffffffffffffffffffffffffffffffffffffffffffffff1916149050919050565b60008073ffffffffffffffffffffffffffffffffffffffff166002600084815260200190815260200160002060009054906101000a900473ffffffffffffffffffffffffffffffffffffffff1673ffffffffffffffffffffffffffffffffffffffff1614159050919050565b600033905090565b816004600083815260200190815260200160002060006101000a81548173ffffffffffffffffffffffffffffffffffffffff021916908373ffffffffffffffffffffffffffffffffffffffff160217905550808273ffffffffffffffffffffffffffffffffffffffff16611da883610cdf565b73ffffffffffffffffffffffffffffffffffffffff167f8c5be1e5ebec7d5bd14f71427d1e84f3dd0314c0f7b2291e5b200ac8c7c3b92560405160405180910390a45050565b6000611df982611cc1565b611e38576040517f08c379a0000000000000000000000000000000000000000000000000000000008152600401611e2f90613605565b60405180910390fd5b6000611e4383610cdf565b90508073ffffffffffffffffffffffffffffffffffffffff168473ffffffffffffffffffffffffffffffffffffffff161480611eb257508373ffffffffffffffffffffffffffffffffffffffff16611e9a8461090b565b73ffffffffffffffffffffffffffffffffffffffff16145b80611ec35750611ec2818561159a565b5b91505092915050565b8273ffffffffffffffffffffffffffffffffffffffff16611eec82610cdf565b73ffffffffffffffffffffffffffffffffffffffff1614611f42576040517f08c379a0000000000000000000000000000000000000000000000000000000008152600401611f3990613585565b60405180910390fd5b600073ffffffffffffffffffffffffffffffffffffffff168273ffffffffffffffffffffffffffffffffffffffff161415611fb2576040517f08c379a0000000000000000000000000000000000000000000000000000000008152600401611fa9906135c5565b60405180910390fd5b611fbd838383612512565b611fc8600082611d35565b6001600360008573ffffffffffffffffffffffffffffffffffffffff1673ffffffffffffffffffffffffffffffffffffffff16815260200190815260200160002060008282546120189190613a92565b925050819055506001600360008473ffffffffffffffffffffffffffffffffffffffff1673ffffffffffffffffffffffffffffffffffffffff168152602001908152602001600020600082825461206f91906139b1565b92505081905550816002600083815260200190815260200160002060006101000a81548173ffffffffffffffffffffffffffffffffffffffff021916908373ffffffffffffffffffffffffffffffffffffffff160217905550808273ffffffffffffffffffffffffffffffffffffffff168473ffffffffffffffffffffffffffffffffffffffff167fddf252ad1be2c89b69c2b068fc378daa952ba7f163c4a11628f55a4df523b3ef60405160405180910390a461212e838383612517565b505050565b6000600760009054906101000a900473ffffffffffffffffffffffffffffffffffffffff16905081600760006101000a81548173ffffffffffffffffffffffffffffffffffffffff021916908373ffffffffffffffffffffffffffffffffffffffff1602179055508173ffffffffffffffffffffffffffffffffffffffff168173ffffffffffffffffffffffffffffffffffffffff167f8be0079c531659141344cd1fd0a4f28419497f9722a3daafe3b4186f6b6457e060405160405180910390a35050565b8173ffffffffffffffffffffffffffffffffffffffff168373ffffffffffffffffffffffffffffffffffffffff161415612268576040517f08c379a000000000000000000000000000000000000000000000000000000000815260040161225f906135e5565b60405180910390fd5b80600560008573ffffffffffffffffffffffffffffffffffffffff1673ffffffffffffffffffffffffffffffffffffffff16815260200190815260200160002060008473ffffffffffffffffffffffffffffffffffffffff1673ffffffffffffffffffffffffffffffffffffffff16815260200190815260200160002060006101000a81548160ff0219169083151502179055508173ffffffffffffffffffffffffffffffffffffffff168373ffffffffffffffffffffffffffffffffffffffff167f17307eab39ab6107e8899845ad3d59bd9653f200f220920489ca2b5937696c318360405161235991906134c8565b60405180910390a3505050565b612371848484611ecc565b61237d8484848461251c565b6123bc576040517f08c379a00000000000000000000000000000000000000000000000000000000081526004016123b390613545565b60405180910390fd5b50505050565b606060405180602001604052806000815250905090565b60606123e482611cc1565b612423576040517f08c379a000000000000000000000000000000000000000000000000000000000815260040161241a90613785565b60405180910390fd5b600061242d6123c2565b9050600081511161244d5760405180602001604052806000815250612478565b80612457846126b3565b604051602001612468929190613422565b6040516020818303038152906040525b915050919050565b61249a828260405180602001604052806000815250612860565b5050565b6124a782611cc1565b6124e6576040517f08c379a00000000000000000000000000000000000000000000000000000000081526004016124dd906136c5565b60405180910390fd5b8060066000848152602001908152602001600020908051906020019061250d929190612ad9565b505050565b505050565b505050565b600061253d8473ffffffffffffffffffffffffffffffffffffffff166128bb565b156126a6578373ffffffffffffffffffffffffffffffffffffffff1663150b7a02612566611d2d565b8786866040518563ffffffff1660e01b8152600401612588949392919061347c565b602060405180830381600087803b1580156125a257600080fd5b505af19250505080156125d357506040513d601f19601f820116820180604052508101906125d09190612e85565b60015b612656573d8060008114612603576040519150601f19603f3d011682016040523d82523d6000602084013e612608565b606091505b5060008151141561264e576040517f08c379a000000000000000000000000000000000000000000000000000000000815260040161264590613545565b60405180910390fd5b805181602001fd5b63150b7a0260e01b7bffffffffffffffffffffffffffffffffffffffffffffffffffffffff1916817bffffffffffffffffffffffffffffffffffffffffffffffffffffffff1916149150506126ab565b600190505b949350505050565b606060008214156126fb576040518060400160405280600181526020017f3000000000000000000000000000000000000000000000000000000000000000815250905061285b565b600082905060005b6000821461272d57808061271690613bf1565b915050600a826127269190613a07565b9150612703565b60008167ffffffffffffffff81111561276f577f4e487b7100000000000000000000000000000000000000000000000000000000600052604160045260246000fd5b6040519080825280601f01601f1916602001820160405280156127a15781602001600182028036833780820191505090505b5090505b60008514612854576001826127ba9190613a92565b9150600a856127c99190613c3a565b60306127d591906139b1565b60f81b818381518110612811577f4e487b7100000000000000000000000000000000000000000000000000000000600052603260045260246000fd5b60200101907effffffffffffffffffffffffffffffffffffffffffffffffffffffffffffff1916908160001a905350600a8561284d9190613a07565b94506127a5565b8093505050505b919050565b61286a83836128de565b612877600084848461251c565b6128b6576040517f08c379a00000000000000000000000000000000000000000000000000000000081526004016128ad90613545565b60405180910390fd5b505050565b6000808273ffffffffffffffffffffffffffffffffffffffff163b119050919050565b600073ffffffffffffffffffffffffffffffffffffffff168273ffffffffffffffffffffffffffffffffffffffff16141561294e576040517f08c379a0000000000000000000000000000000000000000000000000000000008152600401612945906136e5565b60405180910390fd5b61295781611cc1565b15612997576040517f08c379a000000000000000000000000000000000000000000000000000000000815260040161298e906135a5565b60405180910390fd5b6129a360008383612512565b6001600360008473ffffffffffffffffffffffffffffffffffffffff1673ffffffffffffffffffffffffffffffffffffffff16815260200190815260200160002060008282546129f391906139b1565b92505081905550816002600083815260200190815260200160002060006101000a81548173ffffffffffffffffffffffffffffffffffffffff021916908373ffffffffffffffffffffffffffffffffffffffff160217905550808273ffffffffffffffffffffffffffffffffffffffff16600073ffffffffffffffffffffffffffffffffffffffff167fddf252ad1be2c89b69c2b068fc378daa952ba7f163c4a11628f55a4df523b3ef60405160405180910390a4612ab460008383612517565b5050565b60405180606001604052806000815260200160608152602001600081525090565b828054612ae590613b8e565b90600052602060002090601f016020900481019282612b075760008555612b4e565b82601f10612b2057805160ff1916838001178555612b4e565b82800160010185558215612b4e579182015b82811115612b4d578251825591602001919060010190612b32565b5b509050612b5b9190612b5f565b5090565b5b80821115612b78576000816000905550600101612b60565b5090565b6000612b8f612b8a8461390c565b6138e7565b905082815260208101848484011115612ba757600080fd5b612bb2848285613b4c565b509392505050565b6000612bcd612bc88461393d565b6138e7565b905082815260208101848484011115612be557600080fd5b612bf0848285613b4c565b509392505050565b600081359050612c0781614411565b92915050565b600081359050612c1c81614428565b92915050565b600081359050612c318161443f565b92915050565b600081519050612c468161443f565b92915050565b600082601f830112612c5d57600080fd5b8135612c6d848260208601612b7c565b91505092915050565b600082601f830112612c8757600080fd5b8135612c97848260208601612bba565b91505092915050565b600081359050612caf81614456565b92915050565b600060208284031215612cc757600080fd5b6000612cd584828501612bf8565b91505092915050565b60008060408385031215612cf157600080fd5b6000612cff85828601612bf8565b9250506020612d1085828601612bf8565b9150509250929050565b600080600060608486031215612d2f57600080fd5b6000612d3d86828701612bf8565b9350506020612d4e86828701612bf8565b9250506040612d5f86828701612ca0565b9150509250925092565b60008060008060808587031215612d7f57600080fd5b6000612d8d87828801612bf8565b9450506020612d9e87828801612bf8565b9350506040612daf87828801612ca0565b925050606085013567ffffffffffffffff811115612dcc57600080fd5b612dd887828801612c4c565b91505092959194509250565b60008060408385031215612df757600080fd5b6000612e0585828601612bf8565b9250506020612e1685828601612c0d565b9150509250929050565b60008060408385031215612e3357600080fd5b6000612e4185828601612bf8565b9250506020612e5285828601612ca0565b9150509250929050565b600060208284031215612e6e57600080fd5b6000612e7c84828501612c22565b91505092915050565b600060208284031215612e9757600080fd5b6000612ea584828501612c37565b91505092915050565b600080600060608486031215612ec357600080fd5b600084013567ffffffffffffffff811115612edd57600080fd5b612ee986828701612c76565b935050602084013567ffffffffffffffff811115612f0657600080fd5b612f1286828701612c76565b9250506040612f2386828701612ca0565b9150509250925092565b600060208284031215612f3f57600080fd5b6000612f4d84828501612ca0565b91505092915050565b60008060408385031215612f6957600080fd5b6000612f7785828601612ca0565b9250506020612f8885828601612ca0565b9150509250929050565b612f9b81613ad8565b82525050565b612faa81613ac6565b82525050565b612fb981613aea565b82525050565b6000612fca8261396e565b612fd48185613984565b9350612fe4818560208601613b5b565b612fed81613d27565b840191505092915050565b600061300382613979565b61300d8185613995565b935061301d818560208601613b5b565b61302681613d27565b840191505092915050565b600061303c82613979565b61304681856139a6565b9350613056818560208601613b5b565b80840191505092915050565b600061306f602483613995565b915061307a82613d38565b604082019050919050565b6000613092601c83613995565b915061309d82613d87565b602082019050919050565b60006130b5603283613995565b91506130c082613db0565b604082019050919050565b60006130d8602683613995565b91506130e382613dff565b604082019050919050565b60006130fb602583613995565b915061310682613e4e565b604082019050919050565b600061311e601c83613995565b915061312982613e9d565b602082019050919050565b6000613141602483613995565b915061314c82613ec6565b604082019050919050565b6000613164601983613995565b915061316f82613f15565b602082019050919050565b6000613187602c83613995565b915061319282613f3e565b604082019050919050565b60006131aa601d83613995565b91506131b582613f8d565b602082019050919050565b60006131cd601c83613995565b91506131d882613fb6565b602082019050919050565b60006131f0603883613995565b91506131fb82613fdf565b604082019050919050565b6000613213602a83613995565b915061321e8261402e565b604082019050919050565b6000613236602983613995565b91506132418261407d565b604082019050919050565b6000613259602e83613995565b9150613264826140cc565b604082019050919050565b600061327c602083613995565b91506132878261411b565b602082019050919050565b600061329f603183613995565b91506132aa82614144565b604082019050919050565b60006132c2602c83613995565b91506132cd82614193565b604082019050919050565b60006132e5602083613995565b91506132f0826141e2565b602082019050919050565b6000613308601c83613995565b91506133138261420b565b602082019050919050565b600061332b602f83613995565b915061333682614234565b604082019050919050565b600061334e603583613995565b915061335982614283565b604082019050919050565b6000613371602183613995565b915061337c826142d2565b604082019050919050565b6000613394603183613995565b915061339f82614321565b604082019050919050565b60006133b7601d83613995565b91506133c282614370565b602082019050919050565b60006133da601f83613995565b91506133e582614399565b602082019050919050565b60006133fd602483613995565b9150613408826143c2565b604082019050919050565b61341c81613b42565b82525050565b600061342e8285613031565b915061343a8284613031565b91508190509392505050565b600060208201905061345b6000830184612fa1565b92915050565b60006020820190506134766000830184612f92565b92915050565b60006080820190506134916000830187612fa1565b61349e6020830186612fa1565b6134ab6040830185613413565b81810360608301526134bd8184612fbf565b905095945050505050565b60006020820190506134dd6000830184612fb0565b92915050565b600060208201905081810360008301526134fd8184612ff8565b905092915050565b6000602082019050818103600083015261351e81613062565b9050919050565b6000602082019050818103600083015261353e81613085565b9050919050565b6000602082019050818103600083015261355e816130a8565b9050919050565b6000602082019050818103600083015261357e816130cb565b9050919050565b6000602082019050818103600083015261359e816130ee565b9050919050565b600060208201905081810360008301526135be81613111565b9050919050565b600060208201905081810360008301526135de81613134565b9050919050565b600060208201905081810360008301526135fe81613157565b9050919050565b6000602082019050818103600083015261361e8161317a565b9050919050565b6000602082019050818103600083015261363e8161319d565b9050919050565b6000602082019050818103600083015261365e816131c0565b9050919050565b6000602082019050818103600083015261367e816131e3565b9050919050565b6000602082019050818103600083015261369e81613206565b9050919050565b600060208201905081810360008301526136be81613229565b9050919050565b600060208201905081810360008301526136de8161324c565b9050919050565b600060208201905081810360008301526136fe8161326f565b9050919050565b6000602082019050818103600083015261371e81613292565b9050919050565b6000602082019050818103600083015261373e816132b5565b9050919050565b6000602082019050818103600083015261375e816132d8565b9050919050565b6000602082019050818103600083015261377e816132fb565b9050919050565b6000602082019050818103600083015261379e8161331e565b9050919050565b600060208201905081810360008301526137be81613341565b9050919050565b600060208201905081810360008301526137de81613364565b9050919050565b600060208201905081810360008301526137fe81613387565b9050919050565b6000602082019050818103600083015261381e816133aa565b9050919050565b6000602082019050818103600083015261383e816133cd565b9050919050565b6000602082019050818103600083015261385e816133f0565b9050919050565b600060208201905061387a6000830184613413565b92915050565b60006060820190506138956000830186613413565b81810360208301526138a78185612ff8565b90506138b66040830184613413565b949350505050565b60006040820190506138d36000830185613413565b6138e06020830184613413565b9392505050565b60006138f1613902565b90506138fd8282613bc0565b919050565b6000604051905090565b600067ffffffffffffffff82111561392757613926613cf8565b5b61393082613d27565b9050602081019050919050565b600067ffffffffffffffff82111561395857613957613cf8565b5b61396182613d27565b9050602081019050919050565b600081519050919050565b600081519050919050565b600082825260208201905092915050565b600082825260208201905092915050565b600081905092915050565b60006139bc82613b42565b91506139c783613b42565b9250827fffffffffffffffffffffffffffffffffffffffffffffffffffffffffffffffff038211156139fc576139fb613c6b565b5b828201905092915050565b6000613a1282613b42565b9150613a1d83613b42565b925082613a2d57613a2c613c9a565b5b828204905092915050565b6000613a4382613b42565b9150613a4e83613b42565b9250817fffffffffffffffffffffffffffffffffffffffffffffffffffffffffffffffff0483118215151615613a8757613a86613c6b565b5b828202905092915050565b6000613a9d82613b42565b9150613aa883613b42565b925082821015613abb57613aba613c6b565b5b828203905092915050565b6000613ad182613b22565b9050919050565b6000613ae382613b22565b9050919050565b60008115159050919050565b60007fffffffff0000000000000000000000000000000000000000000000000000000082169050919050565b600073ffffffffffffffffffffffffffffffffffffffff82169050919050565b6000819050919050565b82818337600083830152505050565b60005b83811015613b79578082015181840152602081019050613b5e565b83811115613b88576000848401525b50505050565b60006002820490506001821680613ba657607f821691505b60208210811415613bba57613bb9613cc9565b5b50919050565b613bc982613d27565b810181811067ffffffffffffffff82111715613be857613be7613cf8565b5b80604052505050565b6000613bfc82613b42565b91507fffffffffffffffffffffffffffffffffffffffffffffffffffffffffffffffff821415613c2f57613c2e613c6b565b5b600182019050919050565b6000613c4582613b42565b9150613c5083613b42565b925082613c6057613c5f613c9a565b5b828206905092915050565b7f4e487b7100000000000000000000000000000000000000000000000000000000600052601160045260246000fd5b7f4e487b7100000000000000000000000000000000000000000000000000000000600052601260045260246000fd5b7f4e487b7100000000000000000000000000000000000000000000000000000000600052602260045260246000fd5b7f4e487b7100000000000000000000000000000000000000000000000000000000600052604160045260246000fd5b6000601f19601f8301169050919050565b7f4552433732313a205469636b65742068617320616c7265616479206265656e2060008201527f7573656400000000000000000000000000000000000000000000000000000000602082015250565b7f4552433732313a205469636b65742073616c6520697320636c6f736500000000600082015250565b7f4552433732313a207472616e7366657220746f206e6f6e20455243373231526560008201527f63656976657220696d706c656d656e7465720000000000000000000000000000602082015250565b7f4f776e61626c653a206e6577206f776e657220697320746865207a65726f206160008201527f6464726573730000000000000000000000000000000000000000000000000000602082015250565b7f4552433732313a207472616e736665722066726f6d20696e636f72726563742060008201527f6f776e6572000000000000000000000000000000000000000000000000000000602082015250565b7f4552433732313a20746f6b656e20616c7265616479206d696e74656400000000600082015250565b7f4552433732313a207472616e7366657220746f20746865207a65726f2061646460008201527f7265737300000000000000000000000000000000000000000000000000000000602082015250565b7f4552433732313a20617070726f766520746f2063616c6c657200000000000000600082015250565b7f4552433732313a206f70657261746f7220717565727920666f72206e6f6e657860008201527f697374656e7420746f6b656e0000000000000000000000000000000000000000602082015250565b7f4552433732313a205469636b657420646f6573206e6f74206578697374000000600082015250565b7f4552433732313a20496e73756666696369656e74207061796d656e7400000000600082015250565b7f4552433732313a20617070726f76652063616c6c6572206973206e6f74206f7760008201527f6e6572206e6f7220617070726f76656420666f7220616c6c0000000000000000602082015250565b7f4552433732313a2062616c616e636520717565727920666f7220746865207a6560008201527f726f206164647265737300000000000000000000000000000000000000000000602082015250565b7f4552433732313a206f776e657220717565727920666f72206e6f6e657869737460008201527f656e7420746f6b656e0000000000000000000000000000000000000000000000602082015250565b7f45524337323155524953746f726167653a2055524920736574206f66206e6f6e60008201527f6578697374656e7420746f6b656e000000000000000000000000000000000000602082015250565b7f4552433732313a206d696e7420746f20746865207a65726f2061646472657373600082015250565b7f45524337323155524953746f726167653a2055524920717565727920666f722060008201527f6e6f6e6578697374656e7420746f6b656e000000000000000000000000000000602082015250565b7f4552433732313a20617070726f76656420717565727920666f72206e6f6e657860008201527f697374656e7420746f6b656e0000000000000000000000000000000000000000602082015250565b7f4f776e61626c653a2063616c6c6572206973206e6f7420746865206f776e6572600082015250565b7f4552433732313a204e6f7420746865207469636b6574206f776e657200000000600082015250565b7f4552433732314d657461646174613a2055524920717565727920666f72206e6f60008201527f6e6578697374656e7420746f6b656e0000000000000000000000000000000000602082015250565b7f4552433732313a204d73672e73656e64657220697320616c726561647920746860008201527f65206f776e6572206f6620746865207469636b65740000000000000000000000602082015250565b7f4552433732313a20617070726f76616c20746f2063757272656e74206f776e6560008201527f7200000000000000000000000000000000000000000000000000000000000000602082015250565b7f4552433732313a207472616e736665722063616c6c6572206973206e6f74206f60008201527f776e6572206e6f7220617070726f766564000000000000000000000000000000602082015250565b7f4552433732313a205469636b657420616c726561647920657869737473000000600082015250565b7f5265656e7472616e637947756172643a207265656e7472616e742063616c6c00600082015250565b7f4552433732313a205469636b65742068617320616c7265616479206265656e2060008201527f736f6c6400000000000000000000000000000000000000000000000000000000602082015250565b61441a81613ac6565b811461442557600080fd5b50565b61443181613aea565b811461443c57600080fd5b50565b61444881613af6565b811461445357600080fd5b50565b61445f81613b42565b811461446a57600080fd5b5056fea2646970667358221220a84df661193560f78b6800e1723b502e8197a7764652fa9fdc837a0410c62f7264736f6c63430008040033",
  "linkReferences": {},
  "deployedLinkReferences": {}
}