{
  "_format": "hh-sol-artifact-1",
  "contractName": "NFT",
  "sourceName": "src/backend/contracts/NFT.sol",
  "abi": [
    {
      "inputs": [
        {
          "internalType": "uint256",
          "name": "_porcentajeReventa",
          "type": "uint256"
        }
      ],
      "stateMutability": "nonpayable",
      "type": "constructor"
    },
    {
      "anonymous": false,
      "inputs": [
        {
          "indexed": true,
          "internalType": "address",
          "name": "owner",
          "type": "address"
        },
        {
          "indexed": true,
          "internalType": "address",
          "name": "approved",
          "type": "address"
        },
        {
          "indexed": true,
          "internalType": "uint256",
          "name": "tokenId",
          "type": "uint256"
        }
      ],
      "name": "Approval",
      "type": "event"
    },
    {
      "anonymous": false,
      "inputs": [
        {
          "indexed": true,
          "internalType": "address",
          "name": "owner",
          "type": "address"
        },
        {
          "indexed": true,
          "internalType": "address",
          "name": "operator",
          "type": "address"
        },
        {
          "indexed": false,
          "internalType": "bool",
          "name": "approved",
          "type": "bool"
        }
      ],
      "name": "ApprovalForAll",
      "type": "event"
    },
    {
      "anonymous": false,
      "inputs": [
        {
          "indexed": false,
          "internalType": "uint256",
          "name": "idEntrada",
          "type": "uint256"
        },
        {
          "indexed": false,
          "internalType": "uint256",
          "name": "precio",
          "type": "uint256"
        },
        {
          "indexed": true,
          "internalType": "address",
          "name": "vendedor",
          "type": "address"
        },
        {
          "indexed": true,
          "internalType": "address",
          "name": "comprador",
          "type": "address"
        }
      ],
      "name": "Bought",
      "type": "event"
    },
    {
      "anonymous": false,
      "inputs": [
        {
          "indexed": false,
          "internalType": "uint256",
          "name": "idEntrada",
          "type": "uint256"
        },
        {
          "indexed": false,
          "internalType": "uint256",
          "name": "precio",
          "type": "uint256"
        },
        {
          "indexed": true,
          "internalType": "address",
          "name": "vendedor",
          "type": "address"
        }
      ],
      "name": "Offered",
      "type": "event"
    },
    {
      "anonymous": false,
      "inputs": [
        {
          "indexed": true,
          "internalType": "address",
          "name": "previousOwner",
          "type": "address"
        },
        {
          "indexed": true,
          "internalType": "address",
          "name": "newOwner",
          "type": "address"
        }
      ],
      "name": "OwnershipTransferred",
      "type": "event"
    },
    {
      "anonymous": false,
      "inputs": [
        {
          "indexed": true,
          "internalType": "address",
          "name": "from",
          "type": "address"
        },
        {
          "indexed": true,
          "internalType": "address",
          "name": "to",
          "type": "address"
        },
        {
          "indexed": true,
          "internalType": "uint256",
          "name": "tokenId",
          "type": "uint256"
        }
      ],
      "name": "Transfer",
      "type": "event"
    },
    {
      "inputs": [
        {
          "internalType": "address",
          "name": "to",
          "type": "address"
        },
        {
          "internalType": "uint256",
          "name": "tokenId",
          "type": "uint256"
        }
      ],
      "name": "approve",
      "outputs": [],
      "stateMutability": "nonpayable",
      "type": "function"
    },
    {
      "inputs": [
        {
          "internalType": "address",
          "name": "owner",
          "type": "address"
        }
      ],
      "name": "balanceOf",
      "outputs": [
        {
          "internalType": "uint256",
          "name": "",
          "type": "uint256"
        }
      ],
      "stateMutability": "view",
      "type": "function"
    },
    {
      "inputs": [],
      "name": "changeSaleState",
      "outputs": [
        {
          "internalType": "bool",
          "name": "",
          "type": "bool"
        }
      ],
      "stateMutability": "nonpayable",
      "type": "function"
    },
    {
      "inputs": [],
      "name": "cuentaMaestra",
      "outputs": [
        {
          "internalType": "address payable",
          "name": "",
          "type": "address"
        }
      ],
      "stateMutability": "view",
      "type": "function"
    },
    {
      "inputs": [
        {
          "internalType": "uint256",
          "name": "",
          "type": "uint256"
        }
      ],
      "name": "entradas",
      "outputs": [
        {
          "internalType": "uint256",
          "name": "idEntrada",
          "type": "uint256"
        },
        {
          "internalType": "string",
          "name": "descripcion",
          "type": "string"
        },
        {
          "internalType": "uint256",
          "name": "precio",
          "type": "uint256"
        }
      ],
      "stateMutability": "view",
      "type": "function"
    },
    {
      "inputs": [
        {
          "internalType": "uint256",
          "name": "",
          "type": "uint256"
        }
      ],
      "name": "entradasEventos",
      "outputs": [
        {
          "internalType": "uint256",
          "name": "idEvento",
          "type": "uint256"
        },
        {
          "internalType": "uint256",
          "name": "fecha",
          "type": "uint256"
        },
        {
          "internalType": "string",
          "name": "nombre",
          "type": "string"
        },
        {
          "internalType": "string",
          "name": "descripcion",
          "type": "string"
        }
      ],
      "stateMutability": "view",
      "type": "function"
    },
    {
      "inputs": [
        {
          "internalType": "uint256",
          "name": "tokenId",
          "type": "uint256"
        }
      ],
      "name": "getApproved",
      "outputs": [
        {
          "internalType": "address",
          "name": "",
          "type": "address"
        }
      ],
      "stateMutability": "view",
      "type": "function"
    },
    {
      "inputs": [
        {
          "internalType": "uint256",
          "name": "_tokenId",
          "type": "uint256"
        }
      ],
      "name": "getEvent",
      "outputs": [
        {
          "components": [
            {
              "internalType": "uint256",
              "name": "idEvento",
              "type": "uint256"
            },
            {
              "internalType": "uint256",
              "name": "fecha",
              "type": "uint256"
            },
            {
              "internalType": "string",
              "name": "nombre",
              "type": "string"
            },
            {
              "internalType": "string",
              "name": "descripcion",
              "type": "string"
            }
          ],
          "internalType": "struct NFT.Evento",
          "name": "",
          "type": "tuple"
        }
      ],
      "stateMutability": "view",
      "type": "function"
    },
    {
      "inputs": [
        {
          "internalType": "uint256",
          "name": "_tokenId",
          "type": "uint256"
        }
      ],
      "name": "getOwner",
      "outputs": [
        {
          "internalType": "address",
          "name": "",
          "type": "address"
        }
      ],
      "stateMutability": "view",
      "type": "function"
    },
    {
      "inputs": [],
      "name": "getSaleState",
      "outputs": [
        {
          "internalType": "bool",
          "name": "",
          "type": "bool"
        }
      ],
      "stateMutability": "view",
      "type": "function"
    },
    {
      "inputs": [
        {
          "internalType": "uint256",
          "name": "_tokenId",
          "type": "uint256"
        }
      ],
      "name": "getTotalPrice",
      "outputs": [
        {
          "internalType": "uint256",
          "name": "",
          "type": "uint256"
        }
      ],
      "stateMutability": "view",
      "type": "function"
    },
    {
      "inputs": [
        {
          "internalType": "address",
          "name": "owner",
          "type": "address"
        },
        {
          "internalType": "address",
          "name": "operator",
          "type": "address"
        }
      ],
      "name": "isApprovedForAll",
      "outputs": [
        {
          "internalType": "bool",
          "name": "",
          "type": "bool"
        }
      ],
      "stateMutability": "view",
      "type": "function"
    },
    {
      "inputs": [
        {
          "internalType": "string",
          "name": "_tokenURI",
          "type": "string"
        },
        {
          "internalType": "string",
          "name": "_descripcion",
          "type": "string"
        },
        {
          "internalType": "uint256",
          "name": "_precio",
          "type": "uint256"
        },
        {
          "components": [
            {
              "internalType": "uint256",
              "name": "idEvento",
              "type": "uint256"
            },
            {
              "internalType": "uint256",
              "name": "fecha",
              "type": "uint256"
            },
            {
              "internalType": "string",
              "name": "nombre",
              "type": "string"
            },
            {
              "internalType": "string",
              "name": "descripcion",
              "type": "string"
            }
          ],
          "internalType": "struct NFT.Evento",
          "name": "_evento",
          "type": "tuple"
        }
      ],
      "name": "mint",
      "outputs": [
        {
          "internalType": "uint256",
          "name": "",
          "type": "uint256"
        }
      ],
      "stateMutability": "nonpayable",
      "type": "function"
    },
    {
      "inputs": [],
      "name": "name",
      "outputs": [
        {
          "internalType": "string",
          "name": "",
          "type": "string"
        }
      ],
      "stateMutability": "view",
      "type": "function"
    },
    {
      "inputs": [],
      "name": "owner",
      "outputs": [
        {
          "internalType": "address",
          "name": "",
          "type": "address"
        }
      ],
      "stateMutability": "view",
      "type": "function"
    },
    {
      "inputs": [
        {
          "internalType": "uint256",
          "name": "tokenId",
          "type": "uint256"
        }
      ],
      "name": "ownerOf",
      "outputs": [
        {
          "internalType": "address",
          "name": "",
          "type": "address"
        }
      ],
      "stateMutability": "view",
      "type": "function"
    },
    {
      "inputs": [],
      "name": "porcentajeReventa",
      "outputs": [
        {
          "internalType": "uint256",
          "name": "",
          "type": "uint256"
        }
      ],
      "stateMutability": "view",
      "type": "function"
    },
    {
      "inputs": [],
      "name": "renounceOwnership",
      "outputs": [],
      "stateMutability": "nonpayable",
      "type": "function"
    },
    {
      "inputs": [
        {
          "internalType": "address",
          "name": "from",
          "type": "address"
        },
        {
          "internalType": "address",
          "name": "to",
          "type": "address"
        },
        {
          "internalType": "uint256",
          "name": "tokenId",
          "type": "uint256"
        }
      ],
      "name": "safeTransferFrom",
      "outputs": [],
      "stateMutability": "nonpayable",
      "type": "function"
    },
    {
      "inputs": [
        {
          "internalType": "address",
          "name": "from",
          "type": "address"
        },
        {
          "internalType": "address",
          "name": "to",
          "type": "address"
        },
        {
          "internalType": "uint256",
          "name": "tokenId",
          "type": "uint256"
        },
        {
          "internalType": "bytes",
          "name": "_data",
          "type": "bytes"
        }
      ],
      "name": "safeTransferFrom",
      "outputs": [],
      "stateMutability": "nonpayable",
      "type": "function"
    },
    {
      "inputs": [
        {
          "internalType": "uint256",
          "name": "_tokenId",
          "type": "uint256"
        }
      ],
      "name": "sellTicket",
      "outputs": [],
      "stateMutability": "payable",
      "type": "function"
    },
    {
      "inputs": [
        {
          "internalType": "address",
          "name": "operator",
          "type": "address"
        },
        {
          "internalType": "bool",
          "name": "approved",
          "type": "bool"
        }
      ],
      "name": "setApprovalForAll",
      "outputs": [],
      "stateMutability": "nonpayable",
      "type": "function"
    },
    {
      "inputs": [
        {
          "internalType": "uint256",
          "name": "_tokenId",
          "type": "uint256"
        },
        {
          "internalType": "uint256",
          "name": "_newPrice",
          "type": "uint256"
        }
      ],
      "name": "setPrice",
      "outputs": [],
      "stateMutability": "nonpayable",
      "type": "function"
    },
    {
      "inputs": [
        {
          "internalType": "bytes4",
          "name": "interfaceId",
          "type": "bytes4"
        }
      ],
      "name": "supportsInterface",
      "outputs": [
        {
          "internalType": "bool",
          "name": "",
          "type": "bool"
        }
      ],
      "stateMutability": "view",
      "type": "function"
    },
    {
      "inputs": [],
      "name": "symbol",
      "outputs": [
        {
          "internalType": "string",
          "name": "",
          "type": "string"
        }
      ],
      "stateMutability": "view",
      "type": "function"
    },
    {
      "inputs": [
        {
          "internalType": "uint256",
          "name": "_tokenId",
          "type": "uint256"
        }
      ],
      "name": "ticketSold",
      "outputs": [
        {
          "internalType": "bool",
          "name": "",
          "type": "bool"
        }
      ],
      "stateMutability": "view",
      "type": "function"
    },
    {
      "inputs": [
        {
          "internalType": "uint256",
          "name": "_tokenId",
          "type": "uint256"
        }
      ],
      "name": "ticketUsed",
      "outputs": [
        {
          "internalType": "bool",
          "name": "",
          "type": "bool"
        }
      ],
      "stateMutability": "view",
      "type": "function"
    },
    {
      "inputs": [],
      "name": "tokenCount",
      "outputs": [
        {
          "internalType": "uint256",
          "name": "",
          "type": "uint256"
        }
      ],
      "stateMutability": "view",
      "type": "function"
    },
    {
      "inputs": [
        {
          "internalType": "uint256",
          "name": "tokenId",
          "type": "uint256"
        }
      ],
      "name": "tokenURI",
      "outputs": [
        {
          "internalType": "string",
          "name": "",
          "type": "string"
        }
      ],
      "stateMutability": "view",
      "type": "function"
    },
    {
      "inputs": [
        {
          "internalType": "address",
          "name": "from",
          "type": "address"
        },
        {
          "internalType": "address",
          "name": "to",
          "type": "address"
        },
        {
          "internalType": "uint256",
          "name": "tokenId",
          "type": "uint256"
        }
      ],
      "name": "transferFrom",
      "outputs": [],
      "stateMutability": "nonpayable",
      "type": "function"
    },
    {
      "inputs": [
        {
          "internalType": "address",
          "name": "newOwner",
          "type": "address"
        }
      ],
      "name": "transferOwnership",
      "outputs": [],
      "stateMutability": "nonpayable",
      "type": "function"
    },
    {
      "inputs": [
        {
          "internalType": "uint256",
          "name": "_tokenId",
          "type": "uint256"
        }
      ],
      "name": "useTicket",
      "outputs": [
        {
          "internalType": "bool",
          "name": "",
          "type": "bool"
        }
      ],
      "stateMutability": "nonpayable",
      "type": "function"
    }
  ],
  "bytecode": "0x608060405260006009553480156200001657600080fd5b5060405162004ef038038062004ef083398181016040528101906200003c919062000303565b6040518060400160405280600881526020017f4e465469636b65740000000000000000000000000000000000000000000000008152506040518060400160405280600681526020017f5449434b455400000000000000000000000000000000000000000000000000008152508160009080519060200190620000c09291906200023c565b508060019080519060200190620000d99291906200023c565b505050620000fc620000f06200016e60201b60201c565b6200017660201b60201c565b600160088190555080600a8190555033600b60006101000a81548173ffffffffffffffffffffffffffffffffffffffff021916908373ffffffffffffffffffffffffffffffffffffffff1602179055506001600b60146101000a81548160ff02191690831515021790555050620003b8565b600033905090565b6000600760009054906101000a900473ffffffffffffffffffffffffffffffffffffffff16905081600760006101000a81548173ffffffffffffffffffffffffffffffffffffffff021916908373ffffffffffffffffffffffffffffffffffffffff1602179055508173ffffffffffffffffffffffffffffffffffffffff168173ffffffffffffffffffffffffffffffffffffffff167f8be0079c531659141344cd1fd0a4f28419497f9722a3daafe3b4186f6b6457e060405160405180910390a35050565b8280546200024a9062000339565b90600052602060002090601f0160209004810192826200026e5760008555620002ba565b82601f106200028957805160ff1916838001178555620002ba565b82800160010185558215620002ba579182015b82811115620002b95782518255916020019190600101906200029c565b5b509050620002c99190620002cd565b5090565b5b80821115620002e8576000816000905550600101620002ce565b5090565b600081519050620002fd816200039e565b92915050565b6000602082840312156200031657600080fd5b60006200032684828501620002ec565b91505092915050565b6000819050919050565b600060028204905060018216806200035257607f821691505b602082108114156200036957620003686200036f565b5b50919050565b7f4e487b7100000000000000000000000000000000000000000000000000000000600052602260045260246000fd5b620003a9816200032f565b8114620003b557600080fd5b50565b614b2880620003c86000396000f3fe6080604052600436106101e35760003560e01c8063715018a611610102578063c41a360a11610095578063e985e9c511610064578063e985e9c51461077f578063f192866a146107bc578063f2fde38b146107d8578063f7d9757714610801576101e3565b8063c41a360a1461069d578063c87b56dd146106da578063ca7dd37514610717578063dd9c1f2314610754576101e3565b806395d89b41116100d157806395d89b41146105f55780639f181b5e14610620578063a22cb4651461064b578063b88d4fde14610674576101e3565b8063715018a61461054b578063793912811461056257806382a6c5d21461058d5780638da5cb5b146105ca576101e3565b80633366a2bc1161017a5780636352211e116101495780636352211e14610457578063642b5f9b146104945780636d1884e0146104d157806370a082311461050e576101e3565b80633366a2bc1461038657806342842e0e146103b157806346a92ff0146103da57806358ab31f314610417576101e3565b80631d4ab540116101b65780631d4ab540146102b657806323b872dd146102f557806325bdb2a81461031e5780632660644814610349576101e3565b806301ffc9a7146101e857806306fdde0314610225578063081812fc14610250578063095ea7b31461028d575b600080fd5b3480156101f457600080fd5b5061020f600480360381019061020a919061337d565b61082a565b60405161021c9190613ac7565b60405180910390f35b34801561023157600080fd5b5061023a61090c565b6040516102479190613ae2565b60405180910390f35b34801561025c57600080fd5b506102776004803603810190610272919061347a565b61099e565b6040516102849190613a45565b60405180910390f35b34801561029957600080fd5b506102b460048036038101906102af9190613341565b610a23565b005b3480156102c257600080fd5b506102dd60048036038101906102d8919061347a565b610b3b565b6040516102ec93929190613ea1565b60405180910390f35b34801561030157600080fd5b5061031c6004803603810190610317919061323b565b610bed565b005b34801561032a57600080fd5b50610333610c4d565b6040516103409190613ac7565b60405180910390f35b34801561035557600080fd5b50610370600480360381019061036b919061347a565b610c64565b60405161037d9190613ac7565b60405180910390f35b34801561039257600080fd5b5061039b610da2565b6040516103a89190613a60565b60405180910390f35b3480156103bd57600080fd5b506103d860048036038101906103d3919061323b565b610dc8565b005b3480156103e657600080fd5b5061040160048036038101906103fc91906133cf565b610de8565b60405161040e9190613e86565b60405180910390f35b34801561042357600080fd5b5061043e6004803603810190610439919061347a565b61115e565b60405161044e9493929190613f08565b60405180910390f35b34801561046357600080fd5b5061047e6004803603810190610479919061347a565b61129e565b60405161048b9190613a45565b60405180910390f35b3480156104a057600080fd5b506104bb60048036038101906104b6919061347a565b611350565b6040516104c89190613ac7565b60405180910390f35b3480156104dd57600080fd5b506104f860048036038101906104f3919061347a565b61137a565b6040516105059190613e64565b60405180910390f35b34801561051a57600080fd5b50610535600480360381019061053091906131d6565b6114df565b6040516105429190613e86565b60405180910390f35b34801561055757600080fd5b50610560611597565b005b34801561056e57600080fd5b5061057761161f565b6040516105849190613e86565b60405180910390f35b34801561059957600080fd5b506105b460048036038101906105af919061347a565b611625565b6040516105c19190613ac7565b60405180910390f35b3480156105d657600080fd5b506105df61164f565b6040516105ec9190613a45565b60405180910390f35b34801561060157600080fd5b5061060a611679565b6040516106179190613ae2565b60405180910390f35b34801561062c57600080fd5b5061063561170b565b6040516106429190613e86565b60405180910390f35b34801561065757600080fd5b50610672600480360381019061066d9190613305565b611711565b005b34801561068057600080fd5b5061069b6004803603810190610696919061328a565b611727565b005b3480156106a957600080fd5b506106c460048036038101906106bf919061347a565b611789565b6040516106d19190613a45565b60405180910390f35b3480156106e657600080fd5b5061070160048036038101906106fc919061347a565b61179b565b60405161070e9190613ae2565b60405180910390f35b34801561072357600080fd5b5061073e6004803603810190610739919061347a565b6118ed565b60405161074b9190613e86565b60405180910390f35b34801561076057600080fd5b50610769611932565b6040516107769190613ac7565b60405180910390f35b34801561078b57600080fd5b506107a660048036038101906107a191906131ff565b6119ef565b6040516107b39190613ac7565b60405180910390f35b6107d660048036038101906107d1919061347a565b611a83565b005b3480156107e457600080fd5b506107ff60048036038101906107fa91906131d6565b611ed7565b005b34801561080d57600080fd5b50610828600480360381019061082391906134a3565b611fcf565b005b60007f80ac58cd000000000000000000000000000000000000000000000000000000007bffffffffffffffffffffffffffffffffffffffffffffffffffffffff1916827bffffffffffffffffffffffffffffffffffffffffffffffffffffffff191614806108f557507f5b5e139f000000000000000000000000000000000000000000000000000000007bffffffffffffffffffffffffffffffffffffffffffffffffffffffff1916827bffffffffffffffffffffffffffffffffffffffffffffffffffffffff1916145b806109055750610904826120ac565b5b9050919050565b60606000805461091b90614213565b80601f016020809104026020016040519081016040528092919081815260200182805461094790614213565b80156109945780601f1061096957610100808354040283529160200191610994565b820191906000526020600020905b81548152906001019060200180831161097757829003601f168201915b5050505050905090565b60006109a982612116565b6109e8576040517f08c379a00000000000000000000000000000000000000000000000000000000081526004016109df90613d24565b60405180910390fd5b6004600083815260200190815260200160002060009054906101000a900473ffffffffffffffffffffffffffffffffffffffff169050919050565b6000610a2e8261129e565b90508073ffffffffffffffffffffffffffffffffffffffff168373ffffffffffffffffffffffffffffffffffffffff161415610a9f576040517f08c379a0000000000000000000000000000000000000000000000000000000008152600401610a9690613dc4565b60405180910390fd5b8073ffffffffffffffffffffffffffffffffffffffff16610abe612182565b73ffffffffffffffffffffffffffffffffffffffff161480610aed5750610aec81610ae7612182565b6119ef565b5b610b2c576040517f08c379a0000000000000000000000000000000000000000000000000000000008152600401610b2390613c64565b60405180910390fd5b610b36838361218a565b505050565b600c602052806000526040600020600091509050806000015490806001018054610b6490614213565b80601f0160208091040260200160405190810160405280929190818152602001828054610b9090614213565b8015610bdd5780601f10610bb257610100808354040283529160200191610bdd565b820191906000526020600020905b815481529060010190602001808311610bc057829003601f168201915b5050505050908060020154905083565b610bfe610bf8612182565b82612243565b610c3d576040517f08c379a0000000000000000000000000000000000000000000000000000000008152600401610c3490613de4565b60405180910390fd5b610c48838383612321565b505050565b6000600b60149054906101000a900460ff16905090565b6000610c6f82612116565b610cae576040517f08c379a0000000000000000000000000000000000000000000000000000000008152600401610ca590613c24565b60405180910390fd5b610cb782611350565b15610cf7576040517f08c379a0000000000000000000000000000000000000000000000000000000008152600401610cee90613b04565b60405180910390fd5b3373ffffffffffffffffffffffffffffffffffffffff16610d1783611789565b73ffffffffffffffffffffffffffffffffffffffff1614610d6d576040517f08c379a0000000000000000000000000000000000000000000000000000000008152600401610d6490613d64565b60405180910390fd5b60016010600084815260200190815260200160002060006101000a81548160ff02191690831515021790555060019050919050565b600b60009054906101000a900473ffffffffffffffffffffffffffffffffffffffff1681565b610de383838360405180602001604052806000815250611727565b505050565b600060026008541415610e30576040517f08c379a0000000000000000000000000000000000000000000000000000000008152600401610e2790613e24565b60405180910390fd5b6002600881905550610e40612182565b73ffffffffffffffffffffffffffffffffffffffff16610e5e61164f565b73ffffffffffffffffffffffffffffffffffffffff1614610eb4576040517f08c379a0000000000000000000000000000000000000000000000000000000008152600401610eab90613d44565b60405180910390fd5b60096000815480929190610ec790614276565b9190505550610ed7600954612116565b15610f17576040517f08c379a0000000000000000000000000000000000000000000000000000000008152600401610f0e90613e04565b60405180910390fd5b610f2333600954612588565b610f2f600954866125a6565b610f37612f0d565b6009548160000181815250508481602001819052508381604001818152505080600c60006009548152602001908152602001600020600082015181600001556020820151816001019080519060200190610f92929190612f2e565b5060408201518160020155905050610fa8612fb4565b83600001518160000181815250508360200151816020018181525050836040015181604001819052508360600151816060018190525080600d6000600954815260200190815260200160002060008201518160000155602082015181600101556040820151816002019080519060200190611024929190612f2e565b506060820151816003019080519060200190611041929190612f2e565b509050506000600e6000600954815260200190815260200160002060006101000a81548160ff021916908315150217905550600060106000600954815260200190815260200160002060006101000a81548160ff02191690831515021790555033600f6000600954815260200190815260200160002060006101000a81548173ffffffffffffffffffffffffffffffffffffffff021916908373ffffffffffffffffffffffffffffffffffffffff1602179055503373ffffffffffffffffffffffffffffffffffffffff167f1ab3864560512bcd762f59576711bc5e90d3ef93e9253b43cd6be191b4a5814e6009548760405161113f929190613edf565b60405180910390a2600954925050506001600881905550949350505050565b600d60205280600052604060002060009150905080600001549080600101549080600201805461118d90614213565b80601f01602080910402602001604051908101604052809291908181526020018280546111b990614213565b80156112065780601f106111db57610100808354040283529160200191611206565b820191906000526020600020905b8154815290600101906020018083116111e957829003601f168201915b50505050509080600301805461121b90614213565b80601f016020809104026020016040519081016040528092919081815260200182805461124790614213565b80156112945780601f1061126957610100808354040283529160200191611294565b820191906000526020600020905b81548152906001019060200180831161127757829003601f168201915b5050505050905084565b6000806002600084815260200190815260200160002060009054906101000a900473ffffffffffffffffffffffffffffffffffffffff169050600073ffffffffffffffffffffffffffffffffffffffff168173ffffffffffffffffffffffffffffffffffffffff161415611347576040517f08c379a000000000000000000000000000000000000000000000000000000000815260040161133e90613ca4565b60405180910390fd5b80915050919050565b60006010600083815260200190815260200160002060009054906101000a900460ff169050919050565b611382612fb4565b600d600083815260200190815260200160002060405180608001604052908160008201548152602001600182015481526020016002820180546113c490614213565b80601f01602080910402602001604051908101604052809291908181526020018280546113f090614213565b801561143d5780601f106114125761010080835404028352916020019161143d565b820191906000526020600020905b81548152906001019060200180831161142057829003601f168201915b5050505050815260200160038201805461145690614213565b80601f016020809104026020016040519081016040528092919081815260200182805461148290614213565b80156114cf5780601f106114a4576101008083540402835291602001916114cf565b820191906000526020600020905b8154815290600101906020018083116114b257829003601f168201915b5050505050815250509050919050565b60008073ffffffffffffffffffffffffffffffffffffffff168273ffffffffffffffffffffffffffffffffffffffff161415611550576040517f08c379a000000000000000000000000000000000000000000000000000000000815260040161154790613c84565b60405180910390fd5b600360008373ffffffffffffffffffffffffffffffffffffffff1673ffffffffffffffffffffffffffffffffffffffff168152602001908152602001600020549050919050565b61159f612182565b73ffffffffffffffffffffffffffffffffffffffff166115bd61164f565b73ffffffffffffffffffffffffffffffffffffffff1614611613576040517f08c379a000000000000000000000000000000000000000000000000000000000815260040161160a90613d44565b60405180910390fd5b61161d600061261a565b565b600a5481565b6000600e600083815260200190815260200160002060009054906101000a900460ff169050919050565b6000600760009054906101000a900473ffffffffffffffffffffffffffffffffffffffff16905090565b60606001805461168890614213565b80601f01602080910402602001604051908101604052809291908181526020018280546116b490614213565b80156117015780601f106116d657610100808354040283529160200191611701565b820191906000526020600020905b8154815290600101906020018083116116e457829003601f168201915b5050505050905090565b60095481565b61172361171c612182565b83836126e0565b5050565b611738611732612182565b83612243565b611777576040517f08c379a000000000000000000000000000000000000000000000000000000000815260040161176e90613de4565b60405180910390fd5b6117838484848461284d565b50505050565b60006117948261129e565b9050919050565b60606117a682612116565b6117e5576040517f08c379a00000000000000000000000000000000000000000000000000000000081526004016117dc90613d04565b60405180910390fd5b600060066000848152602001908152602001600020805461180590614213565b80601f016020809104026020016040519081016040528092919081815260200182805461183190614213565b801561187e5780601f106118535761010080835404028352916020019161187e565b820191906000526020600020905b81548152906001019060200180831161186157829003601f168201915b50505050509050600061188f6128a9565b90506000815114156118a55781925050506118e8565b6000825111156118da5780826040516020016118c2929190613a21565b604051602081830303815290604052925050506118e8565b6118e3846128c0565b925050505b919050565b60006064600a5460646119009190614036565b600c60008581526020019081526020016000206002015461192191906140bd565b61192b919061408c565b9050919050565b600061193c612182565b73ffffffffffffffffffffffffffffffffffffffff1661195a61164f565b73ffffffffffffffffffffffffffffffffffffffff16146119b0576040517f08c379a00000000000000000000000000000000000000000000000000000000081526004016119a790613d44565b60405180910390fd5b600b60149054906101000a900460ff1615600b60146101000a81548160ff021916908315150217905550600b60149054906101000a900460ff16905090565b6000600560008473ffffffffffffffffffffffffffffffffffffffff1673ffffffffffffffffffffffffffffffffffffffff16815260200190815260200160002060008373ffffffffffffffffffffffffffffffffffffffff1673ffffffffffffffffffffffffffffffffffffffff16815260200190815260200160002060009054906101000a900460ff16905092915050565b60026008541415611ac9576040517f08c379a0000000000000000000000000000000000000000000000000000000008152600401611ac090613e24565b60405180910390fd5b6002600881905550611ada81612116565b611b19576040517f08c379a0000000000000000000000000000000000000000000000000000000008152600401611b1090613c24565b60405180910390fd5b611b22816118ed565b341015611b64576040517f08c379a0000000000000000000000000000000000000000000000000000000008152600401611b5b90613c44565b60405180910390fd5b600e600082815260200190815260200160002060009054906101000a900460ff1615611bc5576040517f08c379a0000000000000000000000000000000000000000000000000000000008152600401611bbc90613e44565b60405180910390fd5b60011515600b60149054906101000a900460ff16151514611c1b576040517f08c379a0000000000000000000000000000000000000000000000000000000008152600401611c1290613b24565b60405180910390fd5b3373ffffffffffffffffffffffffffffffffffffffff16611c3b82611789565b73ffffffffffffffffffffffffffffffffffffffff161415611c92576040517f08c379a0000000000000000000000000000000000000000000000000000000008152600401611c8990613da4565b60405180910390fd5b6000611c9d8261129e565b905060003390506000600c600085815260200190815260200160002060020154905060006064600a5483611cd191906140bd565b611cdb919061408c565b9050611ce8848487612321565b6001600e600087815260200190815260200160002060006101000a81548160ff02191690831515021790555082600f600087815260200190815260200160002060006101000a81548173ffffffffffffffffffffffffffffffffffffffff021916908373ffffffffffffffffffffffffffffffffffffffff1602179055508373ffffffffffffffffffffffffffffffffffffffff166108fc8284611d8c9190614117565b9081150290604051600060405180830381858888f19350505050158015611db7573d6000803e3d6000fd5b50611dc061164f565b73ffffffffffffffffffffffffffffffffffffffff166108fc829081150290604051600060405180830381858888f19350505050158015611e05573d6000803e3d6000fd5b5081341115611e61573373ffffffffffffffffffffffffffffffffffffffff166108fc8334611e349190614117565b9081150290604051600060405180830381858888f19350505050158015611e5f573d6000803e3d6000fd5b505b8273ffffffffffffffffffffffffffffffffffffffff168473ffffffffffffffffffffffffffffffffffffffff167f4ebd6ef39c1235e69ba7dedf24ad43bdeb57deb289d98473668070d6ca9b685e8785604051611ec0929190613edf565b60405180910390a350505050600160088190555050565b611edf612182565b73ffffffffffffffffffffffffffffffffffffffff16611efd61164f565b73ffffffffffffffffffffffffffffffffffffffff1614611f53576040517f08c379a0000000000000000000000000000000000000000000000000000000008152600401611f4a90613d44565b60405180910390fd5b600073ffffffffffffffffffffffffffffffffffffffff168173ffffffffffffffffffffffffffffffffffffffff161415611fc3576040517f08c379a0000000000000000000000000000000000000000000000000000000008152600401611fba90613b64565b60405180910390fd5b611fcc8161261a565b50565b611fd882612116565b612017576040517f08c379a000000000000000000000000000000000000000000000000000000000815260040161200e90613c24565b60405180910390fd5b3373ffffffffffffffffffffffffffffffffffffffff166120378361129e565b73ffffffffffffffffffffffffffffffffffffffff161461208d576040517f08c379a000000000000000000000000000000000000000000000000000000000815260040161208490613d64565b60405180910390fd5b80600c6000848152602001908152602001600020600201819055505050565b60007f01ffc9a7000000000000000000000000000000000000000000000000000000007bffffffffffffffffffffffffffffffffffffffffffffffffffffffff1916827bffffffffffffffffffffffffffffffffffffffffffffffffffffffff1916149050919050565b60008073ffffffffffffffffffffffffffffffffffffffff166002600084815260200190815260200160002060009054906101000a900473ffffffffffffffffffffffffffffffffffffffff1673ffffffffffffffffffffffffffffffffffffffff1614159050919050565b600033905090565b816004600083815260200190815260200160002060006101000a81548173ffffffffffffffffffffffffffffffffffffffff021916908373ffffffffffffffffffffffffffffffffffffffff160217905550808273ffffffffffffffffffffffffffffffffffffffff166121fd8361129e565b73ffffffffffffffffffffffffffffffffffffffff167f8c5be1e5ebec7d5bd14f71427d1e84f3dd0314c0f7b2291e5b200ac8c7c3b92560405160405180910390a45050565b600061224e82612116565b61228d576040517f08c379a000000000000000000000000000000000000000000000000000000000815260040161228490613c04565b60405180910390fd5b60006122988361129e565b90508073ffffffffffffffffffffffffffffffffffffffff168473ffffffffffffffffffffffffffffffffffffffff16148061230757508373ffffffffffffffffffffffffffffffffffffffff166122ef8461099e565b73ffffffffffffffffffffffffffffffffffffffff16145b80612318575061231781856119ef565b5b91505092915050565b8273ffffffffffffffffffffffffffffffffffffffff166123418261129e565b73ffffffffffffffffffffffffffffffffffffffff1614612397576040517f08c379a000000000000000000000000000000000000000000000000000000000815260040161238e90613b84565b60405180910390fd5b600073ffffffffffffffffffffffffffffffffffffffff168273ffffffffffffffffffffffffffffffffffffffff161415612407576040517f08c379a00000000000000000000000000000000000000000000000000000000081526004016123fe90613bc4565b60405180910390fd5b612412838383612967565b61241d60008261218a565b6001600360008573ffffffffffffffffffffffffffffffffffffffff1673ffffffffffffffffffffffffffffffffffffffff168152602001908152602001600020600082825461246d9190614117565b925050819055506001600360008473ffffffffffffffffffffffffffffffffffffffff1673ffffffffffffffffffffffffffffffffffffffff16815260200190815260200160002060008282546124c49190614036565b92505081905550816002600083815260200190815260200160002060006101000a81548173ffffffffffffffffffffffffffffffffffffffff021916908373ffffffffffffffffffffffffffffffffffffffff160217905550808273ffffffffffffffffffffffffffffffffffffffff168473ffffffffffffffffffffffffffffffffffffffff167fddf252ad1be2c89b69c2b068fc378daa952ba7f163c4a11628f55a4df523b3ef60405160405180910390a461258383838361296c565b505050565b6125a2828260405180602001604052806000815250612971565b5050565b6125af82612116565b6125ee576040517f08c379a00000000000000000000000000000000000000000000000000000000081526004016125e590613cc4565b60405180910390fd5b80600660008481526020019081526020016000209080519060200190612615929190612f2e565b505050565b6000600760009054906101000a900473ffffffffffffffffffffffffffffffffffffffff16905081600760006101000a81548173ffffffffffffffffffffffffffffffffffffffff021916908373ffffffffffffffffffffffffffffffffffffffff1602179055508173ffffffffffffffffffffffffffffffffffffffff168173ffffffffffffffffffffffffffffffffffffffff167f8be0079c531659141344cd1fd0a4f28419497f9722a3daafe3b4186f6b6457e060405160405180910390a35050565b8173ffffffffffffffffffffffffffffffffffffffff168373ffffffffffffffffffffffffffffffffffffffff16141561274f576040517f08c379a000000000000000000000000000000000000000000000000000000000815260040161274690613be4565b60405180910390fd5b80600560008573ffffffffffffffffffffffffffffffffffffffff1673ffffffffffffffffffffffffffffffffffffffff16815260200190815260200160002060008473ffffffffffffffffffffffffffffffffffffffff1673ffffffffffffffffffffffffffffffffffffffff16815260200190815260200160002060006101000a81548160ff0219169083151502179055508173ffffffffffffffffffffffffffffffffffffffff168373ffffffffffffffffffffffffffffffffffffffff167f17307eab39ab6107e8899845ad3d59bd9653f200f220920489ca2b5937696c31836040516128409190613ac7565b60405180910390a3505050565b612858848484612321565b612864848484846129cc565b6128a3576040517f08c379a000000000000000000000000000000000000000000000000000000000815260040161289a90613b44565b60405180910390fd5b50505050565b606060405180602001604052806000815250905090565b60606128cb82612116565b61290a576040517f08c379a000000000000000000000000000000000000000000000000000000000815260040161290190613d84565b60405180910390fd5b60006129146128a9565b90506000815111612934576040518060200160405280600081525061295f565b8061293e84612b63565b60405160200161294f929190613a21565b6040516020818303038152906040525b915050919050565b505050565b505050565b61297b8383612d10565b61298860008484846129cc565b6129c7576040517f08c379a00000000000000000000000000000000000000000000000000000000081526004016129be90613b44565b60405180910390fd5b505050565b60006129ed8473ffffffffffffffffffffffffffffffffffffffff16612eea565b15612b56578373ffffffffffffffffffffffffffffffffffffffff1663150b7a02612a16612182565b8786866040518563ffffffff1660e01b8152600401612a389493929190613a7b565b602060405180830381600087803b158015612a5257600080fd5b505af1925050508015612a8357506040513d601f19601f82011682018060405250810190612a8091906133a6565b60015b612b06573d8060008114612ab3576040519150601f19603f3d011682016040523d82523d6000602084013e612ab8565b606091505b50600081511415612afe576040517f08c379a0000000000000000000000000000000000000000000000000000000008152600401612af590613b44565b60405180910390fd5b805181602001fd5b63150b7a0260e01b7bffffffffffffffffffffffffffffffffffffffffffffffffffffffff1916817bffffffffffffffffffffffffffffffffffffffffffffffffffffffff191614915050612b5b565b600190505b949350505050565b60606000821415612bab576040518060400160405280600181526020017f30000000000000000000000000000000000000000000000000000000000000008152509050612d0b565b600082905060005b60008214612bdd578080612bc690614276565b915050600a82612bd6919061408c565b9150612bb3565b60008167ffffffffffffffff811115612c1f577f4e487b7100000000000000000000000000000000000000000000000000000000600052604160045260246000fd5b6040519080825280601f01601f191660200182016040528015612c515781602001600182028036833780820191505090505b5090505b60008514612d0457600182612c6a9190614117565b9150600a85612c7991906142bf565b6030612c859190614036565b60f81b818381518110612cc1577f4e487b7100000000000000000000000000000000000000000000000000000000600052603260045260246000fd5b60200101907effffffffffffffffffffffffffffffffffffffffffffffffffffffffffffff1916908160001a905350600a85612cfd919061408c565b9450612c55565b8093505050505b919050565b600073ffffffffffffffffffffffffffffffffffffffff168273ffffffffffffffffffffffffffffffffffffffff161415612d80576040517f08c379a0000000000000000000000000000000000000000000000000000000008152600401612d7790613ce4565b60405180910390fd5b612d8981612116565b15612dc9576040517f08c379a0000000000000000000000000000000000000000000000000000000008152600401612dc090613ba4565b60405180910390fd5b612dd560008383612967565b6001600360008473ffffffffffffffffffffffffffffffffffffffff1673ffffffffffffffffffffffffffffffffffffffff1681526020019081526020016000206000828254612e259190614036565b92505081905550816002600083815260200190815260200160002060006101000a81548173ffffffffffffffffffffffffffffffffffffffff021916908373ffffffffffffffffffffffffffffffffffffffff160217905550808273ffffffffffffffffffffffffffffffffffffffff16600073ffffffffffffffffffffffffffffffffffffffff167fddf252ad1be2c89b69c2b068fc378daa952ba7f163c4a11628f55a4df523b3ef60405160405180910390a4612ee66000838361296c565b5050565b6000808273ffffffffffffffffffffffffffffffffffffffff163b119050919050565b60405180606001604052806000815260200160608152602001600081525090565b828054612f3a90614213565b90600052602060002090601f016020900481019282612f5c5760008555612fa3565b82601f10612f7557805160ff1916838001178555612fa3565b82800160010185558215612fa3579182015b82811115612fa2578251825591602001919060010190612f87565b5b509050612fb09190612fdc565b5090565b6040518060800160405280600081526020016000815260200160608152602001606081525090565b5b80821115612ff5576000816000905550600101612fdd565b5090565b600061300c61300784613f80565b613f5b565b90508281526020810184848401111561302457600080fd5b61302f8482856141d1565b509392505050565b600061304a61304584613fb1565b613f5b565b90508281526020810184848401111561306257600080fd5b61306d8482856141d1565b509392505050565b60008135905061308481614a96565b92915050565b60008135905061309981614aad565b92915050565b6000813590506130ae81614ac4565b92915050565b6000815190506130c381614ac4565b92915050565b600082601f8301126130da57600080fd5b81356130ea848260208601612ff9565b91505092915050565b600082601f83011261310457600080fd5b8135613114848260208601613037565b91505092915050565b60006080828403121561312f57600080fd5b6131396080613f5b565b90506000613149848285016131c1565b600083015250602061315d848285016131c1565b602083015250604082013567ffffffffffffffff81111561317d57600080fd5b613189848285016130f3565b604083015250606082013567ffffffffffffffff8111156131a957600080fd5b6131b5848285016130f3565b60608301525092915050565b6000813590506131d081614adb565b92915050565b6000602082840312156131e857600080fd5b60006131f684828501613075565b91505092915050565b6000806040838503121561321257600080fd5b600061322085828601613075565b925050602061323185828601613075565b9150509250929050565b60008060006060848603121561325057600080fd5b600061325e86828701613075565b935050602061326f86828701613075565b9250506040613280868287016131c1565b9150509250925092565b600080600080608085870312156132a057600080fd5b60006132ae87828801613075565b94505060206132bf87828801613075565b93505060406132d0878288016131c1565b925050606085013567ffffffffffffffff8111156132ed57600080fd5b6132f9878288016130c9565b91505092959194509250565b6000806040838503121561331857600080fd5b600061332685828601613075565b92505060206133378582860161308a565b9150509250929050565b6000806040838503121561335457600080fd5b600061336285828601613075565b9250506020613373858286016131c1565b9150509250929050565b60006020828403121561338f57600080fd5b600061339d8482850161309f565b91505092915050565b6000602082840312156133b857600080fd5b60006133c6848285016130b4565b91505092915050565b600080600080608085870312156133e557600080fd5b600085013567ffffffffffffffff8111156133ff57600080fd5b61340b878288016130f3565b945050602085013567ffffffffffffffff81111561342857600080fd5b613434878288016130f3565b9350506040613445878288016131c1565b925050606085013567ffffffffffffffff81111561346257600080fd5b61346e8782880161311d565b91505092959194509250565b60006020828403121561348c57600080fd5b600061349a848285016131c1565b91505092915050565b600080604083850312156134b657600080fd5b60006134c4858286016131c1565b92505060206134d5858286016131c1565b9150509250929050565b6134e88161415d565b82525050565b6134f78161414b565b82525050565b6135068161416f565b82525050565b600061351782613fe2565b6135218185613ff8565b93506135318185602086016141e0565b61353a816143ac565b840191505092915050565b600061355082613fed565b61355a8185614009565b935061356a8185602086016141e0565b613573816143ac565b840191505092915050565b600061358982613fed565b613593818561401a565b93506135a38185602086016141e0565b6135ac816143ac565b840191505092915050565b60006135c282613fed565b6135cc818561402b565b93506135dc8185602086016141e0565b80840191505092915050565b60006135f560248361401a565b9150613600826143bd565b604082019050919050565b6000613618601c8361401a565b91506136238261440c565b602082019050919050565b600061363b60328361401a565b915061364682614435565b604082019050919050565b600061365e60268361401a565b915061366982614484565b604082019050919050565b600061368160258361401a565b915061368c826144d3565b604082019050919050565b60006136a4601c8361401a565b91506136af82614522565b602082019050919050565b60006136c760248361401a565b91506136d28261454b565b604082019050919050565b60006136ea60198361401a565b91506136f58261459a565b602082019050919050565b600061370d602c8361401a565b9150613718826145c3565b604082019050919050565b6000613730601d8361401a565b915061373b82614612565b602082019050919050565b6000613753601c8361401a565b915061375e8261463b565b602082019050919050565b600061377660388361401a565b915061378182614664565b604082019050919050565b6000613799602a8361401a565b91506137a4826146b3565b604082019050919050565b60006137bc60298361401a565b91506137c782614702565b604082019050919050565b60006137df602e8361401a565b91506137ea82614751565b604082019050919050565b600061380260208361401a565b915061380d826147a0565b602082019050919050565b600061382560318361401a565b9150613830826147c9565b604082019050919050565b6000613848602c8361401a565b915061385382614818565b604082019050919050565b600061386b60208361401a565b915061387682614867565b602082019050919050565b600061388e601c8361401a565b915061389982614890565b602082019050919050565b60006138b1602f8361401a565b91506138bc826148b9565b604082019050919050565b60006138d460358361401a565b91506138df82614908565b604082019050919050565b60006138f760218361401a565b915061390282614957565b604082019050919050565b600061391a60318361401a565b9150613925826149a6565b604082019050919050565b600061393d601d8361401a565b9150613948826149f5565b602082019050919050565b6000613960601f8361401a565b915061396b82614a1e565b602082019050919050565b600061398360248361401a565b915061398e82614a47565b604082019050919050565b60006080830160008301516139b16000860182613a03565b5060208301516139c46020860182613a03565b50604083015184820360408601526139dc8282613545565b915050606083015184820360608601526139f68282613545565b9150508091505092915050565b613a0c816141c7565b82525050565b613a1b816141c7565b82525050565b6000613a2d82856135b7565b9150613a3982846135b7565b91508190509392505050565b6000602082019050613a5a60008301846134ee565b92915050565b6000602082019050613a7560008301846134df565b92915050565b6000608082019050613a9060008301876134ee565b613a9d60208301866134ee565b613aaa6040830185613a12565b8181036060830152613abc818461350c565b905095945050505050565b6000602082019050613adc60008301846134fd565b92915050565b60006020820190508181036000830152613afc818461357e565b905092915050565b60006020820190508181036000830152613b1d816135e8565b9050919050565b60006020820190508181036000830152613b3d8161360b565b9050919050565b60006020820190508181036000830152613b5d8161362e565b9050919050565b60006020820190508181036000830152613b7d81613651565b9050919050565b60006020820190508181036000830152613b9d81613674565b9050919050565b60006020820190508181036000830152613bbd81613697565b9050919050565b60006020820190508181036000830152613bdd816136ba565b9050919050565b60006020820190508181036000830152613bfd816136dd565b9050919050565b60006020820190508181036000830152613c1d81613700565b9050919050565b60006020820190508181036000830152613c3d81613723565b9050919050565b60006020820190508181036000830152613c5d81613746565b9050919050565b60006020820190508181036000830152613c7d81613769565b9050919050565b60006020820190508181036000830152613c9d8161378c565b9050919050565b60006020820190508181036000830152613cbd816137af565b9050919050565b60006020820190508181036000830152613cdd816137d2565b9050919050565b60006020820190508181036000830152613cfd816137f5565b9050919050565b60006020820190508181036000830152613d1d81613818565b9050919050565b60006020820190508181036000830152613d3d8161383b565b9050919050565b60006020820190508181036000830152613d5d8161385e565b9050919050565b60006020820190508181036000830152613d7d81613881565b9050919050565b60006020820190508181036000830152613d9d816138a4565b9050919050565b60006020820190508181036000830152613dbd816138c7565b9050919050565b60006020820190508181036000830152613ddd816138ea565b9050919050565b60006020820190508181036000830152613dfd8161390d565b9050919050565b60006020820190508181036000830152613e1d81613930565b9050919050565b60006020820190508181036000830152613e3d81613953565b9050919050565b60006020820190508181036000830152613e5d81613976565b9050919050565b60006020820190508181036000830152613e7e8184613999565b905092915050565b6000602082019050613e9b6000830184613a12565b92915050565b6000606082019050613eb66000830186613a12565b8181036020830152613ec8818561357e565b9050613ed76040830184613a12565b949350505050565b6000604082019050613ef46000830185613a12565b613f016020830184613a12565b9392505050565b6000608082019050613f1d6000830187613a12565b613f2a6020830186613a12565b8181036040830152613f3c818561357e565b90508181036060830152613f50818461357e565b905095945050505050565b6000613f65613f76565b9050613f718282614245565b919050565b6000604051905090565b600067ffffffffffffffff821115613f9b57613f9a61437d565b5b613fa4826143ac565b9050602081019050919050565b600067ffffffffffffffff821115613fcc57613fcb61437d565b5b613fd5826143ac565b9050602081019050919050565b600081519050919050565b600081519050919050565b600082825260208201905092915050565b600082825260208201905092915050565b600082825260208201905092915050565b600081905092915050565b6000614041826141c7565b915061404c836141c7565b9250827fffffffffffffffffffffffffffffffffffffffffffffffffffffffffffffffff03821115614081576140806142f0565b5b828201905092915050565b6000614097826141c7565b91506140a2836141c7565b9250826140b2576140b161431f565b5b828204905092915050565b60006140c8826141c7565b91506140d3836141c7565b9250817fffffffffffffffffffffffffffffffffffffffffffffffffffffffffffffffff048311821515161561410c5761410b6142f0565b5b828202905092915050565b6000614122826141c7565b915061412d836141c7565b9250828210156141405761413f6142f0565b5b828203905092915050565b6000614156826141a7565b9050919050565b6000614168826141a7565b9050919050565b60008115159050919050565b60007fffffffff0000000000000000000000000000000000000000000000000000000082169050919050565b600073ffffffffffffffffffffffffffffffffffffffff82169050919050565b6000819050919050565b82818337600083830152505050565b60005b838110156141fe5780820151818401526020810190506141e3565b8381111561420d576000848401525b50505050565b6000600282049050600182168061422b57607f821691505b6020821081141561423f5761423e61434e565b5b50919050565b61424e826143ac565b810181811067ffffffffffffffff8211171561426d5761426c61437d565b5b80604052505050565b6000614281826141c7565b91507fffffffffffffffffffffffffffffffffffffffffffffffffffffffffffffffff8214156142b4576142b36142f0565b5b600182019050919050565b60006142ca826141c7565b91506142d5836141c7565b9250826142e5576142e461431f565b5b828206905092915050565b7f4e487b7100000000000000000000000000000000000000000000000000000000600052601160045260246000fd5b7f4e487b7100000000000000000000000000000000000000000000000000000000600052601260045260246000fd5b7f4e487b7100000000000000000000000000000000000000000000000000000000600052602260045260246000fd5b7f4e487b7100000000000000000000000000000000000000000000000000000000600052604160045260246000fd5b6000601f19601f8301169050919050565b7f4552433732313a205469636b65742068617320616c7265616479206265656e2060008201527f7573656400000000000000000000000000000000000000000000000000000000602082015250565b7f4552433732313a205469636b65742073616c6520697320636c6f736500000000600082015250565b7f4552433732313a207472616e7366657220746f206e6f6e20455243373231526560008201527f63656976657220696d706c656d656e7465720000000000000000000000000000602082015250565b7f4f776e61626c653a206e6577206f776e657220697320746865207a65726f206160008201527f6464726573730000000000000000000000000000000000000000000000000000602082015250565b7f4552433732313a207472616e736665722066726f6d20696e636f72726563742060008201527f6f776e6572000000000000000000000000000000000000000000000000000000602082015250565b7f4552433732313a20746f6b656e20616c7265616479206d696e74656400000000600082015250565b7f4552433732313a207472616e7366657220746f20746865207a65726f2061646460008201527f7265737300000000000000000000000000000000000000000000000000000000602082015250565b7f4552433732313a20617070726f766520746f2063616c6c657200000000000000600082015250565b7f4552433732313a206f70657261746f7220717565727920666f72206e6f6e657860008201527f697374656e7420746f6b656e0000000000000000000000000000000000000000602082015250565b7f4552433732313a205469636b657420646f6573206e6f74206578697374000000600082015250565b7f4552433732313a20496e73756666696369656e74207061796d656e7400000000600082015250565b7f4552433732313a20617070726f76652063616c6c6572206973206e6f74206f7760008201527f6e6572206e6f7220617070726f76656420666f7220616c6c0000000000000000602082015250565b7f4552433732313a2062616c616e636520717565727920666f7220746865207a6560008201527f726f206164647265737300000000000000000000000000000000000000000000602082015250565b7f4552433732313a206f776e657220717565727920666f72206e6f6e657869737460008201527f656e7420746f6b656e0000000000000000000000000000000000000000000000602082015250565b7f45524337323155524953746f726167653a2055524920736574206f66206e6f6e60008201527f6578697374656e7420746f6b656e000000000000000000000000000000000000602082015250565b7f4552433732313a206d696e7420746f20746865207a65726f2061646472657373600082015250565b7f45524337323155524953746f726167653a2055524920717565727920666f722060008201527f6e6f6e6578697374656e7420746f6b656e000000000000000000000000000000602082015250565b7f4552433732313a20617070726f76656420717565727920666f72206e6f6e657860008201527f697374656e7420746f6b656e0000000000000000000000000000000000000000602082015250565b7f4f776e61626c653a2063616c6c6572206973206e6f7420746865206f776e6572600082015250565b7f4552433732313a204e6f7420746865207469636b6574206f776e657200000000600082015250565b7f4552433732314d657461646174613a2055524920717565727920666f72206e6f60008201527f6e6578697374656e7420746f6b656e0000000000000000000000000000000000602082015250565b7f4552433732313a204d73672e73656e64657220697320616c726561647920746860008201527f65206f776e6572206f6620746865207469636b65740000000000000000000000602082015250565b7f4552433732313a20617070726f76616c20746f2063757272656e74206f776e6560008201527f7200000000000000000000000000000000000000000000000000000000000000602082015250565b7f4552433732313a207472616e736665722063616c6c6572206973206e6f74206f60008201527f776e6572206e6f7220617070726f766564000000000000000000000000000000602082015250565b7f4552433732313a205469636b657420616c726561647920657869737473000000600082015250565b7f5265656e7472616e637947756172643a207265656e7472616e742063616c6c00600082015250565b7f4552433732313a205469636b65742068617320616c7265616479206265656e2060008201527f736f6c6400000000000000000000000000000000000000000000000000000000602082015250565b614a9f8161414b565b8114614aaa57600080fd5b50565b614ab68161416f565b8114614ac157600080fd5b50565b614acd8161417b565b8114614ad857600080fd5b50565b614ae4816141c7565b8114614aef57600080fd5b5056fea2646970667358221220304893fbf6f25b4e45dfc0769badf96c29e01b0f62268675c19881f56522685c64736f6c63430008040033",
  "linkReferences": {},
  "deployedLinkReferences": {}
}