{
  "_format": "hh-sol-artifact-1",
  "contractName": "NFT",
  "sourceName": "src/backend/contracts/NFT.sol",
  "abi": [
    {
      "inputs": [
        {
          "internalType": "uint256",
          "name": "_porcentajeReventa",
          "type": "uint256"
        }
      ],
      "stateMutability": "nonpayable",
      "type": "constructor"
    },
    {
      "anonymous": false,
      "inputs": [
        {
          "indexed": true,
          "internalType": "address",
          "name": "owner",
          "type": "address"
        },
        {
          "indexed": true,
          "internalType": "address",
          "name": "approved",
          "type": "address"
        },
        {
          "indexed": true,
          "internalType": "uint256",
          "name": "tokenId",
          "type": "uint256"
        }
      ],
      "name": "Approval",
      "type": "event"
    },
    {
      "anonymous": false,
      "inputs": [
        {
          "indexed": true,
          "internalType": "address",
          "name": "owner",
          "type": "address"
        },
        {
          "indexed": true,
          "internalType": "address",
          "name": "operator",
          "type": "address"
        },
        {
          "indexed": false,
          "internalType": "bool",
          "name": "approved",
          "type": "bool"
        }
      ],
      "name": "ApprovalForAll",
      "type": "event"
    },
    {
      "anonymous": false,
      "inputs": [
        {
          "indexed": false,
          "internalType": "uint256",
          "name": "idEntrada",
          "type": "uint256"
        },
        {
          "indexed": false,
          "internalType": "uint256",
          "name": "precio",
          "type": "uint256"
        },
        {
          "indexed": true,
          "internalType": "address",
          "name": "vendedor",
          "type": "address"
        },
        {
          "indexed": true,
          "internalType": "address",
          "name": "comprador",
          "type": "address"
        }
      ],
      "name": "Bought",
      "type": "event"
    },
    {
      "anonymous": false,
      "inputs": [
        {
          "indexed": false,
          "internalType": "uint256",
          "name": "idEntrada",
          "type": "uint256"
        },
        {
          "indexed": false,
          "internalType": "uint256",
          "name": "precio",
          "type": "uint256"
        },
        {
          "indexed": true,
          "internalType": "address",
          "name": "vendedor",
          "type": "address"
        }
      ],
      "name": "Offered",
      "type": "event"
    },
    {
      "anonymous": false,
      "inputs": [
        {
          "indexed": true,
          "internalType": "address",
          "name": "previousOwner",
          "type": "address"
        },
        {
          "indexed": true,
          "internalType": "address",
          "name": "newOwner",
          "type": "address"
        }
      ],
      "name": "OwnershipTransferred",
      "type": "event"
    },
    {
      "anonymous": false,
      "inputs": [
        {
          "indexed": true,
          "internalType": "address",
          "name": "from",
          "type": "address"
        },
        {
          "indexed": true,
          "internalType": "address",
          "name": "to",
          "type": "address"
        },
        {
          "indexed": true,
          "internalType": "uint256",
          "name": "tokenId",
          "type": "uint256"
        }
      ],
      "name": "Transfer",
      "type": "event"
    },
    {
      "inputs": [
        {
          "internalType": "address",
          "name": "to",
          "type": "address"
        },
        {
          "internalType": "uint256",
          "name": "tokenId",
          "type": "uint256"
        }
      ],
      "name": "approve",
      "outputs": [],
      "stateMutability": "nonpayable",
      "type": "function"
    },
    {
      "inputs": [
        {
          "internalType": "address",
          "name": "owner",
          "type": "address"
        }
      ],
      "name": "balanceOf",
      "outputs": [
        {
          "internalType": "uint256",
          "name": "",
          "type": "uint256"
        }
      ],
      "stateMutability": "view",
      "type": "function"
    },
    {
      "inputs": [],
      "name": "changeSaleState",
      "outputs": [
        {
          "internalType": "bool",
          "name": "",
          "type": "bool"
        }
      ],
      "stateMutability": "nonpayable",
      "type": "function"
    },
    {
      "inputs": [],
      "name": "cuentaMaestra",
      "outputs": [
        {
          "internalType": "address payable",
          "name": "",
          "type": "address"
        }
      ],
      "stateMutability": "view",
      "type": "function"
    },
    {
      "inputs": [
        {
          "internalType": "uint256",
          "name": "",
          "type": "uint256"
        }
      ],
      "name": "entradas",
      "outputs": [
        {
          "internalType": "uint256",
          "name": "idEntrada",
          "type": "uint256"
        },
        {
          "internalType": "string",
          "name": "descripcion",
          "type": "string"
        },
        {
          "internalType": "uint256",
          "name": "precio",
          "type": "uint256"
        }
      ],
      "stateMutability": "view",
      "type": "function"
    },
    {
      "inputs": [
        {
          "internalType": "uint256",
          "name": "tokenId",
          "type": "uint256"
        }
      ],
      "name": "getApproved",
      "outputs": [
        {
          "internalType": "address",
          "name": "",
          "type": "address"
        }
      ],
      "stateMutability": "view",
      "type": "function"
    },
    {
      "inputs": [
        {
          "internalType": "uint256",
          "name": "_tokenId",
          "type": "uint256"
        }
      ],
      "name": "getOwner",
      "outputs": [
        {
          "internalType": "address",
          "name": "",
          "type": "address"
        }
      ],
      "stateMutability": "view",
      "type": "function"
    },
    {
      "inputs": [],
      "name": "getSaleState",
      "outputs": [
        {
          "internalType": "bool",
          "name": "",
          "type": "bool"
        }
      ],
      "stateMutability": "view",
      "type": "function"
    },
    {
      "inputs": [
        {
          "internalType": "uint256",
          "name": "_tokenId",
          "type": "uint256"
        }
      ],
      "name": "getTotalPrice",
      "outputs": [
        {
          "internalType": "uint256",
          "name": "",
          "type": "uint256"
        }
      ],
      "stateMutability": "view",
      "type": "function"
    },
    {
      "inputs": [
        {
          "internalType": "address",
          "name": "owner",
          "type": "address"
        },
        {
          "internalType": "address",
          "name": "operator",
          "type": "address"
        }
      ],
      "name": "isApprovedForAll",
      "outputs": [
        {
          "internalType": "bool",
          "name": "",
          "type": "bool"
        }
      ],
      "stateMutability": "view",
      "type": "function"
    },
    {
      "inputs": [
        {
          "internalType": "string",
          "name": "_tokenURI",
          "type": "string"
        },
        {
          "internalType": "string",
          "name": "_descripcion",
          "type": "string"
        },
        {
          "internalType": "uint256",
          "name": "_precio",
          "type": "uint256"
        }
      ],
      "name": "mint",
      "outputs": [
        {
          "internalType": "uint256",
          "name": "",
          "type": "uint256"
        }
      ],
      "stateMutability": "nonpayable",
      "type": "function"
    },
    {
      "inputs": [],
      "name": "name",
      "outputs": [
        {
          "internalType": "string",
          "name": "",
          "type": "string"
        }
      ],
      "stateMutability": "view",
      "type": "function"
    },
    {
      "inputs": [],
      "name": "owner",
      "outputs": [
        {
          "internalType": "address",
          "name": "",
          "type": "address"
        }
      ],
      "stateMutability": "view",
      "type": "function"
    },
    {
      "inputs": [
        {
          "internalType": "uint256",
          "name": "tokenId",
          "type": "uint256"
        }
      ],
      "name": "ownerOf",
      "outputs": [
        {
          "internalType": "address",
          "name": "",
          "type": "address"
        }
      ],
      "stateMutability": "view",
      "type": "function"
    },
    {
      "inputs": [],
      "name": "porcentajeReventa",
      "outputs": [
        {
          "internalType": "uint256",
          "name": "",
          "type": "uint256"
        }
      ],
      "stateMutability": "view",
      "type": "function"
    },
    {
      "inputs": [],
      "name": "renounceOwnership",
      "outputs": [],
      "stateMutability": "nonpayable",
      "type": "function"
    },
    {
      "inputs": [
        {
          "internalType": "address",
          "name": "from",
          "type": "address"
        },
        {
          "internalType": "address",
          "name": "to",
          "type": "address"
        },
        {
          "internalType": "uint256",
          "name": "tokenId",
          "type": "uint256"
        }
      ],
      "name": "safeTransferFrom",
      "outputs": [],
      "stateMutability": "nonpayable",
      "type": "function"
    },
    {
      "inputs": [
        {
          "internalType": "address",
          "name": "from",
          "type": "address"
        },
        {
          "internalType": "address",
          "name": "to",
          "type": "address"
        },
        {
          "internalType": "uint256",
          "name": "tokenId",
          "type": "uint256"
        },
        {
          "internalType": "bytes",
          "name": "_data",
          "type": "bytes"
        }
      ],
      "name": "safeTransferFrom",
      "outputs": [],
      "stateMutability": "nonpayable",
      "type": "function"
    },
    {
      "inputs": [
        {
          "internalType": "uint256",
          "name": "_tokenId",
          "type": "uint256"
        }
      ],
      "name": "sellTicket",
      "outputs": [],
      "stateMutability": "payable",
      "type": "function"
    },
    {
      "inputs": [
        {
          "internalType": "address",
          "name": "operator",
          "type": "address"
        },
        {
          "internalType": "bool",
          "name": "approved",
          "type": "bool"
        }
      ],
      "name": "setApprovalForAll",
      "outputs": [],
      "stateMutability": "nonpayable",
      "type": "function"
    },
    {
      "inputs": [
        {
          "internalType": "uint256",
          "name": "_tokenId",
          "type": "uint256"
        },
        {
          "internalType": "uint256",
          "name": "_newPrice",
          "type": "uint256"
        }
      ],
      "name": "setPrice",
      "outputs": [],
      "stateMutability": "nonpayable",
      "type": "function"
    },
    {
      "inputs": [
        {
          "internalType": "bytes4",
          "name": "interfaceId",
          "type": "bytes4"
        }
      ],
      "name": "supportsInterface",
      "outputs": [
        {
          "internalType": "bool",
          "name": "",
          "type": "bool"
        }
      ],
      "stateMutability": "view",
      "type": "function"
    },
    {
      "inputs": [],
      "name": "symbol",
      "outputs": [
        {
          "internalType": "string",
          "name": "",
          "type": "string"
        }
      ],
      "stateMutability": "view",
      "type": "function"
    },
    {
      "inputs": [
        {
          "internalType": "uint256",
          "name": "_tokenId",
          "type": "uint256"
        }
      ],
      "name": "ticketSold",
      "outputs": [
        {
          "internalType": "bool",
          "name": "",
          "type": "bool"
        }
      ],
      "stateMutability": "view",
      "type": "function"
    },
    {
      "inputs": [
        {
          "internalType": "uint256",
          "name": "_tokenId",
          "type": "uint256"
        }
      ],
      "name": "ticketUsed",
      "outputs": [
        {
          "internalType": "bool",
          "name": "",
          "type": "bool"
        }
      ],
      "stateMutability": "view",
      "type": "function"
    },
    {
      "inputs": [],
      "name": "tokenCount",
      "outputs": [
        {
          "internalType": "uint256",
          "name": "",
          "type": "uint256"
        }
      ],
      "stateMutability": "view",
      "type": "function"
    },
    {
      "inputs": [
        {
          "internalType": "uint256",
          "name": "tokenId",
          "type": "uint256"
        }
      ],
      "name": "tokenURI",
      "outputs": [
        {
          "internalType": "string",
          "name": "",
          "type": "string"
        }
      ],
      "stateMutability": "view",
      "type": "function"
    },
    {
      "inputs": [
        {
          "internalType": "address",
          "name": "from",
          "type": "address"
        },
        {
          "internalType": "address",
          "name": "to",
          "type": "address"
        },
        {
          "internalType": "uint256",
          "name": "tokenId",
          "type": "uint256"
        }
      ],
      "name": "transferFrom",
      "outputs": [],
      "stateMutability": "nonpayable",
      "type": "function"
    },
    {
      "inputs": [
        {
          "internalType": "address",
          "name": "newOwner",
          "type": "address"
        }
      ],
      "name": "transferOwnership",
      "outputs": [],
      "stateMutability": "nonpayable",
      "type": "function"
    },
    {
      "inputs": [
        {
          "internalType": "uint256",
          "name": "_tokenId",
          "type": "uint256"
        }
      ],
      "name": "useTicket",
      "outputs": [
        {
          "internalType": "bool",
          "name": "",
          "type": "bool"
        }
      ],
      "stateMutability": "nonpayable",
      "type": "function"
    }
  ],
  "bytecode": "0x60806040523480156200001157600080fd5b506040516200472f3803806200472f8339818101604052810190620000379190620002fe565b6040518060400160405280600881526020017f4e465469636b65740000000000000000000000000000000000000000000000008152506040518060400160405280600681526020017f5449434b455400000000000000000000000000000000000000000000000000008152508160009080519060200190620000bb92919062000237565b508060019080519060200190620000d492919062000237565b505050620000f7620000eb6200016960201b60201c565b6200017160201b60201c565b600160088190555080600a8190555033600b60006101000a81548173ffffffffffffffffffffffffffffffffffffffff021916908373ffffffffffffffffffffffffffffffffffffffff1602179055506001600b60146101000a81548160ff02191690831515021790555050620003b3565b600033905090565b6000600760009054906101000a900473ffffffffffffffffffffffffffffffffffffffff16905081600760006101000a81548173ffffffffffffffffffffffffffffffffffffffff021916908373ffffffffffffffffffffffffffffffffffffffff1602179055508173ffffffffffffffffffffffffffffffffffffffff168173ffffffffffffffffffffffffffffffffffffffff167f8be0079c531659141344cd1fd0a4f28419497f9722a3daafe3b4186f6b6457e060405160405180910390a35050565b828054620002459062000334565b90600052602060002090601f016020900481019282620002695760008555620002b5565b82601f106200028457805160ff1916838001178555620002b5565b82800160010185558215620002b5579182015b82811115620002b457825182559160200191906001019062000297565b5b509050620002c49190620002c8565b5090565b5b80821115620002e3576000816000905550600101620002c9565b5090565b600081519050620002f88162000399565b92915050565b6000602082840312156200031157600080fd5b60006200032184828501620002e7565b91505092915050565b6000819050919050565b600060028204905060018216806200034d57607f821691505b602082108114156200036457620003636200036a565b5b50919050565b7f4e487b7100000000000000000000000000000000000000000000000000000000600052602260045260246000fd5b620003a4816200032a565b8114620003b057600080fd5b50565b61436c80620003c36000396000f3fe6080604052600436106101cd5760003560e01c806382a6c5d2116100f7578063c87b56dd11610095578063e985e9c511610064578063e985e9c5146106ec578063f192866a14610729578063f2fde38b14610745578063f7d975771461076e576101cd565b8063c87b56dd1461060a578063ca7dd37514610647578063d41d9a2714610684578063dd9c1f23146106c1576101cd565b80639f181b5e116100d15780639f181b5e14610550578063a22cb4651461057b578063b88d4fde146105a4578063c41a360a146105cd576101cd565b806382a6c5d2146104bd5780638da5cb5b146104fa57806395d89b4114610525576101cd565b8063266064481161016f578063642b5f9b1161013e578063642b5f9b1461040157806370a082311461043e578063715018a61461047b5780637939128114610492576101cd565b806326606448146103335780633366a2bc1461037057806342842e0e1461039b5780636352211e146103c4576101cd565b8063095ea7b3116101ab578063095ea7b3146102775780631d4ab540146102a057806323b872dd146102df57806325bdb2a814610308576101cd565b806301ffc9a7146101d257806306fdde031461020f578063081812fc1461023a575b600080fd5b3480156101de57600080fd5b506101f960048036038101906101f49190612db7565b610797565b6040516102069190613400565b60405180910390f35b34801561021b57600080fd5b50610224610879565b604051610231919061341b565b60405180910390f35b34801561024657600080fd5b50610261600480360381019061025c9190612e88565b61090b565b60405161026e919061337e565b60405180910390f35b34801561028357600080fd5b5061029e60048036038101906102999190612d7b565b610990565b005b3480156102ac57600080fd5b506102c760048036038101906102c29190612e88565b610aa8565b6040516102d693929190613798565b60405180910390f35b3480156102eb57600080fd5b5061030660048036038101906103019190612c75565b610b5a565b005b34801561031457600080fd5b5061031d610bba565b60405161032a9190613400565b60405180910390f35b34801561033f57600080fd5b5061035a60048036038101906103559190612e88565b610bd1565b6040516103679190613400565b60405180910390f35b34801561037c57600080fd5b50610385610c99565b6040516103929190613399565b60405180910390f35b3480156103a757600080fd5b506103c260048036038101906103bd9190612c75565b610cbf565b005b3480156103d057600080fd5b506103eb60048036038101906103e69190612e88565b610cdf565b6040516103f8919061337e565b60405180910390f35b34801561040d57600080fd5b5061042860048036038101906104239190612e88565b610d91565b6040516104359190613400565b60405180910390f35b34801561044a57600080fd5b5061046560048036038101906104609190612c10565b610dbb565b604051610472919061377d565b60405180910390f35b34801561048757600080fd5b50610490610e73565b005b34801561049e57600080fd5b506104a7610efb565b6040516104b4919061377d565b60405180910390f35b3480156104c957600080fd5b506104e460048036038101906104df9190612e88565b610f01565b6040516104f19190613400565b60405180910390f35b34801561050657600080fd5b5061050f610f2b565b60405161051c919061337e565b60405180910390f35b34801561053157600080fd5b5061053a610f55565b604051610547919061341b565b60405180910390f35b34801561055c57600080fd5b50610565610fe7565b604051610572919061377d565b60405180910390f35b34801561058757600080fd5b506105a2600480360381019061059d9190612d3f565b610fed565b005b3480156105b057600080fd5b506105cb60048036038101906105c69190612cc4565b611003565b005b3480156105d957600080fd5b506105f460048036038101906105ef9190612e88565b611065565b604051610601919061337e565b60405180910390f35b34801561061657600080fd5b50610631600480360381019061062c9190612e88565b611077565b60405161063e919061341b565b60405180910390f35b34801561065357600080fd5b5061066e60048036038101906106699190612e88565b6111c9565b60405161067b919061377d565b60405180910390f35b34801561069057600080fd5b506106ab60048036038101906106a69190612e09565b61120e565b6040516106b8919061377d565b60405180910390f35b3480156106cd57600080fd5b506106d66114af565b6040516106e39190613400565b60405180910390f35b3480156106f857600080fd5b50610713600480360381019061070e9190612c39565b61156c565b6040516107209190613400565b60405180910390f35b610743600480360381019061073e9190612e88565b611600565b005b34801561075157600080fd5b5061076c60048036038101906107679190612c10565b6119dd565b005b34801561077a57600080fd5b5061079560048036038101906107909190612eb1565b611ad5565b005b60007f80ac58cd000000000000000000000000000000000000000000000000000000007bffffffffffffffffffffffffffffffffffffffffffffffffffffffff1916827bffffffffffffffffffffffffffffffffffffffffffffffffffffffff1916148061086257507f5b5e139f000000000000000000000000000000000000000000000000000000007bffffffffffffffffffffffffffffffffffffffffffffffffffffffff1916827bffffffffffffffffffffffffffffffffffffffffffffffffffffffff1916145b80610872575061087182611bb2565b5b9050919050565b60606000805461088890613aa6565b80601f01602080910402602001604051908101604052809291908181526020018280546108b490613aa6565b80156109015780601f106108d657610100808354040283529160200191610901565b820191906000526020600020905b8154815290600101906020018083116108e457829003601f168201915b5050505050905090565b600061091682611c1c565b610955576040517f08c379a000000000000000000000000000000000000000000000000000000000815260040161094c9061365d565b60405180910390fd5b6004600083815260200190815260200160002060009054906101000a900473ffffffffffffffffffffffffffffffffffffffff169050919050565b600061099b82610cdf565b90508073ffffffffffffffffffffffffffffffffffffffff168373ffffffffffffffffffffffffffffffffffffffff161415610a0c576040517f08c379a0000000000000000000000000000000000000000000000000000000008152600401610a03906136dd565b60405180910390fd5b8073ffffffffffffffffffffffffffffffffffffffff16610a2b611c88565b73ffffffffffffffffffffffffffffffffffffffff161480610a5a5750610a5981610a54611c88565b61156c565b5b610a99576040517f08c379a0000000000000000000000000000000000000000000000000000000008152600401610a909061359d565b60405180910390fd5b610aa38383611c90565b505050565b600c602052806000526040600020600091509050806000015490806001018054610ad190613aa6565b80601f0160208091040260200160405190810160405280929190818152602001828054610afd90613aa6565b8015610b4a5780601f10610b1f57610100808354040283529160200191610b4a565b820191906000526020600020905b815481529060010190602001808311610b2d57829003601f168201915b5050505050908060020154905083565b610b6b610b65611c88565b82611d49565b610baa576040517f08c379a0000000000000000000000000000000000000000000000000000000008152600401610ba1906136fd565b60405180910390fd5b610bb5838383611e27565b505050565b6000600b60149054906101000a900460ff16905090565b6000610bdc82611c1c565b610c1b576040517f08c379a0000000000000000000000000000000000000000000000000000000008152600401610c129061355d565b60405180910390fd5b610c2482610d91565b15610c64576040517f08c379a0000000000000000000000000000000000000000000000000000000008152600401610c5b9061343d565b60405180910390fd5b6001600f600084815260200190815260200160002060006101000a81548160ff02191690831515021790555060019050919050565b600b60009054906101000a900473ffffffffffffffffffffffffffffffffffffffff1681565b610cda83838360405180602001604052806000815250611003565b505050565b6000806002600084815260200190815260200160002060009054906101000a900473ffffffffffffffffffffffffffffffffffffffff169050600073ffffffffffffffffffffffffffffffffffffffff168173ffffffffffffffffffffffffffffffffffffffff161415610d88576040517f08c379a0000000000000000000000000000000000000000000000000000000008152600401610d7f906135dd565b60405180910390fd5b80915050919050565b6000600f600083815260200190815260200160002060009054906101000a900460ff169050919050565b60008073ffffffffffffffffffffffffffffffffffffffff168273ffffffffffffffffffffffffffffffffffffffff161415610e2c576040517f08c379a0000000000000000000000000000000000000000000000000000000008152600401610e23906135bd565b60405180910390fd5b600360008373ffffffffffffffffffffffffffffffffffffffff1673ffffffffffffffffffffffffffffffffffffffff168152602001908152602001600020549050919050565b610e7b611c88565b73ffffffffffffffffffffffffffffffffffffffff16610e99610f2b565b73ffffffffffffffffffffffffffffffffffffffff1614610eef576040517f08c379a0000000000000000000000000000000000000000000000000000000008152600401610ee69061367d565b60405180910390fd5b610ef9600061208e565b565b600a5481565b6000600d600083815260200190815260200160002060009054906101000a900460ff169050919050565b6000600760009054906101000a900473ffffffffffffffffffffffffffffffffffffffff16905090565b606060018054610f6490613aa6565b80601f0160208091040260200160405190810160405280929190818152602001828054610f9090613aa6565b8015610fdd5780601f10610fb257610100808354040283529160200191610fdd565b820191906000526020600020905b815481529060010190602001808311610fc057829003601f168201915b5050505050905090565b60095481565b610fff610ff8611c88565b8383612154565b5050565b61101461100e611c88565b83611d49565b611053576040517f08c379a000000000000000000000000000000000000000000000000000000000815260040161104a906136fd565b60405180910390fd5b61105f848484846122c1565b50505050565b600061107082610cdf565b9050919050565b606061108282611c1c565b6110c1576040517f08c379a00000000000000000000000000000000000000000000000000000000081526004016110b89061363d565b60405180910390fd5b60006006600084815260200190815260200160002080546110e190613aa6565b80601f016020809104026020016040519081016040528092919081815260200182805461110d90613aa6565b801561115a5780601f1061112f5761010080835404028352916020019161115a565b820191906000526020600020905b81548152906001019060200180831161113d57829003601f168201915b50505050509050600061116b61231d565b90506000815114156111815781925050506111c4565b6000825111156111b657808260405160200161119e92919061335a565b604051602081830303815290604052925050506111c4565b6111bf84612334565b925050505b919050565b60006064600a5460646111dc91906138c9565b600c6000858152602001908152602001600020600201546111fd9190613950565b611207919061391f565b9050919050565b600060026008541415611256576040517f08c379a000000000000000000000000000000000000000000000000000000000815260040161124d9061373d565b60405180910390fd5b6002600881905550611266611c88565b73ffffffffffffffffffffffffffffffffffffffff16611284610f2b565b73ffffffffffffffffffffffffffffffffffffffff16146112da576040517f08c379a00000000000000000000000000000000000000000000000000000000081526004016112d19061367d565b60405180910390fd5b600960008154809291906112ed90613b09565b91905055506112fd600954611c1c565b1561133d576040517f08c379a00000000000000000000000000000000000000000000000000000000081526004016113349061371d565b60405180910390fd5b611349336009546123db565b611355600954856123f9565b61135d612a13565b6009548160000181815250508381602001819052508281604001818152505080600c600060095481526020019081526020016000206000820151816000015560208201518160010190805190602001906113b8929190612a34565b50604082015181600201559050506000600d6000600954815260200190815260200160002060006101000a81548160ff02191690831515021790555033600e6000600954815260200190815260200160002060006101000a81548173ffffffffffffffffffffffffffffffffffffffff021916908373ffffffffffffffffffffffffffffffffffffffff1602179055503373ffffffffffffffffffffffffffffffffffffffff167f1ab3864560512bcd762f59576711bc5e90d3ef93e9253b43cd6be191b4a5814e600954856040516114929291906137d6565b60405180910390a260095491505060016008819055509392505050565b60006114b9611c88565b73ffffffffffffffffffffffffffffffffffffffff166114d7610f2b565b73ffffffffffffffffffffffffffffffffffffffff161461152d576040517f08c379a00000000000000000000000000000000000000000000000000000000081526004016115249061367d565b60405180910390fd5b600b60149054906101000a900460ff1615600b60146101000a81548160ff021916908315150217905550600b60149054906101000a900460ff16905090565b6000600560008473ffffffffffffffffffffffffffffffffffffffff1673ffffffffffffffffffffffffffffffffffffffff16815260200190815260200160002060008373ffffffffffffffffffffffffffffffffffffffff1673ffffffffffffffffffffffffffffffffffffffff16815260200190815260200160002060009054906101000a900460ff16905092915050565b60026008541415611646576040517f08c379a000000000000000000000000000000000000000000000000000000000815260040161163d9061373d565b60405180910390fd5b600260088190555061165781611c1c565b611696576040517f08c379a000000000000000000000000000000000000000000000000000000000815260040161168d9061355d565b60405180910390fd5b61169f816111c9565b3410156116e1576040517f08c379a00000000000000000000000000000000000000000000000000000000081526004016116d89061357d565b60405180910390fd5b600d600082815260200190815260200160002060009054906101000a900460ff1615611742576040517f08c379a00000000000000000000000000000000000000000000000000000000081526004016117399061375d565b60405180910390fd5b60011515600b60149054906101000a900460ff16151514611798576040517f08c379a000000000000000000000000000000000000000000000000000000000815260040161178f9061345d565b60405180910390fd5b60006117a382610cdf565b905060003390506000600c600085815260200190815260200160002060020154905060006064600a54836117d79190613950565b6117e1919061391f565b90506117ee848487611e27565b6001600d600087815260200190815260200160002060006101000a81548160ff02191690831515021790555082600e600087815260200190815260200160002060006101000a81548173ffffffffffffffffffffffffffffffffffffffff021916908373ffffffffffffffffffffffffffffffffffffffff1602179055508373ffffffffffffffffffffffffffffffffffffffff166108fc828461189291906139aa565b9081150290604051600060405180830381858888f193505050501580156118bd573d6000803e3d6000fd5b506118c6610f2b565b73ffffffffffffffffffffffffffffffffffffffff166108fc829081150290604051600060405180830381858888f1935050505015801561190b573d6000803e3d6000fd5b5081341115611967573373ffffffffffffffffffffffffffffffffffffffff166108fc833461193a91906139aa565b9081150290604051600060405180830381858888f19350505050158015611965573d6000803e3d6000fd5b505b8273ffffffffffffffffffffffffffffffffffffffff168473ffffffffffffffffffffffffffffffffffffffff167f4ebd6ef39c1235e69ba7dedf24ad43bdeb57deb289d98473668070d6ca9b685e87856040516119c69291906137d6565b60405180910390a350505050600160088190555050565b6119e5611c88565b73ffffffffffffffffffffffffffffffffffffffff16611a03610f2b565b73ffffffffffffffffffffffffffffffffffffffff1614611a59576040517f08c379a0000000000000000000000000000000000000000000000000000000008152600401611a509061367d565b60405180910390fd5b600073ffffffffffffffffffffffffffffffffffffffff168173ffffffffffffffffffffffffffffffffffffffff161415611ac9576040517f08c379a0000000000000000000000000000000000000000000000000000000008152600401611ac09061349d565b60405180910390fd5b611ad28161208e565b50565b611ade82611c1c565b611b1d576040517f08c379a0000000000000000000000000000000000000000000000000000000008152600401611b149061355d565b60405180910390fd5b3373ffffffffffffffffffffffffffffffffffffffff16611b3d83610cdf565b73ffffffffffffffffffffffffffffffffffffffff1614611b93576040517f08c379a0000000000000000000000000000000000000000000000000000000008152600401611b8a9061369d565b60405180910390fd5b80600c6000848152602001908152602001600020600201819055505050565b60007f01ffc9a7000000000000000000000000000000000000000000000000000000007bffffffffffffffffffffffffffffffffffffffffffffffffffffffff1916827bffffffffffffffffffffffffffffffffffffffffffffffffffffffff1916149050919050565b60008073ffffffffffffffffffffffffffffffffffffffff166002600084815260200190815260200160002060009054906101000a900473ffffffffffffffffffffffffffffffffffffffff1673ffffffffffffffffffffffffffffffffffffffff1614159050919050565b600033905090565b816004600083815260200190815260200160002060006101000a81548173ffffffffffffffffffffffffffffffffffffffff021916908373ffffffffffffffffffffffffffffffffffffffff160217905550808273ffffffffffffffffffffffffffffffffffffffff16611d0383610cdf565b73ffffffffffffffffffffffffffffffffffffffff167f8c5be1e5ebec7d5bd14f71427d1e84f3dd0314c0f7b2291e5b200ac8c7c3b92560405160405180910390a45050565b6000611d5482611c1c565b611d93576040517f08c379a0000000000000000000000000000000000000000000000000000000008152600401611d8a9061353d565b60405180910390fd5b6000611d9e83610cdf565b90508073ffffffffffffffffffffffffffffffffffffffff168473ffffffffffffffffffffffffffffffffffffffff161480611e0d57508373ffffffffffffffffffffffffffffffffffffffff16611df58461090b565b73ffffffffffffffffffffffffffffffffffffffff16145b80611e1e5750611e1d818561156c565b5b91505092915050565b8273ffffffffffffffffffffffffffffffffffffffff16611e4782610cdf565b73ffffffffffffffffffffffffffffffffffffffff1614611e9d576040517f08c379a0000000000000000000000000000000000000000000000000000000008152600401611e94906134bd565b60405180910390fd5b600073ffffffffffffffffffffffffffffffffffffffff168273ffffffffffffffffffffffffffffffffffffffff161415611f0d576040517f08c379a0000000000000000000000000000000000000000000000000000000008152600401611f04906134fd565b60405180910390fd5b611f1883838361246d565b611f23600082611c90565b6001600360008573ffffffffffffffffffffffffffffffffffffffff1673ffffffffffffffffffffffffffffffffffffffff1681526020019081526020016000206000828254611f7391906139aa565b925050819055506001600360008473ffffffffffffffffffffffffffffffffffffffff1673ffffffffffffffffffffffffffffffffffffffff1681526020019081526020016000206000828254611fca91906138c9565b92505081905550816002600083815260200190815260200160002060006101000a81548173ffffffffffffffffffffffffffffffffffffffff021916908373ffffffffffffffffffffffffffffffffffffffff160217905550808273ffffffffffffffffffffffffffffffffffffffff168473ffffffffffffffffffffffffffffffffffffffff167fddf252ad1be2c89b69c2b068fc378daa952ba7f163c4a11628f55a4df523b3ef60405160405180910390a4612089838383612472565b505050565b6000600760009054906101000a900473ffffffffffffffffffffffffffffffffffffffff16905081600760006101000a81548173ffffffffffffffffffffffffffffffffffffffff021916908373ffffffffffffffffffffffffffffffffffffffff1602179055508173ffffffffffffffffffffffffffffffffffffffff168173ffffffffffffffffffffffffffffffffffffffff167f8be0079c531659141344cd1fd0a4f28419497f9722a3daafe3b4186f6b6457e060405160405180910390a35050565b8173ffffffffffffffffffffffffffffffffffffffff168373ffffffffffffffffffffffffffffffffffffffff1614156121c3576040517f08c379a00000000000000000000000000000000000000000000000000000000081526004016121ba9061351d565b60405180910390fd5b80600560008573ffffffffffffffffffffffffffffffffffffffff1673ffffffffffffffffffffffffffffffffffffffff16815260200190815260200160002060008473ffffffffffffffffffffffffffffffffffffffff1673ffffffffffffffffffffffffffffffffffffffff16815260200190815260200160002060006101000a81548160ff0219169083151502179055508173ffffffffffffffffffffffffffffffffffffffff168373ffffffffffffffffffffffffffffffffffffffff167f17307eab39ab6107e8899845ad3d59bd9653f200f220920489ca2b5937696c31836040516122b49190613400565b60405180910390a3505050565b6122cc848484611e27565b6122d884848484612477565b612317576040517f08c379a000000000000000000000000000000000000000000000000000000000815260040161230e9061347d565b60405180910390fd5b50505050565b606060405180602001604052806000815250905090565b606061233f82611c1c565b61237e576040517f08c379a0000000000000000000000000000000000000000000000000000000008152600401612375906136bd565b60405180910390fd5b600061238861231d565b905060008151116123a857604051806020016040528060008152506123d3565b806123b28461260e565b6040516020016123c392919061335a565b6040516020818303038152906040525b915050919050565b6123f58282604051806020016040528060008152506127bb565b5050565b61240282611c1c565b612441576040517f08c379a0000000000000000000000000000000000000000000000000000000008152600401612438906135fd565b60405180910390fd5b80600660008481526020019081526020016000209080519060200190612468929190612a34565b505050565b505050565b505050565b60006124988473ffffffffffffffffffffffffffffffffffffffff16612816565b15612601578373ffffffffffffffffffffffffffffffffffffffff1663150b7a026124c1611c88565b8786866040518563ffffffff1660e01b81526004016124e394939291906133b4565b602060405180830381600087803b1580156124fd57600080fd5b505af192505050801561252e57506040513d601f19601f8201168201806040525081019061252b9190612de0565b60015b6125b1573d806000811461255e576040519150601f19603f3d011682016040523d82523d6000602084013e612563565b606091505b506000815114156125a9576040517f08c379a00000000000000000000000000000000000000000000000000000000081526004016125a09061347d565b60405180910390fd5b805181602001fd5b63150b7a0260e01b7bffffffffffffffffffffffffffffffffffffffffffffffffffffffff1916817bffffffffffffffffffffffffffffffffffffffffffffffffffffffff191614915050612606565b600190505b949350505050565b60606000821415612656576040518060400160405280600181526020017f300000000000000000000000000000000000000000000000000000000000000081525090506127b6565b600082905060005b6000821461268857808061267190613b09565b915050600a82612681919061391f565b915061265e565b60008167ffffffffffffffff8111156126ca577f4e487b7100000000000000000000000000000000000000000000000000000000600052604160045260246000fd5b6040519080825280601f01601f1916602001820160405280156126fc5781602001600182028036833780820191505090505b5090505b600085146127af5760018261271591906139aa565b9150600a856127249190613b52565b603061273091906138c9565b60f81b81838151811061276c577f4e487b7100000000000000000000000000000000000000000000000000000000600052603260045260246000fd5b60200101907effffffffffffffffffffffffffffffffffffffffffffffffffffffffffffff1916908160001a905350600a856127a8919061391f565b9450612700565b8093505050505b919050565b6127c58383612839565b6127d26000848484612477565b612811576040517f08c379a00000000000000000000000000000000000000000000000000000000081526004016128089061347d565b60405180910390fd5b505050565b6000808273ffffffffffffffffffffffffffffffffffffffff163b119050919050565b600073ffffffffffffffffffffffffffffffffffffffff168273ffffffffffffffffffffffffffffffffffffffff1614156128a9576040517f08c379a00000000000000000000000000000000000000000000000000000000081526004016128a09061361d565b60405180910390fd5b6128b281611c1c565b156128f2576040517f08c379a00000000000000000000000000000000000000000000000000000000081526004016128e9906134dd565b60405180910390fd5b6128fe6000838361246d565b6001600360008473ffffffffffffffffffffffffffffffffffffffff1673ffffffffffffffffffffffffffffffffffffffff168152602001908152602001600020600082825461294e91906138c9565b92505081905550816002600083815260200190815260200160002060006101000a81548173ffffffffffffffffffffffffffffffffffffffff021916908373ffffffffffffffffffffffffffffffffffffffff160217905550808273ffffffffffffffffffffffffffffffffffffffff16600073ffffffffffffffffffffffffffffffffffffffff167fddf252ad1be2c89b69c2b068fc378daa952ba7f163c4a11628f55a4df523b3ef60405160405180910390a4612a0f60008383612472565b5050565b60405180606001604052806000815260200160608152602001600081525090565b828054612a4090613aa6565b90600052602060002090601f016020900481019282612a625760008555612aa9565b82601f10612a7b57805160ff1916838001178555612aa9565b82800160010185558215612aa9579182015b82811115612aa8578251825591602001919060010190612a8d565b5b509050612ab69190612aba565b5090565b5b80821115612ad3576000816000905550600101612abb565b5090565b6000612aea612ae584613824565b6137ff565b905082815260208101848484011115612b0257600080fd5b612b0d848285613a64565b509392505050565b6000612b28612b2384613855565b6137ff565b905082815260208101848484011115612b4057600080fd5b612b4b848285613a64565b509392505050565b600081359050612b62816142da565b92915050565b600081359050612b77816142f1565b92915050565b600081359050612b8c81614308565b92915050565b600081519050612ba181614308565b92915050565b600082601f830112612bb857600080fd5b8135612bc8848260208601612ad7565b91505092915050565b600082601f830112612be257600080fd5b8135612bf2848260208601612b15565b91505092915050565b600081359050612c0a8161431f565b92915050565b600060208284031215612c2257600080fd5b6000612c3084828501612b53565b91505092915050565b60008060408385031215612c4c57600080fd5b6000612c5a85828601612b53565b9250506020612c6b85828601612b53565b9150509250929050565b600080600060608486031215612c8a57600080fd5b6000612c9886828701612b53565b9350506020612ca986828701612b53565b9250506040612cba86828701612bfb565b9150509250925092565b60008060008060808587031215612cda57600080fd5b6000612ce887828801612b53565b9450506020612cf987828801612b53565b9350506040612d0a87828801612bfb565b925050606085013567ffffffffffffffff811115612d2757600080fd5b612d3387828801612ba7565b91505092959194509250565b60008060408385031215612d5257600080fd5b6000612d6085828601612b53565b9250506020612d7185828601612b68565b9150509250929050565b60008060408385031215612d8e57600080fd5b6000612d9c85828601612b53565b9250506020612dad85828601612bfb565b9150509250929050565b600060208284031215612dc957600080fd5b6000612dd784828501612b7d565b91505092915050565b600060208284031215612df257600080fd5b6000612e0084828501612b92565b91505092915050565b600080600060608486031215612e1e57600080fd5b600084013567ffffffffffffffff811115612e3857600080fd5b612e4486828701612bd1565b935050602084013567ffffffffffffffff811115612e6157600080fd5b612e6d86828701612bd1565b9250506040612e7e86828701612bfb565b9150509250925092565b600060208284031215612e9a57600080fd5b6000612ea884828501612bfb565b91505092915050565b60008060408385031215612ec457600080fd5b6000612ed285828601612bfb565b9250506020612ee385828601612bfb565b9150509250929050565b612ef6816139f0565b82525050565b612f05816139de565b82525050565b612f1481613a02565b82525050565b6000612f2582613886565b612f2f818561389c565b9350612f3f818560208601613a73565b612f4881613c3f565b840191505092915050565b6000612f5e82613891565b612f6881856138ad565b9350612f78818560208601613a73565b612f8181613c3f565b840191505092915050565b6000612f9782613891565b612fa181856138be565b9350612fb1818560208601613a73565b80840191505092915050565b6000612fca6024836138ad565b9150612fd582613c50565b604082019050919050565b6000612fed601c836138ad565b9150612ff882613c9f565b602082019050919050565b60006130106032836138ad565b915061301b82613cc8565b604082019050919050565b60006130336026836138ad565b915061303e82613d17565b604082019050919050565b60006130566025836138ad565b915061306182613d66565b604082019050919050565b6000613079601c836138ad565b915061308482613db5565b602082019050919050565b600061309c6024836138ad565b91506130a782613dde565b604082019050919050565b60006130bf6019836138ad565b91506130ca82613e2d565b602082019050919050565b60006130e2602c836138ad565b91506130ed82613e56565b604082019050919050565b6000613105601d836138ad565b915061311082613ea5565b602082019050919050565b6000613128601c836138ad565b915061313382613ece565b602082019050919050565b600061314b6038836138ad565b915061315682613ef7565b604082019050919050565b600061316e602a836138ad565b915061317982613f46565b604082019050919050565b60006131916029836138ad565b915061319c82613f95565b604082019050919050565b60006131b4602e836138ad565b91506131bf82613fe4565b604082019050919050565b60006131d76020836138ad565b91506131e282614033565b602082019050919050565b60006131fa6031836138ad565b91506132058261405c565b604082019050919050565b600061321d602c836138ad565b9150613228826140ab565b604082019050919050565b60006132406020836138ad565b915061324b826140fa565b602082019050919050565b6000613263601c836138ad565b915061326e82614123565b602082019050919050565b6000613286602f836138ad565b91506132918261414c565b604082019050919050565b60006132a96021836138ad565b91506132b48261419b565b604082019050919050565b60006132cc6031836138ad565b91506132d7826141ea565b604082019050919050565b60006132ef601d836138ad565b91506132fa82614239565b602082019050919050565b6000613312601f836138ad565b915061331d82614262565b602082019050919050565b60006133356024836138ad565b91506133408261428b565b604082019050919050565b61335481613a5a565b82525050565b60006133668285612f8c565b91506133728284612f8c565b91508190509392505050565b60006020820190506133936000830184612efc565b92915050565b60006020820190506133ae6000830184612eed565b92915050565b60006080820190506133c96000830187612efc565b6133d66020830186612efc565b6133e3604083018561334b565b81810360608301526133f58184612f1a565b905095945050505050565b60006020820190506134156000830184612f0b565b92915050565b600060208201905081810360008301526134358184612f53565b905092915050565b6000602082019050818103600083015261345681612fbd565b9050919050565b6000602082019050818103600083015261347681612fe0565b9050919050565b6000602082019050818103600083015261349681613003565b9050919050565b600060208201905081810360008301526134b681613026565b9050919050565b600060208201905081810360008301526134d681613049565b9050919050565b600060208201905081810360008301526134f68161306c565b9050919050565b600060208201905081810360008301526135168161308f565b9050919050565b60006020820190508181036000830152613536816130b2565b9050919050565b60006020820190508181036000830152613556816130d5565b9050919050565b60006020820190508181036000830152613576816130f8565b9050919050565b600060208201905081810360008301526135968161311b565b9050919050565b600060208201905081810360008301526135b68161313e565b9050919050565b600060208201905081810360008301526135d681613161565b9050919050565b600060208201905081810360008301526135f681613184565b9050919050565b60006020820190508181036000830152613616816131a7565b9050919050565b60006020820190508181036000830152613636816131ca565b9050919050565b60006020820190508181036000830152613656816131ed565b9050919050565b6000602082019050818103600083015261367681613210565b9050919050565b6000602082019050818103600083015261369681613233565b9050919050565b600060208201905081810360008301526136b681613256565b9050919050565b600060208201905081810360008301526136d681613279565b9050919050565b600060208201905081810360008301526136f68161329c565b9050919050565b60006020820190508181036000830152613716816132bf565b9050919050565b60006020820190508181036000830152613736816132e2565b9050919050565b6000602082019050818103600083015261375681613305565b9050919050565b6000602082019050818103600083015261377681613328565b9050919050565b6000602082019050613792600083018461334b565b92915050565b60006060820190506137ad600083018661334b565b81810360208301526137bf8185612f53565b90506137ce604083018461334b565b949350505050565b60006040820190506137eb600083018561334b565b6137f8602083018461334b565b9392505050565b600061380961381a565b90506138158282613ad8565b919050565b6000604051905090565b600067ffffffffffffffff82111561383f5761383e613c10565b5b61384882613c3f565b9050602081019050919050565b600067ffffffffffffffff8211156138705761386f613c10565b5b61387982613c3f565b9050602081019050919050565b600081519050919050565b600081519050919050565b600082825260208201905092915050565b600082825260208201905092915050565b600081905092915050565b60006138d482613a5a565b91506138df83613a5a565b9250827fffffffffffffffffffffffffffffffffffffffffffffffffffffffffffffffff0382111561391457613913613b83565b5b828201905092915050565b600061392a82613a5a565b915061393583613a5a565b92508261394557613944613bb2565b5b828204905092915050565b600061395b82613a5a565b915061396683613a5a565b9250817fffffffffffffffffffffffffffffffffffffffffffffffffffffffffffffffff048311821515161561399f5761399e613b83565b5b828202905092915050565b60006139b582613a5a565b91506139c083613a5a565b9250828210156139d3576139d2613b83565b5b828203905092915050565b60006139e982613a3a565b9050919050565b60006139fb82613a3a565b9050919050565b60008115159050919050565b60007fffffffff0000000000000000000000000000000000000000000000000000000082169050919050565b600073ffffffffffffffffffffffffffffffffffffffff82169050919050565b6000819050919050565b82818337600083830152505050565b60005b83811015613a91578082015181840152602081019050613a76565b83811115613aa0576000848401525b50505050565b60006002820490506001821680613abe57607f821691505b60208210811415613ad257613ad1613be1565b5b50919050565b613ae182613c3f565b810181811067ffffffffffffffff82111715613b0057613aff613c10565b5b80604052505050565b6000613b1482613a5a565b91507fffffffffffffffffffffffffffffffffffffffffffffffffffffffffffffffff821415613b4757613b46613b83565b5b600182019050919050565b6000613b5d82613a5a565b9150613b6883613a5a565b925082613b7857613b77613bb2565b5b828206905092915050565b7f4e487b7100000000000000000000000000000000000000000000000000000000600052601160045260246000fd5b7f4e487b7100000000000000000000000000000000000000000000000000000000600052601260045260246000fd5b7f4e487b7100000000000000000000000000000000000000000000000000000000600052602260045260246000fd5b7f4e487b7100000000000000000000000000000000000000000000000000000000600052604160045260246000fd5b6000601f19601f8301169050919050565b7f4552433732313a205469636b65742068617320616c7265616479206265656e2060008201527f7573656400000000000000000000000000000000000000000000000000000000602082015250565b7f4552433732313a205469636b65742073616c6520697320636c6f736500000000600082015250565b7f4552433732313a207472616e7366657220746f206e6f6e20455243373231526560008201527f63656976657220696d706c656d656e7465720000000000000000000000000000602082015250565b7f4f776e61626c653a206e6577206f776e657220697320746865207a65726f206160008201527f6464726573730000000000000000000000000000000000000000000000000000602082015250565b7f4552433732313a207472616e736665722066726f6d20696e636f72726563742060008201527f6f776e6572000000000000000000000000000000000000000000000000000000602082015250565b7f4552433732313a20746f6b656e20616c7265616479206d696e74656400000000600082015250565b7f4552433732313a207472616e7366657220746f20746865207a65726f2061646460008201527f7265737300000000000000000000000000000000000000000000000000000000602082015250565b7f4552433732313a20617070726f766520746f2063616c6c657200000000000000600082015250565b7f4552433732313a206f70657261746f7220717565727920666f72206e6f6e657860008201527f697374656e7420746f6b656e0000000000000000000000000000000000000000602082015250565b7f4552433732313a205469636b657420646f6573206e6f74206578697374000000600082015250565b7f4552433732313a20496e73756666696369656e74207061796d656e7400000000600082015250565b7f4552433732313a20617070726f76652063616c6c6572206973206e6f74206f7760008201527f6e6572206e6f7220617070726f76656420666f7220616c6c0000000000000000602082015250565b7f4552433732313a2062616c616e636520717565727920666f7220746865207a6560008201527f726f206164647265737300000000000000000000000000000000000000000000602082015250565b7f4552433732313a206f776e657220717565727920666f72206e6f6e657869737460008201527f656e7420746f6b656e0000000000000000000000000000000000000000000000602082015250565b7f45524337323155524953746f726167653a2055524920736574206f66206e6f6e60008201527f6578697374656e7420746f6b656e000000000000000000000000000000000000602082015250565b7f4552433732313a206d696e7420746f20746865207a65726f2061646472657373600082015250565b7f45524337323155524953746f726167653a2055524920717565727920666f722060008201527f6e6f6e6578697374656e7420746f6b656e000000000000000000000000000000602082015250565b7f4552433732313a20617070726f76656420717565727920666f72206e6f6e657860008201527f697374656e7420746f6b656e0000000000000000000000000000000000000000602082015250565b7f4f776e61626c653a2063616c6c6572206973206e6f7420746865206f776e6572600082015250565b7f4552433732313a204e6f7420746865207469636b6574206f776e657200000000600082015250565b7f4552433732314d657461646174613a2055524920717565727920666f72206e6f60008201527f6e6578697374656e7420746f6b656e0000000000000000000000000000000000602082015250565b7f4552433732313a20617070726f76616c20746f2063757272656e74206f776e6560008201527f7200000000000000000000000000000000000000000000000000000000000000602082015250565b7f4552433732313a207472616e736665722063616c6c6572206973206e6f74206f60008201527f776e6572206e6f7220617070726f766564000000000000000000000000000000602082015250565b7f4552433732313a205469636b657420616c726561647920657869737473000000600082015250565b7f5265656e7472616e637947756172643a207265656e7472616e742063616c6c00600082015250565b7f4552433732313a205469636b65742068617320616c7265616479206265656e2060008201527f736f6c6400000000000000000000000000000000000000000000000000000000602082015250565b6142e3816139de565b81146142ee57600080fd5b50565b6142fa81613a02565b811461430557600080fd5b50565b61431181613a0e565b811461431c57600080fd5b50565b61432881613a5a565b811461433357600080fd5b5056fea26469706673582212205e3bcd6e2b3ca936eabb6da04f45cbb9c4cc8cddc4cdcfdad5b8b974cb4e59f364736f6c63430008040033",
  "linkReferences": {},
  "deployedLinkReferences": {}
}