{
  "_format": "hh-sol-artifact-1",
  "contractName": "LibPart",
  "sourceName": "src/backend/contracts/@rarible/royalties/contracts/LibPart.sol",
  "abi": [
    {
      "inputs": [],
      "name": "TYPE_HASH",
      "outputs": [
        {
          "internalType": "bytes32",
          "name": "",
          "type": "bytes32"
        }
      ],
      "stateMutability": "view",
      "type": "function"
    }
  ],
  "bytecode": "0x60dc610052600b82828239805160001a607314610045577f4e487b7100000000000000000000000000000000000000000000000000000000600052600060045260246000fd5b30600052607381538281f3fe730000000000000000000000000000000000000000301460806040526004361060335760003560e01c806364d4c819146038575b600080fd5b603e6052565b604051604991906083565b60405180910390f35b7f397e04204c1e1a60ee8724b71f8244e10ab5f2e9009854d80f602bda21b59ebb81565b607d81609c565b82525050565b6000602082019050609660008301846076565b92915050565b600081905091905056fea2646970667358221220c7b8e6a16ec29d44cbfb5508a9d98fa918343b8ed9fdeb81fe699ca197ac9ac964736f6c63430008040033",
  "linkReferences": {},
  "deployedLinkReferences": {}
}